{
  "_format": "hh-sol-artifact-1",
  "contractName": "Keys",
  "sourceName": "contracts/data/Keys.sol",
  "abi": [
    {
      "inputs": [],
      "name": "ACCOUNT_DEPOSIT_LIST",
      "outputs": [
        {
          "internalType": "bytes32",
          "name": "",
          "type": "bytes32"
        }
      ],
      "stateMutability": "view",
      "type": "function"
    },
    {
      "inputs": [],
      "name": "ACCOUNT_ORDER_LIST",
      "outputs": [
        {
          "internalType": "bytes32",
          "name": "",
          "type": "bytes32"
        }
      ],
      "stateMutability": "view",
      "type": "function"
    },
    {
      "inputs": [],
      "name": "ACCOUNT_POSITION_LIST",
      "outputs": [
        {
          "internalType": "bytes32",
          "name": "",
          "type": "bytes32"
        }
      ],
      "stateMutability": "view",
      "type": "function"
    },
    {
      "inputs": [],
      "name": "ACCOUNT_WITHDRAWAL_LIST",
      "outputs": [
        {
          "internalType": "bytes32",
          "name": "",
          "type": "bytes32"
        }
      ],
      "stateMutability": "view",
      "type": "function"
    },
    {
      "inputs": [],
      "name": "AFFILIATE_REWARD",
      "outputs": [
        {
          "internalType": "bytes32",
          "name": "",
          "type": "bytes32"
        }
      ],
      "stateMutability": "view",
      "type": "function"
    },
    {
      "inputs": [],
      "name": "BORROWING_EXPONENT_FACTOR",
      "outputs": [
        {
          "internalType": "bytes32",
          "name": "",
          "type": "bytes32"
        }
      ],
      "stateMutability": "view",
      "type": "function"
    },
    {
      "inputs": [],
      "name": "BORROWING_FACTOR",
      "outputs": [
        {
          "internalType": "bytes32",
          "name": "",
          "type": "bytes32"
        }
      ],
      "stateMutability": "view",
      "type": "function"
    },
    {
      "inputs": [],
      "name": "BORROWING_FEE_RECEIVER_FACTOR",
      "outputs": [
        {
          "internalType": "bytes32",
          "name": "",
          "type": "bytes32"
        }
      ],
      "stateMutability": "view",
      "type": "function"
    },
    {
      "inputs": [],
      "name": "CANCEL_DEPOSIT_FEATURE_DISABLED",
      "outputs": [
        {
          "internalType": "bytes32",
          "name": "",
          "type": "bytes32"
        }
      ],
      "stateMutability": "view",
      "type": "function"
    },
    {
      "inputs": [],
      "name": "CANCEL_ORDER_FEATURE_DISABLED",
      "outputs": [
        {
          "internalType": "bytes32",
          "name": "",
          "type": "bytes32"
        }
      ],
      "stateMutability": "view",
      "type": "function"
    },
    {
      "inputs": [],
      "name": "CANCEL_WITHDRAWAL_FEATURE_DISABLED",
      "outputs": [
        {
          "internalType": "bytes32",
          "name": "",
          "type": "bytes32"
        }
      ],
      "stateMutability": "view",
      "type": "function"
    },
    {
      "inputs": [],
      "name": "CLAIMABLE_COLLATERAL_AMOUNT",
      "outputs": [
        {
          "internalType": "bytes32",
          "name": "",
          "type": "bytes32"
        }
      ],
      "stateMutability": "view",
      "type": "function"
    },
    {
      "inputs": [],
      "name": "CLAIMABLE_COLLATERAL_FACTOR",
      "outputs": [
        {
          "internalType": "bytes32",
          "name": "",
          "type": "bytes32"
        }
      ],
      "stateMutability": "view",
      "type": "function"
    },
    {
      "inputs": [],
      "name": "CLAIMABLE_COLLATERAL_TIME_DIVISOR",
      "outputs": [
        {
          "internalType": "bytes32",
          "name": "",
          "type": "bytes32"
        }
      ],
      "stateMutability": "view",
      "type": "function"
    },
    {
      "inputs": [],
      "name": "CLAIMABLE_FEE_AMOUNT",
      "outputs": [
        {
          "internalType": "bytes32",
          "name": "",
          "type": "bytes32"
        }
      ],
      "stateMutability": "view",
      "type": "function"
    },
    {
      "inputs": [],
      "name": "CLAIMABLE_FUNDING_AMOUNT",
      "outputs": [
        {
          "internalType": "bytes32",
          "name": "",
          "type": "bytes32"
        }
      ],
      "stateMutability": "view",
      "type": "function"
    },
    {
      "inputs": [],
      "name": "CLAIMABLE_FUNDING_AMOUNT_PER_SIZE",
      "outputs": [
        {
          "internalType": "bytes32",
          "name": "",
          "type": "bytes32"
        }
      ],
      "stateMutability": "view",
      "type": "function"
    },
    {
      "inputs": [],
      "name": "CLAIMABLE_UI_FEE_AMOUNT",
      "outputs": [
        {
          "internalType": "bytes32",
          "name": "",
          "type": "bytes32"
        }
      ],
      "stateMutability": "view",
      "type": "function"
    },
    {
      "inputs": [],
      "name": "CLAIMED_COLLATERAL_AMOUNT",
      "outputs": [
        {
          "internalType": "bytes32",
          "name": "",
          "type": "bytes32"
        }
      ],
      "stateMutability": "view",
      "type": "function"
    },
    {
      "inputs": [],
      "name": "CLAIM_AFFILIATE_REWARDS_FEATURE_DISABLED",
      "outputs": [
        {
          "internalType": "bytes32",
          "name": "",
          "type": "bytes32"
        }
      ],
      "stateMutability": "view",
      "type": "function"
    },
    {
      "inputs": [],
      "name": "CLAIM_COLLATERAL_FEATURE_DISABLED",
      "outputs": [
        {
          "internalType": "bytes32",
          "name": "",
          "type": "bytes32"
        }
      ],
      "stateMutability": "view",
      "type": "function"
    },
    {
      "inputs": [],
      "name": "CLAIM_FUNDING_FEES_FEATURE_DISABLED",
      "outputs": [
        {
          "internalType": "bytes32",
          "name": "",
          "type": "bytes32"
        }
      ],
      "stateMutability": "view",
      "type": "function"
    },
    {
      "inputs": [],
      "name": "CLAIM_UI_FEES_FEATURE_DISABLED",
      "outputs": [
        {
          "internalType": "bytes32",
          "name": "",
          "type": "bytes32"
        }
      ],
      "stateMutability": "view",
      "type": "function"
    },
    {
      "inputs": [],
      "name": "COLLATERAL_SUM",
      "outputs": [
        {
          "internalType": "bytes32",
          "name": "",
          "type": "bytes32"
        }
      ],
      "stateMutability": "view",
      "type": "function"
    },
    {
      "inputs": [],
      "name": "CREATE_DEPOSIT_FEATURE_DISABLED",
      "outputs": [
        {
          "internalType": "bytes32",
          "name": "",
          "type": "bytes32"
        }
      ],
      "stateMutability": "view",
      "type": "function"
    },
    {
      "inputs": [],
      "name": "CREATE_ORDER_FEATURE_DISABLED",
      "outputs": [
        {
          "internalType": "bytes32",
          "name": "",
          "type": "bytes32"
        }
      ],
      "stateMutability": "view",
      "type": "function"
    },
    {
      "inputs": [],
      "name": "CREATE_WITHDRAWAL_FEATURE_DISABLED",
      "outputs": [
        {
          "internalType": "bytes32",
          "name": "",
          "type": "bytes32"
        }
      ],
      "stateMutability": "view",
      "type": "function"
    },
    {
      "inputs": [],
      "name": "CUMULATIVE_BORROWING_FACTOR",
      "outputs": [
        {
          "internalType": "bytes32",
          "name": "",
          "type": "bytes32"
        }
      ],
      "stateMutability": "view",
      "type": "function"
    },
    {
      "inputs": [],
      "name": "CUMULATIVE_BORROWING_FACTOR_UPDATED_AT",
      "outputs": [
        {
          "internalType": "bytes32",
          "name": "",
          "type": "bytes32"
        }
      ],
      "stateMutability": "view",
      "type": "function"
    },
    {
      "inputs": [],
      "name": "DECREASE_ORDER_GAS_LIMIT",
      "outputs": [
        {
          "internalType": "bytes32",
          "name": "",
          "type": "bytes32"
        }
      ],
      "stateMutability": "view",
      "type": "function"
    },
    {
      "inputs": [],
      "name": "DEPOSIT_FEE_TYPE",
      "outputs": [
        {
          "internalType": "bytes32",
          "name": "",
          "type": "bytes32"
        }
      ],
      "stateMutability": "view",
      "type": "function"
    },
    {
      "inputs": [],
      "name": "DEPOSIT_GAS_LIMIT",
      "outputs": [
        {
          "internalType": "bytes32",
          "name": "",
          "type": "bytes32"
        }
      ],
      "stateMutability": "view",
      "type": "function"
    },
    {
      "inputs": [],
      "name": "DEPOSIT_LIST",
      "outputs": [
        {
          "internalType": "bytes32",
          "name": "",
          "type": "bytes32"
        }
      ],
      "stateMutability": "view",
      "type": "function"
    },
    {
      "inputs": [],
      "name": "ESTIMATED_GAS_FEE_BASE_AMOUNT",
      "outputs": [
        {
          "internalType": "bytes32",
          "name": "",
          "type": "bytes32"
        }
      ],
      "stateMutability": "view",
      "type": "function"
    },
    {
      "inputs": [],
      "name": "ESTIMATED_GAS_FEE_MULTIPLIER_FACTOR",
      "outputs": [
        {
          "internalType": "bytes32",
          "name": "",
          "type": "bytes32"
        }
      ],
      "stateMutability": "view",
      "type": "function"
    },
    {
      "inputs": [],
      "name": "EXECUTE_ADL_FEATURE_DISABLED",
      "outputs": [
        {
          "internalType": "bytes32",
          "name": "",
          "type": "bytes32"
        }
      ],
      "stateMutability": "view",
      "type": "function"
    },
    {
      "inputs": [],
      "name": "EXECUTE_DEPOSIT_FEATURE_DISABLED",
      "outputs": [
        {
          "internalType": "bytes32",
          "name": "",
          "type": "bytes32"
        }
      ],
      "stateMutability": "view",
      "type": "function"
    },
    {
      "inputs": [],
      "name": "EXECUTE_ORDER_FEATURE_DISABLED",
      "outputs": [
        {
          "internalType": "bytes32",
          "name": "",
          "type": "bytes32"
        }
      ],
      "stateMutability": "view",
      "type": "function"
    },
    {
      "inputs": [],
      "name": "EXECUTE_WITHDRAWAL_FEATURE_DISABLED",
      "outputs": [
        {
          "internalType": "bytes32",
          "name": "",
          "type": "bytes32"
        }
      ],
      "stateMutability": "view",
      "type": "function"
    },
    {
      "inputs": [],
      "name": "EXECUTION_GAS_FEE_BASE_AMOUNT",
      "outputs": [
        {
          "internalType": "bytes32",
          "name": "",
          "type": "bytes32"
        }
      ],
      "stateMutability": "view",
      "type": "function"
    },
    {
      "inputs": [],
      "name": "EXECUTION_GAS_FEE_MULTIPLIER_FACTOR",
      "outputs": [
        {
          "internalType": "bytes32",
          "name": "",
          "type": "bytes32"
        }
      ],
      "stateMutability": "view",
      "type": "function"
    },
    {
      "inputs": [],
      "name": "FEE_RECEIVER",
      "outputs": [
        {
          "internalType": "bytes32",
          "name": "",
          "type": "bytes32"
        }
      ],
      "stateMutability": "view",
      "type": "function"
    },
    {
      "inputs": [],
      "name": "FUNDING_EXPONENT_FACTOR",
      "outputs": [
        {
          "internalType": "bytes32",
          "name": "",
          "type": "bytes32"
        }
      ],
      "stateMutability": "view",
      "type": "function"
    },
    {
      "inputs": [],
      "name": "FUNDING_FACTOR",
      "outputs": [
        {
          "internalType": "bytes32",
          "name": "",
          "type": "bytes32"
        }
      ],
      "stateMutability": "view",
      "type": "function"
    },
    {
      "inputs": [],
      "name": "FUNDING_FEE_AMOUNT_PER_SIZE",
      "outputs": [
        {
          "internalType": "bytes32",
          "name": "",
          "type": "bytes32"
        }
      ],
      "stateMutability": "view",
      "type": "function"
    },
    {
      "inputs": [],
      "name": "FUNDING_UPDATED_AT",
      "outputs": [
        {
          "internalType": "bytes32",
          "name": "",
          "type": "bytes32"
        }
      ],
      "stateMutability": "view",
      "type": "function"
    },
    {
      "inputs": [],
      "name": "HOLDING_ADDRESS",
      "outputs": [
        {
          "internalType": "bytes32",
          "name": "",
          "type": "bytes32"
        }
      ],
      "stateMutability": "view",
      "type": "function"
    },
    {
      "inputs": [],
      "name": "INCREASE_ORDER_GAS_LIMIT",
      "outputs": [
        {
          "internalType": "bytes32",
          "name": "",
          "type": "bytes32"
        }
      ],
      "stateMutability": "view",
      "type": "function"
    },
    {
      "inputs": [],
      "name": "IS_ADL_ENABLED",
      "outputs": [
        {
          "internalType": "bytes32",
          "name": "",
          "type": "bytes32"
        }
      ],
      "stateMutability": "view",
      "type": "function"
    },
    {
      "inputs": [],
      "name": "IS_MARKET_DISABLED",
      "outputs": [
        {
          "internalType": "bytes32",
          "name": "",
          "type": "bytes32"
        }
      ],
      "stateMutability": "view",
      "type": "function"
    },
    {
      "inputs": [],
      "name": "LATEST_ADL_BLOCK",
      "outputs": [
        {
          "internalType": "bytes32",
          "name": "",
          "type": "bytes32"
        }
      ],
      "stateMutability": "view",
      "type": "function"
    },
    {
      "inputs": [],
      "name": "MARKET_LIST",
      "outputs": [
        {
          "internalType": "bytes32",
          "name": "",
          "type": "bytes32"
        }
      ],
      "stateMutability": "view",
      "type": "function"
    },
    {
      "inputs": [],
      "name": "MAX_CALLBACK_GAS_LIMIT",
      "outputs": [
        {
          "internalType": "bytes32",
          "name": "",
          "type": "bytes32"
        }
      ],
      "stateMutability": "view",
      "type": "function"
    },
    {
      "inputs": [],
      "name": "MAX_OPEN_INTEREST",
      "outputs": [
        {
          "internalType": "bytes32",
          "name": "",
          "type": "bytes32"
        }
      ],
      "stateMutability": "view",
      "type": "function"
    },
    {
      "inputs": [],
      "name": "MAX_ORACLE_PRICE_AGE",
      "outputs": [
        {
          "internalType": "bytes32",
          "name": "",
          "type": "bytes32"
        }
      ],
      "stateMutability": "view",
      "type": "function"
    },
    {
      "inputs": [],
      "name": "MAX_ORACLE_REF_PRICE_DEVIATION_FACTOR",
      "outputs": [
        {
          "internalType": "bytes32",
          "name": "",
          "type": "bytes32"
        }
      ],
      "stateMutability": "view",
      "type": "function"
    },
    {
      "inputs": [],
      "name": "MAX_PNL_FACTOR",
      "outputs": [
        {
          "internalType": "bytes32",
          "name": "",
          "type": "bytes32"
        }
      ],
      "stateMutability": "view",
      "type": "function"
    },
    {
      "inputs": [],
      "name": "MAX_PNL_FACTOR_FOR_ADL",
      "outputs": [
        {
          "internalType": "bytes32",
          "name": "",
          "type": "bytes32"
        }
      ],
      "stateMutability": "view",
      "type": "function"
    },
    {
      "inputs": [],
      "name": "MAX_PNL_FACTOR_FOR_DEPOSITS",
      "outputs": [
        {
          "internalType": "bytes32",
          "name": "",
          "type": "bytes32"
        }
      ],
      "stateMutability": "view",
      "type": "function"
    },
    {
      "inputs": [],
      "name": "MAX_PNL_FACTOR_FOR_TRADERS",
      "outputs": [
        {
          "internalType": "bytes32",
          "name": "",
          "type": "bytes32"
        }
      ],
      "stateMutability": "view",
      "type": "function"
    },
    {
      "inputs": [],
      "name": "MAX_PNL_FACTOR_FOR_WITHDRAWALS",
      "outputs": [
        {
          "internalType": "bytes32",
          "name": "",
          "type": "bytes32"
        }
      ],
      "stateMutability": "view",
      "type": "function"
    },
    {
      "inputs": [],
      "name": "MAX_POOL_AMOUNT",
      "outputs": [
        {
          "internalType": "bytes32",
          "name": "",
          "type": "bytes32"
        }
      ],
      "stateMutability": "view",
      "type": "function"
    },
    {
      "inputs": [],
      "name": "MAX_POSITION_IMPACT_FACTOR",
      "outputs": [
        {
          "internalType": "bytes32",
          "name": "",
          "type": "bytes32"
        }
      ],
      "stateMutability": "view",
      "type": "function"
    },
    {
      "inputs": [],
      "name": "MAX_POSITION_IMPACT_FACTOR_FOR_LIQUIDATIONS",
      "outputs": [
        {
          "internalType": "bytes32",
          "name": "",
          "type": "bytes32"
        }
      ],
      "stateMutability": "view",
      "type": "function"
    },
    {
      "inputs": [],
      "name": "MAX_SWAP_PATH_LENGTH",
      "outputs": [
        {
          "internalType": "bytes32",
          "name": "",
          "type": "bytes32"
        }
      ],
      "stateMutability": "view",
      "type": "function"
    },
    {
      "inputs": [],
      "name": "MAX_UI_FEE_FACTOR",
      "outputs": [
        {
          "internalType": "bytes32",
          "name": "",
          "type": "bytes32"
        }
      ],
      "stateMutability": "view",
      "type": "function"
    },
    {
      "inputs": [],
      "name": "MIN_COLLATERAL_FACTOR",
      "outputs": [
        {
          "internalType": "bytes32",
          "name": "",
          "type": "bytes32"
        }
      ],
      "stateMutability": "view",
      "type": "function"
    },
    {
      "inputs": [],
      "name": "MIN_COLLATERAL_FACTOR_FOR_OPEN_INTEREST_MULTIPLIER",
      "outputs": [
        {
          "internalType": "bytes32",
          "name": "",
          "type": "bytes32"
        }
      ],
      "stateMutability": "view",
      "type": "function"
    },
    {
      "inputs": [],
      "name": "MIN_COLLATERAL_USD",
      "outputs": [
        {
          "internalType": "bytes32",
          "name": "",
          "type": "bytes32"
        }
      ],
      "stateMutability": "view",
      "type": "function"
    },
    {
      "inputs": [],
      "name": "MIN_HANDLE_EXECUTION_ERROR_GAS",
      "outputs": [
        {
          "internalType": "bytes32",
          "name": "",
          "type": "bytes32"
        }
      ],
      "stateMutability": "view",
      "type": "function"
    },
    {
      "inputs": [],
      "name": "MIN_ORACLE_BLOCK_CONFIRMATIONS",
      "outputs": [
        {
          "internalType": "bytes32",
          "name": "",
          "type": "bytes32"
        }
      ],
      "stateMutability": "view",
      "type": "function"
    },
    {
      "inputs": [],
      "name": "MIN_ORACLE_SIGNERS",
      "outputs": [
        {
          "internalType": "bytes32",
          "name": "",
          "type": "bytes32"
        }
      ],
      "stateMutability": "view",
      "type": "function"
    },
    {
      "inputs": [],
      "name": "MIN_PNL_FACTOR_AFTER_ADL",
      "outputs": [
        {
          "internalType": "bytes32",
          "name": "",
          "type": "bytes32"
        }
      ],
      "stateMutability": "view",
      "type": "function"
    },
    {
      "inputs": [],
      "name": "MIN_POSITION_SIZE_USD",
      "outputs": [
        {
          "internalType": "bytes32",
          "name": "",
          "type": "bytes32"
        }
      ],
      "stateMutability": "view",
      "type": "function"
    },
    {
      "inputs": [],
      "name": "NATIVE_TOKEN_TRANSFER_GAS_LIMIT",
      "outputs": [
        {
          "internalType": "bytes32",
          "name": "",
          "type": "bytes32"
        }
      ],
      "stateMutability": "view",
      "type": "function"
    },
    {
      "inputs": [],
      "name": "NONCE",
      "outputs": [
        {
          "internalType": "bytes32",
          "name": "",
          "type": "bytes32"
        }
      ],
      "stateMutability": "view",
      "type": "function"
    },
    {
      "inputs": [],
      "name": "OPEN_INTEREST",
      "outputs": [
        {
          "internalType": "bytes32",
          "name": "",
          "type": "bytes32"
        }
      ],
      "stateMutability": "view",
      "type": "function"
    },
    {
      "inputs": [],
      "name": "OPEN_INTEREST_IN_TOKENS",
      "outputs": [
        {
          "internalType": "bytes32",
          "name": "",
          "type": "bytes32"
        }
      ],
      "stateMutability": "view",
      "type": "function"
    },
    {
      "inputs": [],
      "name": "OPEN_INTEREST_RESERVE_FACTOR",
      "outputs": [
        {
          "internalType": "bytes32",
          "name": "",
          "type": "bytes32"
        }
      ],
      "stateMutability": "view",
      "type": "function"
    },
    {
      "inputs": [],
      "name": "ORACLE_TYPE",
      "outputs": [
        {
          "internalType": "bytes32",
          "name": "",
          "type": "bytes32"
        }
      ],
      "stateMutability": "view",
      "type": "function"
    },
    {
      "inputs": [],
      "name": "ORDER_LIST",
      "outputs": [
        {
          "internalType": "bytes32",
          "name": "",
          "type": "bytes32"
        }
      ],
      "stateMutability": "view",
      "type": "function"
    },
    {
      "inputs": [],
      "name": "POOL_AMOUNT",
      "outputs": [
        {
          "internalType": "bytes32",
          "name": "",
          "type": "bytes32"
        }
      ],
      "stateMutability": "view",
      "type": "function"
    },
    {
      "inputs": [],
      "name": "POSITION_FEE_FACTOR",
      "outputs": [
        {
          "internalType": "bytes32",
          "name": "",
          "type": "bytes32"
        }
      ],
      "stateMutability": "view",
      "type": "function"
    },
    {
      "inputs": [],
      "name": "POSITION_FEE_RECEIVER_FACTOR",
      "outputs": [
        {
          "internalType": "bytes32",
          "name": "",
          "type": "bytes32"
        }
      ],
      "stateMutability": "view",
      "type": "function"
    },
    {
      "inputs": [],
      "name": "POSITION_FEE_TYPE",
      "outputs": [
        {
          "internalType": "bytes32",
          "name": "",
          "type": "bytes32"
        }
      ],
      "stateMutability": "view",
      "type": "function"
    },
    {
      "inputs": [],
      "name": "POSITION_IMPACT_EXPONENT_FACTOR",
      "outputs": [
        {
          "internalType": "bytes32",
          "name": "",
          "type": "bytes32"
        }
      ],
      "stateMutability": "view",
      "type": "function"
    },
    {
      "inputs": [],
      "name": "POSITION_IMPACT_FACTOR",
      "outputs": [
        {
          "internalType": "bytes32",
          "name": "",
          "type": "bytes32"
        }
      ],
      "stateMutability": "view",
      "type": "function"
    },
    {
      "inputs": [],
      "name": "POSITION_IMPACT_POOL_AMOUNT",
      "outputs": [
        {
          "internalType": "bytes32",
          "name": "",
          "type": "bytes32"
        }
      ],
      "stateMutability": "view",
      "type": "function"
    },
    {
      "inputs": [],
      "name": "POSITION_LIST",
      "outputs": [
        {
          "internalType": "bytes32",
          "name": "",
          "type": "bytes32"
        }
      ],
      "stateMutability": "view",
      "type": "function"
    },
    {
      "inputs": [],
      "name": "PRICE_FEED",
      "outputs": [
        {
          "internalType": "bytes32",
          "name": "",
          "type": "bytes32"
        }
      ],
      "stateMutability": "view",
      "type": "function"
    },
    {
      "inputs": [],
      "name": "PRICE_FEED_HEARTBEAT_DURATION",
      "outputs": [
        {
          "internalType": "bytes32",
          "name": "",
          "type": "bytes32"
        }
      ],
      "stateMutability": "view",
      "type": "function"
    },
    {
      "inputs": [],
      "name": "PRICE_FEED_MULTIPLIER",
      "outputs": [
        {
          "internalType": "bytes32",
          "name": "",
          "type": "bytes32"
        }
      ],
      "stateMutability": "view",
      "type": "function"
    },
    {
      "inputs": [],
      "name": "REALTIME_FEED_ID",
      "outputs": [
        {
          "internalType": "bytes32",
          "name": "",
          "type": "bytes32"
        }
      ],
      "stateMutability": "view",
      "type": "function"
    },
    {
      "inputs": [],
      "name": "REENTRANCY_GUARD_STATUS",
      "outputs": [
        {
          "internalType": "bytes32",
          "name": "",
          "type": "bytes32"
        }
      ],
      "stateMutability": "view",
      "type": "function"
    },
    {
      "inputs": [],
      "name": "REQUEST_EXPIRATION_BLOCK_AGE",
      "outputs": [
        {
          "internalType": "bytes32",
          "name": "",
          "type": "bytes32"
        }
      ],
      "stateMutability": "view",
      "type": "function"
    },
    {
      "inputs": [],
      "name": "RESERVE_FACTOR",
      "outputs": [
        {
          "internalType": "bytes32",
          "name": "",
          "type": "bytes32"
        }
      ],
      "stateMutability": "view",
      "type": "function"
    },
    {
      "inputs": [],
      "name": "SAVED_CALLBACK_CONTRACT",
      "outputs": [
        {
          "internalType": "bytes32",
          "name": "",
          "type": "bytes32"
        }
      ],
      "stateMutability": "view",
      "type": "function"
    },
    {
      "inputs": [],
      "name": "SINGLE_SWAP_GAS_LIMIT",
      "outputs": [
        {
          "internalType": "bytes32",
          "name": "",
          "type": "bytes32"
        }
      ],
      "stateMutability": "view",
      "type": "function"
    },
    {
      "inputs": [],
      "name": "SKIP_BORROWING_FEE_FOR_SMALLER_SIDE",
      "outputs": [
        {
          "internalType": "bytes32",
          "name": "",
          "type": "bytes32"
        }
      ],
      "stateMutability": "view",
      "type": "function"
    },
    {
      "inputs": [],
      "name": "STABLE_FUNDING_FACTOR",
      "outputs": [
        {
          "internalType": "bytes32",
          "name": "",
          "type": "bytes32"
        }
      ],
      "stateMutability": "view",
      "type": "function"
    },
    {
      "inputs": [],
      "name": "STABLE_PRICE",
      "outputs": [
        {
          "internalType": "bytes32",
          "name": "",
          "type": "bytes32"
        }
      ],
      "stateMutability": "view",
      "type": "function"
    },
    {
      "inputs": [],
      "name": "SWAP_FEE_FACTOR",
      "outputs": [
        {
          "internalType": "bytes32",
          "name": "",
          "type": "bytes32"
        }
      ],
      "stateMutability": "view",
      "type": "function"
    },
    {
      "inputs": [],
      "name": "SWAP_FEE_RECEIVER_FACTOR",
      "outputs": [
        {
          "internalType": "bytes32",
          "name": "",
          "type": "bytes32"
        }
      ],
      "stateMutability": "view",
      "type": "function"
    },
    {
      "inputs": [],
      "name": "SWAP_FEE_TYPE",
      "outputs": [
        {
          "internalType": "bytes32",
          "name": "",
          "type": "bytes32"
        }
      ],
      "stateMutability": "view",
      "type": "function"
    },
    {
      "inputs": [],
      "name": "SWAP_IMPACT_EXPONENT_FACTOR",
      "outputs": [
        {
          "internalType": "bytes32",
          "name": "",
          "type": "bytes32"
        }
      ],
      "stateMutability": "view",
      "type": "function"
    },
    {
      "inputs": [],
      "name": "SWAP_IMPACT_FACTOR",
      "outputs": [
        {
          "internalType": "bytes32",
          "name": "",
          "type": "bytes32"
        }
      ],
      "stateMutability": "view",
      "type": "function"
    },
    {
      "inputs": [],
      "name": "SWAP_IMPACT_POOL_AMOUNT",
      "outputs": [
        {
          "internalType": "bytes32",
          "name": "",
          "type": "bytes32"
        }
      ],
      "stateMutability": "view",
      "type": "function"
    },
    {
      "inputs": [],
      "name": "SWAP_ORDER_GAS_LIMIT",
      "outputs": [
        {
          "internalType": "bytes32",
          "name": "",
          "type": "bytes32"
        }
      ],
      "stateMutability": "view",
      "type": "function"
    },
    {
      "inputs": [],
      "name": "SWAP_PATH_MARKET_FLAG",
      "outputs": [
        {
          "internalType": "bytes32",
          "name": "",
          "type": "bytes32"
        }
      ],
      "stateMutability": "view",
      "type": "function"
    },
    {
      "inputs": [],
      "name": "TOKEN_TRANSFER_GAS_LIMIT",
      "outputs": [
        {
          "internalType": "bytes32",
          "name": "",
          "type": "bytes32"
        }
      ],
      "stateMutability": "view",
      "type": "function"
    },
    {
      "inputs": [],
      "name": "TOTAL_BORROWING",
      "outputs": [
        {
          "internalType": "bytes32",
          "name": "",
          "type": "bytes32"
        }
      ],
      "stateMutability": "view",
      "type": "function"
    },
    {
      "inputs": [],
      "name": "UI_DEPOSIT_FEE_TYPE",
      "outputs": [
        {
          "internalType": "bytes32",
          "name": "",
          "type": "bytes32"
        }
      ],
      "stateMutability": "view",
      "type": "function"
    },
    {
      "inputs": [],
      "name": "UI_FEE_FACTOR",
      "outputs": [
        {
          "internalType": "bytes32",
          "name": "",
          "type": "bytes32"
        }
      ],
      "stateMutability": "view",
      "type": "function"
    },
    {
      "inputs": [],
      "name": "UI_POSITION_FEE_TYPE",
      "outputs": [
        {
          "internalType": "bytes32",
          "name": "",
          "type": "bytes32"
        }
      ],
      "stateMutability": "view",
      "type": "function"
    },
    {
      "inputs": [],
      "name": "UI_SWAP_FEE_TYPE",
      "outputs": [
        {
          "internalType": "bytes32",
          "name": "",
          "type": "bytes32"
        }
      ],
      "stateMutability": "view",
      "type": "function"
    },
    {
      "inputs": [],
      "name": "UI_WITHDRAWAL_FEE_TYPE",
      "outputs": [
        {
          "internalType": "bytes32",
          "name": "",
          "type": "bytes32"
        }
      ],
      "stateMutability": "view",
      "type": "function"
    },
    {
      "inputs": [],
      "name": "UPDATE_ORDER_FEATURE_DISABLED",
      "outputs": [
        {
          "internalType": "bytes32",
          "name": "",
          "type": "bytes32"
        }
      ],
      "stateMutability": "view",
      "type": "function"
    },
    {
      "inputs": [],
      "name": "USER_INITIATED_CANCEL",
      "outputs": [
        {
          "internalType": "string",
          "name": "",
          "type": "string"
        }
      ],
      "stateMutability": "view",
      "type": "function"
    },
    {
      "inputs": [],
      "name": "VIRTUAL_INVENTORY_FOR_POSITIONS",
      "outputs": [
        {
          "internalType": "bytes32",
          "name": "",
          "type": "bytes32"
        }
      ],
      "stateMutability": "view",
      "type": "function"
    },
    {
      "inputs": [],
      "name": "VIRTUAL_INVENTORY_FOR_SWAPS",
      "outputs": [
        {
          "internalType": "bytes32",
          "name": "",
          "type": "bytes32"
        }
      ],
      "stateMutability": "view",
      "type": "function"
    },
    {
      "inputs": [],
      "name": "VIRTUAL_MARKET_ID",
      "outputs": [
        {
          "internalType": "bytes32",
          "name": "",
          "type": "bytes32"
        }
      ],
      "stateMutability": "view",
      "type": "function"
    },
    {
      "inputs": [],
      "name": "VIRTUAL_TOKEN_ID",
      "outputs": [
        {
          "internalType": "bytes32",
          "name": "",
          "type": "bytes32"
        }
      ],
      "stateMutability": "view",
      "type": "function"
    },
    {
      "inputs": [],
      "name": "WITHDRAWAL_FEE_TYPE",
      "outputs": [
        {
          "internalType": "bytes32",
          "name": "",
          "type": "bytes32"
        }
      ],
      "stateMutability": "view",
      "type": "function"
    },
    {
      "inputs": [],
      "name": "WITHDRAWAL_GAS_LIMIT",
      "outputs": [
        {
          "internalType": "bytes32",
          "name": "",
          "type": "bytes32"
        }
      ],
      "stateMutability": "view",
      "type": "function"
    },
    {
      "inputs": [],
      "name": "WITHDRAWAL_LIST",
      "outputs": [
        {
          "internalType": "bytes32",
          "name": "",
          "type": "bytes32"
        }
      ],
      "stateMutability": "view",
      "type": "function"
    },
    {
      "inputs": [],
      "name": "WNT",
      "outputs": [
        {
          "internalType": "bytes32",
          "name": "",
          "type": "bytes32"
        }
      ],
      "stateMutability": "view",
      "type": "function"
    }
  ],
  "bytecode": "0x6127a461003a600b82828239805160001a60731461002d57634e487b7160e01b600052600060045260246000fd5b30600052607381538281f3fe73000000000000000000000000000000000000000030146080604052600436106105c45760003560e01c8063931a4d81116102fe578063c197eb9e116101a4578063c197eb9e146108cc578063c1b838041461090d578063c5a9762714610915578063c6c1caa71461091d578063c701f95514610925578063c7d1239f1461092d578063c8a00a7614610935578063cbddd4441461093d578063ceac2a6914610945578063d1e049161461094d578063d27295be14610955578063d3e78e4d1461095d578063d9f5a94114610965578063dd723e591461096d578063df64991514610975578063e091dd1a1461097d578063e099e32c14610985578063e2a542601461098d578063e4372fe714610995578063e69fb68d1461099d578063e73ddaa1146109a5578063ea32605b146109ad578063ec6501bd146109b5578063ee951a1b146109bd578063ef5235fd146109c5578063effefd47146109cd578063f01cce52146109d5578063f0d43690146109dd578063f3a11da7146109e5578063f765f5d6146109ed578063fabc5d0b146109f5578063ff771693146109fd57600080fd5b8063931a4d81146107d45780639381fa1c146107dc57806394000700146107e457806396b365eb146107ec5780639904ec9c146107f45780639ab11e79146107fc5780639b435227146108045780639bfe0ccf1461080c5780639c789d9114610814578063a204def81461081c578063a383a74214610824578063a61ccdb81461082c578063a9d2743014610834578063ab1ce44c1461083c578063ab1df48114610844578063abf63d611461084c578063ae5b84e414610854578063ae9c63dd1461085c578063b070009c14610864578063b0c2fd141461086c578063b359926c14610874578063b417687b1461087c578063b641427814610884578063b7cc97971461088c578063b8b4a54314610894578063b8f50c8d1461089c578063bae6b633146108a4578063bc55a082146108ac578063bdb41ff8146108b4578063beda3db3146108bc578063c02941c1146108c457600080fd5b8063488859041161046e57806348885904146106d457806349ff0c7b146106dc5780634b0018b4146106e45780634fc0e460146106ec5780635484cc17146106f457806355179790146106fc578063557cd9171461070457806358f2feab1461070c5780635ac21174146107145780635c6f66f11461071c5780635c899df3146107245780636778d4751461072c57806367eeaf1d1461073457806369fb117d1461073c5780636ab24733146107445780636afc94eb1461074c5780636ba90bde146107545780636c5bf2f31461075c5780636d350cdc146107645780636f0b3d551461076c578063734fc4951461077457806375f285ff1461077c578063769b8953146107845780637bf43e471461078c5780637bf804f0146107945780637fcf21561461079c5780638a1bbc5d146107a45780638b791989146107ac5780638c4a44ea146107b45780638f9dcf21146107bc5780639030cce8146107c457806391f9696c146107cc57600080fd5b80630299405a146105c9578063041429b8146105e4578063056a4c59146105ec578063100bb916146105f45780631483449e146105fc5780631697642314610604578063170b8bdf1461060c57806317adb28b146106145780631bc3bb1b1461061c5780631e5f4ebe1461062457806322f3f8a71461062c57806323a25f0d1461063457806324f481b91461063c57806324ff1cb8146106445780632c5426f31461064c5780632c66335a146106545780632cd126051461065c5780632d9de994146106645780632dfa8e801461066c5780632f58348114610674578063315def401461067c57806331eb318a1461068457806333b2249b1461068c578063365e398a146106945780633817cfe81461069c57806339c33215146106a45780633b678050146106ac5780633e6e1305146106b4578063404742bf146106bc5780634180ea99146106c4578063469eae37146106cc575b600080fd5b6105d1610a05565b6040519081526020015b60405180910390f35b6105d1610a5f565b6105d1610a98565b6105d1610ae5565b6105d1610b26565b6105d1610b73565b6105d1610bb2565b6105d1610bea565b6105d1610c37565b6105d1610c6d565b6105d1610cac565b6105d1610ce4565b6105d1610d31565b6105d1610d63565b6105d1610d9e565b6105d1610dcd565b6105d1610e03565b6105d1610e37565b6105d1610e68565b6105d1610ea8565b6105d1610ee9565b6105d1610f22565b6105d1610f50565b6105d1610f87565b6105d1610fb5565b6105d1610ff6565b6105d1611030565b6105d1611064565b6105d16110af565b6105d16110f0565b6105d161113b565b6105d161116d565b6105d16111a0565b6105d16111e1565b6105d161121a565b6105d161124c565b6105d1611283565b6105d16112b7565b6105d16112f0565b6105d1611325565b6105d161137a565b6105d16113ae565b6105d16113ef565b6105d1611429565b6105d1611462565b6105d161149d565b6105d16114dc565b6105d1611516565b6105d1611557565b6105d1611595565b6105d16115d0565b6105d1611611565b6105d1611644565b6105d1611680565b6105d16116b1565b6105d16116d8565b6105d161170b565b6105d161173b565b6105d161178d565b6105d16117c2565b6105d16117fe565b6105d161183d565b6105d1611878565b6105d16118b5565b6105d16118ed565b6105d1611928565b6105d1611973565b6105d16119a7565b6105d16119e3565b6105d1611a1f565b6105d1611a60565b6105d1611a9b565b6105d1611acf565b6105d1611b05565b6105d1611b41565b6105d1611b80565b6105d1611bc0565b6105d1611c01565b6105d1611c3f565b6105d1611c80565b6105d1611cbb565b6105d1611d0a565b6105d1611d43565b6105d1611d7a565b6105d1611daf565b6105d1611def565b6105d1611e2c565b6105d1611e65565b6105d1611e96565b6105d1611ed5565b6105d1611f08565b6105d1611f40565b6105d1611f81565b6105d1611fb0565b610900604051806040016040528060158152602001741554d15497d2539255125055115117d0d05390d153605a1b81525081565b6040516105db9190612720565b6105d1612000565b6105d1612032565b6105d161206a565b6105d16120a2565b6105d16120da565b6105d1612110565b6105d161215c565b6105d1612196565b6105d16121d7565b6105d1612217565b6105d1612253565b6105d1612283565b6105d16122c4565b6105d16122f9565b6105d161232f565b6105d1612358565b6105d1612397565b6105d16123d6565b6105d1612423565b6105d1612457565b6105d1612488565b6105d16124ba565b6105d16124ed565b6105d161251c565b6105d1612568565b6105d16125a9565b6105d16125e8565b6105d161261d565b6105d161265e565b6105d16126ba565b6105d16126ea565b604051602001610a46906020808252601e908201527f4d494e5f4f5241434c455f424c4f434b5f434f4e4649524d4154494f4e530000604082015260600190565b6040516020818303038152906040528051906020012081565b604051602001610a46906020808252601590820152741050d0d3d5539517d413d4d2551253d397d31254d5605a1b604082015260600190565b604051602001610a469060208082526023908201527f455354494d415445445f4741535f4645455f4d554c5449504c4945525f4641436040820152622a27a960e91b606082015260800190565b604051602001610a46906020808252601d908201527f43414e43454c5f4f524445525f464541545552455f44495341424c4544000000604082015260600190565b604051602001610a469060208082526023908201527f455845435554494f4e5f4741535f4645455f4d554c5449504c4945525f4641436040820152622a27a960e91b606082015260800190565b604051602001610a46906020808252601b908201527a5649525455414c5f494e56454e544f52595f464f525f535741505360281b604082015260600190565b604051602001610a46906020808252601490820152734d41585f4f5241434c455f50524943455f41474560601b604082015260600190565b604051602001610a469060208082526023908201527f434c41494d5f46554e44494e475f464545535f464541545552455f444953414260408201526213115160ea1b606082015260800190565b604051602001610a469060208082526012908201527111955391125391d7d554111055115117d05560721b604082015260600190565b604051602001610a46906020808252601b908201527a29aba0a82fa4a6a820a1aa2fa2ac2827a722a72a2fa320a1aa27a960291b604082015260600190565b604051602001610a46906020808252601490820152731050d0d3d5539517d1115413d4d25517d31254d560621b604082015260600190565b604051602001610a469060208082526023908201527f534b49505f424f52524f57494e475f4645455f464f525f534d414c4c45525f5360408201526249444560e81b606082015260800190565b604051602001610a46906020808252600e908201526d26a0ac2fa827262fa320a1aa27a960911b604082015260600190565b604051602001610a4690602080825260179082015276232aa72224a723afa2ac2827a722a72a2fa320a1aa27a960491b604082015260600190565b604051602001610a46906020808252600b908201526a4f5241434c455f5459504560a81b604082015260600190565b604051602001610a469060208082526012908201527113525397d0d3d31310551154905317d554d160721b604082015260600190565b604051602001610a469060208082526010908201526f10519192531250551157d49155d0549160821b604082015260600190565b604051602001610a46906020808252600d908201526c2aa4afa322a2afa320a1aa27a960991b604082015260600190565b604051602001610a46906020808252601c908201527b2827a9a4aa24a7a72fa322a2afa922a1a2a4ab22a92fa320a1aa27a960211b604082015260600190565b604051602001610a46906020808252601d908201527f50524943455f464545445f4845415254424541545f4455524154494f4e000000604082015260600190565b604051602001610a469060208082526015908201527426a4a72fa1a7a62620aa22a920a62fa320a1aa27a960591b604082015260600190565b604051602001610a46906020808252600a908201526914149250d157d191515160b21b604082015260600190565b604051602001610a46906020808252601390820152722827a9a4aa24a7a72fa322a2afa320a1aa27a960691b604082015260600190565b604051602001610a46906020808252600a908201526913d491115497d31254d560b21b604082015260600190565b604051602001610a46906020808252601e908201527f455845435554455f4f524445525f464541545552455f44495341424c45440000604082015260600190565b604051602001610a469060208082526016908201527513505617d0d05313109050d2d7d1d054d7d31253525560521b604082015260600190565b604051602001610a469060208082526010908201526f4c41544553545f41444c5f424c4f434b60801b604082015260600190565b604051602001610a469060208082526021908201527f434c41494d5f434f4c4c41544552414c5f464541545552455f44495341424c456040820152601160fa1b606082015260800190565b604051602001610a46906020808252601f908201527f43414e43454c5f4445504f5349545f464541545552455f44495341424c454400604082015260600190565b604051602001610a469060208082526021908201527f434c41494d41424c455f434f4c4c41544552414c5f54494d455f44495649534f6040820152602960f91b606082015260800190565b604051602001610a46906020808252600e908201526d232aa72224a723afa320a1aa27a960911b604082015260600190565b604051602001610a46906020808252600f908201526e544f54414c5f424f52524f57494e4760881b604082015260600190565b604051602001610a46906020808252601d908201527f455354494d415445445f4741535f4645455f424153455f414d4f554e54000000604082015260600190565b604051602001610a469060208082526015908201527414d25391d31157d4d5d05417d1d054d7d312535255605a1b604082015260600190565b604051602001610a46906020808252600e908201526d1254d7d0511317d153905093115160921b604082015260600190565b604051602001610a46906020808252601390820152725749544844524157414c5f4645455f5459504560681b604082015260600190565b604051602001610a469060208082526010908201526f2127a92927aba4a723afa320a1aa27a960811b604082015260600190565b604051602001610a469060208082526015908201527429aa20a12622afa32aa72224a723afa320a1aa27a960591b604082015260600190565b604051602001610a46906020808252601190820152701592549515505317d3505492d15517d251607a1b604082015260600190565b604051602001610a46906020808252602b908201527f4d41585f504f534954494f4e5f494d504143545f464143544f525f464f525f4c60408201526a49515549444154494f4e5360a81b606082015260800190565b604051602001610a469060208082526010908201526f4445504f5349545f4645455f5459504560801b604082015260600190565b604051602001610a46906020808252601d908201527f5550444154455f4f524445525f464541545552455f44495341424c4544000000604082015260600190565b604051602001610a469060208082526016908201527513505617d4139317d19050d513d497d193d497d0511360521b604082015260600190565b604051602001610a4690602080825260159082015274282924a1a2afa322a2a22fa6aaa62a24a82624a2a960591b604082015260600190565b604051602001610a469060208082526017908201527610d31052535050931157d55257d1915157d05353d55395604a1b604082015260600190565b604051602001610a46906020808252601b908201527a21a620a4a6a0a12622afa1a7a62620aa22a920a62fa320a1aa27a960291b604082015260600190565b604051602001610a46906020808252601690820152752827a9a4aa24a7a72fa4a6a820a1aa2fa320a1aa27a960511b604082015260600190565b604051602001610a46906020808252601e908201527f4d494e5f48414e444c455f455845435554494f4e5f4552524f525f4741530000604082015260600190565b604051602001610a46906020808252601a90820152794d41585f504e4c5f464143544f525f464f525f5452414445525360301b604082015260600190565b604051602001610a46906020808252601790820152764f50454e5f494e5445524553545f494e5f544f4b454e5360481b604082015260600190565b604051602001610a46906020808252601e908201527f434c41494d5f55495f464545535f464541545552455f44495341424c45440000604082015260600190565b604051602001610a46906020808252600f908201526e29aba0a82fa322a2afa320a1aa27a960891b604082015260600190565b604051602001610a4690602080825260189082015277125390d4915054d157d3d491115497d1d054d7d31253525560421b604082015260600190565b604051602001610a46906020808252600d908201526c13d4115397d2539511549154d5609a1b604082015260600190565b604051602001610a469060208082526003908201526215d39560ea1b604082015260600190565b604051602001610a46906020808252600f908201526e13505617d413d3d317d05353d55395608a1b604082015260600190565b604051602001610a46906020808252600c908201526b535441424c455f505249434560a01b604082015260600190565b604051602001610a469060208082526028908201527f434c41494d5f414646494c494154455f524557415244535f464541545552455f604082015267111254d05093115160c21b606082015260800190565b604051602001610a469060208082526011908201527026a0ac2faaa4afa322a2afa320a1aa27a960791b604082015260600190565b604051602001610a469060208082526018908201527710d31052535050931157d1955391125391d7d05353d5539560421b604082015260600190565b604051602001610a46906020808252601b908201527a4d41585f504e4c5f464143544f525f464f525f4445504f5349545360281b604082015260600190565b604051602001610a46906020808252601790820152761050d0d3d5539517d5d2551211149055d05317d31254d5604a1b604082015260600190565b604051602001610a469060208082526019908201527810d3105253515117d0d3d31310551154905317d05353d55395603a1b604082015260600190565b604051602001610a469060208082526014908201527309a82b0bea6ae82a0bea082a890be988a9c8ea8960631b604082015260600190565b604051602001610a469060208082526017908201527614d5d05417d253541050d517d413d3d317d05353d55395604a1b604082015260600190565b604051602001610a469060208082526021908201527f434c41494d41424c455f46554e44494e475f414d4f554e545f5045525f53495a6040820152604560f81b606082015260800190565b604051602001610a469060208082526010908201526f1592549515505317d513d2d15397d25160821b604082015260600190565b604051602001610a46906020808252601890820152771513d2d15397d514905394d1915497d1d054d7d31253525560421b604082015260600190565b604051602001610a469060208082526018908201527729aba0a82fa322a2afa922a1a2a4ab22a92fa320a1aa27a960411b604082015260600190565b604051602001610a46906020808252601e908201527f4d41585f504e4c5f464143544f525f464f525f5749544844524157414c530000604082015260600190565b604051602001610a46906020808252601790820152765245454e5452414e43595f47554152445f53544154555360481b604082015260600190565b604051602001610a469060208082526010908201526f55495f535741505f4645455f5459504560801b604082015260600190565b604051602001610a469060208082526012908201527129aba0a82fa4a6a820a1aa2fa320a1aa27a960711b604082015260600190565b604051602001610a4690602080825260189082015277111150d4915054d157d3d491115497d1d054d7d31253525560421b604082015260600190565b604051602001610a46906020808252601b908201527a10d31052535050931157d0d3d31310551154905317d05353d55395602a1b604082015260600190565b604051602001610a46906020808252601c908201527b524551554553545f45585049524154494f4e5f424c4f434b5f41474560201b604082015260600190565b604051602001610a46906020808252601d908201527f4352454154455f4f524445525f464541545552455f44495341424c4544000000604082015260600190565b604051602001610a46906020808252601a908201527926a0ac2fa827a9a4aa24a7a72fa4a6a820a1aa2fa320a1aa27a960311b604082015260600190565b604051602001610a46906020808252601f908201527f5649525455414c5f494e56454e544f52595f464f525f504f534954494f4e5300604082015260600190565b604051602001610a469060208082526017908201527614d055915117d0d05313109050d2d7d0d3d395149050d5604a1b604082015260600190565b604051602001610a469060208082526025908201527f4d41585f4f5241434c455f5245465f50524943455f444556494154494f4e5f4660408201526420a1aa27a960d91b606082015260800190565b604051602001610a469060208082526015908201527413525397d413d4d2551253d397d4d2569157d554d1605a1b604082015260600190565b604051602001610a469060208082526013908201527255495f4445504f5349545f4645455f5459504560681b604082015260600190565b604051602001610a469060208082526011908201527011115413d4d25517d1d054d7d312535255607a1b604082015260600190565b604051602001610a46906020808252601c908201527b27a822a72fa4a72a22a922a9aa2fa922a9a2a92b22afa320a1aa27a960211b604082015260600190565b604051602001610a46906020808252601990820152782127a92927aba4a723afa2ac2827a722a72a2fa320a1aa27a960391b604082015260600190565b604051602001610a4690602080825260159082015274535741505f504154485f4d41524b45545f464c414760581b604082015260600190565b604051602001610a46906020808252600d908201526c1413d4d2551253d397d31254d5609a1b604082015260600190565b604051602001610a46906020808252601b908201527a21aaa6aaa620aa24ab22afa127a92927aba4a723afa320a1aa27a960291b604082015260600190565b604051602001610a46906020808252600f908201526e15d2551211149055d05317d31254d5608a1b604082015260600190565b604051602001610a469060208082526014908201527355495f504f534954494f4e5f4645455f5459504560601b604082015260600190565b604051602001610a46906020808252601d908201527f455845435554494f4e5f4741535f4645455f424153455f414d4f554e54000000604082015260600190565b604051602001610a46906020808252600b908201526a1413d3d317d05353d5539560aa1b604082015260600190565b604051602001610a469060208082526026908201527f43554d554c41544956455f424f52524f57494e475f464143544f525f5550444160408201526515115117d05560d21b606082015260800190565b604051602001610a46906020808252600e908201526d434f4c4c41544552414c5f53554d60901b604082015260600190565b604051602001610a469060208082526014908201527310d31052535050931157d1915157d05353d5539560621b604082015260600190565b604051602001610a469060208082526014908201527314d5d05417d3d491115497d1d054d7d31253525560621b604082015260600190565b604051602001610a469060208082526014908201527315d2551211149055d05317d1d054d7d31253525560621b604082015260600190565b604051602001610a46906020808252601290820152711050d0d3d5539517d3d491115497d31254d560721b604082015260600190565b604051602001610a469060208082526022908201527f43414e43454c5f5749544844524157414c5f464541545552455f44495341424c604082015261115160f21b606082015260800190565b604051602001610a469060208082526016908201527555495f5749544844524157414c5f4645455f5459504560501b604082015260600190565b604051602001610a46906020808252601f908201527f504f534954494f4e5f494d504143545f4558504f4e454e545f464143544f5200604082015260600190565b604051602001610a46906020808252601c908201527b11561150d5551157d0511317d191505515549157d11254d05093115160221b604082015260600190565b604051602001610a469060208082526018908201527713525397d4139317d19050d513d497d05195115497d0511360421b604082015260600190565b604051602001610a46906020808252600c908201526b2322a2afa922a1a2a4ab22a960a11b604082015260600190565b604051602001610a46906020808252601f908201527f4352454154455f4445504f5349545f464541545552455f44495341424c454400604082015260600190565b604051602001610a4690602080825260119082015270504f534954494f4e5f4645455f5459504560781b604082015260600190565b604051602001610a46906020808252601290820152711254d7d3505492d15517d11254d05093115160721b604082015260600190565b604051602001610a46906020808252600590820152644e4f4e434560d81b604082015260600190565b604051602001610a46906020808252601b908201527a1413d4d2551253d397d253541050d517d413d3d317d05353d55395602a1b604082015260600190565b604051602001610a46906020808252818101527f455845435554455f4445504f5349545f464541545552455f44495341424c4544604082015260600190565b604051602001610a469060208082526023908201527f455845435554455f5749544844524157414c5f464541545552455f444953414260408201526213115160ea1b606082015260800190565b604051602001610a469060208082526010908201526f149150531512535157d191515117d25160821b604082015260600190565b604051602001610a46906020808252600d908201526c535741505f4645455f5459504560981b604082015260600190565b604051602001610a46906020808252600e908201526d2922a9a2a92b22afa320a1aa27a960911b604082015260600190565b604051602001610a46906020808252600f908201526e484f4c44494e475f4144445245535360881b604082015260600190565b604051602001610a46906020808252600b908201526a13505492d15517d31254d560aa1b604082015260600190565b604051602001610a469060208082526022908201527f4352454154455f5749544844524157414c5f464541545552455f44495341424c604082015261115160f21b606082015260800190565b604051602001610a46906020808252601d908201527f424f52524f57494e475f4645455f52454345495645525f464143544f52000000604082015260600190565b604051602001610a46906020808252601b908201527a46554e44494e475f4645455f414d4f554e545f5045525f53495a4560281b604082015260600190565b604051602001610a469060208082526011908201527013505617d3d4115397d2539511549154d5607a1b604082015260600190565b604051602001610a46906020808252601f908201527f4e41544956455f544f4b454e5f5452414e534645525f4741535f4c494d495400604082015260600190565b604051602001610a469060208082526032908201527f4d494e5f434f4c4c41544552414c5f464143544f525f464f525f4f50454e5f49604082015271272a22a922a9aa2fa6aaa62a24a82624a2a960711b606082015260800190565b604051602001610a46906020808252600c908201526b11115413d4d25517d31254d560a21b604082015260600190565b604051602001610a46906020808252601290820152714d494e5f4f5241434c455f5349474e45525360701b604082015260600190565b600060208083528351808285015260005b8181101561274d57858101830151858201604001528201612731565b506000604082860101526040601f19601f830116850101925050509291505056fea2646970667358221220c9989ced602fea2b1f97de07e7fbe3d655ba5a7825791d402349e16b8ef69e3364736f6c63430008120033",
  "linkReferences": {},
  "deployedLinkReferences": {}
}