{
  "_format": "hh-sol-artifact-1",
  "contractName": "ReaderPricingUtils",
  "sourceName": "contracts/reader/ReaderPricingUtils.sol",
  "abi": [
    {
      "inputs": [
        {
          "internalType": "address",
          "name": "market",
          "type": "address"
        }
      ],
      "name": "DisabledMarket",
      "type": "error"
    },
    {
      "inputs": [],
      "name": "EmptyMarket",
      "type": "error"
    },
    {
      "inputs": [],
      "name": "EmptySizeDeltaInTokens",
      "type": "error"
    },
    {
      "inputs": [
        {
          "internalType": "address",
          "name": "market",
          "type": "address"
        }
      ],
      "name": "InvalidSwapMarket",
      "type": "error"
    },
    {
      "inputs": [
        {
          "internalType": "address",
          "name": "tokenIn",
          "type": "address"
        },
        {
          "internalType": "address",
          "name": "market",
          "type": "address"
        }
      ],
      "name": "InvalidTokenIn",
      "type": "error"
    },
    {
      "inputs": [
        {
          "internalType": "int256",
          "name": "executionPrice",
          "type": "int256"
        },
        {
          "internalType": "uint256",
          "name": "price",
          "type": "uint256"
        },
        {
          "internalType": "uint256",
          "name": "positionSizeInUsd",
          "type": "uint256"
        },
        {
          "internalType": "int256",
          "name": "priceImpactUsd",
          "type": "int256"
        },
        {
          "internalType": "uint256",
          "name": "sizeDeltaUsd",
          "type": "uint256"
        }
      ],
      "name": "NegativeExecutionPrice",
      "type": "error"
    },
    {
      "inputs": [
        {
          "internalType": "uint256",
          "name": "price",
          "type": "uint256"
        },
        {
          "internalType": "uint256",
          "name": "acceptablePrice",
          "type": "uint256"
        }
      ],
      "name": "OrderNotFulfillableAtAcceptablePrice",
      "type": "error"
    },
    {
      "inputs": [
        {
          "internalType": "uint256",
          "name": "x",
          "type": "uint256"
        }
      ],
      "name": "PRBMathUD60x18__Exp2InputTooBig",
      "type": "error"
    },
    {
      "inputs": [
        {
          "internalType": "uint256",
          "name": "x",
          "type": "uint256"
        }
      ],
      "name": "PRBMathUD60x18__LogInputTooSmall",
      "type": "error"
    },
    {
      "inputs": [
        {
          "internalType": "uint256",
          "name": "prod1",
          "type": "uint256"
        }
      ],
      "name": "PRBMath__MulDivFixedPointOverflow",
      "type": "error"
    },
    {
      "inputs": [
        {
          "internalType": "int256",
          "name": "priceImpactUsd",
          "type": "int256"
        },
        {
          "internalType": "uint256",
          "name": "sizeDeltaUsd",
          "type": "uint256"
        }
      ],
      "name": "PriceImpactLargerThanOrderSize",
      "type": "error"
    },
    {
      "inputs": [
        {
          "internalType": "address",
          "name": "token",
          "type": "address"
        },
        {
          "internalType": "address",
          "name": "market",
          "type": "address"
        }
      ],
      "name": "UnableToGetCachedTokenPrice",
      "type": "error"
    },
    {
      "inputs": [
        {
          "internalType": "address",
          "name": "inputToken",
          "type": "address"
        },
        {
          "internalType": "address",
          "name": "market",
          "type": "address"
        }
      ],
      "name": "UnableToGetOppositeToken",
      "type": "error"
    },
    {
      "inputs": [
        {
          "internalType": "int256",
          "name": "usdDelta",
          "type": "int256"
        },
        {
          "internalType": "uint256",
          "name": "longOpenInterest",
          "type": "uint256"
        }
      ],
      "name": "UsdDeltaExceedsLongOpenInterest",
      "type": "error"
    },
    {
      "inputs": [
        {
          "internalType": "int256",
          "name": "usdDelta",
          "type": "int256"
        },
        {
          "internalType": "uint256",
          "name": "poolUsd",
          "type": "uint256"
        }
      ],
      "name": "UsdDeltaExceedsPoolValue",
      "type": "error"
    },
    {
      "inputs": [
        {
          "internalType": "int256",
          "name": "usdDelta",
          "type": "int256"
        },
        {
          "internalType": "uint256",
          "name": "shortOpenInterest",
          "type": "uint256"
        }
      ],
      "name": "UsdDeltaExceedsShortOpenInterest",
      "type": "error"
    },
    {
      "inputs": [
        {
          "internalType": "contract DataStore",
          "name": "dataStore",
          "type": "DataStore"
        },
        {
          "components": [
            {
              "internalType": "address",
              "name": "marketToken",
              "type": "address"
            },
            {
              "internalType": "address",
              "name": "indexToken",
              "type": "address"
            },
            {
              "internalType": "address",
              "name": "longToken",
              "type": "address"
            },
            {
              "internalType": "address",
              "name": "shortToken",
              "type": "address"
            }
          ],
          "internalType": "struct Market.Props",
          "name": "market",
          "type": "tuple"
        },
        {
          "components": [
            {
              "internalType": "uint256",
              "name": "min",
              "type": "uint256"
            },
            {
              "internalType": "uint256",
              "name": "max",
              "type": "uint256"
            }
          ],
          "internalType": "struct Price.Props",
          "name": "indexTokenPrice",
          "type": "tuple"
        },
        {
          "internalType": "uint256",
          "name": "positionSizeInUsd",
          "type": "uint256"
        },
        {
          "internalType": "uint256",
          "name": "positionSizeInTokens",
          "type": "uint256"
        },
        {
          "internalType": "int256",
          "name": "sizeDeltaUsd",
          "type": "int256"
        },
        {
          "internalType": "bool",
          "name": "isLong",
          "type": "bool"
        }
      ],
      "name": "getExecutionPrice",
      "outputs": [
        {
          "components": [
            {
              "internalType": "int256",
              "name": "priceImpactUsd",
              "type": "int256"
            },
            {
              "internalType": "uint256",
              "name": "priceImpactDiffUsd",
              "type": "uint256"
            },
            {
              "internalType": "uint256",
              "name": "executionPrice",
              "type": "uint256"
            }
          ],
          "internalType": "struct ReaderPricingUtils.ExecutionPriceResult",
          "name": "",
          "type": "tuple"
        }
      ],
      "stateMutability": "view",
      "type": "function"
    },
    {
      "inputs": [
        {
          "internalType": "contract DataStore",
          "name": "dataStore",
          "type": "DataStore"
        },
        {
          "components": [
            {
              "internalType": "address",
              "name": "marketToken",
              "type": "address"
            },
            {
              "internalType": "address",
              "name": "indexToken",
              "type": "address"
            },
            {
              "internalType": "address",
              "name": "longToken",
              "type": "address"
            },
            {
              "internalType": "address",
              "name": "shortToken",
              "type": "address"
            }
          ],
          "internalType": "struct Market.Props",
          "name": "market",
          "type": "tuple"
        },
        {
          "components": [
            {
              "components": [
                {
                  "internalType": "uint256",
                  "name": "min",
                  "type": "uint256"
                },
                {
                  "internalType": "uint256",
                  "name": "max",
                  "type": "uint256"
                }
              ],
              "internalType": "struct Price.Props",
              "name": "indexTokenPrice",
              "type": "tuple"
            },
            {
              "components": [
                {
                  "internalType": "uint256",
                  "name": "min",
                  "type": "uint256"
                },
                {
                  "internalType": "uint256",
                  "name": "max",
                  "type": "uint256"
                }
              ],
              "internalType": "struct Price.Props",
              "name": "longTokenPrice",
              "type": "tuple"
            },
            {
              "components": [
                {
                  "internalType": "uint256",
                  "name": "min",
                  "type": "uint256"
                },
                {
                  "internalType": "uint256",
                  "name": "max",
                  "type": "uint256"
                }
              ],
              "internalType": "struct Price.Props",
              "name": "shortTokenPrice",
              "type": "tuple"
            }
          ],
          "internalType": "struct MarketUtils.MarketPrices",
          "name": "prices",
          "type": "tuple"
        },
        {
          "internalType": "address",
          "name": "tokenIn",
          "type": "address"
        },
        {
          "internalType": "uint256",
          "name": "amountIn",
          "type": "uint256"
        },
        {
          "internalType": "address",
          "name": "uiFeeReceiver",
          "type": "address"
        }
      ],
      "name": "getSwapAmountOut",
      "outputs": [
        {
          "internalType": "uint256",
          "name": "",
          "type": "uint256"
        },
        {
          "internalType": "int256",
          "name": "",
          "type": "int256"
        },
        {
          "components": [
            {
              "internalType": "uint256",
              "name": "feeReceiverAmount",
              "type": "uint256"
            },
            {
              "internalType": "uint256",
              "name": "feeAmountForPool",
              "type": "uint256"
            },
            {
              "internalType": "uint256",
              "name": "amountAfterFees",
              "type": "uint256"
            },
            {
              "internalType": "address",
              "name": "uiFeeReceiver",
              "type": "address"
            },
            {
              "internalType": "uint256",
              "name": "uiFeeReceiverFactor",
              "type": "uint256"
            },
            {
              "internalType": "uint256",
              "name": "uiFeeAmount",
              "type": "uint256"
            }
          ],
          "internalType": "struct SwapPricingUtils.SwapFees",
          "name": "",
          "type": "tuple"
        }
      ],
      "stateMutability": "view",
      "type": "function"
    },
    {
      "inputs": [
        {
          "internalType": "contract DataStore",
          "name": "dataStore",
          "type": "DataStore"
        },
        {
          "components": [
            {
              "internalType": "address",
              "name": "marketToken",
              "type": "address"
            },
            {
              "internalType": "address",
              "name": "indexToken",
              "type": "address"
            },
            {
              "internalType": "address",
              "name": "longToken",
              "type": "address"
            },
            {
              "internalType": "address",
              "name": "shortToken",
              "type": "address"
            }
          ],
          "internalType": "struct Market.Props",
          "name": "market",
          "type": "tuple"
        },
        {
          "internalType": "address",
          "name": "tokenIn",
          "type": "address"
        },
        {
          "internalType": "address",
          "name": "tokenOut",
          "type": "address"
        },
        {
          "internalType": "uint256",
          "name": "amountIn",
          "type": "uint256"
        },
        {
          "components": [
            {
              "internalType": "uint256",
              "name": "min",
              "type": "uint256"
            },
            {
              "internalType": "uint256",
              "name": "max",
              "type": "uint256"
            }
          ],
          "internalType": "struct Price.Props",
          "name": "tokenInPrice",
          "type": "tuple"
        },
        {
          "components": [
            {
              "internalType": "uint256",
              "name": "min",
              "type": "uint256"
            },
            {
              "internalType": "uint256",
              "name": "max",
              "type": "uint256"
            }
          ],
          "internalType": "struct Price.Props",
          "name": "tokenOutPrice",
          "type": "tuple"
        }
      ],
      "name": "getSwapPriceImpact",
      "outputs": [
        {
          "internalType": "int256",
          "name": "priceImpactUsdBeforeCap",
          "type": "int256"
        },
        {
          "internalType": "int256",
          "name": "priceImpactAmount",
          "type": "int256"
        }
      ],
      "stateMutability": "view",
      "type": "function"
    }
  ],
  "bytecode": "0x613ae261003a600b82828239805160001a60731461002d57634e487b7160e01b600052600060045260246000fd5b30600052607381538281f3fe730000000000000000000000000000000000000000301460806040526004361061004b5760003560e01c8063146fa98e1461005057806381eba89e1461008a578063dafa66bf146100ab575b600080fd5b61006361005e366004613737565b61011d565b60408051825181526020808401519082015291810151908201526060015b60405180910390f35b61009d6100983660046137b4565b610214565b60405161008192919061383f565b6100be6100b936600461384d565b6102f4565b604080519384526020808501939093528151848201529181015160608085019190915291810151608080850191909152918101516001600160a01b031660a0808501919091529181015160c0840152015160e082015261010001610081565b610125613330565b61012d613351565b80516001600160a01b038a1690526020810188905261015c61014e85610581565b604083810151602001510152565b604081810151015183151590526000808513908161017b57841561017d565b845b90506101a18161018e576000610192565b6000195b60408501516020015160a00152565b6080830180516020908101518a9052815181015101889052516040015185151590526101cb613330565b60008713156101ec576101de848b61059c565b604085015250508152610203565b6101f6848b6107f7565b6040840152602083015281525b93505050505b979650505050505050565b6000806102b16040518061010001604052808b6001600160a01b031681526020018a8152602001896001600160a01b03168152602001886001600160a01b0316815260200161026287610981565b815260200161027086610981565b815260200161029061028188610981565b61028b908a613948565b6109a3565b81526020016102a161028188610981565b6102aa9061395f565b9052610a0d565b915060008213156102d4576102cd898960000151888686610aee565b90506102e8565b6102e5898960000151898786610aee565b90505b97509795505050505050565b6000806102ff6133e7565b610307613426565b88604001516001600160a01b0316876001600160a01b031614158015610343575088606001516001600160a01b0316876001600160a01b031614155b1561036e5788516040516353f8171160e01b815261036591899160040161397b565b60405180910390fd5b6103788a8a610b65565b610382878a610bb0565b6001600160a01b03168152610398878a8a610c1f565b602082015280516103aa908a8a610c1f565b8160400181905250600061044d6040518061010001604052808d6001600160a01b031681526020018c81526020018a6001600160a01b0316815260200184600001516001600160a01b031681526020016104078560200151610981565b81526020016104198560400151610981565b815260200161043861042e8660200151610981565b61028b908c613948565b81526020016102a161042e8660200151610981565b905060006104658c8c600001518a600086138b610cc0565b90506000808313156104f7576040808301516060860181905290850151602090810151908601515190916104999190613948565b6104a391906139ab565b84608001818152505083608001518460a00181815250506104d38d8d600001518660000151876040015187610aee565b90506104de81610e93565b846080018181516104ef91906139bf565b905250610568565b61050c8d8d600001518c876020015187610aee565b905061051f61051a8261395f565b610e93565b826040015161052e91906139d2565b606085018190526040850151602090810151908601515190916105519190613948565b61055b91906139ab565b6080850181905260a08501525b608093909301519c929b50995090975050505050505050565b6000808212156105945781600003610596565b815b92915050565b6000806000806105b58660400151602001516040015190565b6000036105e85760008060006105db6105d48a60800151604001515190565b8990610ee5565b93509350935093506107ee565b600061064d60405180608001604052808960000151600001516001600160a01b031681526020018960200151815260200161062f61028b8b60400151602001516040015190565b81526020016106448a60400151604001515190565b15159052610efc565b87515160208901515160408a015192935061067a928990859061067590602001516040015190565b610fa4565b90506000808213156106a45761069387602001516109a3565b61069d90836139e5565b90506106b5565b6106b2828860000151611021565b90505b60006106c78960800151604001515190565b156106f55787602001516106e48a60400151602001516040015190565b6106ee91906139ab565b9050610715565b61071261070b8a60400151602001516040015190565b8951611095565b90505b60006107278a60800151604001515190565b156107475782610736836109a3565b6107409190613a13565b905061075e565b82610751836109a3565b61075b9190613a3b565b90505b6000811215610796578361077b8b60400151602001516040015190565b6040516378320e4960e11b815260040161036592919061383f565b60006107d36107ae8c60400151602001516040015190565b6107b784610e93565b60408e01516020015160a0015160808f015160400151516110b8565b905084846107e084610e93565b919a50985096509450505050505b92959194509250565b6000806000806108108660400151602001516040015190565b905080600003610844576000806108386108308960800151604001515190565b889015610ee5565b9350935093505061097a565b61086860405180606001604052806000815260200160008152602001600081525090565b604080516080810182528851516001600160a01b031681526020808a0151908201526108a2918101610899856109a3565b61062f9061395f565b8082528751516020890151516108ba92899086610fa4565b8082526000131561091f578651516020880151516000916108db918361113b565b905060006108ec61028b8584611165565b6108f59061395f565b9050808360000151121561091c5782516109139061051a9083613a3b565b60208401528083525b50505b610961866109338960800151602001515190565b60808a01516020908101510151845160408c01516020015160a0015187919060808e0151604001515161117e565b6040820181905281516020909201519195509093509150505b9250925092565b600060028260000151836020015161099991906139bf565b61059691906139ab565b60006001600160ff1b038211156105945760405162461bcd60e51b815260206004820152602860248201527f53616665436173743a2076616c756520646f65736e27742066697420696e2061604482015267371034b73a191a9b60c11b6064820152608401610365565b600080610a198361131f565b90506000610a308460000151856020015184611368565b905060008112610a41579392505050565b6000806000610a5c8760000151886020015160000151611486565b92509250925082610a7257509195945050505050565b6000808860200151604001516001600160a01b031689604001516001600160a01b031603610aa4575082905081610aaa565b50819050825b6000610ab78a848461161d565b90506000610ace8b600001518c6020015184611368565b9050878112610add5787610adf565b805b9b9a5050505050505050505050565b60008060008313610b00578351610b06565b83602001515b9050600080841315610b4b57610b1b826109a3565b610b2590856139e5565b90506000610b3761028b8a8a8a61172b565b905080821315610b45578091505b50610b58565b610b558483611021565b90505b9150505b95945050505050565b610b6f82826117a5565b80606001516001600160a01b031681604001516001600160a01b031603610bac5780516040516332e6f44d60e21b81526103659190600401613a62565b5050565b600081604001516001600160a01b0316836001600160a01b031603610bda57506060810151610596565b81606001516001600160a01b0316836001600160a01b031603610c0257506040810151610596565b8151604051637a0ca68160e01b815261036591859160040161397b565b610c27613480565b82604001516001600160a01b0316846001600160a01b031603610c4f57506020810151610cb9565b82606001516001600160a01b0316846001600160a01b031603610c7757506040810151610cb9565b82602001516001600160a01b0316846001600160a01b031603610c9c57508051610cb9565b8251604051635f2394d160e11b815261036591869160040161397b565b9392505050565b610cc86133e7565b610cd06133e7565b6000876001600160a01b031663bd02d0f5610ceb8988611873565b6040518263ffffffff1660e01b8152600401610d0991815260200190565b602060405180830381865afa158015610d26573d6000803e3d6000fd5b505050506040513d601f19601f82011682018060405250810190610d4a9190613a76565b90506000886001600160a01b031663bd02d0f5604051602001610d999060208082526018908201527729aba0a82fa322a2afa922a1a2a4ab22a92fa320a1aa27a960411b604082015260600190565b604051602081830303815290604052805190602001206040518263ffffffff1660e01b8152600401610dcd91815260200190565b602060405180830381865afa158015610dea573d6000803e3d6000fd5b505050506040513d601f19601f82011682018060405250810190610e0e9190613a76565b90506000610e1c8884611165565b9050610e288183611165565b808552610e3590826139d2565b60208501526001600160a01b0386166060850152610e538a876118fc565b60808501819052610e65908990611165565b60a08501819052610e76828a6139d2565b610e8091906139d2565b6040850152509198975050505050505050565b6000808212156105945760405162461bcd60e51b815260206004820181905260248201527f53616665436173743a2076616c7565206d75737420626520706f7369746976656044820152606401610365565b600081610ef3578251610cb9565b50506020015190565b600080610f0883611a42565b90506000610f23846000015185602001516000015184611a85565b905060008112610f34579392505050565b600080610f4d8660000151876020015160200151611b6a565b9150915081610f60575090949350505050565b6000610f6c8783611c80565b90506000610f87886000015189602001516000015184611a85565b9050848112610f965784610f98565b805b98975050505050505050565b600080831215610fb5575081610b5c565b6000610fc18787611cfa565b90506000610fd886600001518361028b9190613948565b905080851315610fe6578094505b6000610ff48989600161113b565b9050600061100561028b8784611165565b905080871315611013578096505b509498975050505050505050565b60008083121561106357611034826109a3565b61103d836109a3565b6110479085613a3b565b611052906001613a13565b61105c91906139e5565b9050610596565b61106c826109a3565b6001611077846109a3565b6110819086613a13565b61108b9190613a3b565b610cb991906139e5565b60008160016110a482866139bf565b6110ae91906139d2565b610cb991906139ab565b6000836000036110db57604051633df4253160e01b815260040160405180910390fd5b60006110e785876139ab565b90508280156110f65750838111155b8061110a57508215801561110a5750838110155b15611116579050611133565b808460405163e09ad0e960e01b815260040161036592919061383f565b949350505050565b600080600061114a8686611d73565b9150915083611159578061115b565b815b9695505050505050565b6000610cb9838368327cb2734119d3b7a9601e1b611e87565b60006111a460405180606001604052806000815260200160008152602001600081525090565b6111af898415610ee5565b808252602082015285158015906111c65750600087115b156112c557826111de576111d98561395f565b6111e0565b845b604082018190526000138015611205575085611203826040015161051a9061395f565b115b1561122b578060400151866040516378320e4960e11b815260040161036592919061383f565b6000611236876109a3565b6112458a84604001518b611e94565b61124f91906139e5565b905060008161126184600001516109a3565b61126b9190613a13565b905060008112156112b4578251604080850151905163cc32db9960e01b8152600481018490526024810192909252604482018c905260648201526084810189905260a401610365565b6112bd81610e93565b602084015250505b8280156112d6575083816020015110155b806112ee5750821580156112ee575083816020015111155b156112fe57602001519050610209565b80602001518460405163e09ad0e960e01b815260040161036592919061383f565b61132761349a565b6000611340836000015184602001518560400151611ed4565b9050600061135b846000015185602001518660600151611ed4565b905061113384838361161d565b60008061137d83600001518460200151611f72565b9050600061139384604001518560600151611f72565b60608501516040860151602087015187518951949550111591101514906000906001600160a01b0389169063bd02d0f5906113cd90611f94565b6040518263ffffffff1660e01b81526004016113eb91815260200190565b602060405180830381865afa158015611408573d6000803e3d6000fd5b505050506040513d601f19601f8201168201806040525081019061142c9190613a76565b9050811561146457865184841090600090611449908b9084612020565b90506114578686838661202f565b9650505050505050610cb9565b6000806114758a8a60000151612061565b9150915061145786868484876120fd565b600080600080856001600160a01b031663a6ed563e6114a487612146565b6040518263ffffffff1660e01b81526004016114c291815260200190565b602060405180830381865afa1580156114df573d6000803e3d6000fd5b505050506040513d601f19601f820116820180604052508101906115039190613a76565b90508061151b5760008060009350935093505061097a565b6001866001600160a01b031663bd02d0f561153784600161217d565b6040518263ffffffff1660e01b815260040161155591815260200190565b602060405180830381865afa158015611572573d6000803e3d6000fd5b505050506040513d601f19601f820116820180604052508101906115969190613a76565b876001600160a01b031663bd02d0f56115b085600061217d565b6040518263ffffffff1660e01b81526004016115ce91815260200190565b602060405180830381865afa1580156115eb573d6000803e3d6000fd5b505050506040513d601f19601f8201168201806040525081019061160f9190613a76565b935093509350509250925092565b61162561349a565b60008460800151846116379190613948565b905060008560a001518461164b9190613948565b905060008660c0015112801561167057508161166e8760c0015161051a9061395f565b115b15611696578560c0015182604051632e94940960e01b815260040161036592919061383f565b60008660e001511280156116b95750806116b78760e0015161051a9061395f565b115b156116df578560e0015181604051632e94940960e01b815260040161036592919061383f565b60006116ef838860c001516121ef565b90506000611701838960e001516121ef565b60408051608081018252958652602086019490945292840191909152506060820152949350505050565b6000836001600160a01b031663bd02d0f5611746858561221f565b6040518263ffffffff1660e01b815260040161176491815260200190565b602060405180830381865afa158015611781573d6000803e3d6000fd5b505050506040513d601f19601f820116820180604052508101906111339190613a76565b80516001600160a01b03166117cd576040516302fde0d760e11b815260040160405180910390fd5b6000826001600160a01b0316637ae1cfca6117eb8460000151612299565b6040518263ffffffff1660e01b815260040161180991815260200190565b602060405180830381865afa158015611826573d6000803e3d6000fd5b505050506040513d601f19601f8201168201806040525081019061184a9190613a8f565b9050801561186e5781516040516309f8c93760e01b81526103659190600401613a62565b505050565b60006040516020016118a8906020808252600f908201526e29aba0a82fa322a2afa320a1aa27a960891b604082015260600190565b60408051601f198184030181528282528051602091820120908301526001600160a01b0385169082015282151560608201526080015b60405160208183030381529060405280519060200120905092915050565b600080836001600160a01b031663bd02d0f56040516020016119439060208082526011908201527026a0ac2faaa4afa322a2afa320a1aa27a960791b604082015260600190565b604051602081830303815290604052805190602001206040518263ffffffff1660e01b815260040161197791815260200190565b602060405180830381865afa158015611994573d6000803e3d6000fd5b505050506040513d601f19601f820116820180604052508101906119b89190613a76565b90506000846001600160a01b031663bd02d0f56119d4866122d1565b6040518263ffffffff1660e01b81526004016119f291815260200190565b602060405180830381865afa158015611a0f573d6000803e3d6000fd5b505050506040513d601f19601f82011682018060405250810190611a339190613a76565b90508181106111335781610b5c565b611a4a61349a565b6000611a60836000015184602001516001612304565b90506000611a78846000015185602001516000612304565b9050611133848383612357565b600080611a9a83600001518460200151611f72565b90506000611ab084604001518560600151611f72565b6060850151604086015160208701518751939450909211159111151460006001600160a01b03881663bd02d0f5611ae689612449565b6040518263ffffffff1660e01b8152600401611b0491815260200190565b602060405180830381865afa158015611b21573d6000803e3d6000fd5b505050506040513d601f19601f82011682018060405250810190611b459190613a76565b90508115611b5d5783831060006114498a8a8461248c565b6000806114758a8a612497565b6000806000846001600160a01b031663a6ed563e611b8786612533565b6040518263ffffffff1660e01b8152600401611ba591815260200190565b602060405180830381865afa158015611bc2573d6000803e3d6000fd5b505050506040513d601f19601f82011682018060405250810190611be69190613a76565b905080611bfa576000809250925050611c79565b6001856001600160a01b031663dc97d962611c1484612569565b6040518263ffffffff1660e01b8152600401611c3291815260200190565b602060405180830381865afa158015611c4f573d6000803e3d6000fd5b505050506040513d601f19601f82011682018060405250810190611c739190613a76565b92509250505b9250929050565b611c8861349a565b6000806000841315611ca457611c9d84610e93565b9050611cb3565b611cb061051a8561395f565b91505b600085604001511215611cef576000611cd3866040015161051a9061395f565b9050611cdf81846139bf565b9250611ceb81836139bf565b9150505b610b5c858383612357565b6000826001600160a01b031663bd02d0f5611d14846125d4565b6040518263ffffffff1660e01b8152600401611d3291815260200190565b602060405180830381865afa158015611d4f573d6000803e3d6000fd5b505050506040513d601f19601f82011682018060405250810190610cb99190613a76565b6000806000846001600160a01b031663bd02d0f5611d92866001612615565b6040518263ffffffff1660e01b8152600401611db091815260200190565b602060405180830381865afa158015611dcd573d6000803e3d6000fd5b505050506040513d601f19601f82011682018060405250810190611df19190613a76565b90506000856001600160a01b031663bd02d0f5611e0f876000612615565b6040518263ffffffff1660e01b8152600401611e2d91815260200190565b602060405180830381865afa158015611e4a573d6000803e3d6000fd5b505050506040513d601f19601f82011682018060405250810190611e6e9190613a76565b905080821115611e7c578091505b909590945092505050565b6000611133848484612655565b600080611eaa85611ea486610581565b85611e87565b905060008413611ecb57611ebd816109a3565b611ec69061395f565b610b5c565b610b5c816109a3565b600080611ee984604001518560600151612704565b905080856001600160a01b031663bd02d0f5611f09876000015187612733565b6040518263ffffffff1660e01b8152600401611f2791815260200190565b602060405180830381865afa158015611f44573d6000803e3d6000fd5b505050506040513d601f19601f82011682018060405250810190611f689190613a76565b610b5c91906139ab565b6000818311611f8a57611f8583836139d2565b610cb9565b610cb982846139d2565b6000604051602001611fd5906020808252601b908201527a29aba0a82fa4a6a820a1aa2fa2ac2827a722a72a2fa320a1aa27a960291b604082015260600190565b60408051601f198184030181528282528051602091820120908301526001600160a01b038416908201526060015b604051602081830303815290604052805190602001209050919050565b600080600061114a8686612061565b600084841081612053612043888787612764565b61204e888888612764565b611f72565b90506000610f98828461277d565b6000806000846001600160a01b031663bd02d0f56120808660016127a0565b6040518263ffffffff1660e01b815260040161209e91815260200190565b602060405180830381865afa1580156120bb573d6000803e3d6000fd5b505050506040513d601f19601f820116820180604052508101906120df9190613a76565b90506000856001600160a01b031663bd02d0f5611e0f8760006127a0565b60008061210b878685612764565b9050600061211a878686612764565b905060006121288383611f72565b905060006121388284861161277d565b9a9950505050505050505050565b6000604051602001611fd5906020808252601190820152701592549515505317d3505492d15517d251607a1b604082015260600190565b60006040516020016121be906020808252601b908201527a5649525455414c5f494e56454e544f52595f464f525f535741505360281b604082015260600190565b60408051601f19818403018152828252805160209182012090830152810184905282151560608201526080016118de565b60008082131561220c5761220282610581565b61105c90846139bf565b61221582610581565b610cb990846139d2565b600060405160200161225c9060208082526017908201527614d5d05417d253541050d517d413d3d317d05353d55395604a1b604082015260600190565b60408051601f198184030181528282528051602091820120908301526001600160a01b0380861691830191909152831660608201526080016118de565b6000604051602001611fd5906020808252601290820152711254d7d3505492d15517d11254d05093115160721b604082015260600190565b6000604051602001611fd5906020808252600d908201526c2aa4afa322a2afa320a1aa27a960991b604082015260600190565b60008061231984604001518560600151612704565b90506000612332868660000151876040015187866127d8565b9050600061234b878760000151886060015188876127d8565b905061020981836139bf565b61235f61349a565b606084015183908390156123cb576000866040015112801561239057508461238e876040015161051a9061395f565b115b156123b65785604001518560405163756d7c9d60e11b815260040161036592919061383f565b6123c48587604001516121ef565b9150612425565b600086604001511280156123ee5750836123ec876040015161051a9061395f565b115b156124145785604001518460405163022bc34560e61b815260040161036592919061383f565b6124228487604001516121ef565b90505b60408051608081018252958652602086019490945292840152506060820152919050565b6000604051602001611fd5906020808252601f908201527f504f534954494f4e5f494d504143545f4558504f4e454e545f464143544f5200604082015260600190565b600080600061114a86865b6000806000846001600160a01b031663bd02d0f56124b686600161285e565b6040518263ffffffff1660e01b81526004016124d491815260200190565b602060405180830381865afa1580156124f1573d6000803e3d6000fd5b505050506040513d601f19601f820116820180604052508101906125159190613a76565b90506000856001600160a01b031663bd02d0f5611e0f87600061285e565b6000604051602001611fd59060208082526010908201526f1592549515505317d513d2d15397d25160821b604082015260600190565b60006040516020016125ac906020808252601f908201527f5649525455414c5f494e56454e544f52595f464f525f504f534954494f4e5300604082015260600190565b604051602081830303815290604052805190602001208260405160200161200392919061383f565b6000604051602001611fd5906020808252601b908201527a1413d4d2551253d397d253541050d517d413d3d317d05353d55395602a1b604082015260600190565b60006040516020016118a8906020808252601a908201527926a0ac2fa827a9a4aa24a7a72fa4a6a820a1aa2fa320a1aa27a960311b604082015260600190565b600080806000198587098587029250828110838203039150508060000361268f5783828161268557612685613995565b0492505050610cb9565b80841161269b57600080fd5b60008486880960026001871981018816978890046003810283188082028403028082028403028082028403028082028403028082028403029081029092039091026000889003889004909101858311909403939093029303949094049190911702949350505050565b6000816001600160a01b0316836001600160a01b031614612726576001612729565b60025b60ff169392505050565b600060405160200161225c906020808252600b908201526a1413d3d317d05353d5539560aa1b604082015260600190565b600080612771858461289a565b9050610b5c8185611165565b6000811561278e5761105c836109a3565b612797836109a3565b61105c9061395f565b60006040516020016118a89060208082526012908201527129aba0a82fa4a6a820a1aa2fa320a1aa27a960711b604082015260600190565b600081866001600160a01b031663bd02d0f56127f58888886128f9565b6040518263ffffffff1660e01b815260040161281391815260200190565b602060405180830381865afa158015612830573d6000803e3d6000fd5b505050506040513d601f19601f820116820180604052508101906128549190613a76565b61115b91906139ab565b60006040516020016118a8906020808252601690820152752827a9a4aa24a7a72fa4a6a820a1aa2fa320a1aa27a960511b604082015260600190565b600068327cb2734119d3b7a9601e1b8310156128b857506000610596565b68327cb2734119d3b7a9601e1b82036128d2575081610596565b60006128ee6128e08561298b565b6128e98561298b565b61299c565b9050611133816129dc565b600060405160200161292c906020808252600d908201526c13d4115397d2539511549154d5609a1b604082015260600190565b60408051601f198184030181528282528051602091820120908301526001600160a01b038087169183019190915284166060820152821515608082015260a0016040516020818303038152906040528051906020012090509392505050565b600061059664e8d4a51000836139ab565b6000826000036129c25781156129b357600061105c565b50670de0b6b3a7640000610596565b610cb96129d76129d1856129ed565b84612aa3565b612aaf565b600061059664e8d4a5100083613948565b6000670de0b6b3a7640000821015612a1b57604051633621413760e21b815260048101839052602401610365565b6000612a30670de0b6b3a76400008404612af5565b670de0b6b3a764000081029250905082811c670de0b6b3a763ffff198101612a59575050919050565b6706f05b59d3b200005b8015612a9b57670de0b6b3a7640000828002049150671bc16d674ec800008210612a93579283019260019190911c905b60011c612a63565b505050919050565b6000610cb98383612bd8565b6000680a688906bd8b0000008210612add57604051634a4f26f160e01b815260048101839052602401610365565b670de0b6b3a7640000604083901b04610cb981612c9e565b6000600160801b8210612b1557608091821c91612b1290826139bf565b90505b600160401b8210612b3357604091821c91612b3090826139bf565b90505b600160201b8210612b5157602091821c91612b4e90826139bf565b90505b620100008210612b6e57601091821c91612b6b90826139bf565b90505b6101008210612b8a57600891821c91612b8790826139bf565b90505b60108210612ba557600491821c91612ba290826139bf565b90505b60048210612bc057600291821c91612bbd90826139bf565b90505b60028210612bd3576105966001826139bf565b919050565b60008080600019848609848602925082811083820303915050670de0b6b3a76400008110612c1c5760405163698d9a0160e11b815260048101829052602401610365565b600080670de0b6b3a764000086880991506706f05b59d3b1ffff8211905082600003612c5a5780670de0b6b3a7640000850401945050505050610596565b620400008285030493909111909103600160ee1b02919091177faccb18165bd6fe31ae1cf318dc5b51eee0e1ba569b88cd74c1773b91fac106690201905092915050565b600160bf1b6001603f1b821615612cbe5768016a09e667f3bcc9090260401c5b6001603e1b821615612cd9576801306fe0a31b7152df0260401c5b6001603d1b821615612cf4576801172b83c7d517adce0260401c5b6001603c1b821615612d0f5768010b5586cf9890f62a0260401c5b6001603b1b821615612d2a576801059b0d31585743ae0260401c5b6001603a1b821615612d4557680102c9a3e778060ee70260401c5b600160391b821615612d605768010163da9fb33356d80260401c5b600160381b821615612d7b57680100b1afa5abcbed610260401c5b600160371b821615612d965768010058c86da1c09ea20260401c5b600160361b821615612db1576801002c605e2e8cec500260401c5b600160351b821615612dcc57680100162f3904051fa10260401c5b600160341b821615612de7576801000b175effdc76ba0260401c5b600160331b821615612e0257680100058ba01fb9f96d0260401c5b600160321b821615612e1d5768010002c5cc37da94920260401c5b600160311b821615612e38576801000162e525ee05470260401c5b600160301b821615612e535768010000b17255775c040260401c5b6001602f1b821615612e6e576801000058b91b5bc9ae0260401c5b6001602e1b821615612e8957680100002c5c89d5ec6d0260401c5b6001602d1b821615612ea45768010000162e43f4f8310260401c5b6001602c1b821615612ebf57680100000b1721bcfc9a0260401c5b6001602b1b821615612eda5768010000058b90cf1e6e0260401c5b6001602a1b821615612ef5576801000002c5c863b73f0260401c5b600160291b821615612f1057680100000162e430e5a20260401c5b600160281b821615612f2b576801000000b1721835510260401c5b600160271b821615612f4657680100000058b90c0b490260401c5b600160261b821615612f615768010000002c5c8601cc0260401c5b600160251b821615612f7c576801000000162e42fff00260401c5b600160241b821615612f975768010000000b17217fbb0260401c5b600160231b821615612fb2576801000000058b90bfce0260401c5b600160221b821615612fcd57680100000002c5c85fe30260401c5b600160211b821615612fe85768010000000162e42ff10260401c5b600160201b82161561300357680100000000b17217f80260401c5b638000000082161561301e5768010000000058b90bfc0260401c5b6340000000821615613039576801000000002c5c85fe0260401c5b632000000082161561305457680100000000162e42ff0260401c5b631000000082161561306f576801000000000b17217f0260401c5b630800000082161561308a57680100000000058b90c00260401c5b63040000008216156130a55768010000000002c5c8600260401c5b63020000008216156130c0576801000000000162e4300260401c5b63010000008216156130db5768010000000000b172180260401c5b628000008216156130f5576801000000000058b90c0260401c5b6240000082161561310f57680100000000002c5c860260401c5b622000008216156131295768010000000000162e430260401c5b6210000082161561314357680100000000000b17210260401c5b6208000082161561315d5768010000000000058b910260401c5b62040000821615613177576801000000000002c5c80260401c5b6202000082161561319157680100000000000162e40260401c5b620100008216156131aa5761b172600160401b010260401c5b6180008216156131c2576158b9600160401b010260401c5b6140008216156131da57612c5d600160401b010260401c5b6120008216156131f25761162e600160401b010260401c5b61100082161561320a57610b17600160401b010260401c5b6108008216156132225761058c600160401b010260401c5b61040082161561323a576102c6600160401b010260401c5b61020082161561325257610163600160401b010260401c5b6101008216156132695760b1600160401b010260401c5b608082161561327f576059600160401b010260401c5b604082161561329557602c600160401b010260401c5b60208216156132ab576016600160401b010260401c5b60108216156132c157600b600160401b010260401c5b60088216156132d7576006600160401b010260401c5b60048216156132ed576003600160401b010260401c5b6002821615613303576001600160401b010260401c5b6001821615613319576001600160401b010260401c5b670de0b6b3a76400000260409190911c60bf031c90565b60405180606001604052806000815260200160008152602001600081525090565b604080516101a081018252600060e08201818152610100830182905261012083018290526101408301829052610160830182905261018083018290528252825160808101845281815260208082018390528185018390526060820192909252908201529081016133bf6134c2565b8152600060208201526040016133d3613583565b815260006020820181905260409091015290565b6040518060c0016040528060008152602001600081526020016000815260200160006001600160a01b0316815260200160008152602001600081525090565b60405180610100016040528060006001600160a01b0316815260200161344a613480565b8152602001613457613480565b815260200160008152602001600081526020016000815260200160008152602001600081525090565b604051806040016040528060008152602001600081525090565b6040518060800160405280600081526020016000815260200160008152602001600081525090565b604080516101408101909152600060608083018281526080840183905260a0840183905260c0840183905260e0840183905261010084019290925261012083015281526020810161356060408051610140810190915280600081526020016000815260200160008152602001600081526020016000815260200160008152602001600081526020016000815260200160008152602001600081525090565b815260408051606081018252600080825260208281018290529282015291015290565b6040805160c081019091526000606082018181526080830182905260a0830191909152819081526020016135fc6040518061012001604052806000815260200160008152602001600081526020016000815260200160008152602001600081526020016000815260200160008152602001600081525090565b81526040805160208181019092526000815291015290565b6001600160a01b038116811461362957600080fd5b50565b8035612bd381613614565b60006080828403121561364957600080fd5b604051608081016001600160401b038111828210171561367957634e487b7160e01b600052604160045260246000fd5b604052905080823561368a81613614565b8152602083013561369a81613614565b602082015260408301356136ad81613614565b604082015260608301356136c081613614565b6060919091015292915050565b6000604082840312156136df57600080fd5b604080519081016001600160401b038111828210171561370f57634e487b7160e01b600052604160045260246000fd5b604052823581526020928301359281019290925250919050565b801515811461362957600080fd5b6000806000806000806000610160888a03121561375357600080fd5b873561375e81613614565b965061376d8960208a01613637565b955061377c8960a08a016136cd565b945060e08801359350610100880135925061012088013591506101408801356137a481613729565b8091505092959891949750929550565b6000806000806000806000610180888a0312156137d057600080fd5b87356137db81613614565b96506137ea8960208a01613637565b955060a08801356137fa81613614565b945060c088013561380a81613614565b935060e08801359250613821896101008a016136cd565b9150613831896101408a016136cd565b905092959891949750929550565b918252602082015260400190565b6000806000806000808688036101c081121561386857600080fd5b873561387381613614565b96506138828960208a01613637565b955060c0609f198201121561389657600080fd5b50604051606081016001600160401b03811182821017156138c757634e487b7160e01b600052604160045260246000fd5b6040526138d78960a08a016136cd565b81526138e68960e08a016136cd565b60208201526138f9896101208a016136cd565b6040820152935061016087013561390f81613614565b925061018087013591506139266101a0880161362c565b90509295509295509295565b634e487b7160e01b600052601160045260246000fd5b808202811582820484141761059657610596613932565b6000600160ff1b820161397457613974613932565b5060000390565b6001600160a01b0392831681529116602082015260400190565b634e487b7160e01b600052601260045260246000fd5b6000826139ba576139ba613995565b500490565b8082018082111561059657610596613932565b8181038181111561059657610596613932565b6000826139f4576139f4613995565b600160ff1b821460001984141615613a0e57613a0e613932565b500590565b8082018281126000831280158216821582161715613a3357613a33613932565b505092915050565b8181036000831280158383131683831282161715613a5b57613a5b613932565b5092915050565b6001600160a01b0391909116815260200190565b600060208284031215613a8857600080fd5b5051919050565b600060208284031215613aa157600080fd5b8151610cb98161372956fea264697066735822122091e071fb17edb540eaa4648607006d6b1dd79b41e57e62714bfaccc7608eba7064736f6c63430008120033",
  "linkReferences": {},
  "deployedLinkReferences": {}
}