{
  "_format": "hh-sol-artifact-1",
  "contractName": "Role",
  "sourceName": "contracts/role/Role.sol",
  "abi": [
    {
      "inputs": [],
      "name": "ADL_KEEPER",
      "outputs": [
        {
          "internalType": "bytes32",
          "name": "",
          "type": "bytes32"
        }
      ],
      "stateMutability": "view",
      "type": "function"
    },
    {
      "inputs": [],
      "name": "CONFIG_KEEPER",
      "outputs": [
        {
          "internalType": "bytes32",
          "name": "",
          "type": "bytes32"
        }
      ],
      "stateMutability": "view",
      "type": "function"
    },
    {
      "inputs": [],
      "name": "CONTROLLER",
      "outputs": [
        {
          "internalType": "bytes32",
          "name": "",
          "type": "bytes32"
        }
      ],
      "stateMutability": "view",
      "type": "function"
    },
    {
      "inputs": [],
      "name": "FEE_KEEPER",
      "outputs": [
        {
          "internalType": "bytes32",
          "name": "",
          "type": "bytes32"
        }
      ],
      "stateMutability": "view",
      "type": "function"
    },
    {
      "inputs": [],
      "name": "FROZEN_ORDER_KEEPER",
      "outputs": [
        {
          "internalType": "bytes32",
          "name": "",
          "type": "bytes32"
        }
      ],
      "stateMutability": "view",
      "type": "function"
    },
    {
      "inputs": [],
      "name": "LIQUIDATION_KEEPER",
      "outputs": [
        {
          "internalType": "bytes32",
          "name": "",
          "type": "bytes32"
        }
      ],
      "stateMutability": "view",
      "type": "function"
    },
    {
      "inputs": [],
      "name": "MARKET_KEEPER",
      "outputs": [
        {
          "internalType": "bytes32",
          "name": "",
          "type": "bytes32"
        }
      ],
      "stateMutability": "view",
      "type": "function"
    },
    {
      "inputs": [],
      "name": "ORDER_KEEPER",
      "outputs": [
        {
          "internalType": "bytes32",
          "name": "",
          "type": "bytes32"
        }
      ],
      "stateMutability": "view",
      "type": "function"
    },
    {
      "inputs": [],
      "name": "PRICING_KEEPER",
      "outputs": [
        {
          "internalType": "bytes32",
          "name": "",
          "type": "bytes32"
        }
      ],
      "stateMutability": "view",
      "type": "function"
    },
    {
      "inputs": [],
      "name": "ROLE_ADMIN",
      "outputs": [
        {
          "internalType": "bytes32",
          "name": "",
          "type": "bytes32"
        }
      ],
      "stateMutability": "view",
      "type": "function"
    },
    {
      "inputs": [],
      "name": "ROUTER_PLUGIN",
      "outputs": [
        {
          "internalType": "bytes32",
          "name": "",
          "type": "bytes32"
        }
      ],
      "stateMutability": "view",
      "type": "function"
    },
    {
      "inputs": [],
      "name": "TIMELOCK_ADMIN",
      "outputs": [
        {
          "internalType": "bytes32",
          "name": "",
          "type": "bytes32"
        }
      ],
      "stateMutability": "view",
      "type": "function"
    },
    {
      "inputs": [],
      "name": "TIMELOCK_MULTISIG",
      "outputs": [
        {
          "internalType": "bytes32",
          "name": "",
          "type": "bytes32"
        }
      ],
      "stateMutability": "view",
      "type": "function"
    }
  ],
  "bytecode": "0x61040861003a600b82828239805160001a60731461002d57634e487b7160e01b600052600060045260246000fd5b30600052607381538281f3fe73000000000000000000000000000000000000000030146080604052600436106100b95760003560e01c80634479d97b146100be5780635fac3ab1146100d85780636ed0f620146100e05780639b8b49f8146100e85780639ecff617146100f0578063a0074230146100f8578063c66aade114610100578063cf7fb1d014610108578063d391014b14610110578063e2ff47b314610118578063ee0fc12114610120578063f13c5a4b14610128578063fd66316314610130575b600080fd5b6100c6610138565b60405190815260200160405180910390f35b6100c6610186565b6100c66101b7565b6100c66101e7565b6100c6610218565b6100c661024a565b6100c6610281565b6100c66102b2565b6100c66102e0565b6100c661030e565b6100c6610340565b6100c661036e565b6100c66103a4565b60405160200161016d9060208082526011908201527054494d454c4f434b5f4d554c544953494760781b604082015260600190565b6040516020818303038152906040528051906020012081565b60405160200161016d906020808252600d908201526c26a0a925a2aa2fa5a2a2a822a960991b604082015260600190565b60405160200161016d906020808252600c908201526b27a92222a92fa5a2a2a822a960a11b604082015260600190565b60405160200161016d906020808252600d908201526c2927aaaa22a92fa8262aa3a4a760991b604082015260600190565b60405160200161016d906020808252600e908201526d282924a1a4a723afa5a2a2a822a960911b604082015260600190565b60405160200161016d90602080825260139082015272232927ad22a72fa7a92222a92fa5a2a2a822a960691b604082015260600190565b60405160200161016d906020808252600d908201526c21a7a72324a3afa5a2a2a822a960991b604082015260600190565b60405160200161016d906020808252600a90820152692322a2afa5a2a2a822a960b11b604082015260600190565b60405160200161016d906020808252600a90820152692927a622afa0a226a4a760b11b604082015260600190565b60405160200161016d906020808252600e908201526d2a24a6a2a627a1a5afa0a226a4a760911b604082015260600190565b60405160200161016d906020808252600a908201526921a7a72a2927a62622a960b11b604082015260600190565b60405160200161016d906020808252601290820152712624a8aaa4a220aa24a7a72fa5a2a2a822a960711b604082015260600190565b60405160200161016d906020808252600a908201526920a2262fa5a2a2a822a960b11b60408201526060019056fea2646970667358221220b9ac1eeed5cc89bb56e4b8f5e905b5d5f39366a3f844b8a1d08b42de6d0e779564736f6c63430008120033",
  "linkReferences": {},
  "deployedLinkReferences": {}
}