{
  "_format": "hh-sol-artifact-1",
  "contractName": "MarketUtils",
  "sourceName": "contracts/market/MarketUtils.sol",
  "abi": [
    {
      "inputs": [
        {
          "internalType": "address",
          "name": "market",
          "type": "address"
        }
      ],
      "name": "DisabledMarket",
      "type": "error"
    },
    {
      "inputs": [
        {
          "internalType": "address",
          "name": "market",
          "type": "address"
        },
        {
          "internalType": "address",
          "name": "token",
          "type": "address"
        }
      ],
      "name": "EmptyAddressInMarketTokenBalanceValidation",
      "type": "error"
    },
    {
      "inputs": [],
      "name": "EmptyMarket",
      "type": "error"
    },
    {
      "inputs": [
        {
          "internalType": "address",
          "name": "market",
          "type": "address"
        },
        {
          "internalType": "address",
          "name": "token",
          "type": "address"
        },
        {
          "internalType": "uint256",
          "name": "balance",
          "type": "uint256"
        },
        {
          "internalType": "uint256",
          "name": "expectedMinBalance",
          "type": "uint256"
        }
      ],
      "name": "InvalidMarketTokenBalance",
      "type": "error"
    },
    {
      "inputs": [
        {
          "internalType": "address",
          "name": "market",
          "type": "address"
        },
        {
          "internalType": "address",
          "name": "token",
          "type": "address"
        },
        {
          "internalType": "uint256",
          "name": "balance",
          "type": "uint256"
        },
        {
          "internalType": "uint256",
          "name": "claimableFundingFeeAmount",
          "type": "uint256"
        }
      ],
      "name": "InvalidMarketTokenBalanceForClaimableFunding",
      "type": "error"
    },
    {
      "inputs": [
        {
          "internalType": "address",
          "name": "market",
          "type": "address"
        },
        {
          "internalType": "address",
          "name": "token",
          "type": "address"
        },
        {
          "internalType": "uint256",
          "name": "balance",
          "type": "uint256"
        },
        {
          "internalType": "uint256",
          "name": "collateralAmount",
          "type": "uint256"
        }
      ],
      "name": "InvalidMarketTokenBalanceForCollateralAmount",
      "type": "error"
    },
    {
      "inputs": [
        {
          "internalType": "uint256",
          "name": "x",
          "type": "uint256"
        }
      ],
      "name": "PRBMathUD60x18__Exp2InputTooBig",
      "type": "error"
    },
    {
      "inputs": [
        {
          "internalType": "uint256",
          "name": "x",
          "type": "uint256"
        }
      ],
      "name": "PRBMathUD60x18__LogInputTooSmall",
      "type": "error"
    },
    {
      "inputs": [
        {
          "internalType": "uint256",
          "name": "prod1",
          "type": "uint256"
        }
      ],
      "name": "PRBMath__MulDivFixedPointOverflow",
      "type": "error"
    },
    {
      "inputs": [],
      "name": "UnableToGetBorrowingFactorEmptyPoolUsd",
      "type": "error"
    },
    {
      "inputs": [],
      "name": "UnableToGetFundingFactorEmptyOpenInterest",
      "type": "error"
    },
    {
      "inputs": [
        {
          "internalType": "contract DataStore",
          "name": "dataStore",
          "type": "DataStore"
        },
        {
          "components": [
            {
              "internalType": "address",
              "name": "marketToken",
              "type": "address"
            },
            {
              "internalType": "address",
              "name": "indexToken",
              "type": "address"
            },
            {
              "internalType": "address",
              "name": "longToken",
              "type": "address"
            },
            {
              "internalType": "address",
              "name": "shortToken",
              "type": "address"
            }
          ],
          "internalType": "struct Market.Props",
          "name": "market",
          "type": "tuple"
        },
        {
          "components": [
            {
              "internalType": "uint256",
              "name": "min",
              "type": "uint256"
            },
            {
              "internalType": "uint256",
              "name": "max",
              "type": "uint256"
            }
          ],
          "internalType": "struct Price.Props",
          "name": "indexTokenPrice",
          "type": "tuple"
        },
        {
          "components": [
            {
              "internalType": "uint256",
              "name": "min",
              "type": "uint256"
            },
            {
              "internalType": "uint256",
              "name": "max",
              "type": "uint256"
            }
          ],
          "internalType": "struct Price.Props",
          "name": "longTokenPrice",
          "type": "tuple"
        },
        {
          "components": [
            {
              "internalType": "uint256",
              "name": "min",
              "type": "uint256"
            },
            {
              "internalType": "uint256",
              "name": "max",
              "type": "uint256"
            }
          ],
          "internalType": "struct Price.Props",
          "name": "shortTokenPrice",
          "type": "tuple"
        },
        {
          "internalType": "bytes32",
          "name": "pnlFactorType",
          "type": "bytes32"
        },
        {
          "internalType": "bool",
          "name": "maximize",
          "type": "bool"
        }
      ],
      "name": "getMarketTokenPrice",
      "outputs": [
        {
          "internalType": "int256",
          "name": "",
          "type": "int256"
        },
        {
          "components": [
            {
              "internalType": "int256",
              "name": "poolValue",
              "type": "int256"
            },
            {
              "internalType": "int256",
              "name": "longPnl",
              "type": "int256"
            },
            {
              "internalType": "int256",
              "name": "shortPnl",
              "type": "int256"
            },
            {
              "internalType": "int256",
              "name": "netPnl",
              "type": "int256"
            },
            {
              "internalType": "uint256",
              "name": "longTokenAmount",
              "type": "uint256"
            },
            {
              "internalType": "uint256",
              "name": "shortTokenAmount",
              "type": "uint256"
            },
            {
              "internalType": "uint256",
              "name": "longTokenUsd",
              "type": "uint256"
            },
            {
              "internalType": "uint256",
              "name": "shortTokenUsd",
              "type": "uint256"
            },
            {
              "internalType": "uint256",
              "name": "totalBorrowingFees",
              "type": "uint256"
            },
            {
              "internalType": "uint256",
              "name": "borrowingFeePoolFactor",
              "type": "uint256"
            },
            {
              "internalType": "uint256",
              "name": "impactPoolAmount",
              "type": "uint256"
            }
          ],
          "internalType": "struct MarketPoolValueInfo.Props",
          "name": "",
          "type": "tuple"
        }
      ],
      "stateMutability": "view",
      "type": "function"
    },
    {
      "inputs": [
        {
          "internalType": "contract DataStore",
          "name": "dataStore",
          "type": "DataStore"
        },
        {
          "components": [
            {
              "internalType": "address",
              "name": "marketToken",
              "type": "address"
            },
            {
              "internalType": "address",
              "name": "indexToken",
              "type": "address"
            },
            {
              "internalType": "address",
              "name": "longToken",
              "type": "address"
            },
            {
              "internalType": "address",
              "name": "shortToken",
              "type": "address"
            }
          ],
          "internalType": "struct Market.Props",
          "name": "market",
          "type": "tuple"
        },
        {
          "components": [
            {
              "internalType": "uint256",
              "name": "min",
              "type": "uint256"
            },
            {
              "internalType": "uint256",
              "name": "max",
              "type": "uint256"
            }
          ],
          "internalType": "struct Price.Props",
          "name": "indexTokenPrice",
          "type": "tuple"
        },
        {
          "components": [
            {
              "internalType": "uint256",
              "name": "min",
              "type": "uint256"
            },
            {
              "internalType": "uint256",
              "name": "max",
              "type": "uint256"
            }
          ],
          "internalType": "struct Price.Props",
          "name": "longTokenPrice",
          "type": "tuple"
        },
        {
          "components": [
            {
              "internalType": "uint256",
              "name": "min",
              "type": "uint256"
            },
            {
              "internalType": "uint256",
              "name": "max",
              "type": "uint256"
            }
          ],
          "internalType": "struct Price.Props",
          "name": "shortTokenPrice",
          "type": "tuple"
        },
        {
          "internalType": "bytes32",
          "name": "pnlFactorType",
          "type": "bytes32"
        },
        {
          "internalType": "bool",
          "name": "maximize",
          "type": "bool"
        }
      ],
      "name": "getPoolValueInfo",
      "outputs": [
        {
          "components": [
            {
              "internalType": "int256",
              "name": "poolValue",
              "type": "int256"
            },
            {
              "internalType": "int256",
              "name": "longPnl",
              "type": "int256"
            },
            {
              "internalType": "int256",
              "name": "shortPnl",
              "type": "int256"
            },
            {
              "internalType": "int256",
              "name": "netPnl",
              "type": "int256"
            },
            {
              "internalType": "uint256",
              "name": "longTokenAmount",
              "type": "uint256"
            },
            {
              "internalType": "uint256",
              "name": "shortTokenAmount",
              "type": "uint256"
            },
            {
              "internalType": "uint256",
              "name": "longTokenUsd",
              "type": "uint256"
            },
            {
              "internalType": "uint256",
              "name": "shortTokenUsd",
              "type": "uint256"
            },
            {
              "internalType": "uint256",
              "name": "totalBorrowingFees",
              "type": "uint256"
            },
            {
              "internalType": "uint256",
              "name": "borrowingFeePoolFactor",
              "type": "uint256"
            },
            {
              "internalType": "uint256",
              "name": "impactPoolAmount",
              "type": "uint256"
            }
          ],
          "internalType": "struct MarketPoolValueInfo.Props",
          "name": "",
          "type": "tuple"
        }
      ],
      "stateMutability": "view",
      "type": "function"
    },
    {
      "inputs": [
        {
          "internalType": "contract DataStore",
          "name": "dataStore",
          "type": "DataStore"
        },
        {
          "components": [
            {
              "internalType": "address",
              "name": "marketToken",
              "type": "address"
            },
            {
              "internalType": "address",
              "name": "indexToken",
              "type": "address"
            },
            {
              "internalType": "address",
              "name": "longToken",
              "type": "address"
            },
            {
              "internalType": "address",
              "name": "shortToken",
              "type": "address"
            }
          ],
          "internalType": "struct Market.Props",
          "name": "market",
          "type": "tuple"
        }
      ],
      "name": "validateMarketTokenBalance",
      "outputs": [],
      "stateMutability": "view",
      "type": "function"
    },
    {
      "inputs": [
        {
          "internalType": "contract DataStore",
          "name": "dataStore",
          "type": "DataStore"
        },
        {
          "internalType": "address",
          "name": "_market",
          "type": "address"
        }
      ],
      "name": "validateMarketTokenBalance",
      "outputs": [],
      "stateMutability": "view",
      "type": "function"
    },
    {
      "inputs": [
        {
          "internalType": "contract DataStore",
          "name": "dataStore",
          "type": "DataStore"
        },
        {
          "components": [
            {
              "internalType": "address",
              "name": "marketToken",
              "type": "address"
            },
            {
              "internalType": "address",
              "name": "indexToken",
              "type": "address"
            },
            {
              "internalType": "address",
              "name": "longToken",
              "type": "address"
            },
            {
              "internalType": "address",
              "name": "shortToken",
              "type": "address"
            }
          ],
          "internalType": "struct Market.Props[]",
          "name": "markets",
          "type": "tuple[]"
        }
      ],
      "name": "validateMarketTokenBalance",
      "outputs": [],
      "stateMutability": "view",
      "type": "function"
    }
  ],
  "bytecode": "0x613e5b61003a600b82828239805160001a60731461002d57634e487b7160e01b600052600060045260246000fd5b30600052607381538281f3fe73000000000000000000000000000000000000000030146080604052600436106100825760003560e01c80631450a8791461008757806339b1348f146100a95780635930015e146100bc5780637b672c9a146100cf5780637d494dc3146100e2578063b656ff7a1461010c578063d2ab7dc01461012c578063f2e2a4f51461014c575b600080fd5b81801561009357600080fd5b506100a76100a236600461381a565b61016c565b005b6100a76100b736600461388b565b610215565b6100a76100ca3660046138c1565b61025c565b6100a76100dd3660046138fa565b610279565b6100f56100f03660046139c1565b6102ba565b604051610103929190613ac0565b60405180910390f35b81801561011857600080fd5b506100a7610127366004613ad5565b610353565b81801561013857600080fd5b506100a7610147366004613b43565b61037d565b61015f61015a3660046139c1565b610524565b6040516101039190613b9e565b600061017a868585856107f8565b91505061018e86868660000151858561085c565b856001600160a01b031663e2a4853a6101ab86600001518561096c565b426040518363ffffffff1660e01b81526004016101c9929190613bad565b6020604051808303816000875af11580156101e8573d6000803e3d6000fd5b505050506040513d601f19601f8201168201806040525081019061020c9190613bbb565b50505050505050565b61022482828360400151610a13565b80606001516001600160a01b031681604001516001600160a01b031603610249575050565b61025882828360600151610a13565b5050565b60006102688383610c11565b90506102748382610215565b505050565b60005b8151811015610274576102a88383838151811061029b5761029b613bd4565b6020026020010151610215565b806102b281613c00565b91505061027c565b60006102c461353c565b60006102d38960000151610cc5565b905060006102e68b8b8b8b8b8b8b610524565b9050816000036103105761030568327cb2734119d3b7a9601e1b610d29565b935091506103479050565b8051600003610326576000935091506103479050565b600061033f670de0b6b3a7640000836000015185610d97565b945090925050505b97509795505050505050565b600061036488888888888888610de0565b905061037288888884610e27565b505050505050505050565b600061038a858484610eae565b90506103af858585600001518660400151600186604001516000015160000151611295565b6103d2858585600001518660400151600086604001516020015160000151611295565b6103f5858585600001518660600151600186604001516000015160200151611295565b610418858585600001518660600151600086604001516020015160200151611295565b82516040840151606083015151516104369288928892600190611394565b610459858585600001518660400151600086606001516020015160000151611394565b61047c858585600001518660600151600186606001516000015160200151611394565b61049f858585600001518660600151600086606001516020015160200151611394565b846001600160a01b031663e2a4853a6104bb856000015161145b565b426040518363ffffffff1660e01b81526004016104d9929190613bad565b6020604051808303816000875af11580156104f8573d6000803e3d6000fd5b505050506040513d601f19601f8201168201806040525081019061051c9190613bbb565b505050505050565b61052c61353c565b61053461353c565b61054389898a604001516114dd565b6080820152606088015161055a908a908a906114dd565b60a0820152610569868461157b565b81608001516105789190613c19565b60c0820152610587858461157b565b8160a001516105969190613c19565b60e0820181905260c08201516105b4916105af91613c30565b610d29565b815260408051606081018252888152602081018890529081018690526105dd8a8a836001611592565b6101008301526105f08a8a836000611592565b82610100018181516106029190613c30565b9052506040516001600160a01b038b169063bd02d0f590610657906020016020808252601d908201527f424f52524f57494e475f4645455f52454345495645525f464143544f52000000604082015260600190565b604051602081830303815290604052805190602001206040518263ffffffff1660e01b815260040161068b91815260200190565b602060405180830381865afa1580156106a8573d6000803e3d6000fd5b505050506040513d601f19601f820116820180604052508101906106cc9190613bbb565b6106e29068327cb2734119d3b7a9601e1b613c43565b61012083018190526101008301516106fe916105af91906115e7565b8251839061070d908390613c56565b90525061071f8a8a8a60018815611600565b60208301819052895160c084015161073e928d9291600191908a61168c565b60208301526107528a8a8a60008815611600565b60408301819052895160e0840151610771928d9291600091908a61168c565b6040830181905260208301516107879190613c56565b60608301819052825161079a9190613c7e565b825288516107a9908b906116dc565b61014083015260006107bc89861561157b565b8361014001516107cc9190613c19565b90506107d781610d29565b835184906107e6908390613c7e565b905250919a9950505050505050505050565b600080600061080c87876000015186611755565b9050600061081c88888888611781565b9050600061082f8989600001518861196e565b9050600061083d8385613c19565b9050600061084b8284613c30565b9b919a509098505050505050505050565b6000856001600160a01b031663340dbab361087786866119e8565b846040518363ffffffff1660e01b8152600401610895929190613bad565b6020604051808303816000875af11580156108b4573d6000803e3d6000fd5b505050506040513d601f19601f820116820180604052508101906108d89190613bbb565b60405163d206b70560e01b81526001600160a01b038088166004830152861660248201528415156044820152606481018490526084810182905290915073__$c1eebf06e53d0bd092f667687cf73e1ebf$__9063d206b7059060a40160006040518083038186803b15801561094c57600080fd5b505af4158015610960573d6000803e3d6000fd5b50505050505050505050565b60006040516020016109be9060208082526026908201527f43554d554c41544956455f424f52524f57494e475f464143544f525f5550444160408201526515115117d05560d21b606082015260800190565b60408051601f198184030181528282528051602091820120908301526001600160a01b0385169082015282151560608201526080015b6040516020818303038152906040528051906020012090505b92915050565b81516001600160a01b03161580610a3157506001600160a01b038116155b15610a5d57815160405163e474a42560e01b8152610a5491908390600401613ca5565b60405180910390fd5b81516040516370a0823160e01b81526000916001600160a01b038416916370a0823191610a8c91600401613cbf565b602060405180830381865afa158015610aa9573d6000803e3d6000fd5b505050506040513d601f19601f82011682018060405250810190610acd9190613bbb565b90506000610adc858585611a29565b905080821015610b085783516040516333a1ea6b60e01b8152610a549190859085908590600401613cd3565b6000610b1c86866000015186600180611d43565b9050610b318686600001518660006001611d43565b610b3b9082613c30565b905080831015610b6757845160405163808c464f60e01b8152610a549190869086908590600401613cd3565b6000866001600160a01b031663bd02d0f5610b86886000015188611dc9565b6040518263ffffffff1660e01b8152600401610ba491815260200190565b602060405180830381865afa158015610bc1573d6000803e3d6000fd5b505050506040513d601f19601f82011682018060405250810190610be59190613bbb565b90508084101561020c578551604051639dd026db60e01b8152610a549190879087908590600401613cd3565b60408051608081018252600080825260208201819052918101829052606081019190915260405163a8d8fff560e01b815260009073__$ff439aa65a80c9eec648f15db20b189505$__9063a8d8fff590610c719087908790600401613ca5565b608060405180830381865af4158015610c8e573d6000803e3d6000fd5b505050506040513d601f19601f82011682018060405250810190610cb29190613cfc565b9050610cbe8482611e44565b9392505050565b6000816001600160a01b03166318160ddd6040518163ffffffff1660e01b8152600401602060405180830381865afa158015610d05573d6000803e3d6000fd5b505050506040513d601f19601f82011682018060405250810190610a0d9190613bbb565b60006001600160ff1b03821115610d935760405162461bcd60e51b815260206004820152602860248201527f53616665436173743a2076616c756520646f65736e27742066697420696e2061604482015267371034b73a191a9b60c11b6064820152608401610a54565b5090565b600080610dad85610da786611f0d565b85611f20565b905060008413610dce57610dc081610d29565b610dc990613d63565b610dd7565b610dd781610d29565b95945050505050565b600080610dee898989611f2d565b9050610dfa86866115e7565b610e049082613c43565b9050610e1084846115e7565b610e1a9082613c30565b9998505050505050505050565b6000846001600160a01b031663e2a4853a610e428686611f44565b846040518363ffffffff1660e01b8152600401610e60929190613bad565b6020604051808303816000875af1158015610e7f573d6000803e3d6000fd5b505050506040513d601f19601f82011682018060405250810190610ea39190613bbb565b90505b949350505050565b610eb6613596565b610ebe613596565b610ec66135c7565b6000610eda86604001518760600151611f79565b9050610ef28787600001518860400151600185611fa8565b8251515285516060870151610f0b918991600185611fa8565b8251516020015285516040870151610f27918991600085611fa8565b8251602001515285516060870151610f43918991600085611fa8565b8251602090810151810191909152825151908101519051610f649190613c30565b6020808401919091528251810151908101519051610f829190613c30565b604083015260208201511580610f9a57506040820151155b15610faa57829350505050610cbe565b610fb8878760000151611fc5565b606083015260208201516040830151610fd1919061205d565b608083015260408201516020830151610fea9190613c30565b60a0830152604082015160208301511161100857816040015161100e565b81602001515b60c08301528551608083015160a084015161102c928a92909161207f565b6020840181905260c0830151606084015161104f9261104a91613c19565b6115e7565b60e08301819052611061908290613d95565b60e08301526040820151602083015111808452156110c05760e0820151825151516020840151611092929190611f20565b61010083015260e0820151825151602090810151908401516110b5929190611f20565b610120830152611108565b60e08201518251602001515160408401516110dc929190611f20565b61010083015260e0820151825160209081015101516040840151611101929190611f20565b6101208301525b8251156111ca5761010082015182515151602080880151015161112e929190600161218b565b604080850151519190915261012083015183515160209081015192880151015161115a9290600161218b565b83604001516000015160200181815250506111898261010001518360400151876020015160200151600061218b565b83606001516020015160000181815250506111b88261012001518360400151876040015160200151600061218b565b6060840151602090810151015261128a565b6111f082610100015183600001516020015160000151876020015160200151600161218b565b836040015160200151600001818152505061122782610120015183600001516020015160200151876040015160200151600161218b565b83604001516020015160200181815250506112568261010001518360200151876020015160200151600061218b565b6060840151515261012082015160208084015160408801519091015161127f929190600061218b565b606084015151602001525b509095945050505050565b801561051c576000866001600160a01b0316633dbacd1a6112b78787876121f3565b846040518363ffffffff1660e01b81526004016112d5929190613bad565b6020604051808303816000875af11580156112f4573d6000803e3d6000fd5b505050506040513d601f19601f820116820180604052508101906113189190613bbb565b6040516261034760e41b815290915073__$c1eebf06e53d0bd092f667687cf73e1ebf$__9063061034709061135b90899089908990899089908990600401613db7565b60006040518083038186803b15801561137357600080fd5b505af4158015611387573d6000803e3d6000fd5b5050505050505050505050565b801561051c576000866001600160a01b0316633dbacd1a6113b6878787612294565b846040518363ffffffff1660e01b81526004016113d4929190613bad565b6020604051808303816000875af11580156113f3573d6000803e3d6000fd5b505050506040513d601f19601f820116820180604052508101906114179190613bbb565b604051636d6b205960e01b815290915073__$c1eebf06e53d0bd092f667687cf73e1ebf$__90636d6b20599061135b90899089908990899089908990600401613db7565b60006040516020016114939060208082526012908201527111955391125391d7d554111055115117d05560721b604082015260600190565b60408051601f198184030181528282528051602091820120908301526001600160a01b03841690820152606001604051602081830303815290604052805190602001209050919050565b6000806114f284604001518560600151611f79565b905080856001600160a01b031663bd02d0f56115128760000151876122e1565b6040518263ffffffff1660e01b815260040161153091815260200190565b602060405180830381865afa15801561154d573d6000803e3d6000fd5b505050506040513d601f19601f820116820180604052508101906115719190613bbb565b610dd79190613d95565b600081611589578251610cbe565b50506020015190565b6000806115a0868685612312565b905060006115b0878787876107f8565b50905060006115c488886000015187611f2d565b9050806115d184846115e7565b6115db9190613c43565b98975050505050505050565b6000610cbe838368327cb2734119d3b7a9601e1b611f20565b6000806116116105af888887612312565b90506000611620888887612370565b905081158061162d575080155b1561163d57600092505050610dd7565b600061164a8787876123b7565b9050600061165b6105af8385613c19565b90506000876116735761166e8286613c7e565b61167d565b61167d8583613c7e565b9b9a5050505050505050505050565b60008084121561169d5750826116d2565b60006116ab888489896123f0565b905060006116bc6105af86846115e7565b90508086136116cb57856116cd565b805b925050505b9695505050505050565b6000826001600160a01b031663bd02d0f56116f684612447565b6040518263ffffffff1660e01b815260040161171491815260200190565b602060405180830381865afa158015611731573d6000803e3d6000fd5b505050506040513d601f19601f82011682018060405250810190610cbe9190613bbb565b600080611763858585612488565b905080600003611777576000915050610cbe565b610dd78142613c43565b600080611790868686866124a3565b9050806000036117a4576000915050610ea6565b6000866001600160a01b0316637ae1cfca6040516020016118029060208082526023908201527f534b49505f424f52524f57494e475f4645455f464f525f534d414c4c45525f5360408201526249444560e81b606082015260800190565b604051602081830303815290604052805190602001206040518263ffffffff1660e01b815260040161183691815260200190565b602060405180830381865afa158015611853573d6000803e3d6000fd5b505050506040513d601f19601f820116820180604052508101906118779190613df2565b905080156118df57600061188d88886001612312565b9050600061189d89896000612312565b90508580156118ab57508082105b156118bd576000945050505050610ea6565b851580156118ca57508181105b156118dc576000945050505050610ea6565b50505b60006118ef8888888860006124df565b90508060000361191257604051630d5f5aef60e31b815260040160405180910390fd5b600061192389896000015188612558565b905060006119318583612573565b9050600061193f82856125d2565b905060006119528c8c600001518b6125e0565b905061195e82826115e7565b9c9b505050505050505050505050565b6000836001600160a01b031663bd02d0f561198985856119e8565b6040518263ffffffff1660e01b81526004016119a791815260200190565b602060405180830381865afa1580156119c4573d6000803e3d6000fd5b505050506040513d601f19601f82011682018060405250810190610ea69190613bbb565b60006040516020016109be906020808252601b908201527a21aaa6aaa620aa24ab22afa127a92927aba4a723afa320a1aa27a960291b604082015260600190565b6000611a646040518060c001604052806000815260200160008152602001600081526020016000815260200160008152602001600081525090565b846001600160a01b031663bd02d0f5611a818660000151866122e1565b6040518263ffffffff1660e01b8152600401611a9f91815260200190565b602060405180830381865afa158015611abc573d6000803e3d6000fd5b505050506040513d601f19601f82011682018060405250810190611ae09190613bbb565b81528351611af0908690856125fb565b602082015283516001600160a01b0386169063bd02d0f590611b129086612616565b6040518263ffffffff1660e01b8152600401611b3091815260200190565b602060405180830381865afa158015611b4d573d6000803e3d6000fd5b505050506040513d601f19601f82011682018060405250810190611b719190613bbb565b604082015283516001600160a01b0386169063bd02d0f590611b939086612657565b6040518263ffffffff1660e01b8152600401611bb191815260200190565b602060405180830381865afa158015611bce573d6000803e3d6000fd5b505050506040513d601f19601f82011682018060405250810190611bf29190613bbb565b606082015283516001600160a01b0386169063bd02d0f590611c149086612691565b6040518263ffffffff1660e01b8152600401611c3291815260200190565b602060405180830381865afa158015611c4f573d6000803e3d6000fd5b505050506040513d601f19601f82011682018060405250810190611c739190613bbb565b608082015283516001600160a01b0386169063bd02d0f590611c9590866126ce565b6040518263ffffffff1660e01b8152600401611cb391815260200190565b602060405180830381865afa158015611cd0573d6000803e3d6000fd5b505050506040513d601f19601f82011682018060405250810190611cf49190613bbb565b60a0820181905260808201516060830151604084015160208501518551611d1b9190613c30565b611d259190613c30565b611d2f9190613c30565b611d399190613c30565b610dd79190613c30565b600081866001600160a01b031663bd02d0f5611d60888888612704565b6040518263ffffffff1660e01b8152600401611d7e91815260200190565b602060405180830381865afa158015611d9b573d6000803e3d6000fd5b505050506040513d601f19601f82011682018060405250810190611dbf9190613bbb565b6116d29190613d95565b6000604051602001611e079060208082526018908201527710d31052535050931157d1955391125391d7d05353d5539560421b604082015260600190565b60408051601f198184030181528282528051602091820120908301526001600160a01b0380861691830191909152831660608201526080016109f4565b80516001600160a01b0316611e6c576040516302fde0d760e11b815260040160405180910390fd5b6000826001600160a01b0316637ae1cfca611e8a8460000151612738565b6040518263ffffffff1660e01b8152600401611ea891815260200190565b602060405180830381865afa158015611ec5573d6000803e3d6000fd5b505050506040513d601f19601f82011682018060405250810190611ee99190613df2565b905080156102745781516040516309f8c93760e01b8152610a549190600401613cbf565b600080821215610d935781600003610a0d565b6000610ea6848484612770565b6000836001600160a01b031663bd02d0f561198985855b60006040516020016109be906020808252600f908201526e544f54414c5f424f52524f57494e4760881b604082015260600190565b6000816001600160a01b0316836001600160a01b031614611f9b576001611f9e565b60025b60ff169392505050565b600081866001600160a01b031663bd02d0f5611d6088888861281f565b600080836001600160a01b031663bd02d0f5611fe08561145b565b6040518263ffffffff1660e01b8152600401611ffe91815260200190565b602060405180830381865afa15801561201b573d6000803e3d6000fd5b505050506040513d601f19601f8201168201806040525081019061203f9190613bbb565b905080600003612053576000915050610a0d565b610ea68142613c43565b6000818311612075576120708383613c43565b610cbe565b610cbe8284613c43565b600080856001600160a01b031663bd02d0f561209a87612852565b6040518263ffffffff1660e01b81526004016120b891815260200190565b602060405180830381865afa1580156120d5573d6000803e3d6000fd5b505050506040513d601f19601f820116820180604052508101906120f99190613bbb565b90508015612108579050610ea6565b8360000361211a576000915050610ea6565b8260000361213b576040516311423d9560e01b815260040160405180910390fd5b6000612147878761288d565b9050600061215588886128a7565b905060006121638783612573565b9050600061217182886125d2565b905061217d81856115e7565b9a9950505050505050505050565b6000841580612198575083155b156121a557506000610ea6565b60006121cf866121c866038d7ea4c6800068327cb2734119d3b7a9601e1b613c19565b87866128c1565b905082156121e9576121e181856128e8565b915050610ea6565b6121e18482613d95565b6000604051602001612234906020808252601b908201527a46554e44494e475f4645455f414d4f554e545f5045525f53495a4560281b604082015260600190565b60408051601f198184030181528282528051602091820120908301526001600160a01b038087169183019190915284166060820152821515608082015260a0015b6040516020818303038152906040528051906020012090509392505050565b60006040516020016122349060208082526021908201527f434c41494d41424c455f46554e44494e475f414d4f554e545f5045525f53495a6040820152604560f81b606082015260800190565b6000604051602001611e07906020808252600b908201526a1413d3d317d05353d5539560aa1b604082015260600190565b60008061232784604001518560600151611f79565b9050600061234086866000015187604001518786611fa8565b9050600061235987876000015188606001518887611fa8565b90506123658183613c30565b979650505050505050565b60008061238584604001518560600151611f79565b9050600061239e8686600001518760400151878661290b565b905060006123598787600001518860600151888761290b565b600082156123d857816123cb5783516123d1565b83602001515b9050610cbe565b816123e7578360200151610ea6565b50509051919050565b6000846001600160a01b031663bd02d0f561240c868686612928565b6040518263ffffffff1660e01b815260040161242a91815260200190565b602060405180830381865afa158015610e7f573d6000803e3d6000fd5b6000604051602001611493906020808252601b908201527a1413d4d2551253d397d253541050d517d413d3d317d05353d55395602a1b604082015260600190565b6000836001600160a01b031663bd02d0f5611989858561096c565b60008082156124d45760006124b9878786612370565b8551602001519091506124cc9082613c19565b915050610ea3565b6116d2868685612312565b600080836124f15785606001516124f7565b85604001515b905060006125068888846114dd565b90506000841561253457856125235786604001516020015161252d565b8660200151602001515b905061254e565b856125445760408701515161254b565b6020870151515b90505b610e1a8183613c19565b6000836001600160a01b031663bd02d0f5611989858561299c565b600068327cb2734119d3b7a9601e1b83101561259157506000610a0d565b68327cb2734119d3b7a9601e1b82036125ab575081610a0d565b60006125c76125b9856129db565b6125c2856129db565b6129ec565b9050610ea681612a2e565b6000610cbe83836000612a3f565b6000836001600160a01b031663bd02d0f56119898585612a87565b6000836001600160a01b031663bd02d0f56119898585612abd565b6000604051602001611e07906020808252601b908201527a10d31052535050931157d0d3d31310551154905317d05353d55395602a1b604082015260600190565b6000604051602001611e079060208082526014908201527310d31052535050931157d1915157d05353d5539560621b604082015260600190565b6000604051602001611e079060208082526017908201527610d31052535050931157d55257d1915157d05353d55395604a1b604082015260600190565b6000604051602001611e079060208082526010908201526f10519192531250551157d49155d0549160821b604082015260600190565b6000604051602001612234906020808252600e908201526d434f4c4c41544552414c5f53554d60901b604082015260600190565b6000604051602001611493906020808252601290820152711254d7d3505492d15517d11254d05093115160721b604082015260600190565b60008080600019858709858702925082811083820303915050806000036127aa578382816127a0576127a0613d7f565b0492505050610cbe565b8084116127b657600080fd5b60008486880960026001871981018816978890046003810283188082028403028082028403028082028403028082028403028082028403029081029092039091026000889003889004909101858311909403939093029303949094049190911702949350505050565b6000604051602001612234906020808252600d908201526c13d4115397d2539511549154d5609a1b604082015260600190565b60006040516020016114939060208082526015908201527429aa20a12622afa32aa72224a723afa320a1aa27a960591b604082015260600190565b6000826001600160a01b031663bd02d0f56116f684612afa565b6000826001600160a01b031663bd02d0f56116f684612b2e565b600081156128dd576128d68585856001612b6b565b9050610ea6565b610ea3858585612770565b60008160016128f78286613c30565b6129019190613c43565b610cbe9190613d95565b600081866001600160a01b031663bd02d0f5611d60888888612bbc565b600060405160200161295c906020808252600e908201526d26a0ac2fa827262fa320a1aa27a960911b604082015260600190565b60408051601f1981840301815282825280516020918201209083015281018590526001600160a01b0384166060820152821515608082015260a001612275565b60006040516020016109be906020808252601990820152782127a92927aba4a723afa2ac2827a722a72a2fa320a1aa27a960391b604082015260600190565b6000610a0d64e8d4a5100083613d95565b600082600003612a14578115612a03576000612a0d565b670de0b6b3a76400005b9050610a0d565b610cbe612a29612a2385612bf9565b84612caf565b612cbb565b6000610a0d64e8d4a5100083613c19565b600083600003612a5157506000610cbe565b8115612a70576123d18468327cb2734119d3b7a9601e1b856001612b6b565b610ea68468327cb2734119d3b7a9601e1b85612770565b60006040516020016109be9060208082526010908201526f2127a92927aba4a723afa320a1aa27a960811b604082015260600190565b6000604051602001611e079060208082526017908201527614d5d05417d253541050d517d413d3d317d05353d55395604a1b604082015260600190565b6000604051602001611493906020808252600e908201526d232aa72224a723afa320a1aa27a960911b604082015260600190565b600060405160200161149390602080825260179082015276232aa72224a723afa2ac2827a722a72a2fa320a1aa27a960491b604082015260600190565b600080612b79868686612770565b90506001836002811115612b8f57612b8f613e0f565b148015612bac575060008480612ba757612ba7613d7f565b868809115b15610ea3576116d2600182613c30565b6000604051602001612234906020808252601790820152764f50454e5f494e5445524553545f494e5f544f4b454e5360481b604082015260600190565b6000670de0b6b3a7640000821015612c2757604051633621413760e21b815260048101839052602401610a54565b6000612c3c670de0b6b3a76400008404612d01565b670de0b6b3a764000081029250905082811c670de0b6b3a763ffff198101612c65575050919050565b6706f05b59d3b200005b8015612ca757670de0b6b3a7640000828002049150671bc16d674ec800008210612c9f579283019260019190911c905b60011c612c6f565b505050919050565b6000610cbe8383612de4565b6000680a688906bd8b0000008210612ce957604051634a4f26f160e01b815260048101839052602401610a54565b670de0b6b3a7640000604083901b04610cbe81612eaa565b6000600160801b8210612d2157608091821c91612d1e9082613c30565b90505b600160401b8210612d3f57604091821c91612d3c9082613c30565b90505b600160201b8210612d5d57602091821c91612d5a9082613c30565b90505b620100008210612d7a57601091821c91612d779082613c30565b90505b6101008210612d9657600891821c91612d939082613c30565b90505b60108210612db157600491821c91612dae9082613c30565b90505b60048210612dcc57600291821c91612dc99082613c30565b90505b60028210612ddf57610a0d600182613c30565b919050565b60008080600019848609848602925082811083820303915050670de0b6b3a76400008110612e285760405163698d9a0160e11b815260048101829052602401610a54565b600080670de0b6b3a764000086880991506706f05b59d3b1ffff8211905082600003612e665780670de0b6b3a7640000850401945050505050610a0d565b620400008285030493909111909103600160ee1b02919091177faccb18165bd6fe31ae1cf318dc5b51eee0e1ba569b88cd74c1773b91fac106690201905092915050565b600160bf1b6001603f1b821615612eca5768016a09e667f3bcc9090260401c5b6001603e1b821615612ee5576801306fe0a31b7152df0260401c5b6001603d1b821615612f00576801172b83c7d517adce0260401c5b6001603c1b821615612f1b5768010b5586cf9890f62a0260401c5b6001603b1b821615612f36576801059b0d31585743ae0260401c5b6001603a1b821615612f5157680102c9a3e778060ee70260401c5b600160391b821615612f6c5768010163da9fb33356d80260401c5b600160381b821615612f8757680100b1afa5abcbed610260401c5b600160371b821615612fa25768010058c86da1c09ea20260401c5b600160361b821615612fbd576801002c605e2e8cec500260401c5b600160351b821615612fd857680100162f3904051fa10260401c5b600160341b821615612ff3576801000b175effdc76ba0260401c5b600160331b82161561300e57680100058ba01fb9f96d0260401c5b600160321b8216156130295768010002c5cc37da94920260401c5b600160311b821615613044576801000162e525ee05470260401c5b600160301b82161561305f5768010000b17255775c040260401c5b6001602f1b82161561307a576801000058b91b5bc9ae0260401c5b6001602e1b82161561309557680100002c5c89d5ec6d0260401c5b6001602d1b8216156130b05768010000162e43f4f8310260401c5b6001602c1b8216156130cb57680100000b1721bcfc9a0260401c5b6001602b1b8216156130e65768010000058b90cf1e6e0260401c5b6001602a1b821615613101576801000002c5c863b73f0260401c5b600160291b82161561311c57680100000162e430e5a20260401c5b600160281b821615613137576801000000b1721835510260401c5b600160271b82161561315257680100000058b90c0b490260401c5b600160261b82161561316d5768010000002c5c8601cc0260401c5b600160251b821615613188576801000000162e42fff00260401c5b600160241b8216156131a35768010000000b17217fbb0260401c5b600160231b8216156131be576801000000058b90bfce0260401c5b600160221b8216156131d957680100000002c5c85fe30260401c5b600160211b8216156131f45768010000000162e42ff10260401c5b600160201b82161561320f57680100000000b17217f80260401c5b638000000082161561322a5768010000000058b90bfc0260401c5b6340000000821615613245576801000000002c5c85fe0260401c5b632000000082161561326057680100000000162e42ff0260401c5b631000000082161561327b576801000000000b17217f0260401c5b630800000082161561329657680100000000058b90c00260401c5b63040000008216156132b15768010000000002c5c8600260401c5b63020000008216156132cc576801000000000162e4300260401c5b63010000008216156132e75768010000000000b172180260401c5b62800000821615613301576801000000000058b90c0260401c5b6240000082161561331b57680100000000002c5c860260401c5b622000008216156133355768010000000000162e430260401c5b6210000082161561334f57680100000000000b17210260401c5b620800008216156133695768010000000000058b910260401c5b62040000821615613383576801000000000002c5c80260401c5b6202000082161561339d57680100000000000162e40260401c5b620100008216156133b65761b172600160401b010260401c5b6180008216156133ce576158b9600160401b010260401c5b6140008216156133e657612c5d600160401b010260401c5b6120008216156133fe5761162e600160401b010260401c5b61100082161561341657610b17600160401b010260401c5b61080082161561342e5761058c600160401b010260401c5b610400821615613446576102c6600160401b010260401c5b61020082161561345e57610163600160401b010260401c5b6101008216156134755760b1600160401b010260401c5b608082161561348b576059600160401b010260401c5b60408216156134a157602c600160401b010260401c5b60208216156134b7576016600160401b010260401c5b60108216156134cd57600b600160401b010260401c5b60088216156134e3576006600160401b010260401c5b60048216156134f9576003600160401b010260401c5b600282161561350f576001600160401b010260401c5b6001821615613525576001600160401b010260401c5b670de0b6b3a76400000260409190911c60bf031c90565b60405180610160016040528060008152602001600081526020016000815260200160008152602001600081526020016000815260200160008152602001600081526020016000815260200160008152602001600081525090565b60408051608081018252600080825260208201529081016135b5613620565b81526020016135c2613620565b905290565b6040518061014001604052806135db613620565b81526020016000815260200160008152602001600081526020016000815260200160008152602001600081526020016000815260200160008152602001600081525090565b604080516080810182526000918101828152606082019290925290819081526020016135c2604051806040016040528060008152602001600081525090565b6001600160a01b038116811461367457600080fd5b50565b634e487b7160e01b600052604160045260246000fd5b604051608081016001600160401b03811182821017156136af576136af613677565b60405290565b604051601f8201601f191681016001600160401b03811182821017156136dd576136dd613677565b604052919050565b6000608082840312156136f757600080fd5b6136ff61368d565b9050813561370c8161365f565b8152602082013561371c8161365f565b6020820152604082013561372f8161365f565b604082015260608201356137428161365f565b606082015292915050565b60006040828403121561375f57600080fd5b604080519081016001600160401b038111828210171561378157613781613677565b604052823581526020928301359281019290925250919050565b600060c082840312156137ad57600080fd5b604051606081016001600160401b03811182821017156137cf576137cf613677565b6040529050806137df848461374d565b81526137ee846040850161374d565b6020820152613800846080850161374d565b60408201525092915050565b801515811461367457600080fd5b60008060008060006101a0868803121561383357600080fd5b853561383e8161365f565b9450602086013561384e8161365f565b935061385d87604088016136e5565b925061386c8760c0880161379b565b915061018086013561387d8161380c565b809150509295509295909350565b60008060a0838503121561389e57600080fd5b82356138a98161365f565b91506138b884602085016136e5565b90509250929050565b600080604083850312156138d457600080fd5b82356138df8161365f565b915060208301356138ef8161365f565b809150509250929050565b6000806040838503121561390d57600080fd5b82356139188161365f565b91506020838101356001600160401b038082111561393557600080fd5b818601915086601f83011261394957600080fd5b81358181111561395b5761395b613677565b613969848260051b016136b5565b818152848101925060079190911b83018401908882111561398957600080fd5b928401925b818410156139b2576139a089856136e5565b8352848301925060808401935061398e565b80955050505050509250929050565b60008060008060008060006101a0888a0312156139dd57600080fd5b87356139e88161365f565b96506139f78960208a016136e5565b9550613a068960a08a0161374d565b9450613a158960e08a0161374d565b9350613a25896101208a0161374d565b92506101608801359150610180880135613a3e8161380c565b8091505092959891949750929550565b805182526020810151602083015260408101516040830152606081015160608301526080810151608083015260a081015160a083015260c081015160c083015260e081015160e08301526101008082015181840152506101208082015181840152506101408082015181840152505050565b8281526101808101610cbe6020830184613a4e565b600080600080600080600060e0888a031215613af057600080fd5b8735613afb8161365f565b96506020880135613b0b8161365f565b95506040880135613b1b8161380c565b969995985095966060810135965060808101359560a0820135955060c0909101359350915050565b6000806000806101808587031215613b5a57600080fd5b8435613b658161365f565b93506020850135613b758161365f565b9250613b8486604087016136e5565b9150613b938660c0870161379b565b905092959194509250565b6101608101610a0d8284613a4e565b918252602082015260400190565b600060208284031215613bcd57600080fd5b5051919050565b634e487b7160e01b600052603260045260246000fd5b634e487b7160e01b600052601160045260246000fd5b600060018201613c1257613c12613bea565b5060010190565b8082028115828204841417610a0d57610a0d613bea565b80820180821115610a0d57610a0d613bea565b81810381811115610a0d57610a0d613bea565b8082018281126000831280158216821582161715613c7657613c76613bea565b505092915050565b8181036000831280158383131683831282161715613c9e57613c9e613bea565b5092915050565b6001600160a01b0392831681529116602082015260400190565b6001600160a01b0391909116815260200190565b6001600160a01b0394851681529290931660208301526040820152606081019190915260800190565b600060808284031215613d0e57600080fd5b613d1661368d565b8251613d218161365f565b81526020830151613d318161365f565b60208201526040830151613d448161365f565b60408201526060830151613d578161365f565b60608201529392505050565b6000600160ff1b8201613d7857613d78613bea565b5060000390565b634e487b7160e01b600052601260045260246000fd5b600082613db257634e487b7160e01b600052601260045260246000fd5b500490565b6001600160a01b039687168152948616602086015292909416604084015215156060830152608082019290925260a081019190915260c00190565b600060208284031215613e0457600080fd5b8151610cbe8161380c565b634e487b7160e01b600052602160045260246000fdfea2646970667358221220790825083400218b6f8b2d38dd343a933078515c4d02cec4f8fa1b70ed63fc8464736f6c63430008120033",
  "linkReferences": {
    "contracts/market/MarketEventUtils.sol": {
      "MarketEventUtils": [
        {
          "length": 20,
          "start": 2385
        },
        {
          "length": 20,
          "start": 4963
        },
        {
          "length": 20,
          "start": 5219
        }
      ]
    },
    "contracts/market/MarketStoreUtils.sol": {
      "MarketStoreUtils": [
        {
          "length": 20,
          "start": 3201
        }
      ]
    }
  },
  "deployedLinkReferences": {
    "contracts/market/MarketEventUtils.sol": {
      "MarketEventUtils": [
        {
          "length": 20,
          "start": 2327
        },
        {
          "length": 20,
          "start": 4905
        },
        {
          "length": 20,
          "start": 5161
        }
      ]
    },
    "contracts/market/MarketStoreUtils.sol": {
      "MarketStoreUtils": [
        {
          "length": 20,
          "start": 3143
        }
      ]
    }
  }
}