{
  "_format": "hh-sol-artifact-1",
  "contractName": "LiquidationHandler",
  "sourceName": "contracts/exchange/LiquidationHandler.sol",
  "abi": [
    {
      "inputs": [
        {
          "internalType": "contract RoleStore",
          "name": "_roleStore",
          "type": "address"
        },
        {
          "internalType": "contract DataStore",
          "name": "_dataStore",
          "type": "address"
        },
        {
          "internalType": "contract EventEmitter",
          "name": "_eventEmitter",
          "type": "address"
        },
        {
          "internalType": "contract OrderVault",
          "name": "_orderVault",
          "type": "address"
        },
        {
          "internalType": "contract Oracle",
          "name": "_oracle",
          "type": "address"
        },
        {
          "internalType": "contract SwapHandler",
          "name": "_swapHandler",
          "type": "address"
        },
        {
          "internalType": "contract IReferralStorage",
          "name": "_referralStorage",
          "type": "address"
        }
      ],
      "stateMutability": "nonpayable",
      "type": "constructor"
    },
    {
      "inputs": [
        {
          "internalType": "uint256[]",
          "name": "compactedValues",
          "type": "uint256[]"
        },
        {
          "internalType": "uint256",
          "name": "index",
          "type": "uint256"
        },
        {
          "internalType": "uint256",
          "name": "slotIndex",
          "type": "uint256"
        },
        {
          "internalType": "string",
          "name": "label",
          "type": "string"
        }
      ],
      "name": "CompactedArrayOutOfBounds",
      "type": "error"
    },
    {
      "inputs": [
        {
          "internalType": "bytes32",
          "name": "key",
          "type": "bytes32"
        }
      ],
      "name": "DisabledFeature",
      "type": "error"
    },
    {
      "inputs": [
        {
          "internalType": "address",
          "name": "market",
          "type": "address"
        }
      ],
      "name": "DisabledMarket",
      "type": "error"
    },
    {
      "inputs": [
        {
          "internalType": "uint256",
          "name": "index",
          "type": "uint256"
        }
      ],
      "name": "EmptyCompactedBlockNumber",
      "type": "error"
    },
    {
      "inputs": [],
      "name": "EmptyMarket",
      "type": "error"
    },
    {
      "inputs": [
        {
          "internalType": "address",
          "name": "market",
          "type": "address"
        }
      ],
      "name": "InvalidSwapMarket",
      "type": "error"
    },
    {
      "inputs": [
        {
          "internalType": "address",
          "name": "msgSender",
          "type": "address"
        },
        {
          "internalType": "string",
          "name": "role",
          "type": "string"
        }
      ],
      "name": "Unauthorized",
      "type": "error"
    },
    {
      "anonymous": false,
      "inputs": [
        {
          "indexed": false,
          "internalType": "string",
          "name": "reason",
          "type": "string"
        }
      ],
      "name": "OracleError",
      "type": "event"
    },
    {
      "inputs": [],
      "name": "dataStore",
      "outputs": [
        {
          "internalType": "contract DataStore",
          "name": "",
          "type": "address"
        }
      ],
      "stateMutability": "view",
      "type": "function"
    },
    {
      "inputs": [],
      "name": "eventEmitter",
      "outputs": [
        {
          "internalType": "contract EventEmitter",
          "name": "",
          "type": "address"
        }
      ],
      "stateMutability": "view",
      "type": "function"
    },
    {
      "inputs": [
        {
          "internalType": "address",
          "name": "account",
          "type": "address"
        },
        {
          "internalType": "address",
          "name": "market",
          "type": "address"
        },
        {
          "internalType": "address",
          "name": "collateralToken",
          "type": "address"
        },
        {
          "internalType": "bool",
          "name": "isLong",
          "type": "bool"
        },
        {
          "components": [
            {
              "internalType": "uint256",
              "name": "signerInfo",
              "type": "uint256"
            },
            {
              "internalType": "address[]",
              "name": "tokens",
              "type": "address[]"
            },
            {
              "internalType": "uint256[]",
              "name": "compactedMinOracleBlockNumbers",
              "type": "uint256[]"
            },
            {
              "internalType": "uint256[]",
              "name": "compactedMaxOracleBlockNumbers",
              "type": "uint256[]"
            },
            {
              "internalType": "uint256[]",
              "name": "compactedOracleTimestamps",
              "type": "uint256[]"
            },
            {
              "internalType": "uint256[]",
              "name": "compactedDecimals",
              "type": "uint256[]"
            },
            {
              "internalType": "uint256[]",
              "name": "compactedMinPrices",
              "type": "uint256[]"
            },
            {
              "internalType": "uint256[]",
              "name": "compactedMinPricesIndexes",
              "type": "uint256[]"
            },
            {
              "internalType": "uint256[]",
              "name": "compactedMaxPrices",
              "type": "uint256[]"
            },
            {
              "internalType": "uint256[]",
              "name": "compactedMaxPricesIndexes",
              "type": "uint256[]"
            },
            {
              "internalType": "bytes[]",
              "name": "signatures",
              "type": "bytes[]"
            },
            {
              "internalType": "address[]",
              "name": "priceFeedTokens",
              "type": "address[]"
            },
            {
              "internalType": "address[]",
              "name": "realtimeFeedTokens",
              "type": "address[]"
            },
            {
              "internalType": "bytes[]",
              "name": "realtimeFeedData",
              "type": "bytes[]"
            }
          ],
          "internalType": "struct OracleUtils.SetPricesParams",
          "name": "oracleParams",
          "type": "tuple"
        }
      ],
      "name": "executeLiquidation",
      "outputs": [],
      "stateMutability": "nonpayable",
      "type": "function"
    },
    {
      "inputs": [],
      "name": "oracle",
      "outputs": [
        {
          "internalType": "contract Oracle",
          "name": "",
          "type": "address"
        }
      ],
      "stateMutability": "view",
      "type": "function"
    },
    {
      "inputs": [],
      "name": "orderVault",
      "outputs": [
        {
          "internalType": "contract OrderVault",
          "name": "",
          "type": "address"
        }
      ],
      "stateMutability": "view",
      "type": "function"
    },
    {
      "inputs": [],
      "name": "referralStorage",
      "outputs": [
        {
          "internalType": "contract IReferralStorage",
          "name": "",
          "type": "address"
        }
      ],
      "stateMutability": "view",
      "type": "function"
    },
    {
      "inputs": [],
      "name": "roleStore",
      "outputs": [
        {
          "internalType": "contract RoleStore",
          "name": "",
          "type": "address"
        }
      ],
      "stateMutability": "view",
      "type": "function"
    },
    {
      "inputs": [],
      "name": "swapHandler",
      "outputs": [
        {
          "internalType": "contract SwapHandler",
          "name": "",
          "type": "address"
        }
      ],
      "stateMutability": "view",
      "type": "function"
    }
  ],
  "bytecode": "0x6101606040523480156200001257600080fd5b506040516200253438038062002534833981016040819052620000359162000085565b6001600160a01b0395861660805295851660a05292841660c05290831660e052821661012052811661010052166101405262000130565b6001600160a01b03811681146200008257600080fd5b50565b600080600080600080600060e0888a031215620000a157600080fd5b8751620000ae816200006c565b6020890151909750620000c1816200006c565b6040890151909650620000d4816200006c565b6060890151909550620000e7816200006c565b6080890151909450620000fa816200006c565b60a08901519093506200010d816200006c565b60c089015190925062000120816200006c565b8091505092959891949750929550565b60805160a05160c05160e051610100516101205161014051612335620001ff600039600081816081015261096501526000818161010c01528181610241015261090f015260008181610133015261093a01526000818161015a01526108e4015260008181610181015281816102830152818161034f01526108b901526000818160be01526106f701526000818160e501528181610262015281816103270152818161051c01528181610624015281816107d601528181610857015281816108910152610b0801526123356000f3fe608060405234801561001057600080fd5b50600436106100775760003560e01c80626cc35e1461007c5780634a4a7b04146100b9578063660d0d67146100e05780637dc0d1d0146101075780638a53aaac1461012e57806393845e46146101555780639ff78c301461017c578063fa124210146101a3575b600080fd5b6100a37f000000000000000000000000000000000000000000000000000000000000000081565b6040516100b091906112d1565b60405180910390f35b6100a37f000000000000000000000000000000000000000000000000000000000000000081565b6100a37f000000000000000000000000000000000000000000000000000000000000000081565b6100a37f000000000000000000000000000000000000000000000000000000000000000081565b6100a37f000000000000000000000000000000000000000000000000000000000000000081565b6100a37f000000000000000000000000000000000000000000000000000000000000000081565b6100a37f000000000000000000000000000000000000000000000000000000000000000081565b6101b66101b1366004611308565b6101b8565b005b6101c0610518565b61023f6040516020016101f9906020808252601290820152712624a8aaa4a220aa24a7a72fa5a2a2a822a960711b604082015260600190565b60405160208183030381529060405280519060200120604051806040016040528060128152602001712624a8aaa4a220aa24a7a72fa5a2a2a822a960711b8152506106e0565b7f00000000000000000000000000000000000000000000000000000000000000007f00000000000000000000000000000000000000000000000000000000000000007f00000000000000000000000000000000000000000000000000000000000000006102ab84611642565b6040516304a76ae360e21b81526001600160a01b0385169063129dab8c906102db9086908690869060040161196b565b600060405180830381600087803b1580156102f557600080fd5b505af1158015610309573d6000803e3d6000fd5b5050505060005a60405163cd17310760e01b81526001600160a01b037f0000000000000000000000000000000000000000000000000000000000000000811660048301527f000000000000000000000000000000000000000000000000000000000000000081166024830152808d166044830152808c1660648301528a16608482015288151560a482015290915060009073__$24ecf20cb15267250766fd478de108983d$__9063cd1731079060c401602060405180830381865af41580156103d6573d6000803e3d6000fd5b505050506040513d601f19601f820116820180604052508101906103fa9190611b25565b905060006104148261040b8a611642565b33866000610790565b8051516040820151602001515191925061044991610444903090600781111561043f5761043f611b3e565b610a45565b610adb565b604051630893a94f60e41b815273__$18943158f75973db0541c3d7c8650b2485$__9063893a94f090610480908490600401611d3f565b60006040518083038186803b15801561049857600080fd5b505af41580156104ac573d6000803e3d6000fd5b50505050505050836001600160a01b031662ccf1556040518163ffffffff1660e01b8152600401600060405180830381600087803b1580156104ed57600080fd5b505af1158015610501573d6000803e3d6000fd5b5050505050505050610511610b06565b5050505050565b60007f00000000000000000000000000000000000000000000000000000000000000006001600160a01b031663bd02d0f560405160200161055890611e6e565b604051602081830303815290604052805190602001206040518263ffffffff1660e01b815260040161058c91815260200190565b602060405180830381865afa1580156105a9573d6000803e3d6000fd5b505050506040513d601f19601f820116820180604052508101906105cd9190611b25565b905080156106225760405162461bcd60e51b815260206004820152601f60248201527f5265656e7472616e637947756172643a207265656e7472616e742063616c6c0060448201526064015b60405180910390fd5b7f00000000000000000000000000000000000000000000000000000000000000006001600160a01b031663e2a4853a60405160200161066090611e6e565b60408051601f198184030181529082905280516020909101206001600160e01b031960e084901b1682526004820152600160248201526044016020604051808303816000875af11580156106b8573d6000803e3d6000fd5b505050506040513d601f19601f820116820180604052508101906106dc9190611b25565b5050565b60405163ac4ab3fb60e01b81526001600160a01b037f0000000000000000000000000000000000000000000000000000000000000000169063ac4ab3fb9061072e9033908690600401611e9f565b602060405180830381865afa15801561074b573d6000803e3d6000fd5b505050506040513d601f19601f8201168201806040525081019061076f9190611eb8565b6106dc57338160405163a35b150b60e01b8152600401610619929190611ed5565b610798611150565b6107a0611150565b6020810187905260405163fdfc26f360e01b815273__$9dcb75ef0bb6c4288f2ccffe7dc492c4eb$__9063fdfc26f390610800907f0000000000000000000000000000000000000000000000000000000000000000908b90600401611e9f565b600060405180830381865af415801561081d573d6000803e3d6000fd5b505050506040513d6000823e601f3d908101601f19168201604052610845919081019061207b565b604082018190525160c0015161087c907f000000000000000000000000000000000000000000000000000000000000000090610bc3565b60608083019190915281516001600160a01b037f0000000000000000000000000000000000000000000000000000000000000000811690915282517f0000000000000000000000000000000000000000000000000000000000000000821660209182015283517f0000000000000000000000000000000000000000000000000000000000000000831660409182015284517f0000000000000000000000000000000000000000000000000000000000000000841694019390935283517f0000000000000000000000000000000000000000000000000000000000000000831660809091015283517f000000000000000000000000000000000000000000000000000000000000000090921660a0909201919091529087015190870151516109a39190610c89565b608082015260608601516020870151516109bd9190610c89565b60a0820152604081015151608001516001600160a01b0316156109f757805151604082015151608001516109f19190610d15565b60c08201525b6001600160a01b03851660e082015261010081018490526101208101836001811115610a2557610a25611b3e565b90816001811115610a3857610a38611b3e565b9052509695505050505050565b6000604051602001610a88906020808252601e908201527f455845435554455f4f524445525f464541545552455f44495341424c45440000604082015260600190565b60408051601f198184030181528282528051602091820120908301526001600160a01b03851690820152606081018390526080016040516020818303038152906040528051906020012090505b92915050565b610ae58282610dad565b156106dc5760405163dd70e0c960e01b815260048101829052602401610619565b7f00000000000000000000000000000000000000000000000000000000000000006001600160a01b031663e2a4853a604051602001610b4490611e6e565b60408051601f198184030181529082905280516020909101206001600160e01b031960e084901b1682526004820152600060248201526044016020604051808303816000875af1158015610b9c573d6000803e3d6000fd5b505050506040513d601f19601f82011682018060405250810190610bc09190611b25565b50565b6060600082516001600160401b03811115610be057610be0611397565b604051908082528060200260200182016040528015610c1957816020015b610c066111dc565b815260200190600190039081610bfe5790505b50905060005b8351811015610c81576000848281518110610c3c57610c3c61219f565b60200260200101519050610c508682610e19565b838381518110610c6257610c6261219f565b6020026020010181905250508080610c79906121cb565b915050610c1f565b509392505050565b60606000826001600160401b03811115610ca557610ca5611397565b604051908082528060200260200182016040528015610cce578160200160208202803683370190505b50905060005b83811015610c8157610ce68582610eaa565b828281518110610cf857610cf861219f565b602090810291909101015280610d0d816121cb565b915050610cd4565b610d1d6111dc565b60405163a8d8fff560e01b815260009073__$ff439aa65a80c9eec648f15db20b189505$__9063a8d8fff590610d5990879087906004016121e4565b608060405180830381865af4158015610d76573d6000803e3d6000fd5b505050506040513d601f19601f82011682018060405250810190610d9a91906121fe565b9050610da68482610f1c565b9392505050565b604051633d70e7e560e11b8152600481018290526000906001600160a01b03841690637ae1cfca90602401602060405180830381865afa158015610df5573d6000803e3d6000fd5b505050506040513d601f19601f82011682018060405250810190610da69190611eb8565b610e216111dc565b60405163a8d8fff560e01b815260009073__$ff439aa65a80c9eec648f15db20b189505$__9063a8d8fff590610e5d90879087906004016121e4565b608060405180830381865af4158015610e7a573d6000803e3d6000fd5b505050506040513d601f19601f82011682018060405250810190610e9e91906121fe565b9050610da68482610fea565b600080610ef68484604060c0600019901c6040518060400160405280601f81526020017f676574556e636f6d7061637465644f7261636c65426c6f636b4e756d62657200815250611031565b905080600003610da65760405163349f5fdd60e11b815260048101849052602401610619565b80516001600160a01b0316610f44576040516302fde0d760e11b815260040160405180910390fd5b6000826001600160a01b0316637ae1cfca610f6284600001516110ce565b6040518263ffffffff1660e01b8152600401610f8091815260200190565b602060405180830381865afa158015610f9d573d6000803e3d6000fd5b505050506040513d601f19601f82011682018060405250810190610fc19190611eb8565b90508015610fe55781516040516309f8c93760e01b815261061991906004016112d1565b505050565b610ff48282610f1c565b80606001516001600160a01b031681604001516001600160a01b0316036106dc5780516040516332e6f44d60e21b815261061991906004016112d1565b60008061104085610100612282565b9050600061104e8288612282565b905087518110611079578787828660405163bdec9c0d60e01b815260040161061994939291906122a4565b600088828151811061108d5761108d61219f565b6020026020010151905060008784846110a691906122d5565b6110b0908b6122ec565b6110ba91906122d5565b9190911c8616935050505095945050505050565b6000604051602001611106906020808252601290820152711254d7d3505492d15517d11254d05093115160721b604082015260600190565b60408051601f198184030181528282528051602091820120908301526001600160a01b03841690820152606001604051602081830303815290604052805190602001209050919050565b604080516102008101825260006101408201818152610160830182905261018083018290526101a083018290526101c083018290526101e083018290528252602082015290810161119f611203565b81526020016060815260200160608152602001606081526020016111c16111dc565b81526000602082018190526040820181905260609091015290565b60408051608081018252600080825260208201819052918101829052606081019190915290565b604080516101408101909152600060608083018281526080840183905260a0840183905260c0840183905260e084018390526101008401929092526101208301528152602081016112a160408051610140810190915280600081526020016000815260200160008152602001600081526020016000815260200160008152602001600081526020016000815260200160008152602001600081525090565b815260408051606081018252600080825260208281018290529282015291015290565b6001600160a01b03169052565b6001600160a01b0391909116815260200190565b6001600160a01b0381168114610bc057600080fd5b8015158114610bc057600080fd5b600080600080600060a0868803121561132057600080fd5b853561132b816112e5565b9450602086013561133b816112e5565b9350604086013561134b816112e5565b9250606086013561135b816112fa565b915060808601356001600160401b0381111561137657600080fd5b86016101c0818903121561138957600080fd5b809150509295509295909350565b634e487b7160e01b600052604160045260246000fd5b6040516101c081016001600160401b03811182821017156113d0576113d0611397565b60405290565b60405161014081016001600160401b03811182821017156113d0576113d0611397565b604051606081016001600160401b03811182821017156113d0576113d0611397565b60405160e081016001600160401b03811182821017156113d0576113d0611397565b604051601f8201601f191681016001600160401b038111828210171561146557611465611397565b604052919050565b60006001600160401b0382111561148657611486611397565b5060051b60200190565b600082601f8301126114a157600080fd5b813560206114b66114b18361146d565b61143d565b82815260059290921b840181019181810190868411156114d557600080fd5b8286015b848110156114f95780356114ec816112e5565b83529183019183016114d9565b509695505050505050565b600082601f83011261151557600080fd5b813560206115256114b18361146d565b82815260059290921b8401810191818101908684111561154457600080fd5b8286015b848110156114f95780358352918301918301611548565b6000601f838184011261157157600080fd5b823560206115816114b18361146d565b82815260059290921b850181019181810190878411156115a057600080fd5b8287015b848110156116365780356001600160401b03808211156115c45760008081fd5b818a0191508a603f8301126115d95760008081fd5b858201356040828211156115ef576115ef611397565b611600828b01601f1916890161143d565b92508183528c818386010111156116175760008081fd5b81818501898501375060009082018701528452509183019183016115a4565b50979650505050505050565b60006101c0823603121561165557600080fd5b61165d6113ad565b8235815260208301356001600160401b038082111561167b57600080fd5b61168736838701611490565b602084015260408501359150808211156116a057600080fd5b6116ac36838701611504565b604084015260608501359150808211156116c557600080fd5b6116d136838701611504565b606084015260808501359150808211156116ea57600080fd5b6116f636838701611504565b608084015260a085013591508082111561170f57600080fd5b61171b36838701611504565b60a084015260c085013591508082111561173457600080fd5b61174036838701611504565b60c084015260e085013591508082111561175957600080fd5b61176536838701611504565b60e08401526101009150818501358181111561178057600080fd5b61178c36828801611504565b8385015250610120915081850135818111156117a757600080fd5b6117b336828801611504565b8385015250610140915081850135818111156117ce57600080fd5b6117da3682880161155f565b8385015250610160915081850135818111156117f557600080fd5b61180136828801611490565b83850152506101809150818501358181111561181c57600080fd5b61182836828801611490565b83850152506101a09150818501358181111561184357600080fd5b61184f3682880161155f565b8385015250505080915050919050565b600081518084526020808501945080840160005b838110156118985781516001600160a01b031687529582019590820190600101611873565b509495945050505050565b600081518084526020808501945080840160005b83811015611898578151875295820195908201906001016118b7565b6000815180845260005b818110156118f9576020818501810151868301820152016118dd565b506000602082860101526020601f19601f83011685010191505092915050565b6000815180845260208085019450848260051b860182860160005b8581101561195e57838303895261194c8383516118d3565b98850198925090840190600101611934565b5090979650505050505050565b600060018060a01b038086168352808516602084015250606060408301528251606083015260208301516101c08060808501526119ac61022085018361185f565b91506040850151605f19808685030160a08701526119ca84836118a3565b935060608701519150808685030160c08701526119e784836118a3565b935060808701519150808685030160e0870152611a0484836118a3565b935060a08701519150610100818786030181880152611a2385846118a3565b945060c08801519250610120828887030181890152611a4286856118a3565b955060e089015193506101408389880301818a0152611a6187866118a3565b9650828a0151945061016092508389880301838a0152611a8187866118a3565b9650818a0151945061018091508389880301828a0152611aa187866118a3565b9650808a01519450506101a08389880301818a0152611ac08786611919565b9650828a015194508389880301868a0152611adb878661185f565b9650818a0151955083898803016101e08a0152611af8878761185f565b9650808a0151955050505080868503016102008701525050611b1a8282611919565b979650505050505050565b600060208284031215611b3757600080fd5b5051919050565b634e487b7160e01b600052602160045260246000fd5b60088110611b6457611b64611b3e565b9052565b60038110611b6457611b64611b3e565b611b83828251611b54565b6020810151611b956020840182611b68565b5060408101516040830152606081015160608301526080810151608083015260a081015160a083015260c081015160c083015260e081015160e08301526101008082015181840152506101208082015181840152505050565b80516101c080845281516001600160a01b0390811691850191909152602082015181166101e08501526040820151166102008401526060810151600091611c396102208601836112c4565b60808101519150611c4e6102408601836112c4565b60a08101519150611c636102608601836112c4565b60c0015160e06102808601529050611c7f6102a085018261185f565b90506020830151611c936020860182611b78565b5060408381015180511515610160870152602081015115156101808701529081015115156101a0860152610c81565b80516001600160a01b03908116835260208083015182169084015260408083015182169084015260609182015116910152565b600081518084526020808501945080840160005b8381101561189857611d1c878351611cc2565b6080969096019590820190600101611d09565b60028110611b6457611b64611b3e565b60208152611d9760208201835180516001600160a01b03908116835260208083015182169084015260408083015182169084015260608083015182169084015260808083015182169084015260a09182015116910152565b602082015160e0820152600060408301516102406101008181860152611dc1610260860184611bee565b92506060860151601f19610120818887030181890152611de18684611cf5565b9550608089015192508188870301610140890152611dff86846118a3565b955060a089015192508188870301610160890152611e1d86846118a3565b955060c08901519250611e34610180890184611cc2565b60e08901519250611e496102008901846112c4565b928801516102208801525050850151611e6482860182611d2f565b5090949350505050565b6020808252601790820152765245454e5452414e43595f47554152445f53544154555360481b604082015260600190565b6001600160a01b03929092168252602082015260400190565b600060208284031215611eca57600080fd5b8151610da6816112fa565b6001600160a01b0383168152604060208201819052600090611ef9908301846118d3565b949350505050565b8051611f0c816112e5565b919050565b600082601f830112611f2257600080fd5b81516020611f326114b18361146d565b82815260059290921b84018101918181019086841115611f5157600080fd5b8286015b848110156114f9578051611f68816112e5565b8352918301918301611f55565b805160088110611f0c57600080fd5b805160038110611f0c57600080fd5b60006101408284031215611fa657600080fd5b611fae6113d6565b9050611fb982611f75565b8152611fc760208301611f84565b602082015260408201516040820152606082015160608201526080820151608082015260a082015160a082015260c082015160c082015260e082015160e082015261010080830151818301525061012080830151818301525092915050565b60006060828403121561203857600080fd5b6120406113f9565b9050815161204d816112fa565b8152602082015161205d816112fa565b60208201526040820151612070816112fa565b604082015292915050565b60006020828403121561208d57600080fd5b81516001600160401b03808211156120a457600080fd5b908301906101c082860312156120b957600080fd5b6120c16113f9565b8251828111156120d057600080fd5b830160e081880312156120e257600080fd5b6120ea61141b565b6120f382611f01565b815261210160208301611f01565b602082015261211260408301611f01565b604082015261212360608301611f01565b606082015261213460808301611f01565b608082015261214560a08301611f01565b60a082015260c08201518481111561215c57600080fd5b61216889828501611f11565b60c08301525082525061217e8660208501611f93565b6020820152612191866101608501612026565b604082015295945050505050565b634e487b7160e01b600052603260045260246000fd5b634e487b7160e01b600052601160045260246000fd5b6000600182016121dd576121dd6121b5565b5060010190565b6001600160a01b0392831681529116602082015260400190565b60006080828403121561221057600080fd5b604051608081016001600160401b038111828210171561223257612232611397565b6040528251612240816112e5565b81526020830151612250816112e5565b60208201526040830151612263816112e5565b60408201526060830151612276816112e5565b60608201529392505050565b60008261229f57634e487b7160e01b600052601260045260246000fd5b500490565b6080815260006122b760808301876118a3565b8560208401528460408401528281036060840152611b1a81856118d3565b8082028115828204841417610ad557610ad56121b5565b81810381811115610ad557610ad56121b556fea2646970667358221220010a42ba2df8b1e279b6d7f12cb048582b87b9b39ed0fcc07859b873c272833364736f6c63430008120033",
  "linkReferences": {
    "contracts/liquidation/LiquidationUtils.sol": {
      "LiquidationUtils": [
        {
          "length": 20,
          "start": 1435
        }
      ]
    },
    "contracts/market/MarketStoreUtils.sol": {
      "MarketStoreUtils": [
        {
          "length": 20,
          "start": 3886
        },
        {
          "length": 20,
          "start": 4146
        }
      ]
    },
    "contracts/order/OrderStoreUtils.sol": {
      "OrderStoreUtils": [
        {
          "length": 20,
          "start": 2485
        }
      ]
    },
    "contracts/order/OrderUtils.sol": {
      "OrderUtils": [
        {
          "length": 20,
          "start": 1623
        }
      ]
    }
  },
  "deployedLinkReferences": {
    "contracts/liquidation/LiquidationUtils.sol": {
      "LiquidationUtils": [
        {
          "length": 20,
          "start": 924
        }
      ]
    },
    "contracts/market/MarketStoreUtils.sol": {
      "MarketStoreUtils": [
        {
          "length": 20,
          "start": 3375
        },
        {
          "length": 20,
          "start": 3635
        }
      ]
    },
    "contracts/order/OrderStoreUtils.sol": {
      "OrderStoreUtils": [
        {
          "length": 20,
          "start": 1974
        }
      ]
    },
    "contracts/order/OrderUtils.sol": {
      "OrderUtils": [
        {
          "length": 20,
          "start": 1112
        }
      ]
    }
  }
}