{
  "_format": "hh-sol-artifact-1",
  "contractName": "ReaderUtils",
  "sourceName": "contracts/reader/ReaderUtils.sol",
  "abi": [
    {
      "inputs": [
        {
          "internalType": "uint256",
          "name": "x",
          "type": "uint256"
        }
      ],
      "name": "PRBMathUD60x18__Exp2InputTooBig",
      "type": "error"
    },
    {
      "inputs": [
        {
          "internalType": "uint256",
          "name": "x",
          "type": "uint256"
        }
      ],
      "name": "PRBMathUD60x18__LogInputTooSmall",
      "type": "error"
    },
    {
      "inputs": [
        {
          "internalType": "uint256",
          "name": "prod1",
          "type": "uint256"
        }
      ],
      "name": "PRBMath__MulDivFixedPointOverflow",
      "type": "error"
    },
    {
      "inputs": [],
      "name": "UnableToGetBorrowingFactorEmptyPoolUsd",
      "type": "error"
    },
    {
      "inputs": [
        {
          "internalType": "address",
          "name": "token",
          "type": "address"
        },
        {
          "internalType": "address",
          "name": "market",
          "type": "address"
        }
      ],
      "name": "UnableToGetCachedTokenPrice",
      "type": "error"
    },
    {
      "inputs": [],
      "name": "UnableToGetFundingFactorEmptyOpenInterest",
      "type": "error"
    },
    {
      "inputs": [
        {
          "internalType": "uint256",
          "name": "positionBorrowingFactor",
          "type": "uint256"
        },
        {
          "internalType": "uint256",
          "name": "cumulativeBorrowingFactor",
          "type": "uint256"
        }
      ],
      "name": "UnexpectedBorrowingFactor",
      "type": "error"
    },
    {
      "inputs": [
        {
          "internalType": "contract DataStore",
          "name": "dataStore",
          "type": "DataStore"
        },
        {
          "components": [
            {
              "internalType": "address",
              "name": "marketToken",
              "type": "address"
            },
            {
              "internalType": "address",
              "name": "indexToken",
              "type": "address"
            },
            {
              "internalType": "address",
              "name": "longToken",
              "type": "address"
            },
            {
              "internalType": "address",
              "name": "shortToken",
              "type": "address"
            }
          ],
          "internalType": "struct Market.Props",
          "name": "market",
          "type": "tuple"
        }
      ],
      "name": "getBaseFundingValues",
      "outputs": [
        {
          "components": [
            {
              "components": [
                {
                  "components": [
                    {
                      "internalType": "uint256",
                      "name": "longToken",
                      "type": "uint256"
                    },
                    {
                      "internalType": "uint256",
                      "name": "shortToken",
                      "type": "uint256"
                    }
                  ],
                  "internalType": "struct MarketUtils.CollateralType",
                  "name": "long",
                  "type": "tuple"
                },
                {
                  "components": [
                    {
                      "internalType": "uint256",
                      "name": "longToken",
                      "type": "uint256"
                    },
                    {
                      "internalType": "uint256",
                      "name": "shortToken",
                      "type": "uint256"
                    }
                  ],
                  "internalType": "struct MarketUtils.CollateralType",
                  "name": "short",
                  "type": "tuple"
                }
              ],
              "internalType": "struct MarketUtils.PositionType",
              "name": "fundingFeeAmountPerSize",
              "type": "tuple"
            },
            {
              "components": [
                {
                  "components": [
                    {
                      "internalType": "uint256",
                      "name": "longToken",
                      "type": "uint256"
                    },
                    {
                      "internalType": "uint256",
                      "name": "shortToken",
                      "type": "uint256"
                    }
                  ],
                  "internalType": "struct MarketUtils.CollateralType",
                  "name": "long",
                  "type": "tuple"
                },
                {
                  "components": [
                    {
                      "internalType": "uint256",
                      "name": "longToken",
                      "type": "uint256"
                    },
                    {
                      "internalType": "uint256",
                      "name": "shortToken",
                      "type": "uint256"
                    }
                  ],
                  "internalType": "struct MarketUtils.CollateralType",
                  "name": "short",
                  "type": "tuple"
                }
              ],
              "internalType": "struct MarketUtils.PositionType",
              "name": "claimableFundingAmountPerSize",
              "type": "tuple"
            }
          ],
          "internalType": "struct ReaderUtils.BaseFundingValues",
          "name": "",
          "type": "tuple"
        }
      ],
      "stateMutability": "view",
      "type": "function"
    },
    {
      "inputs": [
        {
          "internalType": "contract DataStore",
          "name": "dataStore",
          "type": "DataStore"
        },
        {
          "components": [
            {
              "internalType": "address",
              "name": "marketToken",
              "type": "address"
            },
            {
              "internalType": "address",
              "name": "indexToken",
              "type": "address"
            },
            {
              "internalType": "address",
              "name": "longToken",
              "type": "address"
            },
            {
              "internalType": "address",
              "name": "shortToken",
              "type": "address"
            }
          ],
          "internalType": "struct Market.Props",
          "name": "market",
          "type": "tuple"
        },
        {
          "components": [
            {
              "components": [
                {
                  "internalType": "uint256",
                  "name": "min",
                  "type": "uint256"
                },
                {
                  "internalType": "uint256",
                  "name": "max",
                  "type": "uint256"
                }
              ],
              "internalType": "struct Price.Props",
              "name": "indexTokenPrice",
              "type": "tuple"
            },
            {
              "components": [
                {
                  "internalType": "uint256",
                  "name": "min",
                  "type": "uint256"
                },
                {
                  "internalType": "uint256",
                  "name": "max",
                  "type": "uint256"
                }
              ],
              "internalType": "struct Price.Props",
              "name": "longTokenPrice",
              "type": "tuple"
            },
            {
              "components": [
                {
                  "internalType": "uint256",
                  "name": "min",
                  "type": "uint256"
                },
                {
                  "internalType": "uint256",
                  "name": "max",
                  "type": "uint256"
                }
              ],
              "internalType": "struct Price.Props",
              "name": "shortTokenPrice",
              "type": "tuple"
            }
          ],
          "internalType": "struct MarketUtils.MarketPrices",
          "name": "prices",
          "type": "tuple"
        }
      ],
      "name": "getNextFundingAmountPerSize",
      "outputs": [
        {
          "components": [
            {
              "internalType": "bool",
              "name": "longsPayShorts",
              "type": "bool"
            },
            {
              "internalType": "uint256",
              "name": "fundingFactorPerSecond",
              "type": "uint256"
            },
            {
              "components": [
                {
                  "components": [
                    {
                      "internalType": "uint256",
                      "name": "longToken",
                      "type": "uint256"
                    },
                    {
                      "internalType": "uint256",
                      "name": "shortToken",
                      "type": "uint256"
                    }
                  ],
                  "internalType": "struct MarketUtils.CollateralType",
                  "name": "long",
                  "type": "tuple"
                },
                {
                  "components": [
                    {
                      "internalType": "uint256",
                      "name": "longToken",
                      "type": "uint256"
                    },
                    {
                      "internalType": "uint256",
                      "name": "shortToken",
                      "type": "uint256"
                    }
                  ],
                  "internalType": "struct MarketUtils.CollateralType",
                  "name": "short",
                  "type": "tuple"
                }
              ],
              "internalType": "struct MarketUtils.PositionType",
              "name": "fundingFeeAmountPerSizeDelta",
              "type": "tuple"
            },
            {
              "components": [
                {
                  "components": [
                    {
                      "internalType": "uint256",
                      "name": "longToken",
                      "type": "uint256"
                    },
                    {
                      "internalType": "uint256",
                      "name": "shortToken",
                      "type": "uint256"
                    }
                  ],
                  "internalType": "struct MarketUtils.CollateralType",
                  "name": "long",
                  "type": "tuple"
                },
                {
                  "components": [
                    {
                      "internalType": "uint256",
                      "name": "longToken",
                      "type": "uint256"
                    },
                    {
                      "internalType": "uint256",
                      "name": "shortToken",
                      "type": "uint256"
                    }
                  ],
                  "internalType": "struct MarketUtils.CollateralType",
                  "name": "short",
                  "type": "tuple"
                }
              ],
              "internalType": "struct MarketUtils.PositionType",
              "name": "claimableFundingAmountPerSizeDelta",
              "type": "tuple"
            }
          ],
          "internalType": "struct MarketUtils.GetNextFundingAmountPerSizeResult",
          "name": "",
          "type": "tuple"
        }
      ],
      "stateMutability": "view",
      "type": "function"
    },
    {
      "inputs": [
        {
          "internalType": "contract DataStore",
          "name": "dataStore",
          "type": "DataStore"
        },
        {
          "internalType": "contract IReferralStorage",
          "name": "referralStorage",
          "type": "IReferralStorage"
        },
        {
          "internalType": "bytes32",
          "name": "positionKey",
          "type": "bytes32"
        },
        {
          "components": [
            {
              "components": [
                {
                  "internalType": "uint256",
                  "name": "min",
                  "type": "uint256"
                },
                {
                  "internalType": "uint256",
                  "name": "max",
                  "type": "uint256"
                }
              ],
              "internalType": "struct Price.Props",
              "name": "indexTokenPrice",
              "type": "tuple"
            },
            {
              "components": [
                {
                  "internalType": "uint256",
                  "name": "min",
                  "type": "uint256"
                },
                {
                  "internalType": "uint256",
                  "name": "max",
                  "type": "uint256"
                }
              ],
              "internalType": "struct Price.Props",
              "name": "longTokenPrice",
              "type": "tuple"
            },
            {
              "components": [
                {
                  "internalType": "uint256",
                  "name": "min",
                  "type": "uint256"
                },
                {
                  "internalType": "uint256",
                  "name": "max",
                  "type": "uint256"
                }
              ],
              "internalType": "struct Price.Props",
              "name": "shortTokenPrice",
              "type": "tuple"
            }
          ],
          "internalType": "struct MarketUtils.MarketPrices",
          "name": "prices",
          "type": "tuple"
        },
        {
          "internalType": "uint256",
          "name": "sizeDeltaUsd",
          "type": "uint256"
        },
        {
          "internalType": "address",
          "name": "uiFeeReceiver",
          "type": "address"
        },
        {
          "internalType": "bool",
          "name": "usePositionSizeAsSizeDeltaUsd",
          "type": "bool"
        }
      ],
      "name": "getPositionInfo",
      "outputs": [
        {
          "components": [
            {
              "components": [
                {
                  "components": [
                    {
                      "internalType": "address",
                      "name": "account",
                      "type": "address"
                    },
                    {
                      "internalType": "address",
                      "name": "market",
                      "type": "address"
                    },
                    {
                      "internalType": "address",
                      "name": "collateralToken",
                      "type": "address"
                    }
                  ],
                  "internalType": "struct Position.Addresses",
                  "name": "addresses",
                  "type": "tuple"
                },
                {
                  "components": [
                    {
                      "internalType": "uint256",
                      "name": "sizeInUsd",
                      "type": "uint256"
                    },
                    {
                      "internalType": "uint256",
                      "name": "sizeInTokens",
                      "type": "uint256"
                    },
                    {
                      "internalType": "uint256",
                      "name": "collateralAmount",
                      "type": "uint256"
                    },
                    {
                      "internalType": "uint256",
                      "name": "borrowingFactor",
                      "type": "uint256"
                    },
                    {
                      "internalType": "uint256",
                      "name": "fundingFeeAmountPerSize",
                      "type": "uint256"
                    },
                    {
                      "internalType": "uint256",
                      "name": "longTokenClaimableFundingAmountPerSize",
                      "type": "uint256"
                    },
                    {
                      "internalType": "uint256",
                      "name": "shortTokenClaimableFundingAmountPerSize",
                      "type": "uint256"
                    },
                    {
                      "internalType": "uint256",
                      "name": "increasedAtBlock",
                      "type": "uint256"
                    },
                    {
                      "internalType": "uint256",
                      "name": "decreasedAtBlock",
                      "type": "uint256"
                    }
                  ],
                  "internalType": "struct Position.Numbers",
                  "name": "numbers",
                  "type": "tuple"
                },
                {
                  "components": [
                    {
                      "internalType": "bool",
                      "name": "isLong",
                      "type": "bool"
                    }
                  ],
                  "internalType": "struct Position.Flags",
                  "name": "flags",
                  "type": "tuple"
                }
              ],
              "internalType": "struct Position.Props",
              "name": "position",
              "type": "tuple"
            },
            {
              "components": [
                {
                  "components": [
                    {
                      "internalType": "bytes32",
                      "name": "referralCode",
                      "type": "bytes32"
                    },
                    {
                      "internalType": "address",
                      "name": "affiliate",
                      "type": "address"
                    },
                    {
                      "internalType": "address",
                      "name": "trader",
                      "type": "address"
                    },
                    {
                      "internalType": "uint256",
                      "name": "totalRebateFactor",
                      "type": "uint256"
                    },
                    {
                      "internalType": "uint256",
                      "name": "traderDiscountFactor",
                      "type": "uint256"
                    },
                    {
                      "internalType": "uint256",
                      "name": "totalRebateAmount",
                      "type": "uint256"
                    },
                    {
                      "internalType": "uint256",
                      "name": "traderDiscountAmount",
                      "type": "uint256"
                    },
                    {
                      "internalType": "uint256",
                      "name": "affiliateRewardAmount",
                      "type": "uint256"
                    }
                  ],
                  "internalType": "struct PositionPricingUtils.PositionReferralFees",
                  "name": "referral",
                  "type": "tuple"
                },
                {
                  "components": [
                    {
                      "internalType": "uint256",
                      "name": "fundingFeeAmount",
                      "type": "uint256"
                    },
                    {
                      "internalType": "uint256",
                      "name": "claimableLongTokenAmount",
                      "type": "uint256"
                    },
                    {
                      "internalType": "uint256",
                      "name": "claimableShortTokenAmount",
                      "type": "uint256"
                    },
                    {
                      "internalType": "uint256",
                      "name": "latestFundingFeeAmountPerSize",
                      "type": "uint256"
                    },
                    {
                      "internalType": "uint256",
                      "name": "latestLongTokenClaimableFundingAmountPerSize",
                      "type": "uint256"
                    },
                    {
                      "internalType": "uint256",
                      "name": "latestShortTokenClaimableFundingAmountPerSize",
                      "type": "uint256"
                    }
                  ],
                  "internalType": "struct PositionPricingUtils.PositionFundingFees",
                  "name": "funding",
                  "type": "tuple"
                },
                {
                  "components": [
                    {
                      "internalType": "uint256",
                      "name": "borrowingFeeUsd",
                      "type": "uint256"
                    },
                    {
                      "internalType": "uint256",
                      "name": "borrowingFeeAmount",
                      "type": "uint256"
                    },
                    {
                      "internalType": "uint256",
                      "name": "borrowingFeeReceiverFactor",
                      "type": "uint256"
                    },
                    {
                      "internalType": "uint256",
                      "name": "borrowingFeeAmountForFeeReceiver",
                      "type": "uint256"
                    }
                  ],
                  "internalType": "struct PositionPricingUtils.PositionBorrowingFees",
                  "name": "borrowing",
                  "type": "tuple"
                },
                {
                  "components": [
                    {
                      "internalType": "address",
                      "name": "uiFeeReceiver",
                      "type": "address"
                    },
                    {
                      "internalType": "uint256",
                      "name": "uiFeeReceiverFactor",
                      "type": "uint256"
                    },
                    {
                      "internalType": "uint256",
                      "name": "uiFeeAmount",
                      "type": "uint256"
                    }
                  ],
                  "internalType": "struct PositionPricingUtils.PositionUiFees",
                  "name": "ui",
                  "type": "tuple"
                },
                {
                  "components": [
                    {
                      "internalType": "uint256",
                      "name": "min",
                      "type": "uint256"
                    },
                    {
                      "internalType": "uint256",
                      "name": "max",
                      "type": "uint256"
                    }
                  ],
                  "internalType": "struct Price.Props",
                  "name": "collateralTokenPrice",
                  "type": "tuple"
                },
                {
                  "internalType": "uint256",
                  "name": "positionFeeFactor",
                  "type": "uint256"
                },
                {
                  "internalType": "uint256",
                  "name": "protocolFeeAmount",
                  "type": "uint256"
                },
                {
                  "internalType": "uint256",
                  "name": "positionFeeReceiverFactor",
                  "type": "uint256"
                },
                {
                  "internalType": "uint256",
                  "name": "feeReceiverAmount",
                  "type": "uint256"
                },
                {
                  "internalType": "uint256",
                  "name": "feeAmountForPool",
                  "type": "uint256"
                },
                {
                  "internalType": "uint256",
                  "name": "positionFeeAmountForPool",
                  "type": "uint256"
                },
                {
                  "internalType": "uint256",
                  "name": "positionFeeAmount",
                  "type": "uint256"
                },
                {
                  "internalType": "uint256",
                  "name": "totalCostAmountExcludingFunding",
                  "type": "uint256"
                },
                {
                  "internalType": "uint256",
                  "name": "totalCostAmount",
                  "type": "uint256"
                }
              ],
              "internalType": "struct PositionPricingUtils.PositionFees",
              "name": "fees",
              "type": "tuple"
            },
            {
              "components": [
                {
                  "internalType": "int256",
                  "name": "priceImpactUsd",
                  "type": "int256"
                },
                {
                  "internalType": "uint256",
                  "name": "priceImpactDiffUsd",
                  "type": "uint256"
                },
                {
                  "internalType": "uint256",
                  "name": "executionPrice",
                  "type": "uint256"
                }
              ],
              "internalType": "struct ReaderPricingUtils.ExecutionPriceResult",
              "name": "executionPriceResult",
              "type": "tuple"
            },
            {
              "internalType": "int256",
              "name": "basePnlUsd",
              "type": "int256"
            },
            {
              "internalType": "int256",
              "name": "uncappedBasePnlUsd",
              "type": "int256"
            },
            {
              "internalType": "int256",
              "name": "pnlAfterPriceImpactUsd",
              "type": "int256"
            }
          ],
          "internalType": "struct ReaderUtils.PositionInfo",
          "name": "",
          "type": "tuple"
        }
      ],
      "stateMutability": "view",
      "type": "function"
    }
  ],
  "bytecode": "0x61403861003a600b82828239805160001a60731461002d57634e487b7160e01b600052600060045260246000fd5b30600052607381538281f3fe730000000000000000000000000000000000000000301460806040526004361061004b5760003560e01c80630dc7f3eb1461005057806310366e351461007957806335e084c814610099575b600080fd5b61006361005e36600461371d565b6100b9565b6040516100709190613796565b60405180910390f35b61008c6100873660046137db565b6100d6565b6040516100709190613811565b6100ac6100a7366004613845565b6101d0565b604051610070919061396e565b6100c161323b565b6100cc8484846107a0565b90505b9392505050565b6100de61326c565b6100e661326c565b6100fb84846000015185604001516001610b87565b81515152825160608401516101139186916001610b87565b815151602001528251604084015161012e9186916000610b87565b81516020015152825160608401516101499186916000610b87565b81516020908101510152825160408401516101679186916001610b87565b60208201515152825160608401516101829186916001610b87565b6020808301515101528251604084015161019f9186916000610b87565b602080830151015152825160608401516101bc9186916000610b87565b602080830151810151015290505b92915050565b6101d861327f565b6101e061327f565b6101e86132e3565b60405163fdfc26f360e01b81526001600160a01b038b1660048201526024810189905273__$3d31b232fb363902662fbc281b11ab3357$__9063fdfc26f3906044016101a060405180830381865af4158015610248573d6000803e3d6000fd5b505050506040513d601f19601f8201168201806040525081019061026c9190613bad565b808352516020015160405163a8d8fff560e01b815273__$ff439aa65a80c9eec648f15db20b189505$__9163a8d8fff5916102ab918e91600401613cae565b608060405180830381865af41580156102c8573d6000803e3d6000fd5b505050506040513d601f19601f820116820180604052508101906102ec9190613cc8565b808252825151604001516103009189610c0d565b60208201528315610315578151602001515195505b805187518351602001515173__$ae023ddda47a46a9af6ec057a2ebe54454$__9263146fa98e928e92875160209081015101516103518d610cb0565b61035a90613d45565b895160400151516040518863ffffffff1660e01b81526004016103839796959493929190613d94565b606060405180830381865af41580156103a0573d6000803e3d6000fd5b505050506040513d601f19601f820116820180604052508101906103c49190613de8565b60408084019182528051610120810182526001600160a01b03808e1682528c81166020808401919091528651838501528501516060808401919091529351516000126080830152845190920151821660a0820152835190920151811660c083015260e08201889052861661010082015261043d81610d1e565b602084015282518251610452918d918b610f0e565b60408301819052602083015161046a918d9190610f1c565b6020840151604001528151600090610484908d908b6100b9565b90506104ad8c61049a8660000151516020015190565b8651516040015187516040015151610b87565b60208086015101516060015283516104e6908d906104cd90516020015190565b85516040015187516104e190604001515190565b610f2f565b6020808601510151608001528351610518908d9061050690516020015190565b85516060015187516040015151610f2f565b602085810151015160a0015283516040015151156105f457606081015151516020808601510151608001805161054f908390613e24565b905250606081015151602090810151858201519091015160a0018051610576908390613e24565b90525082516040015184516001600160a01b039091169061059990516040015190565b6001600160a01b0316036105ce5760408101515151602080860151015160600180516105c6908390613e24565b9052506106c4565b806040015160000151602001518460200151602001516060018181516105c69190613e24565b8060600151602001516000015184602001516020015160800181815161061a9190613e24565b9052506060810151602090810151810151858201519091015160a0018051610643908390613e24565b90525082516040015184516001600160a01b039091169061066690516040015190565b6001600160a01b03160361069a57806040015160200151600001518460200151602001516060018181516105c69190613e24565b806040015160200151602001518460200151602001516060018181516106c09190613e24565b9052505b6106da8460200151602001518560000151610f4b565b84602001516020018190525073__$91a1a7f12f728c8759f4be979bae55555f$__63e22de7938d85600001518c88600001518d6040518663ffffffff1660e01b815260040161072d959493929190613e37565b606060405180830381865af415801561074a573d6000803e3d6000fd5b505050506040513d601f19601f8201168201806040525081019061076e9190613ea9565b5060808601526060850181905260408501515161078b9190613ed7565b60a085015250919a9950505050505050505050565b6107a861323b565b6107b061323b565b6107b8613328565b60006107cc86604001518760600151610fc7565b90506107e48787600001518860400151600185610ff6565b82515152855160608701516107fd918991600185610ff6565b8251516020015285516040870151610819918991600085610ff6565b8251602001515285516060870151610835918991600085610ff6565b82516020908101518101919091528251519081015190516108569190613e24565b60208084019190915282518101519081015190516108749190613e24565b60408301526020820151158061088c57506040820151155b1561089c578293505050506100cf565b6108aa878760000151611086565b6060830152602082015160408301516108c3919061111e565b6080830152604082015160208301516108dc9190613e24565b60a083015260408201516020830151116108fa578160400151610900565b81602001515b60c08301528551608083015160a084015161091e928a929091611140565b6020840181905260c083015160608401516109419261093c91613eff565b61124c565b60e08301819052610953908290613f2c565b60e08301526040820151602083015111808452156109b25760e0820151825151516020840151610984929190611261565b61010083015260e0820151825151602090810151908401516109a7929190611261565b6101208301526109fa565b60e08201518251602001515160408401516109ce929190611261565b61010083015260e08201518251602090810151015160408401516109f3929190611261565b6101208301525b825115610abc57610100820151825151516020808801510151610a20929190600161126e565b6040808501515191909152610120830151835151602090810151928801510151610a4c9290600161126e565b8360400151600001516020018181525050610a7b8261010001518360400151876020015160200151600061126e565b8360600151602001516000018181525050610aaa8261012001518360400151876040015160200151600061126e565b60608401516020908101510152610b7c565b610ae282610100015183600001516020015160000151876020015160200151600161126e565b8360400151602001516000018181525050610b1982610120015183600001516020015160200151876040015160200151600161126e565b8360400151602001516020018181525050610b488261010001518360200151876020015160200151600061126e565b60608401515152610120820151602080840151604088015190910151610b71929190600061126e565b606084015151602001525b509095945050505050565b6000846001600160a01b031663bd02d0f5610ba38686866112d6565b6040518263ffffffff1660e01b8152600401610bc191815260200190565b602060405180830381865afa158015610bde573d6000803e3d6000fd5b505050506040513d601f19601f82011682018060405250810190610c029190613f4e565b90505b949350505050565b610c15613381565b82604001516001600160a01b0316846001600160a01b031603610c3d575060208101516100cf565b82606001516001600160a01b0316846001600160a01b031603610c65575060408101516100cf565b82602001516001600160a01b0316846001600160a01b031603610c8a575080516100cf565b8251604051635f2394d160e11b8152610ca7918691600401613cae565b60405180910390fd5b60006001600160ff1b03821115610d1a5760405162461bcd60e51b815260206004820152602860248201527f53616665436173743a2076616c756520646f65736e27742066697420696e2061604482015267371034b73a191a9b60c11b6064820152608401610ca7565b5090565b610d2661339b565b6000610d608360000151846020015185606001518660800151610d4c8860400151515190565b604089015151602001518960e00151611376565b90506000610d76846000015185604001516115dd565b9050610d8b846000015185606001518361167c565b604083018190526060810151602090910151610140840151610dad9190613e24565b610db79190613f67565b61012083015260408201516060015161010083018051610dd8908390613e24565b90525083516040808601518051602081015190830151919092015151610e0093929190610b87565b60208301516060015283516040850151610e349190610e2190516020015190565b60a0870151604080890151015151610f2f565b60208301516080015283516040850151610e689190610e5590516020015190565b60c0870151604080890151015151610f2f565b60208301805160a00191909152516040850151610e859190610f4b565b60208301528351606085015160e0860151610100870151610ea89392919061178b565b60608301819052825160c001516040918201519184015160200151610160850151919291610ed69190613e24565b610ee09190613e24565b610eea9190613f67565b6101808301819052602083015151610f0191613e24565b6101a08301525092915050565b6000610c02858585856117f3565b610f2461341f565b6100cc84848461167c565b6000846001600160a01b031663bd02d0f5610ba386868661186b565b610f53613447565b610f778360600151610f6a84602001516080015190565b60208501515160016118b8565b83526080830151610f9e90610f91846020015160a0015190565b60208501515160006118b8565b602084015260a0830151610fbb90610f91846020015160c0015190565b60408401525090919050565b6000816001600160a01b0316836001600160a01b031614610fe9576001610fec565b60025b60ff169392505050565b600081866001600160a01b031663bd02d0f56110138888886118ef565b6040518263ffffffff1660e01b815260040161103191815260200190565b602060405180830381865afa15801561104e573d6000803e3d6000fd5b505050506040513d601f19601f820116820180604052508101906110729190613f4e565b61107c9190613f2c565b9695505050505050565b600080836001600160a01b031663bd02d0f56110a185611922565b6040518263ffffffff1660e01b81526004016110bf91815260200190565b602060405180830381865afa1580156110dc573d6000803e3d6000fd5b505050506040513d601f19601f820116820180604052508101906111009190613f4e565b9050806000036111145760009150506101ca565b610c058142613f67565b6000818311611136576111318383613f67565b6100cf565b6100cf8284613f67565b600080856001600160a01b031663bd02d0f561115b876119a4565b6040518263ffffffff1660e01b815260040161117991815260200190565b602060405180830381865afa158015611196573d6000803e3d6000fd5b505050506040513d601f19601f820116820180604052508101906111ba9190613f4e565b905080156111c9579050610c05565b836000036111db576000915050610c05565b826000036111fc576040516311423d9560e01b815260040160405180910390fd5b600061120887876119df565b905060006112168888611a58565b905060006112248783611a72565b905060006112328288611ad1565b905061123e818561124c565b9a9950505050505050505050565b60006100cf838368327cb2734119d3b7a9601e1b5b60006100cc848484611adf565b600084158061127b575083155b1561128857506000610c05565b60006112b2866112ab66038d7ea4c6800068327cb2734119d3b7a9601e1b613eff565b8786611b8e565b905082156112cc576112c48185611bb5565b915050610c05565b6112c48482613f2c565b6000604051602001611317906020808252601b908201527a46554e44494e475f4645455f414d4f554e545f5045525f53495a4560281b604082015260600190565b60408051601f198184030181528282528051602091820120908301526001600160a01b038087169183019190915284166060820152821515608082015260a0016040516020818303038152906040528051906020012090509392505050565b61137e61339b565b61138661339b565b6080810187905280516001600160a01b0386166040909101526113a98886611bd8565b8451608081019190915260608101919091526001600160a01b03918216602082015291909152891663bd02d0f56113e08689611e4a565b6040518263ffffffff1660e01b81526004016113fe91815260200190565b602060405180830381865afa15801561141b573d6000803e3d6000fd5b505050506040513d601f19601f8201168201806040525081019061143f9190613f4e565b60a0820181905287519061145490859061124c565b61145e9190613f2c565b6101608201819052815160600151611476919061124c565b815160a090810191909152815190810151608090910151611497919061124c565b815160c09081019190915281519081015160a0909101516114b89190613f67565b815160e00152805160a001516101608201516114d49190613f67565b60c08201526040516001600160a01b038a169063bd02d0f59061152a906020016020808252601c908201527b2827a9a4aa24a7a72fa322a2afa922a1a2a4ab22a92fa320a1aa27a960211b604082015260600190565b604051602081830303815290604052805190602001206040518263ffffffff1660e01b815260040161155e91815260200190565b602060405180830381865afa15801561157b573d6000803e3d6000fd5b505050506040513d601f19601f8201168201806040525081019061159f9190613f4e565b60e0820181905260c08201516115b49161124c565b610100820181905260c08201516115cb9190613f67565b61014082015298975050505050505050565b6000806115fb846115f085516020015190565b604086015151611ed7565b90508061160d84602001516060015190565b1115611641576020830151606001515b604051634cd96ac160e11b8152600481019190915260248101829052604401610ca7565b600061165284602001516060015190565b61165c9083613f67565b905061167361166d85602001515190565b8261124c565b95945050505050565b61168461341f565b61168c61341f565b828152835161169b9084613f2c565b816020018181525050846001600160a01b031663bd02d0f56040516020016116f4906020808252601d908201527f424f52524f57494e475f4645455f52454345495645525f464143544f52000000604082015260600190565b604051602081830303815290604052805190602001206040518263ffffffff1660e01b815260040161172891815260200190565b602060405180830381865afa158015611745573d6000803e3d6000fd5b505050506040513d601f19601f820116820180604052508101906117699190613f4e565b60408201819052602082015161177e9161124c565b6060820152949350505050565b61179361347d565b61179b61347d565b6001600160a01b0383166117b0579050610c05565b6001600160a01b03831681526117c68684611f51565b602082018190528551906117db90869061124c565b6117e59190613f2c565b604082015295945050505050565b60008061180d86858561180889604001515190565b612097565b5090508061182086602001516060015190565b11156118345760208501516060015161161d565b600061184586602001516060015190565b61184f9083613f67565b905061186061166d87602001515190565b979650505050505050565b60006040516020016113179060208082526021908201527f434c41494d41424c455f46554e44494e475f414d4f554e545f5045525f53495a6040820152604560f81b606082015260800190565b6000806118c58587613f67565b905061107c84826118e966038d7ea4c6800068327cb2734119d3b7a9601e1b613eff565b86611b8e565b6000604051602001611317906020808252600d908201526c13d4115397d2539511549154d5609a1b604082015260600190565b600060405160200161195a9060208082526012908201527111955391125391d7d554111055115117d05560721b604082015260600190565b60408051601f198184030181528282528051602091820120908301526001600160a01b03841690820152606001604051602081830303815290604052805190602001209050919050565b600060405160200161195a9060208082526015908201527429aa20a12622afa32aa72224a723afa320a1aa27a960591b604082015260600190565b6000826001600160a01b031663bd02d0f56119f9846120fb565b6040518263ffffffff1660e01b8152600401611a1791815260200190565b602060405180830381865afa158015611a34573d6000803e3d6000fd5b505050506040513d601f19601f820116820180604052508101906100cf9190613f4e565b6000826001600160a01b031663bd02d0f56119f98461212f565b600068327cb2734119d3b7a9601e1b831015611a90575060006101ca565b68327cb2734119d3b7a9601e1b8203611aaa5750816101ca565b6000611ac6611ab88561216c565b611ac18561216c565b61217d565b9050610c05816121bf565b60006100cf838360006121d0565b6000808060001985870985870292508281108382030391505080600003611b1957838281611b0f57611b0f613f16565b04925050506100cf565b808411611b2557600080fd5b60008486880960026001871981018816978890046003810283188082028403028082028403028082028403028082028403028082028403029081029092039091026000889003889004909101858311909403939093029303949094049190911702949350505050565b60008115611baa57611ba3858585600161221f565b9050610c05565b610c02858585611adf565b6000816001611bc48286613e24565b611bce9190613f67565b6100cf9190613f2c565b6000806000806000866001600160a01b03166385725b58876040518263ffffffff1660e01b8152600401611c0c9190613f7a565b602060405180830381865afa158015611c29573d6000803e3d6000fd5b505050506040513d601f19601f82011682018060405250810190611c4d9190613f4e565b9050600080808315611e22576040516306459e2360e51b8152600481018590526001600160a01b038b169063c8b3c46090602401602060405180830381865afa158015611c9e573d6000803e3d6000fd5b505050506040513d601f19601f82011682018060405250810190611cc29190613f8e565b925060008a6001600160a01b0316631582a018856040518263ffffffff1660e01b8152600401611cf29190613f7a565b602060405180830381865afa158015611d0f573d6000803e3d6000fd5b505050506040513d601f19601f82011682018060405250810190611d339190613f4e565b60405163039af9eb60e01b8152600481018290529091506001600160a01b038c169063039af9eb906024016040805180830381865afa158015611d7a573d6000803e3d6000fd5b505050506040513d601f19601f82011682018060405250810190611d9e9190613fab565b60405163071a6a7960e41b815291945092506000906001600160a01b038d16906371a6a79090611dd2908890600401613f7a565b602060405180830381865afa158015611def573d6000803e3d6000fd5b505050506040513d601f19601f82011682018060405250810190611e139190613f4e565b90508015611e1f578092505b50505b8383611e2d84612270565b611e3684612270565b929d919c509a509098509650505050505050565b6000604051602001611e83906020808252601390820152722827a9a4aa24a7a72fa322a2afa320a1aa27a960691b604082015260600190565b60408051601f198184030181528282528051602091820120908301526001600160a01b0385169082015282151560608201526080015b60405160208183030381529060405280519060200120905092915050565b6000836001600160a01b031663bd02d0f5611ef28585612295565b6040518263ffffffff1660e01b8152600401611f1091815260200190565b602060405180830381865afa158015611f2d573d6000803e3d6000fd5b505050506040513d601f19601f820116820180604052508101906100cc9190613f4e565b600080836001600160a01b031663bd02d0f5604051602001611f989060208082526011908201527026a0ac2faaa4afa322a2afa320a1aa27a960791b604082015260600190565b604051602081830303815290604052805190602001206040518263ffffffff1660e01b8152600401611fcc91815260200190565b602060405180830381865afa158015611fe9573d6000803e3d6000fd5b505050506040513d601f19601f8201168201806040525081019061200d9190613f4e565b90506000846001600160a01b031663bd02d0f5612029866122d6565b6040518263ffffffff1660e01b815260040161204791815260200190565b602060405180830381865afa158015612064573d6000803e3d6000fd5b505050506040513d601f19601f820116820180604052508101906120889190613f4e565b9050818110610c055781611673565b60008060006120ab87876000015186612309565b905060006120bb88888888612335565b905060006120ce89896000015188611ed7565b905060006120dc8385613eff565b905060006120ea8284613e24565b9b919a509098505050505050505050565b600060405160200161195a906020808252600e908201526d232aa72224a723afa320a1aa27a960911b604082015260600190565b600060405160200161195a90602080825260179082015276232aa72224a723afa2ac2827a722a72a2fa320a1aa27a960491b604082015260600190565b60006101ca64e8d4a5100083613f2c565b6000826000036121a557811561219457600061219e565b670de0b6b3a76400005b90506101ca565b6100cf6121ba6121b485612522565b846125d8565b6125e4565b60006101ca64e8d4a5100083613eff565b6000836000036121e2575060006100cf565b8115612208576122018468327cb2734119d3b7a9601e1b85600161221f565b90506100cf565b6100cc8468327cb2734119d3b7a9601e1b85611adf565b60008061222d868686611adf565b9050600183600281111561224357612243613fcf565b14801561226057506000848061225b5761225b613f16565b868809115b15610c025761107c600182613e24565b600061271061228b68327cb2734119d3b7a9601e1b84613eff565b6101ca9190613f2c565b6000604051602001611e83906020808252601b908201527a21aaa6aaa620aa24ab22afa127a92927aba4a723afa320a1aa27a960291b604082015260600190565b600060405160200161195a906020808252600d908201526c2aa4afa322a2afa320a1aa27a960991b604082015260600190565b60008061231785858561262a565b90508060000361232b5760009150506100cf565b6116738142613f67565b60008061234486868686612645565b905080600003612358576000915050610c05565b6000866001600160a01b0316637ae1cfca6040516020016123b69060208082526023908201527f534b49505f424f52524f57494e475f4645455f464f525f534d414c4c45525f5360408201526249444560e81b606082015260800190565b604051602081830303815290604052805190602001206040518263ffffffff1660e01b81526004016123ea91815260200190565b602060405180830381865afa158015612407573d6000803e3d6000fd5b505050506040513d601f19601f8201168201806040525081019061242b9190613fe5565b905080156124935760006124418888600161267d565b905060006124518989600061267d565b905085801561245f57508082105b15612471576000945050505050610c05565b8515801561247e57508181105b15612490576000945050505050610c05565b50505b60006124a38888888860006126d0565b9050806000036124c657604051630d5f5aef60e31b815260040160405180910390fd5b60006124d789896000015188612756565b905060006124e58583611a72565b905060006124f38285611ad1565b905060006125068c8c600001518b612771565b9050612512828261124c565b9c9b505050505050505050505050565b6000670de0b6b3a764000082101561255057604051633621413760e21b815260048101839052602401610ca7565b6000612565670de0b6b3a7640000840461278c565b670de0b6b3a764000081029250905082811c670de0b6b3a763ffff19810161258e575050919050565b6706f05b59d3b200005b80156125d057670de0b6b3a7640000828002049150671bc16d674ec8000082106125c8579283019260019190911c905b60011c612598565b505050919050565b60006100cf838361286f565b6000680a688906bd8b000000821061261257604051634a4f26f160e01b815260048101839052602401610ca7565b670de0b6b3a7640000604083901b046100cf81612935565b6000836001600160a01b031663bd02d0f5611ef28585612fc7565b600080821561267657600061265b878786613019565b85516020015190915061266e9082613eff565b915050610c02565b61107c8686855b60008061269284604001518560600151610fc7565b905060006126ab86866000015187604001518786610ff6565b905060006126c487876000015188606001518887610ff6565b90506118608183613e24565b600080836126e25785606001516126e8565b85604001515b905060006126f7888884613060565b90506000841561272557856127145786604001516020015161271e565b8660200151602001515b905061273f565b856127355760408701515161273c565b6020870151515b90505b6127498183613eff565b9998505050505050505050565b6000836001600160a01b031663bd02d0f5611ef285856130fe565b6000836001600160a01b031663bd02d0f5611ef2858561313d565b6000600160801b82106127ac57608091821c916127a99082613e24565b90505b600160401b82106127ca57604091821c916127c79082613e24565b90505b600160201b82106127e857602091821c916127e59082613e24565b90505b62010000821061280557601091821c916128029082613e24565b90505b610100821061282157600891821c9161281e9082613e24565b90505b6010821061283c57600491821c916128399082613e24565b90505b6004821061285757600291821c916128549082613e24565b90505b6002821061286a576101ca600182613e24565b919050565b60008080600019848609848602925082811083820303915050670de0b6b3a764000081106128b35760405163698d9a0160e11b815260048101829052602401610ca7565b600080670de0b6b3a764000086880991506706f05b59d3b1ffff82119050826000036128f15780670de0b6b3a76400008504019450505050506101ca565b620400008285030493909111909103600160ee1b02919091177faccb18165bd6fe31ae1cf318dc5b51eee0e1ba569b88cd74c1773b91fac106690201905092915050565b600160bf1b6001603f1b8216156129555768016a09e667f3bcc9090260401c5b6001603e1b821615612970576801306fe0a31b7152df0260401c5b6001603d1b82161561298b576801172b83c7d517adce0260401c5b6001603c1b8216156129a65768010b5586cf9890f62a0260401c5b6001603b1b8216156129c1576801059b0d31585743ae0260401c5b6001603a1b8216156129dc57680102c9a3e778060ee70260401c5b600160391b8216156129f75768010163da9fb33356d80260401c5b600160381b821615612a1257680100b1afa5abcbed610260401c5b600160371b821615612a2d5768010058c86da1c09ea20260401c5b600160361b821615612a48576801002c605e2e8cec500260401c5b600160351b821615612a6357680100162f3904051fa10260401c5b600160341b821615612a7e576801000b175effdc76ba0260401c5b600160331b821615612a9957680100058ba01fb9f96d0260401c5b600160321b821615612ab45768010002c5cc37da94920260401c5b600160311b821615612acf576801000162e525ee05470260401c5b600160301b821615612aea5768010000b17255775c040260401c5b6001602f1b821615612b05576801000058b91b5bc9ae0260401c5b6001602e1b821615612b2057680100002c5c89d5ec6d0260401c5b6001602d1b821615612b3b5768010000162e43f4f8310260401c5b6001602c1b821615612b5657680100000b1721bcfc9a0260401c5b6001602b1b821615612b715768010000058b90cf1e6e0260401c5b6001602a1b821615612b8c576801000002c5c863b73f0260401c5b600160291b821615612ba757680100000162e430e5a20260401c5b600160281b821615612bc2576801000000b1721835510260401c5b600160271b821615612bdd57680100000058b90c0b490260401c5b600160261b821615612bf85768010000002c5c8601cc0260401c5b600160251b821615612c13576801000000162e42fff00260401c5b600160241b821615612c2e5768010000000b17217fbb0260401c5b600160231b821615612c49576801000000058b90bfce0260401c5b600160221b821615612c6457680100000002c5c85fe30260401c5b600160211b821615612c7f5768010000000162e42ff10260401c5b600160201b821615612c9a57680100000000b17217f80260401c5b6380000000821615612cb55768010000000058b90bfc0260401c5b6340000000821615612cd0576801000000002c5c85fe0260401c5b6320000000821615612ceb57680100000000162e42ff0260401c5b6310000000821615612d06576801000000000b17217f0260401c5b6308000000821615612d2157680100000000058b90c00260401c5b6304000000821615612d3c5768010000000002c5c8600260401c5b6302000000821615612d57576801000000000162e4300260401c5b6301000000821615612d725768010000000000b172180260401c5b62800000821615612d8c576801000000000058b90c0260401c5b62400000821615612da657680100000000002c5c860260401c5b62200000821615612dc05768010000000000162e430260401c5b62100000821615612dda57680100000000000b17210260401c5b62080000821615612df45768010000000000058b910260401c5b62040000821615612e0e576801000000000002c5c80260401c5b62020000821615612e2857680100000000000162e40260401c5b62010000821615612e415761b172600160401b010260401c5b618000821615612e59576158b9600160401b010260401c5b614000821615612e7157612c5d600160401b010260401c5b612000821615612e895761162e600160401b010260401c5b611000821615612ea157610b17600160401b010260401c5b610800821615612eb95761058c600160401b010260401c5b610400821615612ed1576102c6600160401b010260401c5b610200821615612ee957610163600160401b010260401c5b610100821615612f005760b1600160401b010260401c5b6080821615612f16576059600160401b010260401c5b6040821615612f2c57602c600160401b010260401c5b6020821615612f42576016600160401b010260401c5b6010821615612f5857600b600160401b010260401c5b6008821615612f6e576006600160401b010260401c5b6004821615612f84576003600160401b010260401c5b6002821615612f9a576001600160401b010260401c5b6001821615612fb0576001600160401b010260401c5b670de0b6b3a76400000260409190911c60bf031c90565b6000604051602001611e839060208082526026908201527f43554d554c41544956455f424f52524f57494e475f464143544f525f5550444160408201526515115117d05560d21b606082015260800190565b60008061302e84604001518560600151610fc7565b9050600061304786866000015187604001518786613173565b905060006126c487876000015188606001518887613173565b60008061307584604001518560600151610fc7565b905080856001600160a01b031663bd02d0f5613095876000015187613190565b6040518263ffffffff1660e01b81526004016130b391815260200190565b602060405180830381865afa1580156130d0573d6000803e3d6000fd5b505050506040513d601f19601f820116820180604052508101906130f49190613f4e565b6116739190613f2c565b6000604051602001611e83906020808252601990820152782127a92927aba4a723afa2ac2827a722a72a2fa320a1aa27a960391b604082015260600190565b6000604051602001611e839060208082526010908201526f2127a92927aba4a723afa320a1aa27a960811b604082015260600190565b600081866001600160a01b031663bd02d0f56110138888886131fe565b60006040516020016131c1906020808252600b908201526a1413d3d317d05353d5539560aa1b604082015260600190565b60408051601f198184030181528282528051602091820120908301526001600160a01b038086169183019190915283166060820152608001611eb9565b6000604051602001611317906020808252601790820152764f50454e5f494e5445524553545f494e5f544f4b454e5360481b604082015260600190565b604080516080810182526000808252602082015290810161325a6134a7565b81526020016132676134a7565b905290565b604051806040016040528061325a6134a7565b6040518060c001604052806132926134c7565b815260200161329f61339b565b81526020016132c860405180606001604052806000815260200160008152602001600081525090565b81526020016000815260200160008152602001600081525090565b6040805160e081019091526000606082018181526080830182905260a0830182905260c083019190915281526020810161331b613381565b8152602001600081525090565b60405180610140016040528061333c6134a7565b81526020016000815260200160008152602001600081526020016000815260200160008152602001600081526020016000815260200160008152602001600081525090565b604051806040016040528060008152602001600081525090565b604080516102c0810190915260006101c082018181526101e08301829052610200830182905261022083018290526102408301829052610260830182905261028083018290526102a08301919091528152602081016133f8613447565b815260200161340561341f565b815260200161341261347d565b815260200161333c613381565b6040518060800160405280600081526020016000815260200160008152602001600081525090565b6040518060c001604052806000815260200160008152602001600081526020016000815260200160008152602001600081525090565b604051806060016040528060006001600160a01b0316815260200160008152602001600081525090565b60405180604001604052806134ba613381565b8152602001613267613381565b6040805160c081019091526000606082018181526080830182905260a0830191909152819081526020016135406040518061012001604052806000815260200160008152602001600081526020016000815260200160008152602001600081526020016000815260200160008152602001600081525090565b81526040805160208181019092526000815291015290565b6001600160a01b038116811461356d57600080fd5b50565b604051608081016001600160401b03811182821017156135a057634e487b7160e01b600052604160045260246000fd5b60405290565b604051606081016001600160401b03811182821017156135a057634e487b7160e01b600052604160045260246000fd5b60405161012081016001600160401b03811182821017156135a057634e487b7160e01b600052604160045260246000fd5b60006080828403121561361957600080fd5b613621613570565b9050813561362e81613558565b8152602082013561363e81613558565b6020820152604082013561365181613558565b6040820152606082013561366481613558565b606082015292915050565b60006040828403121561368157600080fd5b604080519081016001600160401b03811182821017156136b157634e487b7160e01b600052604160045260246000fd5b604052823581526020928301359281019290925250919050565b600060c082840312156136dd57600080fd5b6136e56135a6565b90506136f1838361366f565b8152613700836040840161366f565b6020820152613712836080840161366f565b604082015292915050565b6000806000610160848603121561373357600080fd5b833561373e81613558565b925061374d8560208601613607565b915061375c8560a086016136cb565b90509250925092565b80518252602090810151910152565b61377f828251613765565b60208101516137916040840182613765565b505050565b6000610140820190508251151582526020830151602083015260408301516137c16040840182613774565b5060608301516137d460c0840182613774565b5092915050565b60008060a083850312156137ee57600080fd5b82356137f981613558565b91506138088460208501613607565b90509250929050565b600061010082019050613825828451613774565b60208301516137d46080840182613774565b801515811461356d57600080fd5b6000806000806000806000610180888a03121561386157600080fd5b873561386c81613558565b9650602088013561387c81613558565b9550604088013594506138928960608a016136cb565b935061012088013592506101408801356138ab81613558565b91506101608801356138bc81613837565b8091505092959891949750929550565b805160018060a01b03808251168452806020830151166020850152806040830151166040850152505060208101518051606084015260208101516080840152604081015160a0840152606081015160c0840152608081015160e084015260a0810151610100818186015260c083015161012086015260e08301516101408601528083015161016086015250505060408101516137916101808401825115159052565b6000610660820190506139828284516138cc565b602083810151805180516101a086810191909152928101516001600160a01b039081166101c08701526040820151166101e08601526060810151610200860152608081015161022086015260a081015161024086015260c081015161026086015260e001516102808501529060208281015180516102a0870152908101516102c086015260408101516102e08601526060810151610300860152608081015161032086015260a08101516103408601525060408281015180516103608701526020810151610380870152908101516103a086015260608101516103c086015250606082015180516001600160a01b03166103e086015260208101516104008601526040810151610420860152506080820151613aa2610440860182613765565b5060a08281015161048086015260c08301516104a086015260e08301516104c08601526101008301516104e086015261012083015161050086015261014083015161052086015261016083015161054086015261018083015161056086015291015161058084015260408481015180516105a086015260208101516105c086015201516105e08401526060840151610600840152608084015161062084015292909201516106409091015290565b600060208284031215613b6257600080fd5b604051602081016001600160401b0381118282101715613b9257634e487b7160e01b600052604160045260246000fd5b80604052508091508251613ba581613837565b905292915050565b60008183036101a0811215613bc157600080fd5b613bc96135a6565b6060821215613bd757600080fd5b613bdf6135a6565b8451613bea81613558565b81526020850151613bfa81613558565b60208201526040850151613c0d81613558565b60408201528152610120605f198301811315613c2857600080fd5b613c306135d6565b9250606085015183526080850151602084015260a0850151604084015260c0850151606084015260e085015160808401526101008086015160a08501528186015160c085015261014086015160e0850152610160860151818501525050816020820152613ca1856101808601613b50565b6040820152949350505050565b6001600160a01b0392831681529116602082015260400190565b600060808284031215613cda57600080fd5b613ce2613570565b8251613ced81613558565b81526020830151613cfd81613558565b60208201526040830151613d1081613558565b60408201526060830151613d2381613558565b60608201529392505050565b634e487b7160e01b600052601160045260246000fd5b6000600160ff1b8201613d5a57613d5a613d2f565b5060000390565b80516001600160a01b03908116835260208083015182169084015260408083015182169084015260609182015116910152565b6001600160a01b03881681526101608101613db26020830189613d61565b613dbf60a0830188613765565b8560e0830152846101008301528361012083015282151561014083015298975050505050505050565b600060608284031215613dfa57600080fd5b613e026135a6565b8251815260208301516020820152604083015160408201528091505092915050565b808201808211156101ca576101ca613d2f565b6001600160a01b03861681526103208101613e556020830187613d61565b613e6360a083018651613765565b6020850151613e7560e0840182613765565b506040850151613e89610120840182613765565b50613e986101608301856138cc565b826103008301529695505050505050565b600080600060608486031215613ebe57600080fd5b8351925060208401519150604084015190509250925092565b8082018281126000831280158216821582161715613ef757613ef7613d2f565b505092915050565b80820281158282048414176101ca576101ca613d2f565b634e487b7160e01b600052601260045260246000fd5b600082613f4957634e487b7160e01b600052601260045260246000fd5b500490565b600060208284031215613f6057600080fd5b5051919050565b818103818111156101ca576101ca613d2f565b6001600160a01b0391909116815260200190565b600060208284031215613fa057600080fd5b81516100cf81613558565b60008060408385031215613fbe57600080fd5b505080516020909101519092909150565b634e487b7160e01b600052602160045260246000fd5b600060208284031215613ff757600080fd5b81516100cf8161383756fea264697066735822122045d386738e952f9c48dd5677ef536ce8ff9cec4d40b4f8373f32fa37b309276d64736f6c63430008120033",
  "linkReferences": {
    "contracts/market/MarketStoreUtils.sol": {
      "MarketStoreUtils": [
        {
          "length": 20,
          "start": 701
        }
      ]
    },
    "contracts/position/PositionStoreUtils.sol": {
      "PositionStoreUtils": [
        {
          "length": 20,
          "start": 583
        }
      ]
    },
    "contracts/position/PositionUtils.sol": {
      "PositionUtils": [
        {
          "length": 20,
          "start": 1826
        }
      ]
    },
    "contracts/reader/ReaderPricingUtils.sol": {
      "ReaderPricingUtils": [
        {
          "length": 20,
          "start": 860
        }
      ]
    }
  },
  "deployedLinkReferences": {
    "contracts/market/MarketStoreUtils.sol": {
      "MarketStoreUtils": [
        {
          "length": 20,
          "start": 643
        }
      ]
    },
    "contracts/position/PositionStoreUtils.sol": {
      "PositionStoreUtils": [
        {
          "length": 20,
          "start": 525
        }
      ]
    },
    "contracts/position/PositionUtils.sol": {
      "PositionUtils": [
        {
          "length": 20,
          "start": 1768
        }
      ]
    },
    "contracts/reader/ReaderPricingUtils.sol": {
      "ReaderPricingUtils": [
        {
          "length": 20,
          "start": 802
        }
      ]
    }
  }
}