{
  "_format": "hh-sol-artifact-1",
  "contractName": "WithdrawalHandler",
  "sourceName": "contracts/exchange/WithdrawalHandler.sol",
  "abi": [
    {
      "inputs": [
        {
          "internalType": "contract RoleStore",
          "name": "_roleStore",
          "type": "address"
        },
        {
          "internalType": "contract DataStore",
          "name": "_dataStore",
          "type": "address"
        },
        {
          "internalType": "contract EventEmitter",
          "name": "_eventEmitter",
          "type": "address"
        },
        {
          "internalType": "contract WithdrawalVault",
          "name": "_withdrawalVault",
          "type": "address"
        },
        {
          "internalType": "contract Oracle",
          "name": "_oracle",
          "type": "address"
        }
      ],
      "stateMutability": "nonpayable",
      "type": "constructor"
    },
    {
      "inputs": [
        {
          "internalType": "uint256[]",
          "name": "compactedValues",
          "type": "uint256[]"
        },
        {
          "internalType": "uint256",
          "name": "index",
          "type": "uint256"
        },
        {
          "internalType": "uint256",
          "name": "slotIndex",
          "type": "uint256"
        },
        {
          "internalType": "string",
          "name": "label",
          "type": "string"
        }
      ],
      "name": "CompactedArrayOutOfBounds",
      "type": "error"
    },
    {
      "inputs": [
        {
          "internalType": "bytes32",
          "name": "key",
          "type": "bytes32"
        }
      ],
      "name": "DisabledFeature",
      "type": "error"
    },
    {
      "inputs": [
        {
          "internalType": "uint256",
          "name": "index",
          "type": "uint256"
        }
      ],
      "name": "EmptyCompactedBlockNumber",
      "type": "error"
    },
    {
      "inputs": [],
      "name": "EndOfOracleSimulation",
      "type": "error"
    },
    {
      "inputs": [
        {
          "internalType": "uint256",
          "name": "startingGas",
          "type": "uint256"
        },
        {
          "internalType": "uint256",
          "name": "minHandleErrorGas",
          "type": "uint256"
        }
      ],
      "name": "InsufficientExecutionGas",
      "type": "error"
    },
    {
      "inputs": [
        {
          "internalType": "uint256",
          "name": "primaryTokensLength",
          "type": "uint256"
        },
        {
          "internalType": "uint256",
          "name": "primaryPricesLength",
          "type": "uint256"
        }
      ],
      "name": "InvalidPrimaryPricesForSimulation",
      "type": "error"
    },
    {
      "inputs": [
        {
          "internalType": "uint256",
          "name": "requestAge",
          "type": "uint256"
        },
        {
          "internalType": "uint256",
          "name": "requestExpirationAge",
          "type": "uint256"
        },
        {
          "internalType": "string",
          "name": "requestType",
          "type": "string"
        }
      ],
      "name": "RequestNotYetCancellable",
      "type": "error"
    },
    {
      "inputs": [
        {
          "internalType": "address",
          "name": "msgSender",
          "type": "address"
        },
        {
          "internalType": "string",
          "name": "role",
          "type": "string"
        }
      ],
      "name": "Unauthorized",
      "type": "error"
    },
    {
      "anonymous": false,
      "inputs": [
        {
          "indexed": false,
          "internalType": "string",
          "name": "reason",
          "type": "string"
        }
      ],
      "name": "OracleError",
      "type": "event"
    },
    {
      "inputs": [
        {
          "internalType": "bytes32",
          "name": "key",
          "type": "bytes32"
        },
        {
          "components": [
            {
              "internalType": "uint256",
              "name": "signerInfo",
              "type": "uint256"
            },
            {
              "internalType": "address[]",
              "name": "tokens",
              "type": "address[]"
            },
            {
              "internalType": "uint256[]",
              "name": "compactedMinOracleBlockNumbers",
              "type": "uint256[]"
            },
            {
              "internalType": "uint256[]",
              "name": "compactedMaxOracleBlockNumbers",
              "type": "uint256[]"
            },
            {
              "internalType": "uint256[]",
              "name": "compactedOracleTimestamps",
              "type": "uint256[]"
            },
            {
              "internalType": "uint256[]",
              "name": "compactedDecimals",
              "type": "uint256[]"
            },
            {
              "internalType": "uint256[]",
              "name": "compactedMinPrices",
              "type": "uint256[]"
            },
            {
              "internalType": "uint256[]",
              "name": "compactedMinPricesIndexes",
              "type": "uint256[]"
            },
            {
              "internalType": "uint256[]",
              "name": "compactedMaxPrices",
              "type": "uint256[]"
            },
            {
              "internalType": "uint256[]",
              "name": "compactedMaxPricesIndexes",
              "type": "uint256[]"
            },
            {
              "internalType": "bytes[]",
              "name": "signatures",
              "type": "bytes[]"
            },
            {
              "internalType": "address[]",
              "name": "priceFeedTokens",
              "type": "address[]"
            },
            {
              "internalType": "address[]",
              "name": "realtimeFeedTokens",
              "type": "address[]"
            },
            {
              "internalType": "bytes[]",
              "name": "realtimeFeedData",
              "type": "bytes[]"
            }
          ],
          "internalType": "struct OracleUtils.SetPricesParams",
          "name": "oracleParams",
          "type": "tuple"
        },
        {
          "internalType": "address",
          "name": "keeper",
          "type": "address"
        }
      ],
      "name": "_executeWithdrawal",
      "outputs": [],
      "stateMutability": "nonpayable",
      "type": "function"
    },
    {
      "inputs": [
        {
          "internalType": "bytes32",
          "name": "key",
          "type": "bytes32"
        }
      ],
      "name": "cancelWithdrawal",
      "outputs": [],
      "stateMutability": "nonpayable",
      "type": "function"
    },
    {
      "inputs": [
        {
          "internalType": "address",
          "name": "account",
          "type": "address"
        },
        {
          "components": [
            {
              "internalType": "address",
              "name": "receiver",
              "type": "address"
            },
            {
              "internalType": "address",
              "name": "callbackContract",
              "type": "address"
            },
            {
              "internalType": "address",
              "name": "uiFeeReceiver",
              "type": "address"
            },
            {
              "internalType": "address",
              "name": "market",
              "type": "address"
            },
            {
              "internalType": "address[]",
              "name": "longTokenSwapPath",
              "type": "address[]"
            },
            {
              "internalType": "address[]",
              "name": "shortTokenSwapPath",
              "type": "address[]"
            },
            {
              "internalType": "uint256",
              "name": "minLongTokenAmount",
              "type": "uint256"
            },
            {
              "internalType": "uint256",
              "name": "minShortTokenAmount",
              "type": "uint256"
            },
            {
              "internalType": "bool",
              "name": "shouldUnwrapNativeToken",
              "type": "bool"
            },
            {
              "internalType": "uint256",
              "name": "executionFee",
              "type": "uint256"
            },
            {
              "internalType": "uint256",
              "name": "callbackGasLimit",
              "type": "uint256"
            }
          ],
          "internalType": "struct WithdrawalUtils.CreateWithdrawalParams",
          "name": "params",
          "type": "tuple"
        }
      ],
      "name": "createWithdrawal",
      "outputs": [
        {
          "internalType": "bytes32",
          "name": "",
          "type": "bytes32"
        }
      ],
      "stateMutability": "nonpayable",
      "type": "function"
    },
    {
      "inputs": [],
      "name": "dataStore",
      "outputs": [
        {
          "internalType": "contract DataStore",
          "name": "",
          "type": "address"
        }
      ],
      "stateMutability": "view",
      "type": "function"
    },
    {
      "inputs": [],
      "name": "eventEmitter",
      "outputs": [
        {
          "internalType": "contract EventEmitter",
          "name": "",
          "type": "address"
        }
      ],
      "stateMutability": "view",
      "type": "function"
    },
    {
      "inputs": [
        {
          "internalType": "bytes32",
          "name": "key",
          "type": "bytes32"
        },
        {
          "components": [
            {
              "internalType": "uint256",
              "name": "signerInfo",
              "type": "uint256"
            },
            {
              "internalType": "address[]",
              "name": "tokens",
              "type": "address[]"
            },
            {
              "internalType": "uint256[]",
              "name": "compactedMinOracleBlockNumbers",
              "type": "uint256[]"
            },
            {
              "internalType": "uint256[]",
              "name": "compactedMaxOracleBlockNumbers",
              "type": "uint256[]"
            },
            {
              "internalType": "uint256[]",
              "name": "compactedOracleTimestamps",
              "type": "uint256[]"
            },
            {
              "internalType": "uint256[]",
              "name": "compactedDecimals",
              "type": "uint256[]"
            },
            {
              "internalType": "uint256[]",
              "name": "compactedMinPrices",
              "type": "uint256[]"
            },
            {
              "internalType": "uint256[]",
              "name": "compactedMinPricesIndexes",
              "type": "uint256[]"
            },
            {
              "internalType": "uint256[]",
              "name": "compactedMaxPrices",
              "type": "uint256[]"
            },
            {
              "internalType": "uint256[]",
              "name": "compactedMaxPricesIndexes",
              "type": "uint256[]"
            },
            {
              "internalType": "bytes[]",
              "name": "signatures",
              "type": "bytes[]"
            },
            {
              "internalType": "address[]",
              "name": "priceFeedTokens",
              "type": "address[]"
            },
            {
              "internalType": "address[]",
              "name": "realtimeFeedTokens",
              "type": "address[]"
            },
            {
              "internalType": "bytes[]",
              "name": "realtimeFeedData",
              "type": "bytes[]"
            }
          ],
          "internalType": "struct OracleUtils.SetPricesParams",
          "name": "oracleParams",
          "type": "tuple"
        }
      ],
      "name": "executeWithdrawal",
      "outputs": [],
      "stateMutability": "nonpayable",
      "type": "function"
    },
    {
      "inputs": [],
      "name": "oracle",
      "outputs": [
        {
          "internalType": "contract Oracle",
          "name": "",
          "type": "address"
        }
      ],
      "stateMutability": "view",
      "type": "function"
    },
    {
      "inputs": [],
      "name": "roleStore",
      "outputs": [
        {
          "internalType": "contract RoleStore",
          "name": "",
          "type": "address"
        }
      ],
      "stateMutability": "view",
      "type": "function"
    },
    {
      "inputs": [
        {
          "internalType": "bytes32",
          "name": "key",
          "type": "bytes32"
        },
        {
          "components": [
            {
              "internalType": "address[]",
              "name": "primaryTokens",
              "type": "address[]"
            },
            {
              "components": [
                {
                  "internalType": "uint256",
                  "name": "min",
                  "type": "uint256"
                },
                {
                  "internalType": "uint256",
                  "name": "max",
                  "type": "uint256"
                }
              ],
              "internalType": "struct Price.Props[]",
              "name": "primaryPrices",
              "type": "tuple[]"
            }
          ],
          "internalType": "struct OracleUtils.SimulatePricesParams",
          "name": "params",
          "type": "tuple"
        }
      ],
      "name": "simulateExecuteWithdrawal",
      "outputs": [],
      "stateMutability": "nonpayable",
      "type": "function"
    },
    {
      "inputs": [],
      "name": "withdrawalVault",
      "outputs": [
        {
          "internalType": "contract WithdrawalVault",
          "name": "",
          "type": "address"
        }
      ],
      "stateMutability": "view",
      "type": "function"
    }
  ],
  "bytecode": "0x6101206040523480156200001257600080fd5b5060405162002f1538038062002f15833981016040819052620000359162000078565b6001600160a01b0393841660805293831660a05290821660c052811660e0521661010052620000f8565b6001600160a01b03811681146200007557600080fd5b50565b600080600080600060a086880312156200009157600080fd5b85516200009e816200005f565b6020870151909550620000b1816200005f565b6040870151909450620000c4816200005f565b6060870151909350620000d7816200005f565b6080870151909250620000ea816200005f565b809150509295509295909350565b60805160a05160c05160e05161010051612d31620001e4600039600081816101780152818161025f015281816105a401526106ba01526000818161013e0152818161057501528181610a2e01528181610ba20152610f9c0152600081816101c0015281816102a10152818161054601528181610a0d01528181610b800152610f7a01526000818160c00152610df50152600081816101170152818161028001528181610337015281816104ac015281816105170152818161091201528181610b0701528181610b5e01528181610c2301528181610d2601528181610f5801526110070152612d316000f3fe608060405234801561001057600080fd5b506004361061008e5760003560e01c8063185add7f14610093578063427a7dd1146100a85780634a4a7b04146100bb5780636331d7a7146100ff578063660d0d671461011257806369d42148146101395780637213c5a0146101605780637dc0d1d01461017357806398b523ca1461019a5780639ff78c30146101bb575b600080fd5b6100a66100a13660046117cf565b6101e2565b005b6100a66100b6366004611d0a565b610459565b6100e27f000000000000000000000000000000000000000000000000000000000000000081565b6040516001600160a01b0390911681526020015b60405180910390f35b6100a661010d366004611d71565b610668565b6100e27f000000000000000000000000000000000000000000000000000000000000000081565b6100e27f000000000000000000000000000000000000000000000000000000000000000081565b6100a661016e366004611e89565b6108e3565b6100e27f000000000000000000000000000000000000000000000000000000000000000081565b6101ad6101a8366004611ea2565b610ae6565b6040519081526020016100f6565b6100e27f000000000000000000000000000000000000000000000000000000000000000081565b6101ea610c1f565b61025d60405160200161021d906020808252600c908201526b27a92222a92fa5a2a2a822a960a11b604082015260600190565b604051602081830303815290604052805190602001206040518060400160405280600c81526020016b27a92222a92fa5a2a2a822a960a11b815250610dde565b7f00000000000000000000000000000000000000000000000000000000000000007f00000000000000000000000000000000000000000000000000000000000000007f00000000000000000000000000000000000000000000000000000000000000006102c984611eee565b6040516304a76ae360e21b81526001600160a01b0385169063129dab8c906102f990869086908690600401612180565b600060405180830381600087803b15801561031357600080fd5b505af1158015610327573d6000803e3d6000fd5b5050505060005a9050600061035c7f000000000000000000000000000000000000000000000000000000000000000083610e8e565b60405163427a7dd160e01b8152909150309063427a7dd1908390610388908c908c903390600401612321565b600060405180830381600088803b1580156103a257600080fd5b5087f1935050505080156103b4575060015b6103f5573d8080156103e2576040519150601f19603f3d011682016040523d82523d6000602084013e6103e7565b606091505b506103f3898483610ed9565b505b5050836001600160a01b031662ccf1556040518163ffffffff1660e01b8152600401600060405180830381600087803b15801561043157600080fd5b505af1158015610445573d6000803e3d6000fd5b5050505050505050610455611005565b5050565b3330146104a2576040805163a35b150b60e01b815233600480830191909152602482019290925260448101919091526329a2a62360e11b60648201526084015b60405180910390fd5b60005a90506104d97f00000000000000000000000000000000000000000000000000000000000000006104d4306110bf565b611158565b60006104ee8460400151856020015151611183565b905060006105058560600151866020015151611183565b905060006040518061012001604052807f00000000000000000000000000000000000000000000000000000000000000006001600160a01b031681526020017f00000000000000000000000000000000000000000000000000000000000000006001600160a01b031681526020017f00000000000000000000000000000000000000000000000000000000000000006001600160a01b031681526020017f00000000000000000000000000000000000000000000000000000000000000006001600160a01b03168152602001888152602001848152602001838152602001866001600160a01b0316815260200185815250905073__$b16dc1d178619391e781edffc4bee00572$__633c0ba338826040518263ffffffff1660e01b815260040161062f919061255d565b60006040518083038186803b15801561064757600080fd5b505af415801561065b573d6000803e3d6000fd5b5050505050505050505050565b6106b860405160200161067a90612615565b604051602081830303815290604052805190602001206040518060400160405280600a81526020016921a7a72a2927a62622a960b11b815250610dde565b7f000000000000000000000000000000000000000000000000000000000000000081806020015151816000015151146107165780515160208201515160405163663de02360e01b815260048101929092526024820152604401610499565b60005b8151518110156107ed5760008260000151828151811061073b5761073b612639565b6020026020010151905060008360200151838151811061075d5761075d612639565b6020908102919091018101516040516347cba33d60e01b81526001600160a01b03858116600483015282516024830152928201516044820152909250908616906347cba33d90606401600060405180830381600087803b1580156107c057600080fd5b505af11580156107d4573d6000803e3d6000fd5b50505050505080806107e590612665565b915050610719565b506107f6610c1f565b610868604051806101c0016040528060008152602001606081526020016060815260200160608152602001606081526020016060815260200160608152602001606081526020016060815260200160608152602001606081526020016060815260200160608152602001606081525090565b60405163427a7dd160e01b8152309063427a7dd19061088f9088908590339060040161267e565b600060405180830381600087803b1580156108a957600080fd5b505af11580156108bd573d6000803e3d6000fd5b50505050506108ca611005565b6040516327246e6d60e11b815260040160405180910390fd5b6108eb610c1f565b6108fd60405160200161067a90612615565b60005a60405163fdfc26f360e01b81529091507f00000000000000000000000000000000000000000000000000000000000000009060009073__$3dc24d71d6ebafc0c4ce8ac2f69cd1548a$__9063fdfc26f39061096190859088906004016126af565b600060405180830381865af415801561097e573d6000803e3d6000fd5b505050506040513d6000823e601f3d908101601f191682016040526109a6919081019061280d565b90506109b5826104d430611217565b6109f0826109c883602001516060015190565b6040518060400160405280600a81526020016915da5d1a191c985dd85b60b21b815250611265565b73__$b16dc1d178619391e781edffc4bee00572$__63e923fdc4837f00000000000000000000000000000000000000000000000000000000000000007f000000000000000000000000000000000000000000000000000000000000000088610a5787515190565b60408051808201825260158152741554d15497d2539255125055115117d0d05390d153605a1b602082015290516001600160e01b031960e089901b168152610aa89695949392918c91600401612943565b60006040518083038186803b158015610ac057600080fd5b505af4158015610ad4573d6000803e3d6000fd5b50505050505050610ae3611005565b50565b6000610af0610c1f565b610b0260405160200161067a90612615565b610b2f7f00000000000000000000000000000000000000000000000000000000000000006104d430611372565b6040516322d0c78160e11b815273__$b16dc1d178619391e781edffc4bee00572$__906345a18f0290610bce907f0000000000000000000000000000000000000000000000000000000000000000907f0000000000000000000000000000000000000000000000000000000000000000907f000000000000000000000000000000000000000000000000000000000000000090899089906004016129b9565b602060405180830381865af4158015610beb573d6000803e3d6000fd5b505050506040513d601f19601f82011682018060405250810190610c0f9190612aee565b9050610c19611005565b92915050565b60007f00000000000000000000000000000000000000000000000000000000000000006001600160a01b031663bd02d0f5604051602001610c5f90612b07565b604051602081830303815290604052805190602001206040518263ffffffff1660e01b8152600401610c9391815260200190565b602060405180830381865afa158015610cb0573d6000803e3d6000fd5b505050506040513d601f19601f82011682018060405250810190610cd49190612aee565b90508015610d245760405162461bcd60e51b815260206004820152601f60248201527f5265656e7472616e637947756172643a207265656e7472616e742063616c6c006044820152606401610499565b7f00000000000000000000000000000000000000000000000000000000000000006001600160a01b031663e2a4853a604051602001610d6290612b07565b60408051601f198184030181529082905280516020909101206001600160e01b031960e084901b1682526004820152600160248201526044016020604051808303816000875af1158015610dba573d6000803e3d6000fd5b505050506040513d601f19601f820116820180604052508101906104559190612aee565b60405163ac4ab3fb60e01b81526001600160a01b037f0000000000000000000000000000000000000000000000000000000000000000169063ac4ab3fb90610e2c90339086906004016126af565b602060405180830381865afa158015610e49573d6000803e3d6000fd5b505050506040513d601f19601f82011682018060405250810190610e6d9190612b38565b61045557338160405163a35b150b60e01b8152600401610499929190612b55565b600080610e9a846113c0565b905080831015610ec757604051631c09bc2160e01b81526004810184905260248101829052604401610499565b610ed18184612b79565b949350505050565b6000610ee6826020015190565b9050610ef181611487565b80610f0c57506001600160e01b0319811663dd70e0c960e01b145b15610f1a57610f1a826114bd565b6000610f25836114c6565b50604051633a48ff7160e21b815290915073__$b16dc1d178619391e781edffc4bee00572$__9063e923fdc490610fce907f0000000000000000000000000000000000000000000000000000000000000000907f0000000000000000000000000000000000000000000000000000000000000000907f0000000000000000000000000000000000000000000000000000000000000000908b9033908c908a908d90600401612b8c565b60006040518083038186803b158015610fe657600080fd5b505af4158015610ffa573d6000803e3d6000fd5b505050505050505050565b7f00000000000000000000000000000000000000000000000000000000000000006001600160a01b031663e2a4853a60405160200161104390612b07565b60408051601f198184030181529082905280516020909101206001600160e01b031960e084901b1682526004820152600060248201526044016020604051808303816000875af115801561109b573d6000803e3d6000fd5b505050506040513d601f19601f82011682018060405250810190610ae39190612aee565b600060405160200161110e9060208082526023908201527f455845435554455f5749544844524157414c5f464541545552455f444953414260408201526213115160ea1b606082015260800190565b60408051601f198184030181528282528051602091820120908301526001600160a01b03841690820152606001604051602081830303815290604052805190602001209050919050565b6111628282611556565b156104555760405163dd70e0c960e01b815260048101829052602401610499565b60606000826001600160401b0381111561119f5761119f61181d565b6040519080825280602002602001820160405280156111c8578160200160208202803683370190505b50905060005b8381101561120f576111e085826115c9565b8282815181106111f2576111f2612639565b60209081029190910101528061120781612665565b9150506111ce565b509392505050565b600060405160200161110e9060208082526022908201527f43414e43454c5f5749544844524157414c5f464541545552455f44495341424c604082015261115160f21b606082015260800190565b6000836001600160a01b031663bd02d0f56040516020016112b6906020808252601c908201527b524551554553545f45585049524154494f4e5f424c4f434b5f41474560201b604082015260600190565b604051602081830303815290604052805190602001206040518263ffffffff1660e01b81526004016112ea91815260200190565b602060405180830381865afa158015611307573d6000803e3d6000fd5b505050506040513d601f19601f8201168201806040525081019061132b9190612aee565b905060008361133861163b565b6113429190612b79565b90508181101561136b57808284604051631d04cc8760e31b815260040161049993929190612bfa565b5050505050565b600060405160200161110e9060208082526022908201527f4352454154455f5749544844524157414c5f464541545552455f44495341424c604082015261115160f21b606082015260800190565b6000816001600160a01b031663bd02d0f5604051602001611412906020808252601e908201527f4d494e5f48414e444c455f455845435554494f4e5f4552524f525f4741530000604082015260600190565b604051602081830303815290604052805190602001206040518263ffffffff1660e01b815260040161144691815260200190565b602060405180830381865afa158015611463573d6000803e3d6000fd5b505050506040513d601f19601f82011682018060405250810190610c199190612aee565b6000611492826116b7565b1561149f57506001919050565b6114a8826116f9565b156114b557506001919050565b506000919050565b80518060208301fd5b606060006044835110156114ed575050604080516020810190915260008082529092909150565b60006114fa846020015190565b90506307b9e43360e51b6001600160e01b0319821601611539576004840193508380602001905181019061152e9190612c19565b946001945092505050565b600060405180602001604052806000815250909250925050915091565b604051633d70e7e560e11b8152600481018290526000906001600160a01b03841690637ae1cfca90602401602060405180830381865afa15801561159e573d6000803e3d6000fd5b505050506040513d601f19601f820116820180604052508101906115c29190612b38565b9392505050565b6000806116158484604060c0600019901c6040518060400160405280601f81526020017f676574556e636f6d7061637465644f7261636c65426c6f636b4e756d6265720081525061171b565b9050806000036115c25760405163349f5fdd60e11b815260048101849052602401610499565b60006116456117b8565b156116b25760646001600160a01b031663a3b1b31d6040518163ffffffff1660e01b8152600401602060405180830381865afa158015611689573d6000803e3d6000fd5b505050506040513d601f19601f820116820180604052508101906116ad9190612aee565b905090565b504390565b600063010dcfd160e71b6001600160e01b03198316016116d957506001919050565b6341f057fb60e11b6001600160e01b03198316016114b557506001919050565b600063329b5fdb60e01b6001600160e01b03198316016114b557506001919050565b60008061172a85610100612c86565b905060006117388288612c86565b905087518110611763578787828660405163bdec9c0d60e01b81526004016104999493929190612ca8565b600088828151811061177757611777612639565b6020026020010151905060008784846117909190612ce4565b61179a908b612b79565b6117a49190612ce4565b9190911c8616935050505095945050505050565b600061a4b14614806116ad5750504662066eed1490565b600080604083850312156117e257600080fd5b8235915060208301356001600160401b038111156117ff57600080fd5b83016101c0818603121561181257600080fd5b809150509250929050565b634e487b7160e01b600052604160045260246000fd5b6040516101c081016001600160401b03811182821017156118565761185661181d565b60405290565b604080519081016001600160401b03811182821017156118565761185661181d565b604051606081016001600160401b03811182821017156118565761185661181d565b60405160e081016001600160401b03811182821017156118565761185661181d565b604051601f8201601f191681016001600160401b03811182821017156118ea576118ea61181d565b604052919050565b60006001600160401b0382111561190b5761190b61181d565b5060051b60200190565b6001600160a01b0381168114610ae357600080fd5b803561193581611915565b919050565b600082601f83011261194b57600080fd5b8135602061196061195b836118f2565b6118c2565b82815260059290921b8401810191818101908684111561197f57600080fd5b8286015b848110156119a357803561199681611915565b8352918301918301611983565b509695505050505050565b600082601f8301126119bf57600080fd5b813560206119cf61195b836118f2565b82815260059290921b840181019181810190868411156119ee57600080fd5b8286015b848110156119a357803583529183019183016119f2565b60006001600160401b03821115611a2257611a2261181d565b50601f01601f191660200190565b600082601f830112611a4157600080fd5b81356020611a5161195b836118f2565b82815260059290921b84018101918181019086841115611a7057600080fd5b8286015b848110156119a35780356001600160401b03811115611a935760008081fd5b8701603f81018913611aa55760008081fd5b848101356040611ab761195b83611a09565b8281528b82848601011115611acc5760008081fd5b8282850189830137600092810188019290925250845250918301918301611a74565b60006101c08284031215611b0157600080fd5b611b09611833565b82358152905060208201356001600160401b0380821115611b2957600080fd5b611b358583860161193a565b60208401526040840135915080821115611b4e57600080fd5b611b5a858386016119ae565b60408401526060840135915080821115611b7357600080fd5b611b7f858386016119ae565b60608401526080840135915080821115611b9857600080fd5b611ba4858386016119ae565b608084015260a0840135915080821115611bbd57600080fd5b611bc9858386016119ae565b60a084015260c0840135915080821115611be257600080fd5b611bee858386016119ae565b60c084015260e0840135915080821115611c0757600080fd5b611c13858386016119ae565b60e084015261010091508184013581811115611c2e57600080fd5b611c3a868287016119ae565b838501525061012091508184013581811115611c5557600080fd5b611c61868287016119ae565b838501525061014091508184013581811115611c7c57600080fd5b611c8886828701611a30565b838501525061016091508184013581811115611ca357600080fd5b611caf8682870161193a565b838501525061018091508184013581811115611cca57600080fd5b611cd68682870161193a565b83850152506101a091508184013581811115611cf157600080fd5b611cfd86828701611a30565b8385015250505092915050565b600080600060608486031215611d1f57600080fd5b8335925060208401356001600160401b03811115611d3c57600080fd5b611d4886828701611aee565b9250506040840135611d5981611915565b809150509250925092565b6001600160a01b03169052565b6000806040808486031215611d8557600080fd5b833592506020808501356001600160401b0380821115611da457600080fd5b8187019150838289031215611db857600080fd5b611dc061185c565b823582811115611dcf57600080fd5b611ddb8a82860161193a565b8252508383013582811115611def57600080fd5b80840193505088601f840112611e0457600080fd5b82359150611e1461195b836118f2565b82815260069290921b8301840191848101908a841115611e3357600080fd5b938501935b83851015611e735786858c031215611e505760008081fd5b611e5861185c565b85358152868601358782015282529386019390850190611e38565b8086840152505080955050505050509250929050565b600060208284031215611e9b57600080fd5b5035919050565b60008060408385031215611eb557600080fd5b8235611ec081611915565b915060208301356001600160401b03811115611edb57600080fd5b8301610160818603121561181257600080fd5b6000610c193683611aee565b600081518084526020808501945080840160005b83811015611f335781516001600160a01b031687529582019590820190600101611f0e565b509495945050505050565b600081518084526020808501945080840160005b83811015611f3357815187529582019590820190600101611f52565b60005b83811015611f89578181015183820152602001611f71565b50506000910152565b60008151808452611faa816020860160208601611f6e565b601f01601f19169290920160200192915050565b600081518084526020808501808196508360051b8101915082860160005b85811015612006578284038952611ff4848351611f92565b98850198935090840190600101611fdc565b5091979650505050505050565b60006101c082518452602083015181602086015261203382860182611efa565b9150506040830151848203604086015261204d8282611f3e565b915050606083015184820360608601526120678282611f3e565b915050608083015184820360808601526120818282611f3e565b91505060a083015184820360a086015261209b8282611f3e565b91505060c083015184820360c08601526120b58282611f3e565b91505060e083015184820360e08601526120cf8282611f3e565b91505061010080840151858303828701526120ea8382611f3e565b9250505061012080840151858303828701526121068382611f3e565b9250505061014080840151858303828701526121228382611fbe565b92505050610160808401518583038287015261213e8382611efa565b92505050610180808401518583038287015261215a8382611efa565b925050506101a080840151858303828701526121768382611fbe565b9695505050505050565b6001600160a01b038481168252831660208201526060604082018190526000906121ac90830184612013565b95945050505050565b6000808335601e198436030181126121cc57600080fd5b83016020810192503590506001600160401b038111156121eb57600080fd5b8060051b36038213156121fd57600080fd5b9250929050565b8183526000602080850194508260005b85811015611f3357813561222781611915565b6001600160a01b031687529582019590820190600101612214565b81835260006001600160fb1b0383111561225b57600080fd5b8260051b80836020870137939093016020019392505050565b81835281816020850137506000828201602090810191909152601f909101601f19169091010190565b81835260006020808501808196508560051b810191508460005b878110156120065782840389528135601e198836030181126122d857600080fd5b870185810190356001600160401b038111156122f357600080fd5b80360382131561230257600080fd5b61230d868284612274565b9a87019a95505050908401906001016122b7565b8381526060602082015282356060820152600061234160208501856121b5565b6101c080608086015261235961022086018385612204565b925061236860408801886121b5565b9250605f19808786030160a0880152612382858584612242565b945061239160608a018a6121b5565b94509150808786030160c08801526123aa858584612242565b94506123b960808a018a6121b5565b94509150808786030160e08801526123d2858584612242565b94506123e160a08a018a6121b5565b945091506101008188870301818901526123fc868685612242565b955061240b60c08b018b6121b5565b955092506101208289880301818a0152612426878786612242565b965061243560e08c018c6121b5565b96509350610140838a890301818b0152612450888887612242565b975061245e838d018d6121b5565b975094506101609250838a890301838b015261247b888887612242565b9750612489828d018d6121b5565b975094506101809150838a890301828b01526124a6888887612242565b97506124b4818d018d6121b5565b97509450506101a0838a890301818b01526124d088888761229d565b97506124de838d018d6121b5565b97509450838a890301868b01526124f6888887612204565b9750612504828d018d6121b5565b97509550838a8903016101e08b015261251e888888612204565b975061252c818d018d6121b5565b975095505050508087860301610200880152505061254b83838361229d565b9350505050610ed16040830184611d64565b6020815261256f602082018351611d64565b600060208301516125836040840182611d64565b5060408301516125966060840182611d64565b5060608301516125a96080840182611d64565b50608083015160a083015260a08301516101208060c08501526125d0610140850183611f3e565b915060c0850151601f198584030160e08601526125ed8382611f3e565b92505060e085015161010061260481870183611d64565b959095015193019290925250919050565b6020808252600a908201526921a7a72a2927a62622a960b11b604082015260600190565b634e487b7160e01b600052603260045260246000fd5b634e487b7160e01b600052601160045260246000fd5b6000600182016126775761267761264f565b5060010190565b8381526060602082015260006126976060830185612013565b905060018060a01b0383166040830152949350505050565b6001600160a01b03929092168252602082015260400190565b805161193581611915565b600082601f8301126126e457600080fd5b815160206126f461195b836118f2565b82815260059290921b8401810191818101908684111561271357600080fd5b8286015b848110156119a357805161272a81611915565b8352918301918301612717565b600060c0828403121561274957600080fd5b60405160c081016001600160401b038111828210171561276b5761276b61181d565b8060405250809150825181526020830151602082015260408301516040820152606083015160608201526080830151608082015260a083015160a08201525092915050565b8015158114610ae357600080fd5b6000602082840312156127d057600080fd5b604051602081016001600160401b03811182821017156127f2576127f261181d565b80604052508091508251612805816127b0565b905292915050565b60006020828403121561281f57600080fd5b81516001600160401b038082111561283657600080fd5b90830190610100828603121561284b57600080fd5b61285361187e565b82518281111561286257600080fd5b830160e0818803121561287457600080fd5b61287c6118a0565b612885826126c8565b8152612893602083016126c8565b60208201526128a4604083016126c8565b60408201526128b5606083016126c8565b60608201526128c6608083016126c8565b608082015260a0820151848111156128dd57600080fd5b6128e9898285016126d3565b60a08301525060c08201518481111561290157600080fd5b61290d898285016126d3565b60c0830152508252506129238660208501612737565b60208201526129358660e085016127be565b604082015295945050505050565b6001600160a01b03888116825287811660208301528681166040830152606082018690528416608082015260a0810183905261010060c0820181905260009061298e83820185611f92565b83810360e090940193909352505060008152602001979650505050505050565b8035611935816127b0565b6001600160a01b038681168252858116602083015284811660408301528316606082015260a0608082018190526000906129fd9083016129f88561192a565b611d64565b612a096020840161192a565b612a1660c0840182611d64565b50612a236040840161192a565b612a3060e0840182611d64565b50612a3d6060840161192a565b610100612a4c81850183611d64565b612a5960808601866121b5565b92506101606101208181880152612a7561020088018685612204565b9450612a8460a08901896121b5565b9350610140609f1989880301818a0152612a9f878684612204565b965060c08a0135848a015260e08a01356101808a0152612ac0868b016129ae565b15156101a08a0152918901356101c08901525096909601356101e09095019490945250979650505050505050565b600060208284031215612b0057600080fd5b5051919050565b6020808252601790820152765245454e5452414e43595f47554152445f53544154555360481b604082015260600190565b600060208284031215612b4a57600080fd5b81516115c2816127b0565b6001600160a01b0383168152604060208201819052600090610ed190830184611f92565b81810381811115610c1957610c1961264f565b6001600160a01b03898116825288811660208301528781166040830152606082018790528516608082015260a0810184905261010060c08201819052600090612bd783820186611f92565b905082810360e0840152612beb8185611f92565b9b9a5050505050505050505050565b8381528260208201526060604082015260006121ac6060830184611f92565b600060208284031215612c2b57600080fd5b81516001600160401b03811115612c4157600080fd5b8201601f81018413612c5257600080fd5b8051612c6061195b82611a09565b818152856020838501011115612c7557600080fd5b6121ac826020830160208601611f6e565b600082612ca357634e487b7160e01b600052601260045260246000fd5b500490565b608081526000612cbb6080830187611f3e565b8560208401528460408401528281036060840152612cd98185611f92565b979650505050505050565b8082028115828204841417610c1957610c1961264f56fea2646970667358221220f77d19b6e5d463bda2d34e67b5b1800056b306d5b41b324671ea590e2552986764736f6c63430008120033",
  "linkReferences": {
    "contracts/withdrawal/WithdrawalStoreUtils.sol": {
      "WithdrawalStoreUtils": [
        {
          "length": 20,
          "start": 2843
        }
      ]
    },
    "contracts/withdrawal/WithdrawalUtils.sol": {
      "WithdrawalUtils": [
        {
          "length": 20,
          "start": 2014
        },
        {
          "length": 20,
          "start": 3030
        },
        {
          "length": 20,
          "start": 3362
        },
        {
          "length": 20,
          "start": 4380
        }
      ]
    }
  },
  "deployedLinkReferences": {
    "contracts/withdrawal/WithdrawalStoreUtils.sol": {
      "WithdrawalStoreUtils": [
        {
          "length": 20,
          "start": 2359
        }
      ]
    },
    "contracts/withdrawal/WithdrawalUtils.sol": {
      "WithdrawalUtils": [
        {
          "length": 20,
          "start": 1530
        },
        {
          "length": 20,
          "start": 2546
        },
        {
          "length": 20,
          "start": 2878
        },
        {
          "length": 20,
          "start": 3896
        }
      ]
    }
  }
}