{
  "_format": "hh-sol-artifact-1",
  "contractName": "AdlUtils",
  "sourceName": "contracts/adl/AdlUtils.sol",
  "abi": [
    {
      "inputs": [],
      "name": "AdlNotEnabled",
      "type": "error"
    },
    {
      "inputs": [
        {
          "internalType": "address",
          "name": "market",
          "type": "address"
        }
      ],
      "name": "DisabledMarket",
      "type": "error"
    },
    {
      "inputs": [],
      "name": "EmptyMarket",
      "type": "error"
    },
    {
      "inputs": [
        {
          "internalType": "uint256",
          "name": "sizeDeltaUsd",
          "type": "uint256"
        },
        {
          "internalType": "uint256",
          "name": "positionSizeInUsd",
          "type": "uint256"
        }
      ],
      "name": "InvalidSizeDeltaForAdl",
      "type": "error"
    },
    {
      "inputs": [
        {
          "internalType": "uint256[]",
          "name": "oracleBlockNumbers",
          "type": "uint256[]"
        },
        {
          "internalType": "uint256",
          "name": "expectedBlockNumber",
          "type": "uint256"
        }
      ],
      "name": "OracleBlockNumbersAreSmallerThanRequired",
      "type": "error"
    },
    {
      "inputs": [
        {
          "internalType": "contract DataStore",
          "name": "dataStore",
          "type": "DataStore"
        },
        {
          "internalType": "address",
          "name": "market",
          "type": "address"
        },
        {
          "internalType": "bool",
          "name": "isLong",
          "type": "bool"
        },
        {
          "internalType": "uint256[]",
          "name": "maxOracleBlockNumbers",
          "type": "uint256[]"
        }
      ],
      "name": "validateAdl",
      "outputs": [],
      "stateMutability": "view",
      "type": "function"
    }
  ],
  "bytecode": "0x612e6361003a600b82828239805160001a60731461002d57634e487b7160e01b600052600060045260246000fd5b30600052607381538281f3fe730000000000000000000000000000000000000000301460806040526004361061004b5760003560e01c806385671ac514610050578063dbadc9b914610065578063e0cc1a0d14610097575b600080fd5b61006361005e366004611d06565b6100b7565b005b81801561007157600080fd5b50610085610080366004611d7a565b61012e565b60405190815260200160405180910390f35b8180156100a357600080fd5b506100636100b2366004611e38565b610599565b60006100c4858585610692565b9050806100e457604051633285dc5760e01b815260040160405180910390fd5b60006100f1868686610716565b90506100fd8382610790565b61012657828160405162f2302f60e71b815260040161011d929190611ed0565b60405180910390fd5b505050505050565b6000806101958360400151846060015185608001518660a00151604080516001600160a01b039586166020808301919091529486168183015292909416606083015215156080808301919091528351808303909101815260a0909101909252815191012090565b835160405163fdfc26f360e01b815291925060009173__$3d31b232fb363902662fbc281b11ab3357$__9163fdfc26f3916101d591908690600401611f18565b6101a060405180830381865af41580156101f3573d6000803e3d6000fd5b505050506040513d601f19601f820116820180604052508101906102179190611f80565b905061022581602001515190565b8460c00151111561025d5760c084015160208201515160405163720bb46160e01b81526004810192909252602482015260440161011d565b60006040518060e0016040528086604001516001600160a01b0316815260200186604001516001600160a01b031681526020016102a78760000151886040015189606001516107e6565b6001600160a01b0316815260200160006001600160a01b0316815260200186606001516001600160a01b031681526020016102e484516040015190565b6001600160a01b03168152602001600060405190808252806020026020018201604052801561031d578160200160208202803683370190505b5090526040805161014081019091529091506000908060048152602001600181526020018760c001518152602001600081526020016000815260200161036585604001515190565b61037157600019610374565b60005b81526020016000815260200187600001516001600160a01b031663bd02d0f56040516020016103cd9060208082526016908201527513505617d0d05313109050d2d7d1d054d7d31253525560521b604082015260600190565b604051602081830303815290604052805190602001206040518263ffffffff1660e01b815260040161040191815260200190565b602060405180830381865afa15801561041e573d6000803e3d6000fd5b505050506040513d601f19601f820116820180604052508101906104429190612097565b8152602001600081526020018760e0015181525090506000604051806060016040528061047186604001515190565b1515815260016020808301919091526000604092830181905282516060810184528781529182018690529181018390528951929350916104b090610860565b8951604051630c154e0d60e31b815291925073__$9dcb75ef0bb6c4288f2ccffe7dc492c4eb$__916360aa7068916104ee9185908790600401612272565b60006040518083038186803b15801561050657600080fd5b505af415801561051a573d6000803e3d6000fd5b50505060208a01516040516321f5dc7d60e01b815273__$2cb2169b31257cc84fcd1b9a9c4c15efa9$__92506321f5dc7d9161055c9185908790600401612272565b60006040518083038186803b15801561057457600080fd5b505af4158015610588573d6000803e3d6000fd5b50929b9a5050505050505050505050565b60006105a6878585610716565b90506105b28282610790565b6105d257818160405162f2302f60e71b815260040161011d929190611ed0565b60006105de88866108a3565b905060006105ec878361095a565b9050600080600061064f8c86868b6040516020016106349060208082526016908201527513505617d4139317d19050d513d497d193d497d0511360521b604082015260600190565b60405160208183030381529060405280519060200120610ad0565b9250925092506106618c8a8a86610b24565b506106758c8a8a610670610bb2565b610c2e565b506106848b8a8a858588610cb3565b505050505050505050505050565b6000836001600160a01b0316637ae1cfca6106ad8585610e40565b6040518263ffffffff1660e01b81526004016106cb91815260200190565b602060405180830381865afa1580156106e8573d6000803e3d6000fd5b505050506040513d601f19601f8201168201806040525081019061070c9190612299565b90505b9392505050565b6000836001600160a01b031663bd02d0f56107318585610ec8565b6040518263ffffffff1660e01b815260040161074f91815260200190565b602060405180830381865afa15801561076c573d6000803e3d6000fd5b505050506040513d601f19601f8201168201806040525081019061070c9190612097565b6000805b83518110156107da57828482815181106107b0576107b06122b6565b602002602001015110156107c85760009150506107e0565b806107d2816122e2565b915050610794565b50600190505b92915050565b6000836001600160a01b03166321f8a7216108018585610efe565b6040518263ffffffff1660e01b815260040161081f91815260200190565b602060405180830381865afa15801561083c573d6000803e3d6000fd5b505050506040513d601f19601f8201168201806040525081019061070c91906122fb565b60008061086c83610f78565b905060008382604051602001610883929190611f18565b60408051601f198184030181529190528051602090910120949350505050565b60408051608081018252600080825260208201819052918101829052606081019190915260405163a8d8fff560e01b81526001600160a01b0380851660048301528316602482015260009073__$ff439aa65a80c9eec648f15db20b189505$__9063a8d8fff590604401608060405180830381865af415801561092a573d6000803e3d6000fd5b505050506040513d601f19601f8201168201806040525081019061094e9190612318565b905061070f848261102e565b610962611a9d565b6040518060600160405280846001600160a01b0316635dcf719485602001516040518263ffffffff1660e01b815260040161099d919061239c565b6040805180830381865afa1580156109b9573d6000803e3d6000fd5b505050506040513d601f19601f820116820180604052508101906109dd91906123b0565b8152602001846001600160a01b0316635dcf719485604001516040518263ffffffff1660e01b8152600401610a12919061239c565b6040805180830381865afa158015610a2e573d6000803e3d6000fd5b505050506040513d601f19601f82011682018060405250810190610a5291906123b0565b8152602001846001600160a01b0316635dcf719485606001516040518263ffffffff1660e01b8152600401610a87919061239c565b6040805180830381865afa158015610aa3573d6000803e3d6000fd5b505050506040513d601f19601f82011682018060405250810190610ac791906123b0565b90529392505050565b600080600080610ae48989898960016110fc565b90506000610af88a878b600001518a61114c565b905060008083138015610b12575081610b10846111a3565b115b9b929a50909850909650505050505050565b6000846001600160a01b031663abfdcced610b3f8686610e40565b6040516001600160e01b031960e084901b168152600481019190915284151560248201526044016020604051808303816000875af1158015610b85573d6000803e3d6000fd5b505050506040513d601f19601f82011682018060405250810190610ba99190612299565b95945050505050565b6000610bbc6111f9565b15610c295760646001600160a01b031663a3b1b31d6040518163ffffffff1660e01b8152600401602060405180830381865afa158015610c00573d6000803e3d6000fd5b505050506040513d601f19601f82011682018060405250810190610c249190612097565b905090565b504390565b6000846001600160a01b031663e2a4853a610c498686610ec8565b846040518363ffffffff1660e01b8152600401610c70929190918252602082015260400190565b6020604051808303816000875af1158015610c8f573d6000803e3d6000fd5b505050506040513d601f19601f82011682018060405250810190610ba99190612097565b610cbb611acf565b6040810151610ccb906001611210565b604080518082018252600f81526e3837362a37a837b7b62330b1ba37b960891b602082015290820151610d019160009087611275565b6020810151610d11906001611210565b610d5160006040518060400160405280600c81526020016b36b0bc2837362330b1ba37b960a11b815250858460200151611275909392919063ffffffff16565b6060810151610d61906002611210565b60408051808201909152600681526569734c6f6e6760d01b60208201526060820151610d9091600090886112c8565b60408051808201909152600f81526e1cda1bdd5b19115b98589b1950591b608a1b60208201526060820151610dc891600190856112c8565b866001600160a01b03166324de01e4610de7886001600160a01b031690565b836040518363ffffffff1660e01b8152600401610e05929190612c8b565b600060405180830381600087803b158015610e1f57600080fd5b505af1158015610e33573d6000803e3d6000fd5b5050505050505050505050565b6000604051602001610e74906020808252600e908201526d1254d7d0511317d153905093115160921b604082015260600190565b60408051601f198184030181528282528051602091820120908301526001600160a01b0385169082015282151560608201526080015b60405160208183030381529060405280519060200120905092915050565b6000604051602001610e749060208082526010908201526f4c41544553545f41444c5f424c4f434b60801b604082015260600190565b6000604051602001610f3b9060208082526017908201527614d055915117d0d05313109050d2d7d0d3d395149050d5604a1b604082015260600190565b60408051601f198184030181528282528051602091820120908301526001600160a01b038086169183019190915283166060820152608001610eaa565b6000816001600160a01b031663340dbab3604051602001610fb2906020808252600590820152644e4f4e434560d81b604082015260600190565b60408051601f198184030181529082905280516020909101206001600160e01b031960e084901b1682526004820152600160248201526044016020604051808303816000875af115801561100a573d6000803e3d6000fd5b505050506040513d601f19601f820116820180604052508101906107e09190612097565b80516001600160a01b0316611056576040516302fde0d760e11b815260040160405180910390fd5b6000826001600160a01b0316637ae1cfca611074846000015161131d565b6040518263ffffffff1660e01b815260040161109291815260200190565b602060405180830381865afa1580156110af573d6000803e3d6000fd5b505050506040513d601f19601f820116820180604052508101906110d39190612299565b905080156110f75781516040516309f8c93760e01b815261011d919060040161239c565b505050565b60008061110d87878787871561139f565b905080600003611121576000915050610ba9565b6000611134888888600001518888611425565b905061114081836114b6565b98975050505050505050565b6000846001600160a01b031663bd02d0f56111688686866114fd565b6040518263ffffffff1660e01b815260040161118691815260200190565b602060405180830381865afa158015610c8f573d6000803e3d6000fd5b6000808212156111f55760405162461bcd60e51b815260206004820181905260248201527f53616665436173743a2076616c7565206d75737420626520706f736974697665604482015260640161011d565b5090565b600061a4b1461480610c245750504662066eed1490565b806001600160401b0381111561122857611228611c16565b60405190808252806020026020018201604052801561126e57816020015b6040805180820190915260608152600060208201528152602001906001900390816112465790505b5090915250565b818460000151848151811061128c5761128c6122b6565b60200260200101516000018190525080846000015184815181106112b2576112b26122b6565b6020026020010151602001818152505050505050565b81846000015184815181106112df576112df6122b6565b6020026020010151600001819052508084600001518481518110611305576113056122b6565b60209081029190910181015191151591015250505050565b6000604051602001611355906020808252601290820152711254d7d3505492d15517d11254d05093115160721b604082015260600190565b60408051601f198184030181528282528051602091820120908301526001600160a01b03841690820152606001604051602081830303815290604052805190602001209050919050565b600080836113b15785606001516113b7565b85604001515b905060006113c688888461158c565b9050600084156113f457856113e3578660400151602001516113ed565b8660200151602001515b905061140e565b856114045760408701515161140b565b6020870151515b90505b6114188183612d88565b9998505050505050505050565b60008061143b61143688888761162a565b611688565b9050600061144a8888876116f2565b9050811580611457575080155b1561146757600092505050610ba9565b6000611474878787611739565b905060006114856114368385612d88565b905060008761149d576114988286612d9f565b6114a7565b6114a78583612d9f565b9b9a5050505050505050505050565b6000806114cb6114c585611772565b84611785565b9050600084136114ec576114de81611688565b6114e790612dc6565b6114f5565b6114f581611688565b949350505050565b6000604051602001611531906020808252600e908201526d26a0ac2fa827262fa320a1aa27a960911b604082015260600190565b60408051601f1981840301815282825280516020918201209083015281018590526001600160a01b0384166060820152821515608082015260a0015b6040516020818303038152906040528051906020012090509392505050565b6000806115a184604001518560600151611793565b905080856001600160a01b031663bd02d0f56115c18760000151876117c2565b6040518263ffffffff1660e01b81526004016115df91815260200190565b602060405180830381865afa1580156115fc573d6000803e3d6000fd5b505050506040513d601f19601f820116820180604052508101906116209190612097565b610ba99190612df8565b60008061163f84604001518560600151611793565b90506000611658868660000151876040015187866117f3565b90506000611671878760000151886060015188876117f3565b905061167d8183612e1a565b979650505050505050565b60006001600160ff1b038211156111f55760405162461bcd60e51b815260206004820152602860248201527f53616665436173743a2076616c756520646f65736e27742066697420696e2061604482015267371034b73a191a9b60c11b606482015260840161011d565b60008061170784604001518560600151611793565b9050600061172086866000015187604001518786611883565b9050600061167187876000015188606001518887611883565b6000821561175a578161174d578351611753565b83602001515b905061070f565b8161176957836020015161070c565b50509051919050565b6000808212156111f557816000036107e0565b600061070f838360006118a0565b6000816001600160a01b0316836001600160a01b0316146117b55760016117b8565b60025b60ff169392505050565b6000604051602001610f3b906020808252600b908201526a1413d3d317d05353d5539560aa1b604082015260600190565b600081866001600160a01b031663bd02d0f56118108888886118e8565b6040518263ffffffff1660e01b815260040161182e91815260200190565b602060405180830381865afa15801561184b573d6000803e3d6000fd5b505050506040513d601f19601f8201168201806040525081019061186f9190612097565b6118799190612df8565b9695505050505050565b600081866001600160a01b031663bd02d0f5611810888888611960565b6000836000036118b25750600061070f565b81156118d1576117538468327cb2734119d3b7a9601e1b85600161199d565b61070c8468327cb2734119d3b7a9601e1b856119ee565b600060405160200161191b906020808252600d908201526c13d4115397d2539511549154d5609a1b604082015260600190565b60408051601f198184030181528282528051602091820120908301526001600160a01b038087169183019190915284166060820152821515608082015260a00161156d565b600060405160200161191b906020808252601790820152764f50454e5f494e5445524553545f494e5f544f4b454e5360481b604082015260600190565b6000806119ab8686866119ee565b905060018360028111156119c1576119c1612081565b1480156119de5750600084806119d9576119d9612de2565b868809115b15610ba957611879600182612e1a565b6000808060001985870985870292508281108382030391505080600003611a2857838281611a1e57611a1e612de2565b049250505061070f565b808411611a3457600080fd5b60008486880960026001871981018816978890046003810283188082028403028082028403028082028403028082028403028082028403029081029092039091026000889003889004909101858311909403939093029303949094049190911702949350505050565b6040518060600160405280611ab0611bbb565b8152602001611abd611bbb565b8152602001611aca611bbb565b905290565b604080516101208101909152606060e0820181815261010083019190915281908152602001611b11604051806040016040528060608152602001606081525090565b8152602001611b33604051806040016040528060608152602001606081525090565b8152602001611b55604051806040016040528060608152602001606081525090565b8152602001611b77604051806040016040528060608152602001606081525090565b8152602001611b99604051806040016040528060608152602001606081525090565b8152602001611aca604051806040016040528060608152602001606081525090565b604051806040016040528060008152602001600081525090565b6001600160a01b0381168114611bea57600080fd5b50565b8035611bf881611bd5565b919050565b8015158114611bea57600080fd5b8035611bf881611bfd565b634e487b7160e01b600052604160045260246000fd5b604051606081016001600160401b0381118282101715611c4e57611c4e611c16565b60405290565b60405161012081016001600160401b0381118282101715611c4e57611c4e611c16565b600082601f830112611c8857600080fd5b813560206001600160401b0380831115611ca457611ca4611c16565b8260051b604051601f19603f83011681018181108482111715611cc957611cc9611c16565b604052938452858101830193838101925087851115611ce757600080fd5b83870191505b8482101561167d57813583529183019190830190611ced565b60008060008060808587031215611d1c57600080fd5b8435611d2781611bd5565b93506020850135611d3781611bd5565b92506040850135611d4781611bfd565b915060608501356001600160401b03811115611d6257600080fd5b611d6e87828801611c77565b91505092959194509250565b6000610100808385031215611d8e57600080fd5b604051908101906001600160401b0382118183101715611db057611db0611c16565b8160405283359150611dc182611bd5565b818152611dd060208501611bed565b6020820152611de160408501611bed565b6040820152611df260608501611bed565b6060820152611e0360808501611bed565b6080820152611e1460a08501611c0b565b60a082015260c084013560c082015260e084013560e0820152809250505092915050565b60008060008060008060c08789031215611e5157600080fd5b8635611e5c81611bd5565b95506020870135611e6c81611bd5565b94506040870135611e7c81611bd5565b93506060870135611e8c81611bd5565b92506080870135611e9c81611bfd565b915060a08701356001600160401b03811115611eb757600080fd5b611ec389828a01611c77565b9150509295509295509295565b604080825283519082018190526000906020906060840190828701845b82811015611f0957815184529284019290840190600101611eed565b50505092019290925292915050565b6001600160a01b03929092168252602082015260400190565b600060208284031215611f4357600080fd5b604051602081016001600160401b0381118282101715611f6557611f65611c16565b80604052508091508251611f7881611bfd565b905292915050565b60008183036101a0811215611f9457600080fd5b611f9c611c2c565b6060821215611faa57600080fd5b611fb2611c2c565b8451611fbd81611bd5565b81526020850151611fcd81611bd5565b60208201526040850151611fe081611bd5565b60408201528152610120605f198301811315611ffb57600080fd5b612003611c54565b9250606085015183526080850151602084015260a0850151604084015260c0850151606084015260e085015160808401526101008086015160a08501528186015160c085015261014086015160e0850152610160860151818501525050816020820152612074856101808601611f31565b6040820152949350505050565b634e487b7160e01b600052602160045260246000fd5b6000602082840312156120a957600080fd5b5051919050565b6001600160a01b03169052565b600081518084526020808501945080840160005b838110156120f65781516001600160a01b0316875295820195908201906001016120d1565b509495945050505050565b6008811061211157612111612081565b9052565b6003811061211157612111612081565b612130828251612101565b60208101516121426020840182612115565b5060408101516040830152606081015160608301526080810151608083015260a081015160a083015260c081015160c083015260e081015160e08301526101008082015181840152506101208082015181840152505050565b80516101c080845281516001600160a01b0390811691850191909152602082015181166101e085015260408201511661020084015260608101516000916121e66102208601836120b0565b608081015191506121fb6102408601836120b0565b60a081015191506122106102608601836120b0565b60c0015160e0610280860152905061222c6102a08501826120bd565b905060208301516122406020860182612125565b5060408381015180511515610160870152602081015115156101808701529081015115156101a0860152509392505050565b60018060a01b0384168152826020820152606060408201526000610ba9606083018461219b565b6000602082840312156122ab57600080fd5b815161070f81611bfd565b634e487b7160e01b600052603260045260246000fd5b634e487b7160e01b600052601160045260246000fd5b6000600182016122f4576122f46122cc565b5060010190565b60006020828403121561230d57600080fd5b815161070f81611bd5565b60006080828403121561232a57600080fd5b604051608081016001600160401b038111828210171561234c5761234c611c16565b604052825161235a81611bd5565b8152602083015161236a81611bd5565b6020820152604083015161237d81611bd5565b6040820152606083015161239081611bd5565b60608201529392505050565b6001600160a01b0391909116815260200190565b6000604082840312156123c257600080fd5b604080519081016001600160401b03811182821017156123e4576123e4611c16565b604052825181526020928301519281019290925250919050565b6000815180845260005b8181101561242457602081850181015186830182015201612408565b506000602082860101526020601f19601f83011685010191505092915050565b600081518084526020808501808196508360051b810191508286016000805b868110156124df578385038a52825160408151818852612485828901826123fe565b92890151888403898b01528051808552908a01938693508a0191505b808310156124ca5783516001600160a01b031682529289019260019290920191908901906124a1565b509b88019b9650505091850191600101612463565b509298975050505050505050565b60006040808401835182865281815180845260608801915060608160051b89010193506020808401935060005b8281101561256457898603605f190184528451805188885261253e898901826123fe565b918401516001600160a01b0316978401979097529550938101939281019260010161251a565b50808801519550888503818a015250505050610ba98183612444565b600081518084526020808501808196508360051b810191508286016000805b868110156124df578385038a528251604081518188526125c1828901826123fe565b92890151888403898b01528051808552908a01938693508a0191505b808310156125fd57835182529289019260019290920191908901906125dd565b509b88019b965050509185019160010161259f565b60006040808401835182865281815180845260608801915060608160051b89010193506020808401935060005b8281101561268057898603605f1901845284518051888852612663898901826123fe565b91840151978401979097529550938101939281019260010161263f565b50808801519550888503818a015250505050610ba98183612580565b600081518084526020808501808196508360051b810191508286016000805b868110156124df578385038a528251604081518188526126dd828901826123fe565b92890151888403898b01528051808552908a01938693508a0191505b8083101561271957835182529289019260019290920191908901906126f9565b509b88019b96505050918501916001016126bb565b60006040808401835182865281815180845260608801915060608160051b89010193506020808401935060005b8281101561279c57898603605f190184528451805188885261277f898901826123fe565b91840151978401979097529550938101939281019260010161275b565b50808801519550888503818a015250505050610ba9818361269c565b600081518084526020808501808196508360051b810191508286016000805b868110156124df578385038a528251604081518188526127f9828901826123fe565b92890151888403898b01528051808552908a01938693508a0191505b8083101561283757835115158252928901926001929092019190890190612815565b509b88019b96505050918501916001016127d7565b60006040808401835182865281815180845260608801915060608160051b89010193506020808401935060005b828110156128bc57898603605f190184528451805188885261289d898901826123fe565b9184015115159784019790975295509381019392810192600101612879565b50808801519550888503818a015250505050610ba981836127b8565b600081518084526020808501808196508360051b810191508286016000805b868110156124df578385038a52825160408151818852612919828901826123fe565b92890151888403898b01528051808552908a01938693508a0191505b808310156129555783518252928901926001929092019190890190612935565b509b88019b96505050918501916001016128f7565b60006040808401835182865281815180845260608801915060608160051b89010193506020808401935060005b828110156129d857898603605f19018452845180518888526129bb898901826123fe565b918401519784019790975295509381019392810192600101612997565b50808801519550888503818a015250505050610ba981836128d8565b600081518084526020808501808196506005915083821b81018387016000805b87811015612a9f578484038b52825160408151818752612a36828801826123fe565b928a0151878403888c01528051808552908b019392508a83019150808a1b83018b01865b82811015612a8857601f19858303018452612a768287516123fe565b958d0195938d01939150600101612a5a565b509e8b019e97505050938801935050600101612a14565b50919998505050505050505050565b60006040808401835182865281815180845260608801915060608160051b89010193506020808401935060005b82811015612b2b57898603605f1901845284518051888852612aff898901826123fe565b9184015188830389860152919050612b1781836123fe565b975050509381019392810192600101612adb565b50808801519550888503818a015250505050610ba981836129f4565b600081518084526020808501808196506005915083821b81018387016000805b87811015612a9f578484038b52825160408151818752612b89828801826123fe565b928a0151878403888c01528051808552908b019392508a83019150808a1b83018b01865b82811015612bdb57601f19858303018452612bc98287516123fe565b958d0195938d01939150600101612bad565b509e8b019e97505050938801935050600101612b67565b60006040808401835182865281815180845260608801915060608160051b89010193506020808401935060005b82811015612c6f57898603605f1901845284518051888852612c43898901826123fe565b9184015188830389860152919050612c5b81836123fe565b975050509381019392810192600101612c1f565b50808801519550888503818a015250505050610ba98183612b47565b60608152600f60608201526e10591b14dd185d19555c19185d1959608a1b608082015282602082015260a060408201526000825160e060a0840152612cd46101808401826124ed565b90506020840151609f19808584030160c0860152612cf28383612612565b925060408601519150808584030160e0860152612d0f838361272e565b9250606086015191508085840301610100860152612d2d838361284c565b9250608086015191508085840301610120860152612d4b838361296a565b925060a086015191508085840301610140860152612d698383612aae565b925060c086015191508085840301610160860152506118798282612bf2565b80820281158282048414176107e0576107e06122cc565b8181036000831280158383131683831282161715612dbf57612dbf6122cc565b5092915050565b6000600160ff1b8201612ddb57612ddb6122cc565b5060000390565b634e487b7160e01b600052601260045260246000fd5b600082612e1557634e487b7160e01b600052601260045260246000fd5b500490565b808201808211156107e0576107e06122cc56fea26469706673582212207d2664199db822f709e354d52a195277f83e41b094aaae19800b1327cf37231164736f6c63430008120033",
  "linkReferences": {
    "contracts/market/MarketStoreUtils.sol": {
      "MarketStoreUtils": [
        {
          "length": 20,
          "start": 2346
        }
      ]
    },
    "contracts/order/OrderEventUtils.sol": {
      "OrderEventUtils": [
        {
          "length": 20,
          "start": 1387
        }
      ]
    },
    "contracts/order/OrderStoreUtils.sol": {
      "OrderStoreUtils": [
        {
          "length": 20,
          "start": 1278
        }
      ]
    },
    "contracts/position/PositionStoreUtils.sol": {
      "PositionStoreUtils": [
        {
          "length": 20,
          "start": 486
        }
      ]
    }
  },
  "deployedLinkReferences": {
    "contracts/market/MarketStoreUtils.sol": {
      "MarketStoreUtils": [
        {
          "length": 20,
          "start": 2288
        }
      ]
    },
    "contracts/order/OrderEventUtils.sol": {
      "OrderEventUtils": [
        {
          "length": 20,
          "start": 1329
        }
      ]
    },
    "contracts/order/OrderStoreUtils.sol": {
      "OrderStoreUtils": [
        {
          "length": 20,
          "start": 1220
        }
      ]
    },
    "contracts/position/PositionStoreUtils.sol": {
      "PositionStoreUtils": [
        {
          "length": 20,
          "start": 428
        }
      ]
    }
  }
}