{
  "_format": "hh-sol-artifact-1",
  "contractName": "OrderHandler",
  "sourceName": "contracts/exchange/OrderHandler.sol",
  "abi": [
    {
      "inputs": [
        {
          "internalType": "contract RoleStore",
          "name": "_roleStore",
          "type": "address"
        },
        {
          "internalType": "contract DataStore",
          "name": "_dataStore",
          "type": "address"
        },
        {
          "internalType": "contract EventEmitter",
          "name": "_eventEmitter",
          "type": "address"
        },
        {
          "internalType": "contract OrderVault",
          "name": "_orderVault",
          "type": "address"
        },
        {
          "internalType": "contract Oracle",
          "name": "_oracle",
          "type": "address"
        },
        {
          "internalType": "contract SwapHandler",
          "name": "_swapHandler",
          "type": "address"
        },
        {
          "internalType": "contract IReferralStorage",
          "name": "_referralStorage",
          "type": "address"
        }
      ],
      "stateMutability": "nonpayable",
      "type": "constructor"
    },
    {
      "inputs": [
        {
          "internalType": "uint256[]",
          "name": "compactedValues",
          "type": "uint256[]"
        },
        {
          "internalType": "uint256",
          "name": "index",
          "type": "uint256"
        },
        {
          "internalType": "uint256",
          "name": "slotIndex",
          "type": "uint256"
        },
        {
          "internalType": "string",
          "name": "label",
          "type": "string"
        }
      ],
      "name": "CompactedArrayOutOfBounds",
      "type": "error"
    },
    {
      "inputs": [
        {
          "internalType": "bytes32",
          "name": "key",
          "type": "bytes32"
        }
      ],
      "name": "DisabledFeature",
      "type": "error"
    },
    {
      "inputs": [
        {
          "internalType": "address",
          "name": "market",
          "type": "address"
        }
      ],
      "name": "DisabledMarket",
      "type": "error"
    },
    {
      "inputs": [
        {
          "internalType": "uint256",
          "name": "index",
          "type": "uint256"
        }
      ],
      "name": "EmptyCompactedBlockNumber",
      "type": "error"
    },
    {
      "inputs": [],
      "name": "EmptyMarket",
      "type": "error"
    },
    {
      "inputs": [],
      "name": "EmptyOrder",
      "type": "error"
    },
    {
      "inputs": [],
      "name": "EndOfOracleSimulation",
      "type": "error"
    },
    {
      "inputs": [
        {
          "internalType": "uint256",
          "name": "minExecutionFee",
          "type": "uint256"
        },
        {
          "internalType": "uint256",
          "name": "executionFee",
          "type": "uint256"
        }
      ],
      "name": "InsufficientExecutionFee",
      "type": "error"
    },
    {
      "inputs": [
        {
          "internalType": "uint256",
          "name": "startingGas",
          "type": "uint256"
        },
        {
          "internalType": "uint256",
          "name": "minHandleErrorGas",
          "type": "uint256"
        }
      ],
      "name": "InsufficientExecutionGas",
      "type": "error"
    },
    {
      "inputs": [
        {
          "internalType": "address",
          "name": "keeper",
          "type": "address"
        }
      ],
      "name": "InvalidKeeperForFrozenOrder",
      "type": "error"
    },
    {
      "inputs": [
        {
          "internalType": "uint256",
          "name": "primaryTokensLength",
          "type": "uint256"
        },
        {
          "internalType": "uint256",
          "name": "primaryPricesLength",
          "type": "uint256"
        }
      ],
      "name": "InvalidPrimaryPricesForSimulation",
      "type": "error"
    },
    {
      "inputs": [
        {
          "internalType": "address",
          "name": "market",
          "type": "address"
        }
      ],
      "name": "InvalidSwapMarket",
      "type": "error"
    },
    {
      "inputs": [
        {
          "internalType": "uint256",
          "name": "orderType",
          "type": "uint256"
        }
      ],
      "name": "OrderNotUpdatable",
      "type": "error"
    },
    {
      "inputs": [
        {
          "internalType": "uint256",
          "name": "requestAge",
          "type": "uint256"
        },
        {
          "internalType": "uint256",
          "name": "requestExpirationAge",
          "type": "uint256"
        },
        {
          "internalType": "string",
          "name": "requestType",
          "type": "string"
        }
      ],
      "name": "RequestNotYetCancellable",
      "type": "error"
    },
    {
      "inputs": [
        {
          "internalType": "address",
          "name": "msgSender",
          "type": "address"
        },
        {
          "internalType": "string",
          "name": "role",
          "type": "string"
        }
      ],
      "name": "Unauthorized",
      "type": "error"
    },
    {
      "inputs": [],
      "name": "UnsupportedOrderType",
      "type": "error"
    },
    {
      "anonymous": false,
      "inputs": [
        {
          "indexed": false,
          "internalType": "string",
          "name": "reason",
          "type": "string"
        }
      ],
      "name": "OracleError",
      "type": "event"
    },
    {
      "inputs": [
        {
          "internalType": "bytes32",
          "name": "key",
          "type": "bytes32"
        },
        {
          "components": [
            {
              "internalType": "uint256",
              "name": "signerInfo",
              "type": "uint256"
            },
            {
              "internalType": "address[]",
              "name": "tokens",
              "type": "address[]"
            },
            {
              "internalType": "uint256[]",
              "name": "compactedMinOracleBlockNumbers",
              "type": "uint256[]"
            },
            {
              "internalType": "uint256[]",
              "name": "compactedMaxOracleBlockNumbers",
              "type": "uint256[]"
            },
            {
              "internalType": "uint256[]",
              "name": "compactedOracleTimestamps",
              "type": "uint256[]"
            },
            {
              "internalType": "uint256[]",
              "name": "compactedDecimals",
              "type": "uint256[]"
            },
            {
              "internalType": "uint256[]",
              "name": "compactedMinPrices",
              "type": "uint256[]"
            },
            {
              "internalType": "uint256[]",
              "name": "compactedMinPricesIndexes",
              "type": "uint256[]"
            },
            {
              "internalType": "uint256[]",
              "name": "compactedMaxPrices",
              "type": "uint256[]"
            },
            {
              "internalType": "uint256[]",
              "name": "compactedMaxPricesIndexes",
              "type": "uint256[]"
            },
            {
              "internalType": "bytes[]",
              "name": "signatures",
              "type": "bytes[]"
            },
            {
              "internalType": "address[]",
              "name": "priceFeedTokens",
              "type": "address[]"
            },
            {
              "internalType": "address[]",
              "name": "realtimeFeedTokens",
              "type": "address[]"
            },
            {
              "internalType": "bytes[]",
              "name": "realtimeFeedData",
              "type": "bytes[]"
            }
          ],
          "internalType": "struct OracleUtils.SetPricesParams",
          "name": "oracleParams",
          "type": "tuple"
        },
        {
          "internalType": "address",
          "name": "keeper",
          "type": "address"
        }
      ],
      "name": "_executeOrder",
      "outputs": [],
      "stateMutability": "nonpayable",
      "type": "function"
    },
    {
      "inputs": [
        {
          "internalType": "bytes32",
          "name": "key",
          "type": "bytes32"
        }
      ],
      "name": "cancelOrder",
      "outputs": [],
      "stateMutability": "nonpayable",
      "type": "function"
    },
    {
      "inputs": [
        {
          "internalType": "address",
          "name": "account",
          "type": "address"
        },
        {
          "components": [
            {
              "components": [
                {
                  "internalType": "address",
                  "name": "receiver",
                  "type": "address"
                },
                {
                  "internalType": "address",
                  "name": "callbackContract",
                  "type": "address"
                },
                {
                  "internalType": "address",
                  "name": "uiFeeReceiver",
                  "type": "address"
                },
                {
                  "internalType": "address",
                  "name": "market",
                  "type": "address"
                },
                {
                  "internalType": "address",
                  "name": "initialCollateralToken",
                  "type": "address"
                },
                {
                  "internalType": "address[]",
                  "name": "swapPath",
                  "type": "address[]"
                }
              ],
              "internalType": "struct BaseOrderUtils.CreateOrderParamsAddresses",
              "name": "addresses",
              "type": "tuple"
            },
            {
              "components": [
                {
                  "internalType": "uint256",
                  "name": "sizeDeltaUsd",
                  "type": "uint256"
                },
                {
                  "internalType": "uint256",
                  "name": "initialCollateralDeltaAmount",
                  "type": "uint256"
                },
                {
                  "internalType": "uint256",
                  "name": "triggerPrice",
                  "type": "uint256"
                },
                {
                  "internalType": "uint256",
                  "name": "acceptablePrice",
                  "type": "uint256"
                },
                {
                  "internalType": "uint256",
                  "name": "executionFee",
                  "type": "uint256"
                },
                {
                  "internalType": "uint256",
                  "name": "callbackGasLimit",
                  "type": "uint256"
                },
                {
                  "internalType": "uint256",
                  "name": "minOutputAmount",
                  "type": "uint256"
                }
              ],
              "internalType": "struct BaseOrderUtils.CreateOrderParamsNumbers",
              "name": "numbers",
              "type": "tuple"
            },
            {
              "internalType": "enum Order.OrderType",
              "name": "orderType",
              "type": "uint8"
            },
            {
              "internalType": "enum Order.DecreasePositionSwapType",
              "name": "decreasePositionSwapType",
              "type": "uint8"
            },
            {
              "internalType": "bool",
              "name": "isLong",
              "type": "bool"
            },
            {
              "internalType": "bool",
              "name": "shouldUnwrapNativeToken",
              "type": "bool"
            },
            {
              "internalType": "bytes32",
              "name": "referralCode",
              "type": "bytes32"
            }
          ],
          "internalType": "struct BaseOrderUtils.CreateOrderParams",
          "name": "params",
          "type": "tuple"
        }
      ],
      "name": "createOrder",
      "outputs": [
        {
          "internalType": "bytes32",
          "name": "",
          "type": "bytes32"
        }
      ],
      "stateMutability": "nonpayable",
      "type": "function"
    },
    {
      "inputs": [],
      "name": "dataStore",
      "outputs": [
        {
          "internalType": "contract DataStore",
          "name": "",
          "type": "address"
        }
      ],
      "stateMutability": "view",
      "type": "function"
    },
    {
      "inputs": [],
      "name": "eventEmitter",
      "outputs": [
        {
          "internalType": "contract EventEmitter",
          "name": "",
          "type": "address"
        }
      ],
      "stateMutability": "view",
      "type": "function"
    },
    {
      "inputs": [
        {
          "internalType": "bytes32",
          "name": "key",
          "type": "bytes32"
        },
        {
          "components": [
            {
              "internalType": "uint256",
              "name": "signerInfo",
              "type": "uint256"
            },
            {
              "internalType": "address[]",
              "name": "tokens",
              "type": "address[]"
            },
            {
              "internalType": "uint256[]",
              "name": "compactedMinOracleBlockNumbers",
              "type": "uint256[]"
            },
            {
              "internalType": "uint256[]",
              "name": "compactedMaxOracleBlockNumbers",
              "type": "uint256[]"
            },
            {
              "internalType": "uint256[]",
              "name": "compactedOracleTimestamps",
              "type": "uint256[]"
            },
            {
              "internalType": "uint256[]",
              "name": "compactedDecimals",
              "type": "uint256[]"
            },
            {
              "internalType": "uint256[]",
              "name": "compactedMinPrices",
              "type": "uint256[]"
            },
            {
              "internalType": "uint256[]",
              "name": "compactedMinPricesIndexes",
              "type": "uint256[]"
            },
            {
              "internalType": "uint256[]",
              "name": "compactedMaxPrices",
              "type": "uint256[]"
            },
            {
              "internalType": "uint256[]",
              "name": "compactedMaxPricesIndexes",
              "type": "uint256[]"
            },
            {
              "internalType": "bytes[]",
              "name": "signatures",
              "type": "bytes[]"
            },
            {
              "internalType": "address[]",
              "name": "priceFeedTokens",
              "type": "address[]"
            },
            {
              "internalType": "address[]",
              "name": "realtimeFeedTokens",
              "type": "address[]"
            },
            {
              "internalType": "bytes[]",
              "name": "realtimeFeedData",
              "type": "bytes[]"
            }
          ],
          "internalType": "struct OracleUtils.SetPricesParams",
          "name": "oracleParams",
          "type": "tuple"
        }
      ],
      "name": "executeOrder",
      "outputs": [],
      "stateMutability": "nonpayable",
      "type": "function"
    },
    {
      "inputs": [],
      "name": "oracle",
      "outputs": [
        {
          "internalType": "contract Oracle",
          "name": "",
          "type": "address"
        }
      ],
      "stateMutability": "view",
      "type": "function"
    },
    {
      "inputs": [],
      "name": "orderVault",
      "outputs": [
        {
          "internalType": "contract OrderVault",
          "name": "",
          "type": "address"
        }
      ],
      "stateMutability": "view",
      "type": "function"
    },
    {
      "inputs": [],
      "name": "referralStorage",
      "outputs": [
        {
          "internalType": "contract IReferralStorage",
          "name": "",
          "type": "address"
        }
      ],
      "stateMutability": "view",
      "type": "function"
    },
    {
      "inputs": [],
      "name": "roleStore",
      "outputs": [
        {
          "internalType": "contract RoleStore",
          "name": "",
          "type": "address"
        }
      ],
      "stateMutability": "view",
      "type": "function"
    },
    {
      "inputs": [
        {
          "internalType": "bytes32",
          "name": "key",
          "type": "bytes32"
        },
        {
          "components": [
            {
              "internalType": "address[]",
              "name": "primaryTokens",
              "type": "address[]"
            },
            {
              "components": [
                {
                  "internalType": "uint256",
                  "name": "min",
                  "type": "uint256"
                },
                {
                  "internalType": "uint256",
                  "name": "max",
                  "type": "uint256"
                }
              ],
              "internalType": "struct Price.Props[]",
              "name": "primaryPrices",
              "type": "tuple[]"
            }
          ],
          "internalType": "struct OracleUtils.SimulatePricesParams",
          "name": "params",
          "type": "tuple"
        }
      ],
      "name": "simulateExecuteOrder",
      "outputs": [],
      "stateMutability": "nonpayable",
      "type": "function"
    },
    {
      "inputs": [],
      "name": "swapHandler",
      "outputs": [
        {
          "internalType": "contract SwapHandler",
          "name": "",
          "type": "address"
        }
      ],
      "stateMutability": "view",
      "type": "function"
    },
    {
      "inputs": [
        {
          "internalType": "bytes32",
          "name": "key",
          "type": "bytes32"
        },
        {
          "internalType": "uint256",
          "name": "sizeDeltaUsd",
          "type": "uint256"
        },
        {
          "internalType": "uint256",
          "name": "acceptablePrice",
          "type": "uint256"
        },
        {
          "internalType": "uint256",
          "name": "triggerPrice",
          "type": "uint256"
        },
        {
          "internalType": "uint256",
          "name": "minOutputAmount",
          "type": "uint256"
        },
        {
          "components": [
            {
              "components": [
                {
                  "internalType": "address",
                  "name": "account",
                  "type": "address"
                },
                {
                  "internalType": "address",
                  "name": "receiver",
                  "type": "address"
                },
                {
                  "internalType": "address",
                  "name": "callbackContract",
                  "type": "address"
                },
                {
                  "internalType": "address",
                  "name": "uiFeeReceiver",
                  "type": "address"
                },
                {
                  "internalType": "address",
                  "name": "market",
                  "type": "address"
                },
                {
                  "internalType": "address",
                  "name": "initialCollateralToken",
                  "type": "address"
                },
                {
                  "internalType": "address[]",
                  "name": "swapPath",
                  "type": "address[]"
                }
              ],
              "internalType": "struct Order.Addresses",
              "name": "addresses",
              "type": "tuple"
            },
            {
              "components": [
                {
                  "internalType": "enum Order.OrderType",
                  "name": "orderType",
                  "type": "uint8"
                },
                {
                  "internalType": "enum Order.DecreasePositionSwapType",
                  "name": "decreasePositionSwapType",
                  "type": "uint8"
                },
                {
                  "internalType": "uint256",
                  "name": "sizeDeltaUsd",
                  "type": "uint256"
                },
                {
                  "internalType": "uint256",
                  "name": "initialCollateralDeltaAmount",
                  "type": "uint256"
                },
                {
                  "internalType": "uint256",
                  "name": "triggerPrice",
                  "type": "uint256"
                },
                {
                  "internalType": "uint256",
                  "name": "acceptablePrice",
                  "type": "uint256"
                },
                {
                  "internalType": "uint256",
                  "name": "executionFee",
                  "type": "uint256"
                },
                {
                  "internalType": "uint256",
                  "name": "callbackGasLimit",
                  "type": "uint256"
                },
                {
                  "internalType": "uint256",
                  "name": "minOutputAmount",
                  "type": "uint256"
                },
                {
                  "internalType": "uint256",
                  "name": "updatedAtBlock",
                  "type": "uint256"
                }
              ],
              "internalType": "struct Order.Numbers",
              "name": "numbers",
              "type": "tuple"
            },
            {
              "components": [
                {
                  "internalType": "bool",
                  "name": "isLong",
                  "type": "bool"
                },
                {
                  "internalType": "bool",
                  "name": "shouldUnwrapNativeToken",
                  "type": "bool"
                },
                {
                  "internalType": "bool",
                  "name": "isFrozen",
                  "type": "bool"
                }
              ],
              "internalType": "struct Order.Flags",
              "name": "flags",
              "type": "tuple"
            }
          ],
          "internalType": "struct Order.Props",
          "name": "order",
          "type": "tuple"
        }
      ],
      "name": "updateOrder",
      "outputs": [],
      "stateMutability": "nonpayable",
      "type": "function"
    }
  ],
  "bytecode": "0x6101606040523480156200001257600080fd5b5060405162004f0638038062004f06833981016040819052620000359162000085565b6001600160a01b0395861660805295851660a05292841660c05290831660e052821661012052811661010052166101405262000130565b6001600160a01b03811681146200008257600080fd5b50565b600080600080600080600060e0888a031215620000a157600080fd5b8751620000ae816200006c565b6020890151909750620000c1816200006c565b6040890151909650620000d4816200006c565b6060890151909550620000e7816200006c565b6080890151909450620000fa816200006c565b60a08901519093506200010d816200006c565b60c089015190925062000120816200006c565b8091505092959891949750929550565b60805160a05160c05160e051610100516101205161014051614c5d620002a96000396000818160b801528181610f690152611cfe01526000818161016b015281816102ae015281816107b00152611ca80152600081816101920152611cd30152600081816101b90152818161067b01528181610ab601528181610f47015281816117da015281816118b80152611c7d0152600081816102060152818161065a015281816107f201528181610c8601528181610f25015281816117b8015281816118960152611c5201526000818161010a01528181610ffd0152611de00152600081816101310152818161050801528181610639015281816107d101528181610888015281816109c901528181610a8c01528181610b7401528181610ba001528181610c1501528181610e8901528181610f030152818161109a0152818161119d015281816112530152818161159a015281816117960152818161187401528181611b6f01528181611bf00152611c2a0152614c5d6000f3fe608060405234801561001057600080fd5b50600436106100ae5760003560e01c80626cc35e146100b3578063263ea0fa146100f05780634a4a7b0414610105578063660d0d671461012c5780637489ec23146101535780637dc0d1d0146101665780638a53aaac1461018d57806393845e46146101b4578063943a6f4a146101db57806396fe6a93146101ee5780639ff78c3014610201578063abe8ad4f14610228578063e31461721461023b575b600080fd5b6100da7f000000000000000000000000000000000000000000000000000000000000000081565b6040516100e79190612fed565b60405180910390f35b6101036100fe3660046131b5565b61025c565b005b6100da7f000000000000000000000000000000000000000000000000000000000000000081565b6100da7f000000000000000000000000000000000000000000000000000000000000000081565b6101036101613660046132cd565b6104d9565b6100da7f000000000000000000000000000000000000000000000000000000000000000081565b6100da7f000000000000000000000000000000000000000000000000000000000000000081565b6100da7f000000000000000000000000000000000000000000000000000000000000000081565b6101036101e93660046132e6565b610733565b6101036101fc366004613465565b6109aa565b6100da7f000000000000000000000000000000000000000000000000000000000000000081565b610103610236366004613916565b610d32565b61024e610249366004613970565b610e68565b6040519081526020016100e7565b6102ac60405160200161026e906139bc565b604051602081830303815290604052805190602001206040518060400160405280600a81526020016921a7a72a2927a62622a960b11b815250610fe6565b7f0000000000000000000000000000000000000000000000000000000000000000818060200151518160000151511461030c5780515160208201515160405163663de02360e01b81526103039291906004016139e0565b60405180910390fd5b60005b8151518110156103e357600082600001518281518110610331576103316139ee565b60200260200101519050600083602001518381518110610353576103536139ee565b6020908102919091018101516040516347cba33d60e01b81526001600160a01b03858116600483015282516024830152928201516044820152909250908616906347cba33d90606401600060405180830381600087803b1580156103b657600080fd5b505af11580156103ca573d6000803e3d6000fd5b50505050505080806103db90613a1a565b91505061030f565b506103ec611096565b61045e604051806101c0016040528060008152602001606081526020016060815260200160608152602001606081526020016060815260200160608152602001606081526020016060815260200160608152602001606081526020016060815260200160608152602001606081525090565b60405163abe8ad4f60e01b8152309063abe8ad4f9061048590889085903390600401613caf565b600060405180830381600087803b15801561049f57600080fd5b505af11580156104b3573d6000803e3d6000fd5b50505050506104c0611251565b6040516327246e6d60e11b815260040160405180910390fd5b6104e1611096565b6104f360405160200161026e906139bc565b60005a60405163fdfc26f360e01b81529091507f00000000000000000000000000000000000000000000000000000000000000009060009073__$9dcb75ef0bb6c4288f2ccffe7dc492c4eb$__9063fdfc26f3906105579085908890600401613ce0565b600060405180830381865af4158015610574573d6000803e3d6000fd5b505050506040513d6000823e601f3d908101601f1916820160405261059c9190810190613e5b565b90506105cd826105c8306105b285602001515190565b60078111156105c3576105c3613f7f565b611307565b61139c565b6105e16105dc82602001515190565b6113c7565b1561061d5761061d826105fa8360200151610120015190565b6040518060400160405280600581526020016427b93232b960d91b81525061141b565b73__$18943158f75973db0541c3d7c8650b2485$__631dcc956e7f00000000000000000000000000000000000000000000000000000000000000007f00000000000000000000000000000000000000000000000000000000000000007f0000000000000000000000000000000000000000000000000000000000000000886106a487515190565b60408051808201825260158152741554d15497d2539255125055115117d0d05390d153605a1b602082015290516001600160e01b031960e089901b1681526106f59695949392918c91600401613f95565b60006040518083038186803b15801561070d57600080fd5b505af4158015610721573d6000803e3d6000fd5b50505050505050610730611251565b50565b61073b611096565b6107ae60405160200161076e906020808252600c908201526b27a92222a92fa5a2a2a822a960a11b604082015260600190565b604051602081830303815290604052805190602001206040518060400160405280600c81526020016b27a92222a92fa5a2a2a822a960a11b815250610fe6565b7f00000000000000000000000000000000000000000000000000000000000000007f00000000000000000000000000000000000000000000000000000000000000007f000000000000000000000000000000000000000000000000000000000000000061081a84614000565b6040516304a76ae360e21b81526001600160a01b0385169063129dab8c9061084a9086908690869060040161400c565b600060405180830381600087803b15801561086457600080fd5b505af1158015610878573d6000803e3d6000fd5b5050505060005a905060006108ad7f000000000000000000000000000000000000000000000000000000000000000083611528565b60405163abe8ad4f60e01b8152909150309063abe8ad4f9083906108d9908c908c9033906004016141ad565b600060405180830381600088803b1580156108f357600080fd5b5087f193505050508015610905575060015b610946573d808015610933576040519150601f19603f3d011682016040523d82523d6000602084013e610938565b606091505b5061094489848361156d565b505b5050836001600160a01b031662ccf1556040518163ffffffff1660e01b8152600401600060405180830381600087803b15801561098257600080fd5b505af1158015610996573d6000803e3d6000fd5b50505050505050506109a6611251565b5050565b6109b2611096565b6109c460405160200161026e906139bc565b610a0e7f00000000000000000000000000000000000000000000000000000000000000006105c8306109f885602001515190565b6007811115610a0957610a09613f7f565b6118ea565b610a1d6105dc82602001515190565b15610a55576020810151516007811115610a3957610a39613f7f565b604051639aba92cb60e01b815260040161030391815260200190565b60208101805160409081018790528151608001859052815160a0018690529051610100018390528082015160009101819052610ab07f000000000000000000000000000000000000000000000000000000000000000061192d565b905060007f00000000000000000000000000000000000000000000000000000000000000006001600160a01b031663352f9aed836040518263ffffffff1660e01b8152600401610b009190612fed565b6020604051808303816000875af1158015610b1f573d6000803e3d6000fd5b505050506040513d601f19601f82011682018060405250810190610b4391906143e9565b9050610b6d81610b58856020015160c0015190565b610b629190614402565b602085015160c00152565b6000610b997f0000000000000000000000000000000000000000000000000000000000000000856119da565b9050610bd47f000000000000000000000000000000000000000000000000000000000000000082610bcf876020015160c0015190565b611a65565b610bdd84611aa6565b610be684611abd565b604051630c154e0d60e31b815273__$9dcb75ef0bb6c4288f2ccffe7dc492c4eb$__906360aa706890610c41907f0000000000000000000000000000000000000000000000000000000000000000908d908990600401614583565b60006040518083038186803b158015610c5957600080fd5b505af4158015610c6d573d6000803e3d6000fd5b50506040516363a11d6560e11b81526001600160a01b037f0000000000000000000000000000000000000000000000000000000000000000166004820152602481018c9052604481018b9052606481018a90526084810189905260a4810188905273__$2cb2169b31257cc84fcd1b9a9c4c15efa9$__925063c7423aca915060c40160006040518083038186803b158015610d0757600080fd5b505af4158015610d1b573d6000803e3d6000fd5b50505050505050610d2a611251565b505050505050565b333014610d76576040805163a35b150b60e01b815233600480830191909152602482019290925260448101919091526329a2a62360e11b6064820152608401610303565b60005a90506000610d8b858585856000611b29565b604080820151810151015190915080610dbe57506001604082015160200151516007811115610dbc57610dbc613f7f565b145b15610dcc57610dcc83611dde565b80515160408201516020015151610dfa91906105c89030906007811115610df557610df5613f7f565b611ed8565b604051630893a94f60e41b815273__$18943158f75973db0541c3d7c8650b2485$__9063893a94f090610e31908490600401614627565b60006040518083038186803b158015610e4957600080fd5b505af4158015610e5d573d6000803e3d6000fd5b505050505050505050565b6000610e72611096565b610e8460405160200161026e906139bc565b610ed47f00000000000000000000000000000000000000000000000000000000000000006105c830610ebe61012087016101008801614756565b6007811115610ecf57610ecf613f7f565b611f1b565b6040516372aef1eb60e11b815273__$18943158f75973db0541c3d7c8650b2485$__9063e55de3d690610f95907f0000000000000000000000000000000000000000000000000000000000000000907f0000000000000000000000000000000000000000000000000000000000000000907f0000000000000000000000000000000000000000000000000000000000000000907f0000000000000000000000000000000000000000000000000000000000000000908a908a90600401614809565b602060405180830381865af4158015610fb2573d6000803e3d6000fd5b505050506040513d601f19601f82011682018060405250810190610fd691906143e9565b9050610fe0611251565b92915050565b60405163ac4ab3fb60e01b81526001600160a01b037f0000000000000000000000000000000000000000000000000000000000000000169063ac4ab3fb906110349033908690600401613ce0565b602060405180830381865afa158015611051573d6000803e3d6000fd5b505050506040513d601f19601f820116820180604052508101906110759190614939565b6109a657338160405163a35b150b60e01b8152600401610303929190614956565b60007f00000000000000000000000000000000000000000000000000000000000000006001600160a01b031663bd02d0f56040516020016110d69061497a565b604051602081830303815290604052805190602001206040518263ffffffff1660e01b815260040161110a91815260200190565b602060405180830381865afa158015611127573d6000803e3d6000fd5b505050506040513d601f19601f8201168201806040525081019061114b91906143e9565b9050801561119b5760405162461bcd60e51b815260206004820152601f60248201527f5265656e7472616e637947756172643a207265656e7472616e742063616c6c006044820152606401610303565b7f00000000000000000000000000000000000000000000000000000000000000006001600160a01b031663e2a4853a6040516020016111d99061497a565b6040516020818303038152906040528051906020012060016040518363ffffffff1660e01b815260040161120e9291906139e0565b6020604051808303816000875af115801561122d573d6000803e3d6000fd5b505050506040513d601f19601f820116820180604052508101906109a691906143e9565b7f00000000000000000000000000000000000000000000000000000000000000006001600160a01b031663e2a4853a60405160200161128f9061497a565b6040516020818303038152906040528051906020012060006040518363ffffffff1660e01b81526004016112c49291906139e0565b6020604051808303816000875af11580156112e3573d6000803e3d6000fd5b505050506040513d601f19601f8201168201806040525081019061073091906143e9565b600060405160200161134a906020808252601d908201527f43414e43454c5f4f524445525f464541545552455f44495341424c4544000000604082015260600190565b60408051601f198184030181528282528051602091820120908301526001600160a01b038516908201526060810183905260800160405160208183030381529060405280519060200120905092915050565b6113a68282611f5e565b156109a65760405163dd70e0c960e01b815260048101829052602401610303565b6000808260078111156113dc576113dc613f7f565b14806113f9575060028260078111156113f7576113f7613f7f565b145b80610fe0575060045b82600781111561141457611414613f7f565b1492915050565b6000836001600160a01b031663bd02d0f560405160200161146c906020808252601c908201527b524551554553545f45585049524154494f4e5f424c4f434b5f41474560201b604082015260600190565b604051602081830303815290604052805190602001206040518263ffffffff1660e01b81526004016114a091815260200190565b602060405180830381865afa1580156114bd573d6000803e3d6000fd5b505050506040513d601f19601f820116820180604052508101906114e191906143e9565b90506000836114ee611fd1565b6114f891906149ab565b90508181101561152157808284604051631d04cc8760e31b8152600401610303939291906149be565b5050505050565b6000806115348461204d565b90508083101561155b578281604051631c09bc2160e01b81526004016103039291906139e0565b61156581846149ab565b949350505050565b600061157a826020015190565b9050600073__$9dcb75ef0bb6c4288f2ccffe7dc492c4eb$__63fdfc26f37f0000000000000000000000000000000000000000000000000000000000000000876040518363ffffffff1660e01b81526004016115d7929190613ce0565b600060405180830381865af41580156115f4573d6000803e3d6000fd5b505050506040513d6000823e601f3d908101601f1916820160405261161c9190810190613e5b565b9050600061162f6105dc83602001515190565b905061163a83612114565b80611649575060408083015101515b8061166d57508015801561166d57506001600160e01b03198316634dfbbff360e01b145b8061168857506001600160e01b03198316631630779760e01b145b806116a357506001600160e01b0319831663dd70e0c960e01b145b806116be57506001600160e01b03198316630397fb7760e61b145b806116d957506001600160e01b0319831663c1c0083160e01b145b806116f457506001600160e01b03198316630240d0ad60e11b145b15611702576117028461214a565b600061170d85612153565b509050818061172c57506001600160e01b0319841663182e30e360e01b145b8061174757506001600160e01b031984166341ce349f60e11b145b8061176257506001600160e01b0319841663bff65b3f60e01b145b1561184557604051630ee64ab760e11b815273__$18943158f75973db0541c3d7c8650b2485$__90631dcc956e9061180c907f0000000000000000000000000000000000000000000000000000000000000000907f0000000000000000000000000000000000000000000000000000000000000000907f0000000000000000000000000000000000000000000000000000000000000000908d9033908e908a908f906004016149dd565b60006040518083038186803b15801561182457600080fd5b505af4158015611838573d6000803e3d6000fd5b5050505050505050505050565b604051633197fa0d60e11b815273__$18943158f75973db0541c3d7c8650b2485$__9063632ff41a9061180c907f0000000000000000000000000000000000000000000000000000000000000000907f0000000000000000000000000000000000000000000000000000000000000000907f0000000000000000000000000000000000000000000000000000000000000000908d9033908e908a908f906004016149dd565b600060405160200161134a906020808252601d908201527f5550444154455f4f524445525f464541545552455f44495341424c4544000000604082015260600190565b6000816001600160a01b03166321f8a7216040516020016119659060208082526003908201526215d39560ea1b604082015260600190565b604051602081830303815290604052805190602001206040518263ffffffff1660e01b815260040161199991815260200190565b602060405180830381865afa1580156119b6573d6000803e3d6000fd5b505050506040513d601f19601f82011682018060405250810190610fe09190614a4b565b60006119f06119eb83602001515190565b6121e3565b15611a06576119ff8383612207565b9050610fe0565b611a1a611a1583602001515190565b61232c565b15611a29576119ff8383612388565b611a3d611a3883602001515190565b612462565b15611a4c576119ff8383612485565b60405163c1c0083160e01b815260040160405180910390fd5b6000611a718484612537565b90506000611a7f3a83614a68565b905080831015611521578083604051635dac504d60e01b81526004016103039291906139e0565b610730611ab1611fd1565b60208301516101200152565b6000611ac882515190565b6001600160a01b031603611aef57604051631630779760e01b815260040160405180910390fd5b602081015160400151158015611b0b5750602081015160600151155b1561073057604051631630779760e01b815260040160405180910390fd5b611b31612e6c565b611b39612e6c565b6020810187905260405163fdfc26f360e01b815273__$9dcb75ef0bb6c4288f2ccffe7dc492c4eb$__9063fdfc26f390611b99907f0000000000000000000000000000000000000000000000000000000000000000908b90600401613ce0565b600060405180830381865af4158015611bb6573d6000803e3d6000fd5b505050506040513d6000823e601f3d908101601f19168201604052611bde9190810190613e5b565b604082018190525160c00151611c15907f0000000000000000000000000000000000000000000000000000000000000000906126f6565b60608083019190915281516001600160a01b037f0000000000000000000000000000000000000000000000000000000000000000811690915282517f0000000000000000000000000000000000000000000000000000000000000000821660209182015283517f0000000000000000000000000000000000000000000000000000000000000000831660409182015284517f0000000000000000000000000000000000000000000000000000000000000000841694019390935283517f0000000000000000000000000000000000000000000000000000000000000000831660809091015283517f000000000000000000000000000000000000000000000000000000000000000090921660a090920191909152908701519087015151611d3c91906127bc565b60808201526060860151602087015151611d5691906127bc565b60a0820152604081015151608001516001600160a01b031615611d905780515160408201515160800151611d8a9190612848565b60c08201525b6001600160a01b03851660e082015261010081018490526101208101836001811115611dbe57611dbe613f7f565b90816001811115611dd157611dd1613f7f565b9052509695505050505050565b7f00000000000000000000000000000000000000000000000000000000000000006001600160a01b031663ac4ab3fb82604051602001611e4590602080825260139082015272232927ad22a72fa7a92222a92fa5a2a2a822a960691b604082015260600190565b604051602081830303815290604052805190602001206040518363ffffffff1660e01b8152600401611e78929190613ce0565b602060405180830381865afa158015611e95573d6000803e3d6000fd5b505050506040513d601f19601f82011682018060405250810190611eb99190614939565b6107305780604051630397fb7760e61b81526004016103039190612fed565b600060405160200161134a906020808252601e908201527f455845435554455f4f524445525f464541545552455f44495341424c45440000604082015260600190565b600060405160200161134a906020808252601d908201527f4352454154455f4f524445525f464541545552455f44495341424c4544000000604082015260600190565b604051633d70e7e560e11b8152600481018290526000906001600160a01b03841690637ae1cfca90602401602060405180830381865afa158015611fa6573d6000803e3d6000fd5b505050506040513d601f19601f82011682018060405250810190611fca9190614939565b9392505050565b6000611fdb6128d9565b156120485760646001600160a01b031663a3b1b31d6040518163ffffffff1660e01b8152600401602060405180830381865afa15801561201f573d6000803e3d6000fd5b505050506040513d601f19601f8201168201806040525081019061204391906143e9565b905090565b504390565b6000816001600160a01b031663bd02d0f560405160200161209f906020808252601e908201527f4d494e5f48414e444c455f455845435554494f4e5f4552524f525f4741530000604082015260600190565b604051602081830303815290604052805190602001206040518263ffffffff1660e01b81526004016120d391815260200190565b602060405180830381865afa1580156120f0573d6000803e3d6000fd5b505050506040513d601f19601f82011682018060405250810190610fe091906143e9565b600061211f826128f0565b1561212c57506001919050565b61213582612932565b1561214257506001919050565b506000919050565b80518060208301fd5b6060600060448351101561217a575050604080516020810190915260008082529092909150565b6000612187846020015190565b90506307b9e43360e51b6001600160e01b03198216016121c657600484019350838060200190518101906121bb9190614a7f565b946001945092505050565b600060405180602001604052806000815250909250925050915091565b600060028260078111156121f9576121f9613f7f565b1480610fe057506003611402565b600080836001600160a01b031663bd02d0f5612221612954565b6040518263ffffffff1660e01b815260040161223f91815260200190565b602060405180830381865afa15801561225c573d6000803e3d6000fd5b505050506040513d601f19601f8201168201806040525081019061228091906143e9565b9050612291836020015160e0015190565b835160c00151516122a29083614a68565b856001600160a01b031663bd02d0f56122b96129aa565b6040518263ffffffff1660e01b81526004016122d791815260200190565b602060405180830381865afa1580156122f4573d6000803e3d6000fd5b505050506040513d601f19601f8201168201806040525081019061231891906143e9565b6123229190614402565b6115659190614402565b6000600482600781111561234257612342613f7f565b148061235f5750600582600781111561235d5761235d613f7f565b145b8061237b5750600682600781111561237957612379613f7f565b145b80610fe057506007611402565b600080836001600160a01b031663bd02d0f56123a2612954565b6040518263ffffffff1660e01b81526004016123c091815260200190565b602060405180830381865afa1580156123dd573d6000803e3d6000fd5b505050506040513d601f19601f8201168201806040525081019061240191906143e9565b905060006020808501510151600281111561241e5761241e613f7f565b146124315761242e600182614402565b90505b602083015160e00151835160c001515161244b9083614a68565b856001600160a01b031663bd02d0f56122b96129e8565b60008082600781111561247757612477613f7f565b1480610fe057506001611402565b600080836001600160a01b031663bd02d0f561249f612954565b6040518263ffffffff1660e01b81526004016124bd91815260200190565b602060405180830381865afa1580156124da573d6000803e3d6000fd5b505050506040513d601f19601f820116820180604052508101906124fe91906143e9565b905061250f836020015160e0015190565b835160c00151516125209083614a68565b856001600160a01b031663bd02d0f56122b9612a26565b600080836001600160a01b031663bd02d0f560405160200161258a906020808252601d908201527f455354494d415445445f4741535f4645455f424153455f414d4f554e54000000604082015260600190565b604051602081830303815290604052805190602001206040518263ffffffff1660e01b81526004016125be91815260200190565b602060405180830381865afa1580156125db573d6000803e3d6000fd5b505050506040513d601f19601f820116820180604052508101906125ff91906143e9565b90506000846001600160a01b031663bd02d0f560405160200161265f9060208082526023908201527f455354494d415445445f4741535f4645455f4d554c5449504c4945525f4641436040820152622a27a960e91b606082015260800190565b604051602081830303815290604052805190602001206040518263ffffffff1660e01b815260040161269391815260200190565b602060405180830381865afa1580156126b0573d6000803e3d6000fd5b505050506040513d601f19601f820116820180604052508101906126d491906143e9565b905060006126e28583612a60565b6126ec9084614402565b9695505050505050565b6060600082516001600160401b0381111561271357612713613001565b60405190808252806020026020018201604052801561274c57816020015b612739612ef8565b8152602001906001900390816127315790505b50905060005b83518110156127b457600084828151811061276f5761276f6139ee565b602002602001015190506127838682612a79565b838381518110612795576127956139ee565b60200260200101819052505080806127ac90613a1a565b915050612752565b509392505050565b60606000826001600160401b038111156127d8576127d8613001565b604051908082528060200260200182016040528015612801578160200160208202803683370190505b50905060005b838110156127b4576128198582612b0a565b82828151811061282b5761282b6139ee565b60209081029190910101528061284081613a1a565b915050612807565b612850612ef8565b60405163a8d8fff560e01b815260009073__$ff439aa65a80c9eec648f15db20b189505$__9063a8d8fff59061288c9087908790600401614aec565b608060405180830381865af41580156128a9573d6000803e3d6000fd5b505050506040513d601f19601f820116820180604052508101906128cd9190614b06565b9050611fca8482612b7c565b600061a4b14614806120435750504662066eed1490565b600063010dcfd160e71b6001600160e01b031983160161291257506001919050565b6341f057fb60e11b6001600160e01b031983160161214257506001919050565b600063329b5fdb60e01b6001600160e01b031983160161214257506001919050565b600060405160200161298f9060208082526015908201527414d25391d31157d4d5d05417d1d054d7d312535255605a1b604082015260600190565b60405160208183030381529060405280519060200120905090565b600060405160200161298f90602080825260189082015277125390d4915054d157d3d491115497d1d054d7d31253525560421b604082015260600190565b600060405160200161298f90602080825260189082015277111150d4915054d157d3d491115497d1d054d7d31253525560421b604082015260600190565b600060405160200161298f9060208082526014908201527314d5d05417d3d491115497d1d054d7d31253525560621b604082015260600190565b6000611fca838368327cb2734119d3b7a9601e1b612c4a565b612a81612ef8565b60405163a8d8fff560e01b815260009073__$ff439aa65a80c9eec648f15db20b189505$__9063a8d8fff590612abd9087908790600401614aec565b608060405180830381865af4158015612ada573d6000803e3d6000fd5b505050506040513d601f19601f82011682018060405250810190612afe9190614b06565b9050611fca8482612c57565b600080612b568484604060c0600019901c6040518060400160405280601f81526020017f676574556e636f6d7061637465644f7261636c65426c6f636b4e756d62657200815250612c9e565b905080600003611fca5760405163349f5fdd60e11b815260048101849052602401610303565b80516001600160a01b0316612ba4576040516302fde0d760e11b815260040160405180910390fd5b6000826001600160a01b0316637ae1cfca612bc28460000151612d3b565b6040518263ffffffff1660e01b8152600401612be091815260200190565b602060405180830381865afa158015612bfd573d6000803e3d6000fd5b505050506040513d601f19601f82011682018060405250810190612c219190614939565b90508015612c455781516040516309f8c93760e01b81526103039190600401612fed565b505050565b6000611565848484612dbd565b612c618282612b7c565b80606001516001600160a01b031681604001516001600160a01b0316036109a65780516040516332e6f44d60e21b81526103039190600401612fed565b600080612cad85610100614ba0565b90506000612cbb8288614ba0565b905087518110612ce6578787828660405163bdec9c0d60e01b81526004016103039493929190614bc2565b6000888281518110612cfa57612cfa6139ee565b602002602001015190506000878484612d139190614a68565b612d1d908b6149ab565b612d279190614a68565b9190911c8616935050505095945050505050565b6000604051602001612d73906020808252601290820152711254d7d3505492d15517d11254d05093115160721b604082015260600190565b60408051601f198184030181528282528051602091820120908301526001600160a01b03841690820152606001604051602081830303815290604052805190602001209050919050565b6000808060001985870985870292508281108382030391505080600003612df757838281612ded57612ded614b8a565b0492505050611fca565b808411612e0357600080fd5b60008486880960026001871981018816978890046003810283188082028403028082028403028082028403028082028403028082028403029081029092039091026000889003889004909101858311909403939093029303949094049190911702949350505050565b604080516102008101825260006101408201818152610160830182905261018083018290526101a083018290526101c083018290526101e0830182905282526020820152908101612ebb612f1f565b8152602001606081526020016060815260200160608152602001612edd612ef8565b81526000602082018190526040820181905260609091015290565b60408051608081018252600080825260208201819052918101829052606081019190915290565b604080516101408101909152600060608083018281526080840183905260a0840183905260c0840183905260e08401839052610100840192909252610120830152815260208101612fbd60408051610140810190915280600081526020016000815260200160008152602001600081526020016000815260200160008152602001600081526020016000815260200160008152602001600081525090565b815260408051606081018252600080825260208281018290529282015291015290565b6001600160a01b03169052565b6001600160a01b0391909116815260200190565b634e487b7160e01b600052604160045260246000fd5b604080519081016001600160401b038111828210171561303957613039613001565b60405290565b60405161014081016001600160401b038111828210171561303957613039613001565b604051606081016001600160401b038111828210171561303957613039613001565b60405160e081016001600160401b038111828210171561303957613039613001565b6040516101c081016001600160401b038111828210171561303957613039613001565b604051601f8201601f191681016001600160401b03811182821017156130f1576130f1613001565b604052919050565b60006001600160401b0382111561311257613112613001565b5060051b60200190565b6001600160a01b038116811461073057600080fd5b803561313c8161311c565b919050565b600082601f83011261315257600080fd5b81356020613167613162836130f9565b6130c9565b82815260059290921b8401810191818101908684111561318657600080fd5b8286015b848110156131aa57803561319d8161311c565b835291830191830161318a565b509695505050505050565b60008060408084860312156131c957600080fd5b833592506020808501356001600160401b03808211156131e857600080fd5b81870191508382890312156131fc57600080fd5b613204613017565b82358281111561321357600080fd5b61321f8a828601613141565b825250838301358281111561323357600080fd5b80840193505088601f84011261324857600080fd5b82359150613258613162836130f9565b82815260069290921b8301840191848101908a84111561327757600080fd5b938501935b838510156132b75786858c0312156132945760008081fd5b61329c613017565b8535815286860135878201528252938601939085019061327c565b8086840152505080955050505050509250929050565b6000602082840312156132df57600080fd5b5035919050565b600080604083850312156132f957600080fd5b8235915060208301356001600160401b0381111561331657600080fd5b83016101c0818603121561332957600080fd5b809150509250929050565b6008811061073057600080fd5b803561313c81613334565b6003811061073057600080fd5b803561313c8161334c565b6000610140828403121561337757600080fd5b61337f61303f565b905061338a82613341565b815261339860208301613359565b602082015260408201356040820152606082013560608201526080820135608082015260a082013560a082015260c082013560c082015260e082013560e082015261010080830135818301525061012080830135818301525092915050565b801515811461073057600080fd5b803561313c816133f7565b60006060828403121561342257600080fd5b61342a613062565b90508135613437816133f7565b81526020820135613447816133f7565b6020820152604082013561345a816133f7565b604082015292915050565b60008060008060008060c0878903121561347e57600080fd5b863595506020870135945060408701359350606087013592506080870135915060a08701356001600160401b03808211156134b857600080fd5b908801906101c0828b0312156134cd57600080fd5b6134d5613062565b8235828111156134e457600080fd5b830160e0818d0312156134f657600080fd5b6134fe613084565b61350782613131565b815261351560208301613131565b602082015261352660408301613131565b604082015261353760608301613131565b606082015261354860808301613131565b608082015261355960a08301613131565b60a082015260c08201358481111561357057600080fd5b61357c8e828501613141565b60c0830152508252506135928b60208501613364565b60208201526135a58b6101608501613410565b60408201528093505050509295509295509295565b600082601f8301126135cb57600080fd5b813560206135db613162836130f9565b82815260059290921b840181019181810190868411156135fa57600080fd5b8286015b848110156131aa57803583529183019183016135fe565b60006001600160401b0382111561362e5761362e613001565b50601f01601f191660200190565b600082601f83011261364d57600080fd5b8135602061365d613162836130f9565b82815260059290921b8401810191818101908684111561367c57600080fd5b8286015b848110156131aa5780356001600160401b0381111561369f5760008081fd5b8701603f810189136136b15760008081fd5b8481013560406136c361316283613615565b8281528b828486010111156136d85760008081fd5b8282850189830137600092810188019290925250845250918301918301613680565b60006101c0828403121561370d57600080fd5b6137156130a6565b82358152905060208201356001600160401b038082111561373557600080fd5b61374185838601613141565b6020840152604084013591508082111561375a57600080fd5b613766858386016135ba565b6040840152606084013591508082111561377f57600080fd5b61378b858386016135ba565b606084015260808401359150808211156137a457600080fd5b6137b0858386016135ba565b608084015260a08401359150808211156137c957600080fd5b6137d5858386016135ba565b60a084015260c08401359150808211156137ee57600080fd5b6137fa858386016135ba565b60c084015260e084013591508082111561381357600080fd5b61381f858386016135ba565b60e08401526101009150818401358181111561383a57600080fd5b613846868287016135ba565b83850152506101209150818401358181111561386157600080fd5b61386d868287016135ba565b83850152506101409150818401358181111561388857600080fd5b6138948682870161363c565b8385015250610160915081840135818111156138af57600080fd5b6138bb86828701613141565b8385015250610180915081840135818111156138d657600080fd5b6138e286828701613141565b83850152506101a0915081840135818111156138fd57600080fd5b6139098682870161363c565b8385015250505092915050565b60008060006060848603121561392b57600080fd5b8335925060208401356001600160401b0381111561394857600080fd5b613954868287016136fa565b92505060408401356139658161311c565b809150509250925092565b6000806040838503121561398357600080fd5b823561398e8161311c565b915060208301356001600160401b038111156139a957600080fd5b83016101a0818603121561332957600080fd5b6020808252600a908201526921a7a72a2927a62622a960b11b604082015260600190565b918252602082015260400190565b634e487b7160e01b600052603260045260246000fd5b634e487b7160e01b600052601160045260246000fd5b600060018201613a2c57613a2c613a04565b5060010190565b600081518084526020808501945080840160005b83811015613a6c5781516001600160a01b031687529582019590820190600101613a47565b509495945050505050565b600081518084526020808501945080840160005b83811015613a6c57815187529582019590820190600101613a8b565b60005b83811015613ac2578181015183820152602001613aaa565b50506000910152565b60008151808452613ae3816020860160208601613aa7565b601f01601f19169290920160200192915050565b600081518084526020808501808196508360051b8101915082860160005b85811015613b3f578284038952613b2d848351613acb565b98850198935090840190600101613b15565b5091979650505050505050565b60006101c0825184526020830151816020860152613b6c82860182613a33565b91505060408301518482036040860152613b868282613a77565b91505060608301518482036060860152613ba08282613a77565b91505060808301518482036080860152613bba8282613a77565b91505060a083015184820360a0860152613bd48282613a77565b91505060c083015184820360c0860152613bee8282613a77565b91505060e083015184820360e0860152613c088282613a77565b9150506101008084015185830382870152613c238382613a77565b925050506101208084015185830382870152613c3f8382613a77565b925050506101408084015185830382870152613c5b8382613af7565b925050506101608084015185830382870152613c778382613a33565b925050506101808084015185830382870152613c938382613a33565b925050506101a080840151858303828701526126ec8382613af7565b838152606060208201526000613cc86060830185613b4c565b905060018060a01b0383166040830152949350505050565b6001600160a01b03929092168252602082015260400190565b805161313c8161311c565b600082601f830112613d1557600080fd5b81516020613d25613162836130f9565b82815260059290921b84018101918181019086841115613d4457600080fd5b8286015b848110156131aa578051613d5b8161311c565b8352918301918301613d48565b805161313c81613334565b805161313c8161334c565b60006101408284031215613d9157600080fd5b613d9961303f565b9050613da482613d68565b8152613db260208301613d73565b602082015260408201516040820152606082015160608201526080820151608082015260a082015160a082015260c082015160c082015260e082015160e082015261010080830151818301525061012080830151818301525092915050565b600060608284031215613e2357600080fd5b613e2b613062565b90508151613e38816133f7565b81526020820151613e48816133f7565b6020820152604082015161345a816133f7565b600060208284031215613e6d57600080fd5b81516001600160401b0380821115613e8457600080fd5b908301906101c08286031215613e9957600080fd5b613ea1613062565b825182811115613eb057600080fd5b830160e08188031215613ec257600080fd5b613eca613084565b613ed382613cf9565b8152613ee160208301613cf9565b6020820152613ef260408301613cf9565b6040820152613f0360608301613cf9565b6060820152613f1460808301613cf9565b6080820152613f2560a08301613cf9565b60a082015260c082015184811115613f3c57600080fd5b613f4889828501613d04565b60c083015250825250613f5e8660208501613d7e565b6020820152613f71866101608501613e11565b604082015295945050505050565b634e487b7160e01b600052602160045260246000fd5b6001600160a01b03888116825287811660208301528681166040830152606082018690528416608082015260a0810183905261010060c08201819052600090613fe083820185613acb565b83810360e090940193909352505060008152602001979650505050505050565b6000610fe036836136fa565b6001600160a01b0384811682528316602082015260606040820181905260009061403890830184613b4c565b95945050505050565b6000808335601e1984360301811261405857600080fd5b83016020810192503590506001600160401b0381111561407757600080fd5b8060051b360382131561408957600080fd5b9250929050565b8183526000602080850194508260005b85811015613a6c5781356140b38161311c565b6001600160a01b0316875295820195908201906001016140a0565b81835260006001600160fb1b038311156140e757600080fd5b8260051b80836020870137939093016020019392505050565b81835281816020850137506000828201602090810191909152601f909101601f19169091010190565b81835260006020808501808196508560051b810191508460005b87811015613b3f5782840389528135601e1988360301811261416457600080fd5b870185810190356001600160401b0381111561417f57600080fd5b80360382131561418e57600080fd5b614199868284614100565b9a87019a9550505090840190600101614143565b838152606060208201528235606082015260006141cd6020850185614041565b6101c08060808601526141e561022086018385614090565b92506141f46040880188614041565b9250605f19808786030160a088015261420e8585846140ce565b945061421d60608a018a614041565b94509150808786030160c08801526142368585846140ce565b945061424560808a018a614041565b94509150808786030160e088015261425e8585846140ce565b945061426d60a08a018a614041565b945091506101008188870301818901526142888686856140ce565b955061429760c08b018b614041565b955092506101208289880301818a01526142b28787866140ce565b96506142c160e08c018c614041565b96509350610140838a890301818b01526142dc8888876140ce565b97506142ea838d018d614041565b975094506101609250838a890301838b01526143078888876140ce565b9750614315828d018d614041565b975094506101809150838a890301828b01526143328888876140ce565b9750614340818d018d614041565b97509450506101a0838a890301818b015261435c888887614129565b975061436a838d018d614041565b97509450838a890301868b0152614382888887614090565b9750614390828d018d614041565b97509550838a8903016101e08b01526143aa888888614090565b97506143b8818d018d614041565b97509550505050808786030161020088015250506143d7838383614129565b93505050506115656040830184612fe0565b6000602082840312156143fb57600080fd5b5051919050565b80820180821115610fe057610fe0613a04565b6008811061442557614425613f7f565b9052565b6003811061442557614425613f7f565b614444828251614415565b60208101516144566020840182614429565b5060408101516040830152606081015160608301526080810151608083015260a081015160a083015260c081015160c083015260e081015160e08301526101008082015181840152506101208082015181840152505050565b80516101c080845281516001600160a01b0390811691850191909152602082015181166101e085015260408201511661020084015260608101516000916144fa610220860183612fe0565b6080810151915061450f610240860183612fe0565b60a08101519150614524610260860183612fe0565b60c0015160e061028086015290506145406102a0850182613a33565b905060208301516145546020860182614439565b5060408381015180511515610160870152602081015115156101808701529081015115156101a08601526127b4565b60018060a01b038416815282602082015260606040820152600061403860608301846144af565b80516001600160a01b03908116835260208083015182169084015260408083015182169084015260609182015116910152565b600081518084526020808501945080840160005b83811015613a6c576146048783516145aa565b60809690960195908201906001016145f1565b6002811061442557614425613f7f565b6020815261467f60208201835180516001600160a01b03908116835260208083015182169084015260408083015182169084015260608083015182169084015260808083015182169084015260a09182015116910152565b602082015160e08201526000604083015161024061010081818601526146a96102608601846144af565b92506060860151601f196101208188870301818901526146c986846145dd565b95506080890151925081888703016101408901526146e78684613a77565b955060a0890151925081888703016101608901526147058684613a77565b955060c0890151925061471c6101808901846145aa565b60e08901519250614731610200890184612fe0565b92880151610220880152505085015161474c82860182614617565b5090949350505050565b60006020828403121561476857600080fd5b8135611fca81613334565b600081356147808161311c565b6001600160a01b03908116845260208301359061479c8261311c565b90811660208501526040830135906147b38261311c565b90811660408501526060830135906147ca8261311c565b90811660608501526080830135906147e18261311c565b1660808401526147f460a0830183614041565b60c060a086015261403860c086018284614090565b6001600160a01b0387811682528681166020830152858116604083015284811660608301528316608082015260c060a0820152600082353684900360be1901811261485357600080fd5b6101a060c084015261486b6102608401858301614773565b602085013560e08581019190915260408601356101008601526060860135610120860152608086013561014086015260a086013561016086015260c08601356101808601528501356101a085015290506148c86101008501613341565b6148d66101c0850182614415565b506148e46101208501613359565b6148f26101e0850182614429565b506149006101408501613405565b15156102008401526149156101608501613405565b15156102208401526101809390930135610240909201919091525095945050505050565b60006020828403121561494b57600080fd5b8151611fca816133f7565b6001600160a01b038316815260406020820181905260009061156590830184613acb565b6020808252601790820152765245454e5452414e43595f47554152445f53544154555360481b604082015260600190565b81810381811115610fe057610fe0613a04565b8381528260208201526060604082015260006140386060830184613acb565b6001600160a01b03898116825288811660208301528781166040830152606082018790528516608082015260a0810184905261010060c08201819052600090614a2883820186613acb565b905082810360e0840152614a3c8185613acb565b9b9a5050505050505050505050565b600060208284031215614a5d57600080fd5b8151611fca8161311c565b8082028115828204841417610fe057610fe0613a04565b600060208284031215614a9157600080fd5b81516001600160401b03811115614aa757600080fd5b8201601f81018413614ab857600080fd5b8051614ac661316282613615565b818152856020838501011115614adb57600080fd5b614038826020830160208601613aa7565b6001600160a01b0392831681529116602082015260400190565b600060808284031215614b1857600080fd5b604051608081016001600160401b0381118282101715614b3a57614b3a613001565b6040528251614b488161311c565b81526020830151614b588161311c565b60208201526040830151614b6b8161311c565b60408201526060830151614b7e8161311c565b60608201529392505050565b634e487b7160e01b600052601260045260246000fd5b600082614bbd57634e487b7160e01b600052601260045260246000fd5b500490565b6080808252855190820181905260009060209060a0840190828901845b82811015614bfb57815184529284019290840190600101614bdf565b50505086828501528560408501528381036060850152614c1b8186613acb565b9897505050505050505056fea2646970667358221220a95dce07763c1ae75dc12364df0f22e80860b062c93f2dbdd672e46f5b8f683d64736f6c63430008120033",
  "linkReferences": {
    "contracts/market/MarketStoreUtils.sol": {
      "MarketStoreUtils": [
        {
          "length": 20,
          "start": 11019
        },
        {
          "length": 20,
          "start": 11580
        }
      ]
    },
    "contracts/order/OrderEventUtils.sol": {
      "OrderEventUtils": [
        {
          "length": 20,
          "start": 3961
        }
      ]
    },
    "contracts/order/OrderStoreUtils.sol": {
      "OrderStoreUtils": [
        {
          "length": 20,
          "start": 2006
        },
        {
          "length": 20,
          "start": 3742
        },
        {
          "length": 20,
          "start": 6185
        },
        {
          "length": 20,
          "start": 7672
        }
      ]
    },
    "contracts/order/OrderUtils.sol": {
      "OrderUtils": [
        {
          "length": 20,
          "start": 2248
        },
        {
          "length": 20,
          "start": 4274
        },
        {
          "length": 20,
          "start": 4492
        },
        {
          "length": 20,
          "start": 6687
        },
        {
          "length": 20,
          "start": 6909
        }
      ]
    }
  },
  "deployedLinkReferences": {
    "contracts/market/MarketStoreUtils.sol": {
      "MarketStoreUtils": [
        {
          "length": 20,
          "start": 10338
        },
        {
          "length": 20,
          "start": 10899
        }
      ]
    },
    "contracts/order/OrderEventUtils.sol": {
      "OrderEventUtils": [
        {
          "length": 20,
          "start": 3280
        }
      ]
    },
    "contracts/order/OrderStoreUtils.sol": {
      "OrderStoreUtils": [
        {
          "length": 20,
          "start": 1325
        },
        {
          "length": 20,
          "start": 3061
        },
        {
          "length": 20,
          "start": 5504
        },
        {
          "length": 20,
          "start": 6991
        }
      ]
    },
    "contracts/order/OrderUtils.sol": {
      "OrderUtils": [
        {
          "length": 20,
          "start": 1567
        },
        {
          "length": 20,
          "start": 3593
        },
        {
          "length": 20,
          "start": 3811
        },
        {
          "length": 20,
          "start": 6006
        },
        {
          "length": 20,
          "start": 6228
        }
      ]
    }
  }
}