{
  "_format": "hh-sol-artifact-1",
  "contractName": "AdlHandler",
  "sourceName": "contracts/exchange/AdlHandler.sol",
  "abi": [
    {
      "inputs": [
        {
          "internalType": "contract RoleStore",
          "name": "_roleStore",
          "type": "address"
        },
        {
          "internalType": "contract DataStore",
          "name": "_dataStore",
          "type": "address"
        },
        {
          "internalType": "contract EventEmitter",
          "name": "_eventEmitter",
          "type": "address"
        },
        {
          "internalType": "contract OrderVault",
          "name": "_orderVault",
          "type": "address"
        },
        {
          "internalType": "contract Oracle",
          "name": "_oracle",
          "type": "address"
        },
        {
          "internalType": "contract SwapHandler",
          "name": "_swapHandler",
          "type": "address"
        },
        {
          "internalType": "contract IReferralStorage",
          "name": "_referralStorage",
          "type": "address"
        }
      ],
      "stateMutability": "nonpayable",
      "type": "constructor"
    },
    {
      "inputs": [
        {
          "internalType": "int256",
          "name": "pnlToPoolFactor",
          "type": "int256"
        },
        {
          "internalType": "uint256",
          "name": "maxPnlFactorForAdl",
          "type": "uint256"
        }
      ],
      "name": "AdlNotRequired",
      "type": "error"
    },
    {
      "inputs": [
        {
          "internalType": "uint256[]",
          "name": "compactedValues",
          "type": "uint256[]"
        },
        {
          "internalType": "uint256",
          "name": "index",
          "type": "uint256"
        },
        {
          "internalType": "uint256",
          "name": "slotIndex",
          "type": "uint256"
        },
        {
          "internalType": "string",
          "name": "label",
          "type": "string"
        }
      ],
      "name": "CompactedArrayOutOfBounds",
      "type": "error"
    },
    {
      "inputs": [
        {
          "internalType": "bytes32",
          "name": "key",
          "type": "bytes32"
        }
      ],
      "name": "DisabledFeature",
      "type": "error"
    },
    {
      "inputs": [
        {
          "internalType": "address",
          "name": "market",
          "type": "address"
        }
      ],
      "name": "DisabledMarket",
      "type": "error"
    },
    {
      "inputs": [
        {
          "internalType": "uint256",
          "name": "index",
          "type": "uint256"
        }
      ],
      "name": "EmptyCompactedBlockNumber",
      "type": "error"
    },
    {
      "inputs": [],
      "name": "EmptyMarket",
      "type": "error"
    },
    {
      "inputs": [
        {
          "internalType": "int256",
          "name": "nextPnlToPoolFactor",
          "type": "int256"
        },
        {
          "internalType": "int256",
          "name": "pnlToPoolFactor",
          "type": "int256"
        }
      ],
      "name": "InvalidAdl",
      "type": "error"
    },
    {
      "inputs": [
        {
          "internalType": "address",
          "name": "market",
          "type": "address"
        }
      ],
      "name": "InvalidSwapMarket",
      "type": "error"
    },
    {
      "inputs": [
        {
          "internalType": "int256",
          "name": "nextPnlToPoolFactor",
          "type": "int256"
        },
        {
          "internalType": "uint256",
          "name": "minPnlFactorForAdl",
          "type": "uint256"
        }
      ],
      "name": "PnlOvercorrected",
      "type": "error"
    },
    {
      "inputs": [
        {
          "internalType": "address",
          "name": "msgSender",
          "type": "address"
        },
        {
          "internalType": "string",
          "name": "role",
          "type": "string"
        }
      ],
      "name": "Unauthorized",
      "type": "error"
    },
    {
      "anonymous": false,
      "inputs": [
        {
          "indexed": false,
          "internalType": "string",
          "name": "reason",
          "type": "string"
        }
      ],
      "name": "OracleError",
      "type": "event"
    },
    {
      "inputs": [],
      "name": "dataStore",
      "outputs": [
        {
          "internalType": "contract DataStore",
          "name": "",
          "type": "address"
        }
      ],
      "stateMutability": "view",
      "type": "function"
    },
    {
      "inputs": [],
      "name": "eventEmitter",
      "outputs": [
        {
          "internalType": "contract EventEmitter",
          "name": "",
          "type": "address"
        }
      ],
      "stateMutability": "view",
      "type": "function"
    },
    {
      "inputs": [
        {
          "internalType": "address",
          "name": "account",
          "type": "address"
        },
        {
          "internalType": "address",
          "name": "market",
          "type": "address"
        },
        {
          "internalType": "address",
          "name": "collateralToken",
          "type": "address"
        },
        {
          "internalType": "bool",
          "name": "isLong",
          "type": "bool"
        },
        {
          "internalType": "uint256",
          "name": "sizeDeltaUsd",
          "type": "uint256"
        },
        {
          "components": [
            {
              "internalType": "uint256",
              "name": "signerInfo",
              "type": "uint256"
            },
            {
              "internalType": "address[]",
              "name": "tokens",
              "type": "address[]"
            },
            {
              "internalType": "uint256[]",
              "name": "compactedMinOracleBlockNumbers",
              "type": "uint256[]"
            },
            {
              "internalType": "uint256[]",
              "name": "compactedMaxOracleBlockNumbers",
              "type": "uint256[]"
            },
            {
              "internalType": "uint256[]",
              "name": "compactedOracleTimestamps",
              "type": "uint256[]"
            },
            {
              "internalType": "uint256[]",
              "name": "compactedDecimals",
              "type": "uint256[]"
            },
            {
              "internalType": "uint256[]",
              "name": "compactedMinPrices",
              "type": "uint256[]"
            },
            {
              "internalType": "uint256[]",
              "name": "compactedMinPricesIndexes",
              "type": "uint256[]"
            },
            {
              "internalType": "uint256[]",
              "name": "compactedMaxPrices",
              "type": "uint256[]"
            },
            {
              "internalType": "uint256[]",
              "name": "compactedMaxPricesIndexes",
              "type": "uint256[]"
            },
            {
              "internalType": "bytes[]",
              "name": "signatures",
              "type": "bytes[]"
            },
            {
              "internalType": "address[]",
              "name": "priceFeedTokens",
              "type": "address[]"
            },
            {
              "internalType": "address[]",
              "name": "realtimeFeedTokens",
              "type": "address[]"
            },
            {
              "internalType": "bytes[]",
              "name": "realtimeFeedData",
              "type": "bytes[]"
            }
          ],
          "internalType": "struct OracleUtils.SetPricesParams",
          "name": "oracleParams",
          "type": "tuple"
        }
      ],
      "name": "executeAdl",
      "outputs": [],
      "stateMutability": "nonpayable",
      "type": "function"
    },
    {
      "inputs": [],
      "name": "oracle",
      "outputs": [
        {
          "internalType": "contract Oracle",
          "name": "",
          "type": "address"
        }
      ],
      "stateMutability": "view",
      "type": "function"
    },
    {
      "inputs": [],
      "name": "orderVault",
      "outputs": [
        {
          "internalType": "contract OrderVault",
          "name": "",
          "type": "address"
        }
      ],
      "stateMutability": "view",
      "type": "function"
    },
    {
      "inputs": [],
      "name": "referralStorage",
      "outputs": [
        {
          "internalType": "contract IReferralStorage",
          "name": "",
          "type": "address"
        }
      ],
      "stateMutability": "view",
      "type": "function"
    },
    {
      "inputs": [],
      "name": "roleStore",
      "outputs": [
        {
          "internalType": "contract RoleStore",
          "name": "",
          "type": "address"
        }
      ],
      "stateMutability": "view",
      "type": "function"
    },
    {
      "inputs": [],
      "name": "swapHandler",
      "outputs": [
        {
          "internalType": "contract SwapHandler",
          "name": "",
          "type": "address"
        }
      ],
      "stateMutability": "view",
      "type": "function"
    },
    {
      "inputs": [
        {
          "internalType": "address",
          "name": "market",
          "type": "address"
        },
        {
          "internalType": "bool",
          "name": "isLong",
          "type": "bool"
        },
        {
          "components": [
            {
              "internalType": "uint256",
              "name": "signerInfo",
              "type": "uint256"
            },
            {
              "internalType": "address[]",
              "name": "tokens",
              "type": "address[]"
            },
            {
              "internalType": "uint256[]",
              "name": "compactedMinOracleBlockNumbers",
              "type": "uint256[]"
            },
            {
              "internalType": "uint256[]",
              "name": "compactedMaxOracleBlockNumbers",
              "type": "uint256[]"
            },
            {
              "internalType": "uint256[]",
              "name": "compactedOracleTimestamps",
              "type": "uint256[]"
            },
            {
              "internalType": "uint256[]",
              "name": "compactedDecimals",
              "type": "uint256[]"
            },
            {
              "internalType": "uint256[]",
              "name": "compactedMinPrices",
              "type": "uint256[]"
            },
            {
              "internalType": "uint256[]",
              "name": "compactedMinPricesIndexes",
              "type": "uint256[]"
            },
            {
              "internalType": "uint256[]",
              "name": "compactedMaxPrices",
              "type": "uint256[]"
            },
            {
              "internalType": "uint256[]",
              "name": "compactedMaxPricesIndexes",
              "type": "uint256[]"
            },
            {
              "internalType": "bytes[]",
              "name": "signatures",
              "type": "bytes[]"
            },
            {
              "internalType": "address[]",
              "name": "priceFeedTokens",
              "type": "address[]"
            },
            {
              "internalType": "address[]",
              "name": "realtimeFeedTokens",
              "type": "address[]"
            },
            {
              "internalType": "bytes[]",
              "name": "realtimeFeedData",
              "type": "bytes[]"
            }
          ],
          "internalType": "struct OracleUtils.SetPricesParams",
          "name": "oracleParams",
          "type": "tuple"
        }
      ],
      "name": "updateAdlState",
      "outputs": [],
      "stateMutability": "nonpayable",
      "type": "function"
    }
  ],
  "bytecode": "0x6101606040523480156200001257600080fd5b5060405162003ac738038062003ac7833981016040819052620000359162000085565b6001600160a01b0395861660805295851660a05292841660c05290831660e052821661012052811661010052166101405262000130565b6001600160a01b03811681146200008257600080fd5b50565b600080600080600080600060e0888a031215620000a157600080fd5b8751620000ae816200006c565b6020890151909750620000c1816200006c565b6040890151909650620000d4816200006c565b6060890151909550620000e7816200006c565b6080890151909450620000fa816200006c565b60a08901519093506200010d816200006c565b60c089015190925062000120816200006c565b8091505092959891949750929550565b60805160a05160c05160e0516101005161012051610140516138746200025360003960008181608c01526110350152600081816101170152818161023001528181610475015281816107b40152818161090201528181610a590152610fdf015260008181610153015261100a01526000818161017a0152610fb40152600081816101a101528181610272015281816105870152818161094401528181610a370152610f8901526000818160c90152610cf101526000818160f001528181610251015281816103f3015281816104540152818161055801528181610793015281816108160152818161092301528181610a1501528181610b1f01528181610c2201528181610ea601528181610f2701528181610f61015261145e01526138746000f3fe608060405234801561001057600080fd5b50600436106100825760003560e01c80626cc35e146100875780634a4a7b04146100c4578063660d0d67146100eb5780637dc0d1d01461011257806388189be8146101395780638a53aaac1461014e57806393845e46146101755780639ff78c301461019c578063fc619f41146101c3575b600080fd5b6100ae7f000000000000000000000000000000000000000000000000000000000000000081565b6040516100bb91906125ef565b60405180910390f35b6100ae7f000000000000000000000000000000000000000000000000000000000000000081565b6100ae7f000000000000000000000000000000000000000000000000000000000000000081565b6100ae7f000000000000000000000000000000000000000000000000000000000000000081565b61014c61014736600461263f565b6101d6565b005b6100ae7f000000000000000000000000000000000000000000000000000000000000000081565b6100ae7f000000000000000000000000000000000000000000000000000000000000000081565b6100ae7f000000000000000000000000000000000000000000000000000000000000000081565b61014c6101d13660046126ce565b6108e6565b6101de610b1b565b61022e6040516020016101f09061272f565b604051602081830303815290604052805190602001206040518060400160405280600a81526020016920a2262fa5a2a2a822a960b11b815250610cda565b7f00000000000000000000000000000000000000000000000000000000000000007f00000000000000000000000000000000000000000000000000000000000000007f000000000000000000000000000000000000000000000000000000000000000061029a846129fe565b6040516304a76ae360e21b81526001600160a01b0385169063129dab8c906102ca90869086908690600401612d2d565b600060405180830381600087803b1580156102e457600080fd5b505af11580156102f8573d6000803e3d6000fd5b5050505061035060405180610120016040528060008152602001606081526020016060815260200160008019168152602001600015158152602001600081526020016000815260200160008152602001600081525090565b5a81526103a96103636040880188612edc565b808060200260200160405190810160405280939291908181526020018383602002808284376000920191909152506103a2925050506020890189612edc565b9050610d8a565b60208201526103be6103636060880188612edc565b6040808301829052516385671ac560e01b815273__$f1c6d6b2bd25207c7e7320f7c6bcfa9419$__916385671ac59161041f917f0000000000000000000000000000000000000000000000000000000000000000918f918e91600401612f2c565b60006040518083038186803b15801561043757600080fd5b505af415801561044b573d6000803e3d6000fd5b505050506104eb7f00000000000000000000000000000000000000000000000000000000000000007f00000000000000000000000000000000000000000000000000000000000000008c8b6040516020016104d09060208082526016908201527513505617d4139317d19050d513d497d193d497d0511360521b604082015260600190565b60405160208183030381529060405280519060200120610e20565b60a084015260c0830152151560808201819052610530578060c001518160a001516040516368376c5f60e11b8152600401610527929190612f60565b60405180910390fd5b73__$f1c6d6b2bd25207c7e7320f7c6bcfa9419$__63dbadc9b96040518061010001604052807f00000000000000000000000000000000000000000000000000000000000000006001600160a01b031681526020017f00000000000000000000000000000000000000000000000000000000000000006001600160a01b031681526020018e6001600160a01b031681526020018d6001600160a01b031681526020018c6001600160a01b031681526020018b151581526020018a8152602001846020015160008151811061060657610606612f6e565b6020908102919091018101519091526040805160e085811b6001600160e01b031916825284516001600160a01b039081166004840152938501518416602483015291840151831660448201526060840151831660648201526080840151909216608483015260a0830151151560a483015260c083015160c4830152919091015160e482015261010401602060405180830381865af41580156106ac573d6000803e3d6000fd5b505050506040513d601f19601f820116820180604052508101906106d09190612f84565b606082018190526000906106f2906106e7896129fe565b845133906001610e60565b8051516040820151602001515191925061072791610722903090600781111561071d5761071d612f9d565b611117565b6111ac565b604051630893a94f60e41b815273__$18943158f75973db0541c3d7c8650b2485$__9063893a94f09061075e90849060040161319e565b60006040518083038186803b15801561077657600080fd5b505af415801561078a573d6000803e3d6000fd5b505050506107dc7f00000000000000000000000000000000000000000000000000000000000000007f00000000000000000000000000000000000000000000000000000000000000008d8c60016111d7565b60e0830181905260c083015113610811578160e001518260c0015160405162753f0f60e61b8152600401610527929190612f60565b61083c7f00000000000000000000000000000000000000000000000000000000000000008c8b61136a565b610100830181905261084d906113ee565b8260e00151121561087e578160e00151826101000151604051634f85e3ef60e11b8152600401610527929190612f60565b5050836001600160a01b031662ccf1556040518163ffffffff1660e01b8152600401600060405180830381600087803b1580156108ba57600080fd5b505af11580156108ce573d6000803e3d6000fd5b50505050505050506108de61145c565b505050505050565b6108ee610b1b565b6109006040516020016101f09061272f565b7f00000000000000000000000000000000000000000000000000000000000000007f00000000000000000000000000000000000000000000000000000000000000007f000000000000000000000000000000000000000000000000000000000000000061096c846129fe565b6040516304a76ae360e21b81526001600160a01b0385169063129dab8c9061099c90869086908690600401612d2d565b600060405180830381600087803b1580156109b657600080fd5b505af11580156109ca573d6000803e3d6000fd5b5050505060006109e38680606001906103639190612edc565b60405163e0cc1a0d60e01b815290915073__$f1c6d6b2bd25207c7e7320f7c6bcfa9419$__9063e0cc1a0d90610a87907f0000000000000000000000000000000000000000000000000000000000000000907f0000000000000000000000000000000000000000000000000000000000000000907f0000000000000000000000000000000000000000000000000000000000000000908e908e9089906004016132cd565b60006040518083038186803b158015610a9f57600080fd5b505af4158015610ab3573d6000803e3d6000fd5b5050505050836001600160a01b031662ccf1556040518163ffffffff1660e01b8152600401600060405180830381600087803b158015610af257600080fd5b505af1158015610b06573d6000803e3d6000fd5b5050505050505050610b1661145c565b505050565b60007f00000000000000000000000000000000000000000000000000000000000000006001600160a01b031663bd02d0f5604051602001610b5b90613311565b604051602081830303815290604052805190602001206040518263ffffffff1660e01b8152600401610b8f91815260200190565b602060405180830381865afa158015610bac573d6000803e3d6000fd5b505050506040513d601f19601f82011682018060405250810190610bd09190612f84565b90508015610c205760405162461bcd60e51b815260206004820152601f60248201527f5265656e7472616e637947756172643a207265656e7472616e742063616c6c006044820152606401610527565b7f00000000000000000000000000000000000000000000000000000000000000006001600160a01b031663e2a4853a604051602001610c5e90613311565b6040516020818303038152906040528051906020012060016040518363ffffffff1660e01b8152600401610c93929190612f60565b6020604051808303816000875af1158015610cb2573d6000803e3d6000fd5b505050506040513d601f19601f82011682018060405250810190610cd69190612f84565b5050565b60405163ac4ab3fb60e01b81526001600160a01b037f0000000000000000000000000000000000000000000000000000000000000000169063ac4ab3fb90610d289033908690600401613342565b602060405180830381865afa158015610d45573d6000803e3d6000fd5b505050506040513d601f19601f82011682018060405250810190610d69919061335b565b610cd657338160405163a35b150b60e01b8152600401610527929190613378565b60606000826001600160401b03811115610da657610da6612753565b604051908082528060200260200182016040528015610dcf578160200160208202803683370190505b50905060005b83811015610e1657610de78582611515565b828281518110610df957610df9612f6e565b602090810291909101015280610e0e816133b2565b915050610dd5565b5090505b92915050565b600080600080610e308988611587565b90506000610e3e8983611618565b9050610e4d8a83838a8a61178e565b9450945094505050955095509592505050565b610e68612424565b610e70612424565b6020810187905260405163fdfc26f360e01b815273__$9dcb75ef0bb6c4288f2ccffe7dc492c4eb$__9063fdfc26f390610ed0907f0000000000000000000000000000000000000000000000000000000000000000908b90600401613342565b600060405180830381865af4158015610eed573d6000803e3d6000fd5b505050506040513d6000823e601f3d908101601f19168201604052610f159190810190613545565b604082018190525160c00151610f4c907f0000000000000000000000000000000000000000000000000000000000000000906117e2565b60608083019190915281516001600160a01b037f0000000000000000000000000000000000000000000000000000000000000000811690915282517f0000000000000000000000000000000000000000000000000000000000000000821660209182015283517f0000000000000000000000000000000000000000000000000000000000000000831660409182015284517f0000000000000000000000000000000000000000000000000000000000000000841694019390935283517f0000000000000000000000000000000000000000000000000000000000000000831660809091015283517f000000000000000000000000000000000000000000000000000000000000000090921660a0909201919091529087015190870151516110739190610d8a565b6080820152606086015160208701515161108d9190610d8a565b60a0820152604081015151608001516001600160a01b0316156110c757805151604082015151608001516110c19190611587565b60c08201525b6001600160a01b03851660e0820152610100810184905261012081018360018111156110f5576110f5612f9d565b9081600181111561110857611108612f9d565b90525090505b95945050505050565b6000604051602001611159906020808252601c908201527b11561150d5551157d0511317d191505515549157d11254d05093115160221b604082015260600190565b60408051601f198184030181528282528051602091820120908301526001600160a01b03851690820152606081018390526080015b60405160208183030381529060405280519060200120905092915050565b6111b682826118a0565b15610cd65760405163dd70e0c960e01b815260048101829052602401610527565b6000806111e48786611587565b905060006040518060600160405280886001600160a01b0316635dcf719485602001516040518263ffffffff1660e01b815260040161122391906125ef565b6040805180830381865afa15801561123f573d6000803e3d6000fd5b505050506040513d601f19601f820116820180604052508101906112639190613669565b8152602001886001600160a01b0316635dcf719485604001516040518263ffffffff1660e01b815260040161129891906125ef565b6040805180830381865afa1580156112b4573d6000803e3d6000fd5b505050506040513d601f19601f820116820180604052508101906112d89190613669565b8152602001886001600160a01b0316635dcf719485606001516040518263ffffffff1660e01b815260040161130d91906125ef565b6040805180830381865afa158015611329573d6000803e3d6000fd5b505050506040513d601f19601f8201168201806040525081019061134d9190613669565b9052905061135e888383888861190c565b98975050505050505050565b6000836001600160a01b031663bd02d0f56113858585611950565b6040518263ffffffff1660e01b81526004016113a391815260200190565b602060405180830381865afa1580156113c0573d6000803e3d6000fd5b505050506040513d601f19601f820116820180604052508101906113e49190612f84565b90505b9392505050565b60006001600160ff1b038211156114585760405162461bcd60e51b815260206004820152602860248201527f53616665436173743a2076616c756520646f65736e27742066697420696e2061604482015267371034b73a191a9b60c11b6064820152608401610527565b5090565b7f00000000000000000000000000000000000000000000000000000000000000006001600160a01b031663e2a4853a60405160200161149a90613311565b6040516020818303038152906040528051906020012060006040518363ffffffff1660e01b81526004016114cf929190612f60565b6020604051808303816000875af11580156114ee573d6000803e3d6000fd5b505050506040513d601f19601f820116820180604052508101906115129190612f84565b50565b6000806115618484604060c0600019901c6040518060400160405280601f81526020017f676574556e636f6d7061637465644f7261636c65426c6f636b4e756d626572008152506119c8565b9050806000036113e75760405163349f5fdd60e11b815260048101849052602401610527565b61158f6124b3565b60405163a8d8fff560e01b815260009073__$ff439aa65a80c9eec648f15db20b189505$__9063a8d8fff5906115cb90879087906004016136b7565b608060405180830381865af41580156115e8573d6000803e3d6000fd5b505050506040513d601f19601f8201168201806040525081019061160c91906136d1565b90506113e78482611a65565b6116206124da565b6040518060600160405280846001600160a01b0316635dcf719485602001516040518263ffffffff1660e01b815260040161165b91906125ef565b6040805180830381865afa158015611677573d6000803e3d6000fd5b505050506040513d601f19601f8201168201806040525081019061169b9190613669565b8152602001846001600160a01b0316635dcf719485604001516040518263ffffffff1660e01b81526004016116d091906125ef565b6040805180830381865afa1580156116ec573d6000803e3d6000fd5b505050506040513d601f19601f820116820180604052508101906117109190613669565b8152602001846001600160a01b0316635dcf719485606001516040518263ffffffff1660e01b815260040161174591906125ef565b6040805180830381865afa158015611761573d6000803e3d6000fd5b505050506040513d601f19601f820116820180604052508101906117859190613669565b90529392505050565b6000806000806117a289898989600161190c565b905060006117b68a878b600001518a611b2e565b9050600080831380156117d05750816117ce84611ba9565b115b9b929a50909850909650505050505050565b6060600082516001600160401b038111156117ff576117ff612753565b60405190808252806020026020018201604052801561183857816020015b6118256124b3565b81526020019060019003908161181d5790505b50905060005b8351811015610e1657600084828151811061185b5761185b612f6e565b6020026020010151905061186f8682611bfb565b83838151811061188157611881612f6e565b6020026020010181905250508080611898906133b2565b91505061183e565b604051633d70e7e560e11b8152600481018290526000906001600160a01b03841690637ae1cfca90602401602060405180830381865afa1580156118e8573d6000803e3d6000fd5b505050506040513d601f19601f820116820180604052508101906113e7919061335b565b60008061191d878787878715611c8c565b90508060000361193157600091505061110e565b6000611944888888600001518888611d12565b905061135e8183611da3565b600060405160200161198e9060208082526018908201527713525397d4139317d19050d513d497d05195115497d0511360421b604082015260600190565b60408051601f198184030181528282528051602091820120908301526001600160a01b03851690820152821515606082015260800161118e565b6000806119d78561010061376b565b905060006119e5828861376b565b905087518110611a10578787828660405163bdec9c0d60e01b8152600401610527949392919061378d565b6000888281518110611a2457611a24612f6e565b602002602001015190506000878484611a3d91906137be565b611a47908b6137d5565b611a5191906137be565b9190911c8616935050505095945050505050565b80516001600160a01b0316611a8d576040516302fde0d760e11b815260040160405180910390fd5b6000826001600160a01b0316637ae1cfca611aab8460000151611dea565b6040518263ffffffff1660e01b8152600401611ac991815260200190565b602060405180830381865afa158015611ae6573d6000803e3d6000fd5b505050506040513d601f19601f82011682018060405250810190611b0a919061335b565b90508015610b165781516040516309f8c93760e01b815261052791906004016125ef565b6000846001600160a01b031663bd02d0f5611b4a868686611e6c565b6040518263ffffffff1660e01b8152600401611b6891815260200190565b602060405180830381865afa158015611b85573d6000803e3d6000fd5b505050506040513d601f19601f8201168201806040525081019061110e9190612f84565b6000808212156114585760405162461bcd60e51b815260206004820181905260248201527f53616665436173743a2076616c7565206d75737420626520706f7369746976656044820152606401610527565b611c036124b3565b60405163a8d8fff560e01b815260009073__$ff439aa65a80c9eec648f15db20b189505$__9063a8d8fff590611c3f90879087906004016136b7565b608060405180830381865af4158015611c5c573d6000803e3d6000fd5b505050506040513d601f19601f82011682018060405250810190611c8091906136d1565b90506113e78482611efb565b60008083611c9e578560600151611ca4565b85604001515b90506000611cb3888884611f42565b905060008415611ce15785611cd057866040015160200151611cda565b8660200151602001515b9050611cfb565b85611cf157604087015151611cf8565b6020870151515b90505b611d0581836137be565b9998505050505050505050565b600080611d28611d23888887611fe0565b6113ee565b90506000611d3788888761203e565b9050811580611d44575080155b15611d545760009250505061110e565b6000611d61878787612085565b90506000611d72611d2383856137be565b9050600087611d8a57611d8582866137e8565b611d94565b611d9485836137e8565b9b9a5050505050505050505050565b600080611db8611db2856120be565b846120cf565b905060008413611dd957611dcb816113ee565b611dd49061380f565b611de2565b611de2816113ee565b949350505050565b6000604051602001611e22906020808252601290820152711254d7d3505492d15517d11254d05093115160721b604082015260600190565b60408051601f198184030181528282528051602091820120908301526001600160a01b03841690820152606001604051602081830303815290604052805190602001209050919050565b6000604051602001611ea0906020808252600e908201526d26a0ac2fa827262fa320a1aa27a960911b604082015260600190565b60408051601f1981840301815282825280516020918201209083015281018590526001600160a01b0384166060820152821515608082015260a0015b6040516020818303038152906040528051906020012090509392505050565b611f058282611a65565b80606001516001600160a01b031681604001516001600160a01b031603610cd65780516040516332e6f44d60e21b815261052791906004016125ef565b600080611f57846040015185606001516120dd565b905080856001600160a01b031663bd02d0f5611f7787600001518761210c565b6040518263ffffffff1660e01b8152600401611f9591815260200190565b602060405180830381865afa158015611fb2573d6000803e3d6000fd5b505050506040513d601f19601f82011682018060405250810190611fd69190612f84565b61110e919061376b565b600080611ff5846040015185606001516120dd565b9050600061200e8686600001518760400151878661217a565b905060006120278787600001518860600151888761217a565b9050612033818361382b565b979650505050505050565b600080612053846040015185606001516120dd565b9050600061206c8686600001518760400151878661220a565b905060006120278787600001518860600151888761220a565b600082156120a6578161209957835161209f565b83602001515b90506113e7565b816120b55783602001516113e4565b50509051919050565b600080821215611458575060000390565b60006113e783836000612227565b6000816001600160a01b0316836001600160a01b0316146120ff576001612102565b60025b60ff169392505050565b600060405160200161213d906020808252600b908201526a1413d3d317d05353d5539560aa1b604082015260600190565b60408051601f198184030181528282528051602091820120908301526001600160a01b03808616918301919091528316606082015260800161118e565b600081866001600160a01b031663bd02d0f561219788888861226f565b6040518263ffffffff1660e01b81526004016121b591815260200190565b602060405180830381865afa1580156121d2573d6000803e3d6000fd5b505050506040513d601f19601f820116820180604052508101906121f69190612f84565b612200919061376b565b9695505050505050565b600081866001600160a01b031663bd02d0f56121978888886122e7565b600083600003612239575060006113e7565b81156122585761209f8468327cb2734119d3b7a9601e1b856001612324565b6113e48468327cb2734119d3b7a9601e1b85612375565b60006040516020016122a2906020808252600d908201526c13d4115397d2539511549154d5609a1b604082015260600190565b60408051601f198184030181528282528051602091820120908301526001600160a01b038087169183019190915284166060820152821515608082015260a001611edc565b60006040516020016122a2906020808252601790820152764f50454e5f494e5445524553545f494e5f544f4b454e5360481b604082015260600190565b600080612332868686612375565b9050600183600281111561234857612348612f9d565b14801561236557506000848061236057612360613755565b868809115b1561110e5761220060018261382b565b60008080600019858709858702925082811083820303915050806000036123af578382816123a5576123a5613755565b04925050506113e7565b8084116123bb57600080fd5b60008486880960026001871981018816978890046003810283188082028403028082028403028082028403028082028403028082028403029081029092039091026000889003889004909101858311909403939093029303949094049190911702949350505050565b604080516102008101825260006101408201818152610160830182905261018083018290526101a083018290526101c083018290526101e0830182905282526020820152908101612473612507565b81526020016060815260200160608152602001606081526020016124956124b3565b8152600060208201819052604082018190526060909101905b905290565b60408051608081018252600080825260208201819052918101829052606081019190915290565b60405180606001604052806124ed6125c8565b81526020016124fa6125c8565b81526020016124ae6125c8565b604080516101408101909152600060608083018281526080840183905260a0840183905260c0840183905260e084018390526101008401929092526101208301528152602081016125a560408051610140810190915280600081526020016000815260200160008152602001600081526020016000815260200160008152602001600081526020016000815260200160008152602001600081525090565b815260408051606081018252600080825260208281018290529282015291015290565b604051806040016040528060008152602001600081525090565b6001600160a01b03169052565b6001600160a01b0391909116815260200190565b6001600160a01b038116811461151257600080fd5b801515811461151257600080fd5b60006101c0828403121561263957600080fd5b50919050565b60008060008060008060c0878903121561265857600080fd5b863561266381612603565b9550602087013561267381612603565b9450604087013561268381612603565b9350606087013561269381612618565b92506080870135915060a08701356001600160401b038111156126b557600080fd5b6126c189828a01612626565b9150509295509295509295565b6000806000606084860312156126e357600080fd5b83356126ee81612603565b925060208401356126fe81612618565b915060408401356001600160401b0381111561271957600080fd5b61272586828701612626565b9150509250925092565b6020808252600a908201526920a2262fa5a2a2a822a960b11b604082015260600190565b634e487b7160e01b600052604160045260246000fd5b6040516101c081016001600160401b038111828210171561278c5761278c612753565b60405290565b60405161014081016001600160401b038111828210171561278c5761278c612753565b604051606081016001600160401b038111828210171561278c5761278c612753565b60405160e081016001600160401b038111828210171561278c5761278c612753565b604051601f8201601f191681016001600160401b038111828210171561282157612821612753565b604052919050565b60006001600160401b0382111561284257612842612753565b5060051b60200190565b600082601f83011261285d57600080fd5b8135602061287261286d83612829565b6127f9565b82815260059290921b8401810191818101908684111561289157600080fd5b8286015b848110156128b55780356128a881612603565b8352918301918301612895565b509695505050505050565b600082601f8301126128d157600080fd5b813560206128e161286d83612829565b82815260059290921b8401810191818101908684111561290057600080fd5b8286015b848110156128b55780358352918301918301612904565b6000601f838184011261292d57600080fd5b8235602061293d61286d83612829565b82815260059290921b8501810191818101908784111561295c57600080fd5b8287015b848110156129f25780356001600160401b03808211156129805760008081fd5b818a0191508a603f8301126129955760008081fd5b858201356040828211156129ab576129ab612753565b6129bc828b01601f191689016127f9565b92508183528c818386010111156129d35760008081fd5b8181850189850137506000908201870152845250918301918301612960565b50979650505050505050565b60006101c08236031215612a1157600080fd5b612a19612769565b8235815260208301356001600160401b0380821115612a3757600080fd5b612a433683870161284c565b60208401526040850135915080821115612a5c57600080fd5b612a68368387016128c0565b60408401526060850135915080821115612a8157600080fd5b612a8d368387016128c0565b60608401526080850135915080821115612aa657600080fd5b612ab2368387016128c0565b608084015260a0850135915080821115612acb57600080fd5b612ad7368387016128c0565b60a084015260c0850135915080821115612af057600080fd5b612afc368387016128c0565b60c084015260e0850135915080821115612b1557600080fd5b612b21368387016128c0565b60e084015261010091508185013581811115612b3c57600080fd5b612b48368288016128c0565b838501525061012091508185013581811115612b6357600080fd5b612b6f368288016128c0565b838501525061014091508185013581811115612b8a57600080fd5b612b963682880161291b565b838501525061016091508185013581811115612bb157600080fd5b612bbd3682880161284c565b838501525061018091508185013581811115612bd857600080fd5b612be43682880161284c565b83850152506101a091508185013581811115612bff57600080fd5b612c0b3682880161291b565b8385015250505080915050919050565b600081518084526020808501945080840160005b83811015612c545781516001600160a01b031687529582019590820190600101612c2f565b509495945050505050565b600081518084526020808501945080840160005b83811015612c5457815187529582019590820190600101612c73565b6000815180845260005b81811015612cb557602081850181015186830182015201612c99565b506000602082860101526020601f19601f83011685010191505092915050565b600082825180855260208086019550808260051b84010181860160005b84811015612d2057601f19868403018952612d0e838351612c8f565b98840198925090830190600101612cf2565b5090979650505050505050565b600060018060a01b038086168352808516602084015250606060408301528251606083015260208301516101c0806080850152612d6e610220850183612c1b565b91506040850151605f19808685030160a0870152612d8c8483612c5f565b935060608701519150808685030160c0870152612da98483612c5f565b935060808701519150808685030160e0870152612dc68483612c5f565b935060a08701519150610100818786030181880152612de58584612c5f565b945060c08801519250610120828887030181890152612e048685612c5f565b955060e089015193506101408389880301818a0152612e238786612c5f565b9650828a0151945061016092508389880301838a0152612e438786612c5f565b9650818a0151945061018091508389880301828a0152612e638786612c5f565b9650808a01519450506101a08389880301818a0152612e828786612cd5565b9650828a015194508389880301868a0152612e9d8786612c1b565b9650818a0151955083898803016101e08a0152612eba8787612c1b565b9650808a01519550505050808685030161020087015250506120338282612cd5565b6000808335601e19843603018112612ef357600080fd5b8301803591506001600160401b03821115612f0d57600080fd5b6020019150600581901b3603821315612f2557600080fd5b9250929050565b6001600160a01b03858116825284166020820152821515604082015260806060820181905260009061220090830184612c5f565b918252602082015260400190565b634e487b7160e01b600052603260045260246000fd5b600060208284031215612f9657600080fd5b5051919050565b634e487b7160e01b600052602160045260246000fd5b60088110612fc357612fc3612f9d565b9052565b60038110612fc357612fc3612f9d565b612fe2828251612fb3565b6020810151612ff46020840182612fc7565b5060408101516040830152606081015160608301526080810151608083015260a081015160a083015260c081015160c083015260e081015160e08301526101008082015181840152506101208082015181840152505050565b80516101c080845281516001600160a01b0390811691850191909152602082015181166101e085015260408201511661020084015260608101516000916130986102208601836125e2565b608081015191506130ad6102408601836125e2565b60a081015191506130c26102608601836125e2565b60c0015160e061028086015290506130de6102a0850182612c1b565b905060208301516130f26020860182612fd7565b5060408381015180511515610160870152602081015115156101808701529081015115156101a0860152610e16565b80516001600160a01b03908116835260208083015182169084015260408083015182169084015260609182015116910152565b600081518084526020808501945080840160005b83811015612c545761317b878351613121565b6080969096019590820190600101613168565b60028110612fc357612fc3612f9d565b602081526131f660208201835180516001600160a01b03908116835260208083015182169084015260408083015182169084015260608083015182169084015260808083015182169084015260a09182015116910152565b602082015160e082015260006040830151610240610100818186015261322061026086018461304d565b92506060860151601f196101208188870301818901526132408684613154565b955060808901519250818887030161014089015261325e8684612c5f565b955060a08901519250818887030161016089015261327c8684612c5f565b955060c08901519250613293610180890184613121565b60e089015192506132a86102008901846125e2565b9288015161022088015250508501516132c38286018261318e565b5090949350505050565b6001600160a01b0387811682528681166020830152858116604083015284166060820152821515608082015260c060a0820181905260009061135e90830184612c5f565b6020808252601790820152765245454e5452414e43595f47554152445f53544154555360481b604082015260600190565b6001600160a01b03929092168252602082015260400190565b60006020828403121561336d57600080fd5b81516113e781612618565b6001600160a01b03831681526040602082018190526000906113e490830184612c8f565b634e487b7160e01b600052601160045260246000fd5b6000600182016133c4576133c461339c565b5060010190565b80516133d681612603565b919050565b600082601f8301126133ec57600080fd5b815160206133fc61286d83612829565b82815260059290921b8401810191818101908684111561341b57600080fd5b8286015b848110156128b557805161343281612603565b835291830191830161341f565b8051600881106133d657600080fd5b8051600381106133d657600080fd5b6000610140828403121561347057600080fd5b613478612792565b90506134838261343f565b81526134916020830161344e565b602082015260408201516040820152606082015160608201526080820151608082015260a082015160a082015260c082015160c082015260e082015160e082015261010080830151818301525061012080830151818301525092915050565b60006060828403121561350257600080fd5b61350a6127b5565b9050815161351781612618565b8152602082015161352781612618565b6020820152604082015161353a81612618565b604082015292915050565b60006020828403121561355757600080fd5b81516001600160401b038082111561356e57600080fd5b908301906101c0828603121561358357600080fd5b61358b6127b5565b82518281111561359a57600080fd5b830160e081880312156135ac57600080fd5b6135b46127d7565b6135bd826133cb565b81526135cb602083016133cb565b60208201526135dc604083016133cb565b60408201526135ed606083016133cb565b60608201526135fe608083016133cb565b608082015261360f60a083016133cb565b60a082015260c08201518481111561362657600080fd5b613632898285016133db565b60c083015250825250613648866020850161345d565b602082015261365b8661016085016134f0565b604082015295945050505050565b60006040828403121561367b57600080fd5b604080519081016001600160401b038111828210171561369d5761369d612753565b604052825181526020928301519281019290925250919050565b6001600160a01b0392831681529116602082015260400190565b6000608082840312156136e357600080fd5b604051608081016001600160401b038111828210171561370557613705612753565b604052825161371381612603565b8152602083015161372381612603565b6020820152604083015161373681612603565b6040820152606083015161374981612603565b60608201529392505050565b634e487b7160e01b600052601260045260246000fd5b60008261378857634e487b7160e01b600052601260045260246000fd5b500490565b6080815260006137a06080830187612c5f565b85602084015284604084015282810360608401526120338185612c8f565b8082028115828204841417610e1a57610e1a61339c565b81810381811115610e1a57610e1a61339c565b81810360008312801583831316838312821617156138085761380861339c565b5092915050565b6000600160ff1b82016138245761382461339c565b5060000390565b80820180821115610e1a57610e1a61339c56fea264697066735822122034c496478ba2ec6823eb7a4386018fec3d76c74bc3d1acee563f22bbf718756f64736f6c63430008120033",
  "linkReferences": {
    "contracts/adl/AdlUtils.sol": {
      "AdlUtils": [
        {
          "length": 20,
          "start": 1574
        },
        {
          "length": 20,
          "start": 1925
        },
        {
          "length": 20,
          "start": 3144
        }
      ]
    },
    "contracts/market/MarketStoreUtils.sol": {
      "MarketStoreUtils": [
        {
          "length": 20,
          "start": 6132
        },
        {
          "length": 20,
          "start": 7784
        }
      ]
    },
    "contracts/order/OrderStoreUtils.sol": {
      "OrderStoreUtils": [
        {
          "length": 20,
          "start": 4313
        }
      ]
    },
    "contracts/order/OrderUtils.sol": {
      "OrderUtils": [
        {
          "length": 20,
          "start": 2441
        }
      ]
    }
  },
  "deployedLinkReferences": {
    "contracts/adl/AdlUtils.sol": {
      "AdlUtils": [
        {
          "length": 20,
          "start": 979
        },
        {
          "length": 20,
          "start": 1330
        },
        {
          "length": 20,
          "start": 2549
        }
      ]
    },
    "contracts/market/MarketStoreUtils.sol": {
      "MarketStoreUtils": [
        {
          "length": 20,
          "start": 5537
        },
        {
          "length": 20,
          "start": 7189
        }
      ]
    },
    "contracts/order/OrderStoreUtils.sol": {
      "OrderStoreUtils": [
        {
          "length": 20,
          "start": 3718
        }
      ]
    },
    "contracts/order/OrderUtils.sol": {
      "OrderUtils": [
        {
          "length": 20,
          "start": 1846
        }
      ]
    }
  }
}