{
  "_format": "hh-sol-artifact-1",
  "contractName": "OracleModuleTest",
  "sourceName": "contracts/test/OracleModuleTest.sol",
  "abi": [
    {
      "inputs": [
        {
          "internalType": "uint256[]",
          "name": "compactedValues",
          "type": "uint256[]"
        },
        {
          "internalType": "uint256",
          "name": "index",
          "type": "uint256"
        },
        {
          "internalType": "uint256",
          "name": "slotIndex",
          "type": "uint256"
        },
        {
          "internalType": "string",
          "name": "label",
          "type": "string"
        }
      ],
      "name": "CompactedArrayOutOfBounds",
      "type": "error"
    },
    {
      "inputs": [
        {
          "internalType": "uint256",
          "name": "index",
          "type": "uint256"
        },
        {
          "internalType": "string",
          "name": "label",
          "type": "string"
        }
      ],
      "name": "DuplicatedIndex",
      "type": "error"
    },
    {
      "inputs": [
        {
          "internalType": "uint256",
          "name": "index",
          "type": "uint256"
        }
      ],
      "name": "EmptyCompactedBlockNumber",
      "type": "error"
    },
    {
      "inputs": [
        {
          "internalType": "uint256",
          "name": "index",
          "type": "uint256"
        }
      ],
      "name": "EmptyCompactedPrice",
      "type": "error"
    },
    {
      "inputs": [
        {
          "internalType": "uint256",
          "name": "index",
          "type": "uint256"
        }
      ],
      "name": "EmptyCompactedTimestamp",
      "type": "error"
    },
    {
      "inputs": [
        {
          "internalType": "address",
          "name": "recoveredSigner",
          "type": "address"
        },
        {
          "internalType": "address",
          "name": "expectedSigner",
          "type": "address"
        }
      ],
      "name": "InvalidSignature",
      "type": "error"
    },
    {
      "inputs": [
        {
          "internalType": "uint256",
          "name": "index",
          "type": "uint256"
        },
        {
          "internalType": "string",
          "name": "label",
          "type": "string"
        }
      ],
      "name": "MaskIndexOutOfBounds",
      "type": "error"
    },
    {
      "anonymous": false,
      "inputs": [
        {
          "indexed": false,
          "internalType": "string",
          "name": "reason",
          "type": "string"
        }
      ],
      "name": "OracleError",
      "type": "event"
    },
    {
      "inputs": [
        {
          "internalType": "contract DataStore",
          "name": "dataStore",
          "type": "address"
        },
        {
          "components": [
            {
              "internalType": "uint256",
              "name": "signerInfo",
              "type": "uint256"
            },
            {
              "internalType": "address[]",
              "name": "tokens",
              "type": "address[]"
            },
            {
              "internalType": "uint256[]",
              "name": "compactedMinOracleBlockNumbers",
              "type": "uint256[]"
            },
            {
              "internalType": "uint256[]",
              "name": "compactedMaxOracleBlockNumbers",
              "type": "uint256[]"
            },
            {
              "internalType": "uint256[]",
              "name": "compactedOracleTimestamps",
              "type": "uint256[]"
            },
            {
              "internalType": "uint256[]",
              "name": "compactedDecimals",
              "type": "uint256[]"
            },
            {
              "internalType": "uint256[]",
              "name": "compactedMinPrices",
              "type": "uint256[]"
            },
            {
              "internalType": "uint256[]",
              "name": "compactedMinPricesIndexes",
              "type": "uint256[]"
            },
            {
              "internalType": "uint256[]",
              "name": "compactedMaxPrices",
              "type": "uint256[]"
            },
            {
              "internalType": "uint256[]",
              "name": "compactedMaxPricesIndexes",
              "type": "uint256[]"
            },
            {
              "internalType": "bytes[]",
              "name": "signatures",
              "type": "bytes[]"
            },
            {
              "internalType": "address[]",
              "name": "priceFeedTokens",
              "type": "address[]"
            },
            {
              "internalType": "address[]",
              "name": "realtimeFeedTokens",
              "type": "address[]"
            },
            {
              "internalType": "bytes[]",
              "name": "realtimeFeedData",
              "type": "bytes[]"
            }
          ],
          "internalType": "struct OracleUtils.SetPricesParams",
          "name": "params",
          "type": "tuple"
        }
      ],
      "name": "getReportInfo",
      "outputs": [
        {
          "components": [
            {
              "internalType": "uint256",
              "name": "minOracleBlockNumber",
              "type": "uint256"
            },
            {
              "internalType": "uint256",
              "name": "maxOracleBlockNumber",
              "type": "uint256"
            },
            {
              "internalType": "uint256",
              "name": "oracleTimestamp",
              "type": "uint256"
            },
            {
              "internalType": "bytes32",
              "name": "blockHash",
              "type": "bytes32"
            },
            {
              "internalType": "address",
              "name": "token",
              "type": "address"
            },
            {
              "internalType": "bytes32",
              "name": "tokenOracleType",
              "type": "bytes32"
            },
            {
              "internalType": "uint256",
              "name": "precision",
              "type": "uint256"
            },
            {
              "internalType": "uint256",
              "name": "minPrice",
              "type": "uint256"
            },
            {
              "internalType": "uint256",
              "name": "maxPrice",
              "type": "uint256"
            }
          ],
          "internalType": "struct OracleUtils.ReportInfo[]",
          "name": "",
          "type": "tuple[]"
        }
      ],
      "stateMutability": "view",
      "type": "function"
    },
    {
      "inputs": [],
      "name": "getSalt",
      "outputs": [
        {
          "internalType": "bytes32",
          "name": "",
          "type": "bytes32"
        }
      ],
      "stateMutability": "view",
      "type": "function"
    },
    {
      "inputs": [
        {
          "internalType": "contract DataStore",
          "name": "dataStore",
          "type": "address"
        },
        {
          "internalType": "address",
          "name": "token",
          "type": "address"
        }
      ],
      "name": "getTokenOracleType",
      "outputs": [
        {
          "internalType": "bytes32",
          "name": "",
          "type": "bytes32"
        }
      ],
      "stateMutability": "view",
      "type": "function"
    },
    {
      "inputs": [
        {
          "components": [
            {
              "internalType": "uint256",
              "name": "minOracleBlockNumber",
              "type": "uint256"
            },
            {
              "internalType": "uint256",
              "name": "maxOracleBlockNumber",
              "type": "uint256"
            },
            {
              "internalType": "uint256",
              "name": "oracleTimestamp",
              "type": "uint256"
            },
            {
              "internalType": "bytes32",
              "name": "blockHash",
              "type": "bytes32"
            },
            {
              "internalType": "address",
              "name": "token",
              "type": "address"
            },
            {
              "internalType": "bytes32",
              "name": "tokenOracleType",
              "type": "bytes32"
            },
            {
              "internalType": "uint256",
              "name": "precision",
              "type": "uint256"
            },
            {
              "internalType": "uint256",
              "name": "minPrice",
              "type": "uint256"
            },
            {
              "internalType": "uint256",
              "name": "maxPrice",
              "type": "uint256"
            }
          ],
          "internalType": "struct OracleUtils.ReportInfo",
          "name": "info",
          "type": "tuple"
        },
        {
          "internalType": "bytes",
          "name": "signature",
          "type": "bytes"
        },
        {
          "internalType": "address",
          "name": "expectedSigner",
          "type": "address"
        }
      ],
      "name": "validateSigner",
      "outputs": [],
      "stateMutability": "view",
      "type": "function"
    },
    {
      "inputs": [
        {
          "internalType": "bytes32",
          "name": "SALT",
          "type": "bytes32"
        },
        {
          "components": [
            {
              "internalType": "uint256",
              "name": "minOracleBlockNumber",
              "type": "uint256"
            },
            {
              "internalType": "uint256",
              "name": "maxOracleBlockNumber",
              "type": "uint256"
            },
            {
              "internalType": "uint256",
              "name": "oracleTimestamp",
              "type": "uint256"
            },
            {
              "internalType": "bytes32",
              "name": "blockHash",
              "type": "bytes32"
            },
            {
              "internalType": "address",
              "name": "token",
              "type": "address"
            },
            {
              "internalType": "bytes32",
              "name": "tokenOracleType",
              "type": "bytes32"
            },
            {
              "internalType": "uint256",
              "name": "precision",
              "type": "uint256"
            },
            {
              "internalType": "uint256",
              "name": "minPrice",
              "type": "uint256"
            },
            {
              "internalType": "uint256",
              "name": "maxPrice",
              "type": "uint256"
            }
          ],
          "internalType": "struct OracleUtils.ReportInfo",
          "name": "info",
          "type": "tuple"
        },
        {
          "internalType": "bytes",
          "name": "signature",
          "type": "bytes"
        },
        {
          "internalType": "address",
          "name": "expectedSigner",
          "type": "address"
        }
      ],
      "name": "validateSignerWithSalt",
      "outputs": [],
      "stateMutability": "pure",
      "type": "function"
    },
    {
      "inputs": [
        {
          "internalType": "contract Oracle",
          "name": "oracle",
          "type": "address"
        },
        {
          "internalType": "contract DataStore",
          "name": "dataStore",
          "type": "address"
        },
        {
          "internalType": "contract EventEmitter",
          "name": "eventEmitter",
          "type": "address"
        },
        {
          "components": [
            {
              "internalType": "uint256",
              "name": "signerInfo",
              "type": "uint256"
            },
            {
              "internalType": "address[]",
              "name": "tokens",
              "type": "address[]"
            },
            {
              "internalType": "uint256[]",
              "name": "compactedMinOracleBlockNumbers",
              "type": "uint256[]"
            },
            {
              "internalType": "uint256[]",
              "name": "compactedMaxOracleBlockNumbers",
              "type": "uint256[]"
            },
            {
              "internalType": "uint256[]",
              "name": "compactedOracleTimestamps",
              "type": "uint256[]"
            },
            {
              "internalType": "uint256[]",
              "name": "compactedDecimals",
              "type": "uint256[]"
            },
            {
              "internalType": "uint256[]",
              "name": "compactedMinPrices",
              "type": "uint256[]"
            },
            {
              "internalType": "uint256[]",
              "name": "compactedMinPricesIndexes",
              "type": "uint256[]"
            },
            {
              "internalType": "uint256[]",
              "name": "compactedMaxPrices",
              "type": "uint256[]"
            },
            {
              "internalType": "uint256[]",
              "name": "compactedMaxPricesIndexes",
              "type": "uint256[]"
            },
            {
              "internalType": "bytes[]",
              "name": "signatures",
              "type": "bytes[]"
            },
            {
              "internalType": "address[]",
              "name": "priceFeedTokens",
              "type": "address[]"
            },
            {
              "internalType": "address[]",
              "name": "realtimeFeedTokens",
              "type": "address[]"
            },
            {
              "internalType": "bytes[]",
              "name": "realtimeFeedData",
              "type": "bytes[]"
            }
          ],
          "internalType": "struct OracleUtils.SetPricesParams",
          "name": "oracleParams",
          "type": "tuple"
        }
      ],
      "name": "withOraclePricesTest",
      "outputs": [],
      "stateMutability": "nonpayable",
      "type": "function"
    }
  ],
  "bytecode": "0x608060405234801561001057600080fd5b50611ccb806100206000396000f3fe608060405234801561001057600080fd5b50600436106100625760003560e01c806313a9589c14610067578063787944b9146100825780637913b39a146100a2578063a3ebe46d146100b5578063c9855283146100ca578063cc758e2d146100dd575b600080fd5b61006f6100f0565b6040519081526020015b60405180910390f35b6100956100903660046114dd565b610146565b604051610079919061152c565b61006f6100b03660046115cd565b61054d565b6100c86100c3366004611686565b6105cd565b005b6100c86100d83660046116f3565b6105df565b6100c86100eb366004611767565b6106a1565b60004660405160200161012b918152604060208201819052600e908201526d786765742d6f7261636c652d763160901b606082015260800190565b60405160208183030381529060405280519060200120905090565b606060008260200151516001600160401b038111156101675761016761103f565b6040519080825280602002602001820160405280156101a057816020015b61018d610f59565b8152602001906001900390816101855790505b50905060005b836020015151811015610543576101bb610fb4565b6101c3610f59565b6101d18660400151846106b9565b815260608601516101e290846106b9565b602082015260808601516101f69084610730565b60408201526020860151805184908110610212576102126117cc565b60209081029190910101516001600160a01b0316608082015260a086015161023a90846107a2565b61024590600a6118dc565b60c082015260808101516001600160a01b0388169063a6ed563e90610269906107ee565b6040518263ffffffff1660e01b815260040161028791815260200190565b602060405180830381865afa1580156102a4573d6000803e3d6000fd5b505050506040513d601f19601f820116820180604052508101906102c891906118e8565b60a0820152805160ff906102da61086a565b6102e49190611901565b116102fa5780516102f4906108e6565b60608201525b604080516001808252818301909252906020808301908036833750505060a0830152604080516001808252818301909252906020808301908036833750505060c083015260005b60018110156103dd5780610356856001611914565b610360919061192b565b6020840181905260c08801516103759161095b565b8360a00151828151811061038b5761038b6117cc565b6020026020010181815250506103aa876101000151846020015161095b565b8360c0015182815181106103c0576103c06117cc565b6020908102919091010152806103d58161193e565b915050610341565b5060005b600181101561050f57806103f6856001611914565b610400919061192b565b6040840181905260e0880151610415916109c3565b6060840152610120870151604084015161042f91906109c3565b6080840152606083015160408051808201909152600d81526c0dad2dca0e4d2c6ca92dcc8caf609b1b602082015260e085015161046d929091610a0a565b608083015160408051808201909152600d81526c0dac2f0a0e4d2c6ca92dcc8caf609b1b60208201526101008501516104a7929091610a0a565b8260a001518360600151815181106104c1576104c16117cc565b60200260200101518260e00181815250508260c001518360800151815181106104ec576104ec6117cc565b6020908102919091010151610100830152806105078161193e565b9150506103e1565b5080848481518110610523576105236117cc565b60200260200101819052505050808061053b9061193e565b9150506101a6565b5090505b92915050565b6000826001600160a01b031663a6ed563e610567846107ee565b6040518263ffffffff1660e01b815260040161058591815260200190565b602060405180830381865afa1580156105a2573d6000803e3d6000fd5b505050506040513d601f19601f820116820180604052508101906105c691906118e8565b9392505050565b6105d984848484610a65565b50505050565b83838383836001600160a01b031663129dab8c8484846040518463ffffffff1660e01b815260040161061393929190611a59565b600060405180830381600087803b15801561062d57600080fd5b505af1158015610641573d6000803e3d6000fd5b50505050836001600160a01b031662ccf1556040518163ffffffff1660e01b8152600401600060405180830381600087803b15801561067f57600080fd5b505af1158015610693573d6000803e3d6000fd5b505050505050505050505050565b6106b46106ac6100f0565b848484610a65565b505050565b6000806107058484604060c0600019901c6040518060400160405280601f81526020017f676574556e636f6d7061637465644f7261636c65426c6f636b4e756d62657200815250610b73565b9050806000036105c65760405163349f5fdd60e11b8152600481018490526024015b60405180910390fd5b60008061077c8484604060c0600019901c6040518060400160405280601d81526020017f676574556e636f6d7061637465644f7261636c6554696d657374616d70000000815250610b73565b9050806000036105c657604051639ffb34e960e01b815260048101849052602401610727565b6000806107e68484600860f8600019901c6040518060400160405280601581526020017419d95d155b98dbdb5c1858dd1959111958da5b585b605a1b815250610b73565b949350505050565b600060405160200161081f906020808252600b908201526a4f5241434c455f5459504560a81b604082015260600190565b60408051601f198184030181528282528051602091820120908301526001600160a01b038416908201526060015b604051602081830303815290604052805190602001209050919050565b6000610874610c10565b156108e15760646001600160a01b031663a3b1b31d6040518163ffffffff1660e01b8152600401602060405180830381865afa1580156108b8573d6000803e3d6000fd5b505050506040513d601f19601f820116820180604052508101906108dc91906118e8565b905090565b504390565b60006108f0610c10565b15610956576040516315a03d4160e11b815260048101839052606490632b407a8290602401602060405180830381865afa158015610932573d6000803e3d6000fd5b505050506040513d601f19601f8201168201806040525081019061054791906118e8565b504090565b60008061099d8484602060e0600019901c60405180604001604052806013815260200172676574556e636f6d706163746564507269636560681b815250610b73565b9050806000036105c657604051630554193160e21b815260048101849052602401610727565b6000806107e68484600860f8600019901c604051806040016040528060188152602001770cecae8aadcc6dedae0c2c6e8cac8a0e4d2c6ca92dcc8caf60431b815250610b73565b6101008210610a30578181604051630a1f10ab60e11b8152600401610727929190611c13565b82516001831b90811615610a5b57828260405163d406473760e01b8152600401610727929190611c13565b8351179092525050565b6000610b1685856000015186602001518760400151886060015189608001518a60a001518b60c001518c60e001518d6101000151604051602001610afb9a99989796959493929190998a5260208a01989098526040890196909652606088019490945260808701929092526001600160a01b031660a086015260c085015260e08401526101008301526101208201526101400190565b60405160208183030381529060405280519060200120610c27565b90506000610b248285610c61565b9050826001600160a01b0316816001600160a01b031614610b6b576040516310b5d43760e21b81526001600160a01b03808316600483015284166024820152604401610727565b505050505050565b600080610b8285610100611c2c565b90506000610b908288611c2c565b905087518110610bbb578787828660405163bdec9c0d60e01b81526004016107279493929190611c4e565b6000888281518110610bcf57610bcf6117cc565b602002602001015190506000878484610be89190611914565b610bf2908b611901565b610bfc9190611914565b9190911c8616935050505095945050505050565b600061a4b14614806108dc5750504662066eed1490565b6040517b0ca2ba3432b932bab69029b4b3b732b21026b2b9b9b0b3b29d05199960211b6020820152603c8101829052600090605c0161084d565b6000806000610c708585610c7d565b9150915061054381610cc2565b6000808251604103610cb35760208301516040840151606085015160001a610ca787828585610e76565b94509450505050610cbb565b506000905060025b9250929050565b6000816004811115610cd657610cd6611c7f565b03610cde5750565b6001816004811115610cf257610cf2611c7f565b03610d3a5760405162461bcd60e51b815260206004820152601860248201527745434453413a20696e76616c6964207369676e617475726560401b6044820152606401610727565b6002816004811115610d4e57610d4e611c7f565b03610d9b5760405162461bcd60e51b815260206004820152601f60248201527f45434453413a20696e76616c6964207369676e6174757265206c656e677468006044820152606401610727565b6003816004811115610daf57610daf611c7f565b03610e075760405162461bcd60e51b815260206004820152602260248201527f45434453413a20696e76616c6964207369676e6174757265202773272076616c604482015261756560f01b6064820152608401610727565b6004816004811115610e1b57610e1b611c7f565b03610e735760405162461bcd60e51b815260206004820152602260248201527f45434453413a20696e76616c6964207369676e6174757265202776272076616c604482015261756560f01b6064820152608401610727565b50565b6000806fa2a8918ca85bafe22016d0b997e4df60600160ff1b03831115610ea35750600090506003610f50565b8460ff16601b14158015610ebb57508460ff16601c14155b15610ecc5750600090506004610f50565b6040805160008082526020820180845289905260ff881692820192909252606081018690526080810185905260019060a0016020604051602081039080840390855afa158015610f20573d6000803e3d6000fd5b5050604051601f1901519150506001600160a01b038116610f4957600060019250925050610f50565b9150600090505b94509492505050565b6040518061012001604052806000815260200160008152602001600081526020016000801916815260200160006001600160a01b03168152602001600080191681526020016000815260200160008152602001600081525090565b6040518061012001604052806000801916815260200160008152602001600081526020016000815260200160008152602001606081526020016060815260200161100a6040518060200160405280600081525090565b81526020016110256040518060200160405280600081525090565b905290565b6001600160a01b0381168114610e7357600080fd5b634e487b7160e01b600052604160045260246000fd5b6040516101c081016001600160401b03811182821017156110785761107861103f565b60405290565b60405161012081016001600160401b03811182821017156110785761107861103f565b604051601f8201601f191681016001600160401b03811182821017156110c9576110c961103f565b604052919050565b60006001600160401b038211156110ea576110ea61103f565b5060051b60200190565b80356110ff8161102a565b919050565b600082601f83011261111557600080fd5b8135602061112a611125836110d1565b6110a1565b82815260059290921b8401810191818101908684111561114957600080fd5b8286015b8481101561116d5780356111608161102a565b835291830191830161114d565b509695505050505050565b600082601f83011261118957600080fd5b81356020611199611125836110d1565b82815260059290921b840181019181810190868411156111b857600080fd5b8286015b8481101561116d57803583529183019183016111bc565b600082601f8301126111e457600080fd5b81356001600160401b038111156111fd576111fd61103f565b611210601f8201601f19166020016110a1565b81815284602083860101111561122557600080fd5b816020850160208301376000918101602001919091529392505050565b600082601f83011261125357600080fd5b81356020611263611125836110d1565b82815260059290921b8401810191818101908684111561128257600080fd5b8286015b8481101561116d5780356001600160401b038111156112a55760008081fd5b6112b38986838b01016111d3565b845250918301918301611286565b60006101c082840312156112d457600080fd5b6112dc611055565b82358152905060208201356001600160401b03808211156112fc57600080fd5b61130885838601611104565b6020840152604084013591508082111561132157600080fd5b61132d85838601611178565b6040840152606084013591508082111561134657600080fd5b61135285838601611178565b6060840152608084013591508082111561136b57600080fd5b61137785838601611178565b608084015260a084013591508082111561139057600080fd5b61139c85838601611178565b60a084015260c08401359150808211156113b557600080fd5b6113c185838601611178565b60c084015260e08401359150808211156113da57600080fd5b6113e685838601611178565b60e08401526101009150818401358181111561140157600080fd5b61140d86828701611178565b83850152506101209150818401358181111561142857600080fd5b61143486828701611178565b83850152506101409150818401358181111561144f57600080fd5b61145b86828701611242565b83850152506101609150818401358181111561147657600080fd5b61148286828701611104565b83850152506101809150818401358181111561149d57600080fd5b6114a986828701611104565b83850152506101a0915081840135818111156114c457600080fd5b6114d086828701611242565b8385015250505092915050565b600080604083850312156114f057600080fd5b82356114fb8161102a565b915060208301356001600160401b0381111561151657600080fd5b611522858286016112c1565b9150509250929050565b602080825282518282018190526000919060409081850190868401855b828110156115c05781518051855286810151878601528581015186860152606080820151908601526080808201516001600160a01b03169086015260a0808201519086015260c0808201519086015260e0808201519086015261010090810151908501526101209093019290850190600101611549565b5091979650505050505050565b600080604083850312156115e057600080fd5b82356115eb8161102a565b915060208301356115fb8161102a565b809150509250929050565b6000610120828403121561161957600080fd5b61162161107e565b905081358152602082013560208201526040820135604082015260608201356060820152611651608083016110f4565b608082015260a082013560a082015260c082013560c082015260e082013560e082015261010080830135818301525092915050565b600080600080610180858703121561169d57600080fd5b843593506116ae8660208701611606565b92506101408501356001600160401b038111156116ca57600080fd5b6116d6878288016111d3565b9250506101608501356116e88161102a565b939692955090935050565b6000806000806080858703121561170957600080fd5b84356117148161102a565b935060208501356117248161102a565b925060408501356117348161102a565b915060608501356001600160401b0381111561174f57600080fd5b61175b878288016112c1565b91505092959194509250565b6000806000610160848603121561177d57600080fd5b6117878585611606565b92506101208401356001600160401b038111156117a357600080fd5b6117af868287016111d3565b9250506101408401356117c18161102a565b809150509250925092565b634e487b7160e01b600052603260045260246000fd5b634e487b7160e01b600052601160045260246000fd5b600181815b80851115611833578160001904821115611819576118196117e2565b8085161561182657918102915b93841c93908002906117fd565b509250929050565b60008261184a57506001610547565b8161185757506000610547565b816001811461186d576002811461187757611893565b6001915050610547565b60ff841115611888576118886117e2565b50506001821b610547565b5060208310610133831016604e8410600b84101617156118b6575081810a610547565b6118c083836117f8565b80600019048211156118d4576118d46117e2565b029392505050565b60006105c6838361183b565b6000602082840312156118fa57600080fd5b5051919050565b81810381811115610547576105476117e2565b8082028115828204841417610547576105476117e2565b80820180821115610547576105476117e2565b600060018201611950576119506117e2565b5060010190565b600081518084526020808501945080840160005b838110156119905781516001600160a01b03168752958201959082019060010161196b565b509495945050505050565b600081518084526020808501945080840160005b83811015611990578151875295820195908201906001016119af565b6000815180845260005b818110156119f1576020818501810151868301820152016119d5565b506000602082860101526020601f19601f83011685010191505092915050565b600081518084526020808501808196508360051b8101915082860160005b858110156115c0578284038952611a478483516119cb565b98850198935090840190600101611a2f565b600060018060a01b038086168352808516602084015250606060408301528251606083015260208301516101c0806080850152611a9a610220850183611957565b91506040850151605f19808685030160a0870152611ab8848361199b565b935060608701519150808685030160c0870152611ad5848361199b565b935060808701519150808685030160e0870152611af2848361199b565b935060a08701519150610100818786030181880152611b11858461199b565b945060c08801519250610120828887030181890152611b30868561199b565b955060e089015193506101408389880301818a0152611b4f878661199b565b9650828a0151945061016092508389880301838a0152611b6f878661199b565b9650818a0151945061018091508389880301828a0152611b8f878661199b565b9650808a01519450506101a08389880301818a0152611bae8786611a11565b9650828a015194508389880301868a0152611bc98786611957565b9650818a0151955083898803016101e08a0152611be68787611957565b9650808a0151955050505080868503016102008701525050611c088282611a11565b979650505050505050565b8281526040602082015260006107e660408301846119cb565b600082611c4957634e487b7160e01b600052601260045260246000fd5b500490565b608081526000611c61608083018761199b565b8560208401528460408401528281036060840152611c0881856119cb565b634e487b7160e01b600052602160045260246000fdfea264697066735822122019e40c542209590212069fab5d0ee7ca85e1f06ef7391298510c7213fa35494264736f6c63430008120033",
  "linkReferences": {},
  "deployedLinkReferences": {}
}