{
  "_format": "hh-sol-artifact-1",
  "contractName": "OracleStore",
  "sourceName": "contracts/oracle/OracleStore.sol",
  "abi": [
    {
      "inputs": [
        {
          "internalType": "contract RoleStore",
          "name": "_roleStore",
          "type": "address"
        },
        {
          "internalType": "contract EventEmitter",
          "name": "_eventEmitter",
          "type": "address"
        }
      ],
      "stateMutability": "nonpayable",
      "type": "constructor"
    },
    {
      "inputs": [
        {
          "internalType": "address",
          "name": "msgSender",
          "type": "address"
        },
        {
          "internalType": "string",
          "name": "role",
          "type": "string"
        }
      ],
      "name": "Unauthorized",
      "type": "error"
    },
    {
      "inputs": [
        {
          "internalType": "address",
          "name": "account",
          "type": "address"
        }
      ],
      "name": "addSigner",
      "outputs": [],
      "stateMutability": "nonpayable",
      "type": "function"
    },
    {
      "inputs": [],
      "name": "eventEmitter",
      "outputs": [
        {
          "internalType": "contract EventEmitter",
          "name": "",
          "type": "address"
        }
      ],
      "stateMutability": "view",
      "type": "function"
    },
    {
      "inputs": [
        {
          "internalType": "uint256",
          "name": "index",
          "type": "uint256"
        }
      ],
      "name": "getSigner",
      "outputs": [
        {
          "internalType": "address",
          "name": "",
          "type": "address"
        }
      ],
      "stateMutability": "view",
      "type": "function"
    },
    {
      "inputs": [],
      "name": "getSignerCount",
      "outputs": [
        {
          "internalType": "uint256",
          "name": "",
          "type": "uint256"
        }
      ],
      "stateMutability": "view",
      "type": "function"
    },
    {
      "inputs": [
        {
          "internalType": "uint256",
          "name": "start",
          "type": "uint256"
        },
        {
          "internalType": "uint256",
          "name": "end",
          "type": "uint256"
        }
      ],
      "name": "getSigners",
      "outputs": [
        {
          "internalType": "address[]",
          "name": "",
          "type": "address[]"
        }
      ],
      "stateMutability": "view",
      "type": "function"
    },
    {
      "inputs": [
        {
          "internalType": "address",
          "name": "account",
          "type": "address"
        }
      ],
      "name": "removeSigner",
      "outputs": [],
      "stateMutability": "nonpayable",
      "type": "function"
    },
    {
      "inputs": [],
      "name": "roleStore",
      "outputs": [
        {
          "internalType": "contract RoleStore",
          "name": "",
          "type": "address"
        }
      ],
      "stateMutability": "view",
      "type": "function"
    }
  ],
  "bytecode": "0x60c060405234801561001057600080fd5b506040516114d43803806114d483398101604081905261002f9161005e565b6001600160a01b039182166080521660a052610098565b6001600160a01b038116811461005b57600080fd5b50565b6000806040838503121561007157600080fd5b825161007c81610046565b602084015190925061008d81610046565b809150509250929050565b60805160a0516114046100d06000396000818160e3015281816101ee015261031201526000818160bc015261038201526114046000f3fe608060405234801561001057600080fd5b506004361061006d5760003560e01c80630e316ab7146100725780633ffefe4e146100875780634a4a7b04146100b75780639ff78c30146100de578063b715be8114610105578063daf6faa61461011b578063eb12d61e1461013b575b600080fd5b61008561008036600461085b565b61014e565b005b61009a610095366004610884565b610278565b6040516001600160a01b0390911681526020015b60405180910390f35b61009a7f000000000000000000000000000000000000000000000000000000000000000081565b61009a7f000000000000000000000000000000000000000000000000000000000000000081565b61010d61028a565b6040519081526020016100ae565b61012e61012936600461089d565b61029b565b6040516100ae91906108bf565b61008561014936600461085b565b6102b0565b61019e6040516020016101609061090c565b604051602081830303815290604052805190602001206040518060400160405280600a81526020016921a7a72a2927a62622a960b11b815250610366565b6101a9600082610423565b506101b261076a565b80516101bf906001610438565b6040805180820190915260078152661858d8dbdd5b9d60ca1b602082015281516101ec916000908561049d565b7f00000000000000000000000000000000000000000000000000000000000000006001600160a01b03166324de01e4610224846104fa565b836040518363ffffffff1660e01b8152600401610242929190611284565b600060405180830381600087803b15801561025c57600080fd5b505af1158015610270573d6000803e3d6000fd5b505050505050565b60006102848183610506565b92915050565b60006102966000610512565b905090565b60606102a96000848461051c565b9392505050565b6102c26040516020016101609061090c565b6102cd6000826105e9565b506102d661076a565b80516102e3906001610438565b6040805180820190915260078152661858d8dbdd5b9d60ca1b60208201528151610310916000908561049d565b7f00000000000000000000000000000000000000000000000000000000000000006001600160a01b03166324de01e4610348846104fa565b836040518363ffffffff1660e01b81526004016102429291906112c9565b60405163ac4ab3fb60e01b8152336004820152602481018390527f00000000000000000000000000000000000000000000000000000000000000006001600160a01b03169063ac4ab3fb90604401602060405180830381865afa1580156103d1573d6000803e3d6000fd5b505050506040513d601f19601f820116820180604052508101906103f59190611304565b61041f57338160405163a35b150b60e01b8152600401610416929190611326565b60405180910390fd5b5050565b60006102a9836001600160a01b0384166105fe565b806001600160401b038111156104505761045061134a565b60405190808252806020026020018201604052801561049657816020015b60408051808201909152606081526000602082015281526020019060019003908161046e5790505b5090915250565b81846000015184815181106104b4576104b4611360565b60200260200101516000018190525080846000015184815181106104da576104da611360565b6020908102919091018101516001600160a01b0390921691015250505050565b6001600160a01b031690565b60006102a983836106f1565b6000610284825490565b6060600061052985610512565b905080831115610537578092505b6000610543858561138c565b6001600160401b0381111561055a5761055a61134a565b604051908082528060200260200182016040528015610583578160200160208202803683370190505b509050845b848110156105df5761059a8782610506565b826105a5888461138c565b815181106105b5576105b5611360565b6001600160a01b0390921660209283029190910190910152806105d78161139f565b915050610588565b5095945050505050565b60006102a9836001600160a01b03841661071b565b600081815260018301602052604081205480156106e757600061062260018361138c565b85549091506000906106369060019061138c565b905081811461069b57600086600001828154811061065657610656611360565b906000526020600020015490508087600001848154811061067957610679611360565b6000918252602080832090910192909255918252600188019052604090208390555b85548690806106ac576106ac6113b8565b600190038181906000526020600020016000905590558560010160008681526020019081526020016000206000905560019350505050610284565b6000915050610284565b600082600001828154811061070857610708611360565b9060005260206000200154905092915050565b600081815260018301602052604081205461076257508154600181810184556000848152602080822090930184905584548482528286019093526040902091909155610284565b506000610284565b604080516101208101909152606060e08201818152610100830191909152819081526020016107ac604051806040016040528060608152602001606081525090565b81526020016107ce604051806040016040528060608152602001606081525090565b81526020016107f0604051806040016040528060608152602001606081525090565b8152602001610812604051806040016040528060608152602001606081525090565b8152602001610834604051806040016040528060608152602001606081525090565b8152602001610856604051806040016040528060608152602001606081525090565b905290565b60006020828403121561086d57600080fd5b81356001600160a01b03811681146102a957600080fd5b60006020828403121561089657600080fd5b5035919050565b600080604083850312156108b057600080fd5b50508035926020909101359150565b6020808252825182820181905260009190848201906040850190845b818110156109005783516001600160a01b0316835292840192918401916001016108db565b50909695505050505050565b6020808252600a908201526921a7a72a2927a62622a960b11b604082015260600190565b6000815180845260005b818110156109565760208185018101518683018201520161093a565b506000602082860101526020601f19601f83011685010191505092915050565b600081518084526020808501808196508360051b810191508286016000805b86811015610a11578385038a528251604081518188526109b782890182610930565b92890151888403898b01528051808552908a01938693508a0191505b808310156109fc5783516001600160a01b031682529289019260019290920191908901906109d3565b509b88019b9650505091850191600101610995565b509298975050505050505050565b60006040808401835182865281815180845260608801915060608160051b89010193506020808401935060005b82811015610a9657898603605f1901845284518051888852610a7089890182610930565b918401516001600160a01b03169784019790975295509381019392810192600101610a4c565b50808801519550888503818a015250505050610ab28183610976565b95945050505050565b600082825180855260208086019550808260051b8401018186016000805b85811015610b5057601f19878503018a52825160408151818752610aff82880182610930565b92880151878403888a0152805180855290890193869350890191505b80831015610b3b5783518252928801926001929092019190880190610b1b565b509b87019b9550505091840191600101610ad9565b509198975050505050505050565b60006040808401835182865281815180845260608801915060608160051b89010193506020808401935060005b82811015610bcc57898603605f1901845284518051888852610baf89890182610930565b918401519784019790975295509381019392810192600101610b8b565b50808801519550888503818a015250505050610ab28183610abb565b6000815180845260208085019450848260051b86018286016000805b86811015610b50578484038a52825160408151818752610c2682880182610930565b92890151878403888b01528051808552908a01938693508a0191505b80831015610c625783518252928901926001929092019190890190610c42565b509b88019b9550505091850191600101610c04565b60006040808401835182865281815180845260608801915060608160051b89010193506020808401935060005b82811015610ce557898603605f1901845284518051888852610cc889890182610930565b918401519784019790975295509381019392810192600101610ca4565b50808801519550888503818a015250505050610ab28183610be8565b600081518084526020808501808196508360051b810191508286016000805b86811015610a11578385038a52825160408151818852610d4282890182610930565b92890151888403898b01528051808552908a01938693508a0191505b80831015610d8057835115158252928901926001929092019190890190610d5e565b509b88019b9650505091850191600101610d20565b60006040808401835182865281815180845260608801915060608160051b89010193506020808401935060005b82811015610e0557898603605f1901845284518051888852610de689890182610930565b9184015115159784019790975295509381019392810192600101610dc2565b50808801519550888503818a015250505050610ab28183610d01565b600081518084526020808501808196508360051b810191508286016000805b86811015610a11578385038a52825160408151818852610e6282890182610930565b92890151888403898b01528051808552908a01938693508a0191505b80831015610e9e5783518252928901926001929092019190890190610e7e565b509b88019b9650505091850191600101610e40565b60006040808401835182865281815180845260608801915060608160051b89010193506020808401935060005b82811015610f2157898603605f1901845284518051888852610f0489890182610930565b918401519784019790975295509381019392810192600101610ee0565b50808801519550888503818a015250505050610ab28183610e21565b600081518084526020808501808196506005915083821b81018387016000805b87811015610fe8578484038b52825160408151818752610f7f82880182610930565b928a0151878403888c01528051808552908b019392508a83019150808a1b83018b01865b82811015610fd157601f19858303018452610fbf828751610930565b958d0195938d01939150600101610fa3565b509e8b019e97505050938801935050600101610f5d565b50919998505050505050505050565b60006040808401835182865281815180845260608801915060608160051b89010193506020808401935060005b8281101561107457898603605f190184528451805188885261104889890182610930565b91840151888303898601529190506110608183610930565b975050509381019392810192600101611024565b50808801519550888503818a015250505050610ab28183610f3d565b600081518084526020808501808196506005915083821b81018387016000805b87811015610fe8578484038b528251604081518187526110d282880182610930565b928a0151878403888c01528051808552908b019392508a83019150808a1b83018b01865b8281101561112457601f19858303018452611112828751610930565b958d0195938d019391506001016110f6565b509e8b019e975050509388019350506001016110b0565b60006040808401835182865281815180845260608801915060608160051b89010193506020808401935060005b828110156111b857898603605f190184528451805188885261118c89890182610930565b91840151888303898601529190506111a48183610930565b975050509381019392810192600101611168565b50808801519550888503818a015250505050610ab28183611090565b6000815160e084526111e960e0850182610a1f565b9050602083015184820360208601526112028282610b5e565b9150506040830151848203604086015261121c8282610c77565b915050606083015184820360608601526112368282610d95565b915050608083015184820360808601526112508282610eb3565b91505060a083015184820360a086015261126a8282610ff7565b91505060c083015184820360c0860152610ab2828261113b565b60608152600d60608201526c14da59db995c94995b5bdd9959609a1b608082015282602082015260a0604082015260006112c160a08301846111d4565b949350505050565b60608152600b60608201526a14da59db995c905919195960aa1b608082015282602082015260a0604082015260006112c160a08301846111d4565b60006020828403121561131657600080fd5b815180151581146102a957600080fd5b6001600160a01b03831681526040602082018190526000906112c190830184610930565b634e487b7160e01b600052604160045260246000fd5b634e487b7160e01b600052603260045260246000fd5b634e487b7160e01b600052601160045260246000fd5b8181038181111561028457610284611376565b6000600182016113b1576113b1611376565b5060010190565b634e487b7160e01b600052603160045260246000fdfea2646970667358221220462ea60f9d252ca674d04ad41e9eebe8ccba401e297142e8898d738a9aff591564736f6c63430008120033",
  "linkReferences": {},
  "deployedLinkReferences": {}
}