{
  "_format": "hh-sol-artifact-1",
  "contractName": "ExchangeRouter",
  "sourceName": "contracts/router/ExchangeRouter.sol",
  "abi": [
    {
      "inputs": [
        {
          "internalType": "contract Router",
          "name": "_router",
          "type": "address"
        },
        {
          "internalType": "contract RoleStore",
          "name": "_roleStore",
          "type": "address"
        },
        {
          "internalType": "contract DataStore",
          "name": "_dataStore",
          "type": "address"
        },
        {
          "internalType": "contract EventEmitter",
          "name": "_eventEmitter",
          "type": "address"
        },
        {
          "internalType": "contract IDepositHandler",
          "name": "_depositHandler",
          "type": "address"
        },
        {
          "internalType": "contract IWithdrawalHandler",
          "name": "_withdrawalHandler",
          "type": "address"
        },
        {
          "internalType": "contract IOrderHandler",
          "name": "_orderHandler",
          "type": "address"
        }
      ],
      "stateMutability": "nonpayable",
      "type": "constructor"
    },
    {
      "inputs": [
        {
          "internalType": "uint256",
          "name": "adjustedClaimableAmount",
          "type": "uint256"
        },
        {
          "internalType": "uint256",
          "name": "claimedAmount",
          "type": "uint256"
        }
      ],
      "name": "CollateralAlreadyClaimed",
      "type": "error"
    },
    {
      "inputs": [
        {
          "internalType": "bytes32",
          "name": "key",
          "type": "bytes32"
        }
      ],
      "name": "DisabledFeature",
      "type": "error"
    },
    {
      "inputs": [
        {
          "internalType": "address",
          "name": "market",
          "type": "address"
        }
      ],
      "name": "DisabledMarket",
      "type": "error"
    },
    {
      "inputs": [
        {
          "internalType": "address",
          "name": "market",
          "type": "address"
        },
        {
          "internalType": "address",
          "name": "token",
          "type": "address"
        }
      ],
      "name": "EmptyAddressInMarketTokenBalanceValidation",
      "type": "error"
    },
    {
      "inputs": [],
      "name": "EmptyDeposit",
      "type": "error"
    },
    {
      "inputs": [],
      "name": "EmptyHoldingAddress",
      "type": "error"
    },
    {
      "inputs": [],
      "name": "EmptyMarket",
      "type": "error"
    },
    {
      "inputs": [],
      "name": "EmptyOrder",
      "type": "error"
    },
    {
      "inputs": [],
      "name": "EmptyReceiver",
      "type": "error"
    },
    {
      "inputs": [
        {
          "internalType": "address",
          "name": "token",
          "type": "address"
        }
      ],
      "name": "EmptyTokenTranferGasLimit",
      "type": "error"
    },
    {
      "inputs": [
        {
          "internalType": "uint256",
          "name": "marketsLength",
          "type": "uint256"
        },
        {
          "internalType": "uint256",
          "name": "tokensLength",
          "type": "uint256"
        }
      ],
      "name": "InvalidClaimAffiliateRewardsInput",
      "type": "error"
    },
    {
      "inputs": [
        {
          "internalType": "uint256",
          "name": "marketsLength",
          "type": "uint256"
        },
        {
          "internalType": "uint256",
          "name": "tokensLength",
          "type": "uint256"
        },
        {
          "internalType": "uint256",
          "name": "timeKeysLength",
          "type": "uint256"
        }
      ],
      "name": "InvalidClaimCollateralInput",
      "type": "error"
    },
    {
      "inputs": [
        {
          "internalType": "uint256",
          "name": "marketsLength",
          "type": "uint256"
        },
        {
          "internalType": "uint256",
          "name": "tokensLength",
          "type": "uint256"
        }
      ],
      "name": "InvalidClaimFundingFeesInput",
      "type": "error"
    },
    {
      "inputs": [
        {
          "internalType": "uint256",
          "name": "marketsLength",
          "type": "uint256"
        },
        {
          "internalType": "uint256",
          "name": "tokensLength",
          "type": "uint256"
        }
      ],
      "name": "InvalidClaimUiFeesInput",
      "type": "error"
    },
    {
      "inputs": [
        {
          "internalType": "address",
          "name": "market",
          "type": "address"
        },
        {
          "internalType": "address",
          "name": "token",
          "type": "address"
        },
        {
          "internalType": "uint256",
          "name": "balance",
          "type": "uint256"
        },
        {
          "internalType": "uint256",
          "name": "expectedMinBalance",
          "type": "uint256"
        }
      ],
      "name": "InvalidMarketTokenBalance",
      "type": "error"
    },
    {
      "inputs": [
        {
          "internalType": "address",
          "name": "market",
          "type": "address"
        },
        {
          "internalType": "address",
          "name": "token",
          "type": "address"
        },
        {
          "internalType": "uint256",
          "name": "balance",
          "type": "uint256"
        },
        {
          "internalType": "uint256",
          "name": "claimableFundingFeeAmount",
          "type": "uint256"
        }
      ],
      "name": "InvalidMarketTokenBalanceForClaimableFunding",
      "type": "error"
    },
    {
      "inputs": [
        {
          "internalType": "address",
          "name": "market",
          "type": "address"
        },
        {
          "internalType": "address",
          "name": "token",
          "type": "address"
        },
        {
          "internalType": "uint256",
          "name": "balance",
          "type": "uint256"
        },
        {
          "internalType": "uint256",
          "name": "collateralAmount",
          "type": "uint256"
        }
      ],
      "name": "InvalidMarketTokenBalanceForCollateralAmount",
      "type": "error"
    },
    {
      "inputs": [
        {
          "internalType": "uint256",
          "name": "uiFeeFactor",
          "type": "uint256"
        },
        {
          "internalType": "uint256",
          "name": "maxUiFeeFactor",
          "type": "uint256"
        }
      ],
      "name": "InvalidUiFeeFactor",
      "type": "error"
    },
    {
      "inputs": [
        {
          "internalType": "address",
          "name": "token",
          "type": "address"
        },
        {
          "internalType": "address",
          "name": "receiver",
          "type": "address"
        },
        {
          "internalType": "uint256",
          "name": "amount",
          "type": "uint256"
        }
      ],
      "name": "TokenTransferError",
      "type": "error"
    },
    {
      "inputs": [
        {
          "internalType": "address",
          "name": "msgSender",
          "type": "address"
        },
        {
          "internalType": "string",
          "name": "role",
          "type": "string"
        }
      ],
      "name": "Unauthorized",
      "type": "error"
    },
    {
      "inputs": [
        {
          "internalType": "bytes32",
          "name": "key",
          "type": "bytes32"
        }
      ],
      "name": "cancelDeposit",
      "outputs": [],
      "stateMutability": "payable",
      "type": "function"
    },
    {
      "inputs": [
        {
          "internalType": "bytes32",
          "name": "key",
          "type": "bytes32"
        }
      ],
      "name": "cancelOrder",
      "outputs": [],
      "stateMutability": "payable",
      "type": "function"
    },
    {
      "inputs": [
        {
          "internalType": "bytes32",
          "name": "key",
          "type": "bytes32"
        }
      ],
      "name": "cancelWithdrawal",
      "outputs": [],
      "stateMutability": "payable",
      "type": "function"
    },
    {
      "inputs": [
        {
          "internalType": "address[]",
          "name": "markets",
          "type": "address[]"
        },
        {
          "internalType": "address[]",
          "name": "tokens",
          "type": "address[]"
        },
        {
          "internalType": "address",
          "name": "receiver",
          "type": "address"
        }
      ],
      "name": "claimAffiliateRewards",
      "outputs": [
        {
          "internalType": "uint256[]",
          "name": "",
          "type": "uint256[]"
        }
      ],
      "stateMutability": "payable",
      "type": "function"
    },
    {
      "inputs": [
        {
          "internalType": "address[]",
          "name": "markets",
          "type": "address[]"
        },
        {
          "internalType": "address[]",
          "name": "tokens",
          "type": "address[]"
        },
        {
          "internalType": "uint256[]",
          "name": "timeKeys",
          "type": "uint256[]"
        },
        {
          "internalType": "address",
          "name": "receiver",
          "type": "address"
        }
      ],
      "name": "claimCollateral",
      "outputs": [
        {
          "internalType": "uint256[]",
          "name": "",
          "type": "uint256[]"
        }
      ],
      "stateMutability": "payable",
      "type": "function"
    },
    {
      "inputs": [
        {
          "internalType": "address[]",
          "name": "markets",
          "type": "address[]"
        },
        {
          "internalType": "address[]",
          "name": "tokens",
          "type": "address[]"
        },
        {
          "internalType": "address",
          "name": "receiver",
          "type": "address"
        }
      ],
      "name": "claimFundingFees",
      "outputs": [
        {
          "internalType": "uint256[]",
          "name": "",
          "type": "uint256[]"
        }
      ],
      "stateMutability": "payable",
      "type": "function"
    },
    {
      "inputs": [
        {
          "internalType": "address[]",
          "name": "markets",
          "type": "address[]"
        },
        {
          "internalType": "address[]",
          "name": "tokens",
          "type": "address[]"
        },
        {
          "internalType": "address",
          "name": "receiver",
          "type": "address"
        }
      ],
      "name": "claimUiFees",
      "outputs": [
        {
          "internalType": "uint256[]",
          "name": "",
          "type": "uint256[]"
        }
      ],
      "stateMutability": "payable",
      "type": "function"
    },
    {
      "inputs": [
        {
          "components": [
            {
              "internalType": "address",
              "name": "receiver",
              "type": "address"
            },
            {
              "internalType": "address",
              "name": "callbackContract",
              "type": "address"
            },
            {
              "internalType": "address",
              "name": "uiFeeReceiver",
              "type": "address"
            },
            {
              "internalType": "address",
              "name": "market",
              "type": "address"
            },
            {
              "internalType": "address",
              "name": "initialLongToken",
              "type": "address"
            },
            {
              "internalType": "address",
              "name": "initialShortToken",
              "type": "address"
            },
            {
              "internalType": "address[]",
              "name": "longTokenSwapPath",
              "type": "address[]"
            },
            {
              "internalType": "address[]",
              "name": "shortTokenSwapPath",
              "type": "address[]"
            },
            {
              "internalType": "uint256",
              "name": "minMarketTokens",
              "type": "uint256"
            },
            {
              "internalType": "bool",
              "name": "shouldUnwrapNativeToken",
              "type": "bool"
            },
            {
              "internalType": "uint256",
              "name": "executionFee",
              "type": "uint256"
            },
            {
              "internalType": "uint256",
              "name": "callbackGasLimit",
              "type": "uint256"
            }
          ],
          "internalType": "struct DepositUtils.CreateDepositParams",
          "name": "params",
          "type": "tuple"
        }
      ],
      "name": "createDeposit",
      "outputs": [
        {
          "internalType": "bytes32",
          "name": "",
          "type": "bytes32"
        }
      ],
      "stateMutability": "payable",
      "type": "function"
    },
    {
      "inputs": [
        {
          "components": [
            {
              "components": [
                {
                  "internalType": "address",
                  "name": "receiver",
                  "type": "address"
                },
                {
                  "internalType": "address",
                  "name": "callbackContract",
                  "type": "address"
                },
                {
                  "internalType": "address",
                  "name": "uiFeeReceiver",
                  "type": "address"
                },
                {
                  "internalType": "address",
                  "name": "market",
                  "type": "address"
                },
                {
                  "internalType": "address",
                  "name": "initialCollateralToken",
                  "type": "address"
                },
                {
                  "internalType": "address[]",
                  "name": "swapPath",
                  "type": "address[]"
                }
              ],
              "internalType": "struct BaseOrderUtils.CreateOrderParamsAddresses",
              "name": "addresses",
              "type": "tuple"
            },
            {
              "components": [
                {
                  "internalType": "uint256",
                  "name": "sizeDeltaUsd",
                  "type": "uint256"
                },
                {
                  "internalType": "uint256",
                  "name": "initialCollateralDeltaAmount",
                  "type": "uint256"
                },
                {
                  "internalType": "uint256",
                  "name": "triggerPrice",
                  "type": "uint256"
                },
                {
                  "internalType": "uint256",
                  "name": "acceptablePrice",
                  "type": "uint256"
                },
                {
                  "internalType": "uint256",
                  "name": "executionFee",
                  "type": "uint256"
                },
                {
                  "internalType": "uint256",
                  "name": "callbackGasLimit",
                  "type": "uint256"
                },
                {
                  "internalType": "uint256",
                  "name": "minOutputAmount",
                  "type": "uint256"
                }
              ],
              "internalType": "struct BaseOrderUtils.CreateOrderParamsNumbers",
              "name": "numbers",
              "type": "tuple"
            },
            {
              "internalType": "enum Order.OrderType",
              "name": "orderType",
              "type": "uint8"
            },
            {
              "internalType": "enum Order.DecreasePositionSwapType",
              "name": "decreasePositionSwapType",
              "type": "uint8"
            },
            {
              "internalType": "bool",
              "name": "isLong",
              "type": "bool"
            },
            {
              "internalType": "bool",
              "name": "shouldUnwrapNativeToken",
              "type": "bool"
            },
            {
              "internalType": "bytes32",
              "name": "referralCode",
              "type": "bytes32"
            }
          ],
          "internalType": "struct BaseOrderUtils.CreateOrderParams",
          "name": "params",
          "type": "tuple"
        }
      ],
      "name": "createOrder",
      "outputs": [
        {
          "internalType": "bytes32",
          "name": "",
          "type": "bytes32"
        }
      ],
      "stateMutability": "payable",
      "type": "function"
    },
    {
      "inputs": [
        {
          "components": [
            {
              "internalType": "address",
              "name": "receiver",
              "type": "address"
            },
            {
              "internalType": "address",
              "name": "callbackContract",
              "type": "address"
            },
            {
              "internalType": "address",
              "name": "uiFeeReceiver",
              "type": "address"
            },
            {
              "internalType": "address",
              "name": "market",
              "type": "address"
            },
            {
              "internalType": "address[]",
              "name": "longTokenSwapPath",
              "type": "address[]"
            },
            {
              "internalType": "address[]",
              "name": "shortTokenSwapPath",
              "type": "address[]"
            },
            {
              "internalType": "uint256",
              "name": "minLongTokenAmount",
              "type": "uint256"
            },
            {
              "internalType": "uint256",
              "name": "minShortTokenAmount",
              "type": "uint256"
            },
            {
              "internalType": "bool",
              "name": "shouldUnwrapNativeToken",
              "type": "bool"
            },
            {
              "internalType": "uint256",
              "name": "executionFee",
              "type": "uint256"
            },
            {
              "internalType": "uint256",
              "name": "callbackGasLimit",
              "type": "uint256"
            }
          ],
          "internalType": "struct WithdrawalUtils.CreateWithdrawalParams",
          "name": "params",
          "type": "tuple"
        }
      ],
      "name": "createWithdrawal",
      "outputs": [
        {
          "internalType": "bytes32",
          "name": "",
          "type": "bytes32"
        }
      ],
      "stateMutability": "payable",
      "type": "function"
    },
    {
      "inputs": [],
      "name": "dataStore",
      "outputs": [
        {
          "internalType": "contract DataStore",
          "name": "",
          "type": "address"
        }
      ],
      "stateMutability": "view",
      "type": "function"
    },
    {
      "inputs": [],
      "name": "depositHandler",
      "outputs": [
        {
          "internalType": "contract IDepositHandler",
          "name": "",
          "type": "address"
        }
      ],
      "stateMutability": "view",
      "type": "function"
    },
    {
      "inputs": [],
      "name": "eventEmitter",
      "outputs": [
        {
          "internalType": "contract EventEmitter",
          "name": "",
          "type": "address"
        }
      ],
      "stateMutability": "view",
      "type": "function"
    },
    {
      "inputs": [
        {
          "internalType": "bytes[]",
          "name": "data",
          "type": "bytes[]"
        }
      ],
      "name": "multicall",
      "outputs": [
        {
          "internalType": "bytes[]",
          "name": "results",
          "type": "bytes[]"
        }
      ],
      "stateMutability": "payable",
      "type": "function"
    },
    {
      "inputs": [],
      "name": "orderHandler",
      "outputs": [
        {
          "internalType": "contract IOrderHandler",
          "name": "",
          "type": "address"
        }
      ],
      "stateMutability": "view",
      "type": "function"
    },
    {
      "inputs": [],
      "name": "roleStore",
      "outputs": [
        {
          "internalType": "contract RoleStore",
          "name": "",
          "type": "address"
        }
      ],
      "stateMutability": "view",
      "type": "function"
    },
    {
      "inputs": [],
      "name": "router",
      "outputs": [
        {
          "internalType": "contract Router",
          "name": "",
          "type": "address"
        }
      ],
      "stateMutability": "view",
      "type": "function"
    },
    {
      "inputs": [
        {
          "internalType": "address",
          "name": "token",
          "type": "address"
        },
        {
          "internalType": "address",
          "name": "receiver",
          "type": "address"
        },
        {
          "internalType": "uint256",
          "name": "amount",
          "type": "uint256"
        }
      ],
      "name": "sendTokens",
      "outputs": [],
      "stateMutability": "payable",
      "type": "function"
    },
    {
      "inputs": [
        {
          "internalType": "address",
          "name": "receiver",
          "type": "address"
        },
        {
          "internalType": "uint256",
          "name": "amount",
          "type": "uint256"
        }
      ],
      "name": "sendWnt",
      "outputs": [],
      "stateMutability": "payable",
      "type": "function"
    },
    {
      "inputs": [
        {
          "internalType": "address",
          "name": "market",
          "type": "address"
        },
        {
          "internalType": "address",
          "name": "callbackContract",
          "type": "address"
        }
      ],
      "name": "setSavedCallbackContract",
      "outputs": [],
      "stateMutability": "payable",
      "type": "function"
    },
    {
      "inputs": [
        {
          "internalType": "uint256",
          "name": "uiFeeFactor",
          "type": "uint256"
        }
      ],
      "name": "setUiFeeFactor",
      "outputs": [],
      "stateMutability": "payable",
      "type": "function"
    },
    {
      "inputs": [
        {
          "internalType": "bytes32",
          "name": "key",
          "type": "bytes32"
        },
        {
          "components": [
            {
              "internalType": "address[]",
              "name": "primaryTokens",
              "type": "address[]"
            },
            {
              "components": [
                {
                  "internalType": "uint256",
                  "name": "min",
                  "type": "uint256"
                },
                {
                  "internalType": "uint256",
                  "name": "max",
                  "type": "uint256"
                }
              ],
              "internalType": "struct Price.Props[]",
              "name": "primaryPrices",
              "type": "tuple[]"
            }
          ],
          "internalType": "struct OracleUtils.SimulatePricesParams",
          "name": "simulatedOracleParams",
          "type": "tuple"
        }
      ],
      "name": "simulateExecuteDeposit",
      "outputs": [],
      "stateMutability": "payable",
      "type": "function"
    },
    {
      "inputs": [
        {
          "internalType": "bytes32",
          "name": "key",
          "type": "bytes32"
        },
        {
          "components": [
            {
              "internalType": "address[]",
              "name": "primaryTokens",
              "type": "address[]"
            },
            {
              "components": [
                {
                  "internalType": "uint256",
                  "name": "min",
                  "type": "uint256"
                },
                {
                  "internalType": "uint256",
                  "name": "max",
                  "type": "uint256"
                }
              ],
              "internalType": "struct Price.Props[]",
              "name": "primaryPrices",
              "type": "tuple[]"
            }
          ],
          "internalType": "struct OracleUtils.SimulatePricesParams",
          "name": "simulatedOracleParams",
          "type": "tuple"
        }
      ],
      "name": "simulateExecuteOrder",
      "outputs": [],
      "stateMutability": "payable",
      "type": "function"
    },
    {
      "inputs": [
        {
          "internalType": "bytes32",
          "name": "key",
          "type": "bytes32"
        },
        {
          "components": [
            {
              "internalType": "address[]",
              "name": "primaryTokens",
              "type": "address[]"
            },
            {
              "components": [
                {
                  "internalType": "uint256",
                  "name": "min",
                  "type": "uint256"
                },
                {
                  "internalType": "uint256",
                  "name": "max",
                  "type": "uint256"
                }
              ],
              "internalType": "struct Price.Props[]",
              "name": "primaryPrices",
              "type": "tuple[]"
            }
          ],
          "internalType": "struct OracleUtils.SimulatePricesParams",
          "name": "simulatedOracleParams",
          "type": "tuple"
        }
      ],
      "name": "simulateExecuteWithdrawal",
      "outputs": [],
      "stateMutability": "payable",
      "type": "function"
    },
    {
      "inputs": [
        {
          "internalType": "bytes32",
          "name": "key",
          "type": "bytes32"
        },
        {
          "internalType": "uint256",
          "name": "sizeDeltaUsd",
          "type": "uint256"
        },
        {
          "internalType": "uint256",
          "name": "acceptablePrice",
          "type": "uint256"
        },
        {
          "internalType": "uint256",
          "name": "triggerPrice",
          "type": "uint256"
        },
        {
          "internalType": "uint256",
          "name": "minOutputAmount",
          "type": "uint256"
        }
      ],
      "name": "updateOrder",
      "outputs": [],
      "stateMutability": "payable",
      "type": "function"
    },
    {
      "inputs": [],
      "name": "withdrawalHandler",
      "outputs": [
        {
          "internalType": "contract IWithdrawalHandler",
          "name": "",
          "type": "address"
        }
      ],
      "stateMutability": "view",
      "type": "function"
    }
  ],
  "bytecode": "0x6101606040523480156200001257600080fd5b506040516200527e3803806200527e83398101604081905262000035916200008a565b60016000556001600160a01b0395861660805295851660a05292841660c05290831660e052821661010052811661012052166101405262000135565b6001600160a01b03811681146200008757600080fd5b50565b600080600080600080600060e0888a031215620000a657600080fd5b8751620000b38162000071565b6020890151909750620000c68162000071565b6040890151909650620000d98162000071565b6060890151909550620000ec8162000071565b6080890151909450620000ff8162000071565b60a0890151909350620001128162000071565b60c0890151909250620001258162000071565b8091505092959891949750929550565b60805160a05160c05160e05161010051610120516101405161501562000269600039600081816103a90152818161076e01528181610bb90152818161109b015261127001526000818161019901528181610d7201528181610ef0015261144f0152600081816102fb0152818161094901528181610cfd01526114c401526000818161032f0152818161056a01528181610a9101528181610c8d015281816115fe015261187a01526000818161028e015281816104aa015281816105490152818161069d0152818161082b015281816109d601528181610a7001528181610c6c01528181610e0101528181610f7f015281816111070152818161118501528181611551015281816115dd015281816117cd015261185901526000818161042901526116ee0152600061022101526150156000f3fe6080604052600436106101315760003560e01c806301a9cbb214610136578063073fb09e1461015f578063263ea0fa146101745780632c2f3c071461018757806331404484146101c857806349287a22146101db5780634a393a41146101ee5780634a4a7b041461020f5780635a03cd94146102435780635b4e9561146102565780636331d7a714610269578063660d0d671461027c5780637213c5a0146102b05780637489ec23146102c35780637d39aaf1146102d65780639c8b2cfb146102e95780639ff78c301461031d578063aab286f814610351578063ac9650d814610364578063ad23c5a114610384578063b584830514610397578063b9e2f5ee146103cb578063c41b1ab3146103de578063e6d66ac8146103f1578063e9249b5714610404578063f887ea4014610417575b600080fd5b6101496101443660046138ac565b61044b565b6040516101569190613923565b60405180910390f35b61017261016d366004613967565b61065f565b005b6101726101823660046139a0565b610730565b34801561019357600080fd5b506101bb7f000000000000000000000000000000000000000000000000000000000000000081565b6040516101569190613ab8565b6101726101d6366004613acc565b6107d3565b6101496101e93660046138ac565b610980565b6102016101fc366004613ae5565b610b77565b604051908152602001610156565b34801561021b57600080fd5b506101bb7f000000000000000000000000000000000000000000000000000000000000000081565b610172610251366004613acc565b610c3f565b610201610264366004613b20565b610cbc565b6101726102773660046139a0565b610d34565b34801561028857600080fd5b506101bb7f000000000000000000000000000000000000000000000000000000000000000081565b6101726102be366004613acc565b610da9565b6101726102d1366004613acc565b610f27565b6101726102e4366004613b5b565b6110d2565b3480156102f557600080fd5b506101bb7f000000000000000000000000000000000000000000000000000000000000000081565b34801561032957600080fd5b506101bb7f000000000000000000000000000000000000000000000000000000000000000081565b61017261035f366004613b87565b61112d565b610377610372366004613bc2565b6112ee565b6040516101569190613c86565b610201610392366004613ce8565b61140d565b3480156103a357600080fd5b506101bb7f000000000000000000000000000000000000000000000000000000000000000081565b6101726103d93660046139a0565b611486565b6101496103ec3660046138ac565b6114fb565b6101726103ff366004613d23565b611687565b610149610412366004613d64565b611757565b34801561042357600080fd5b506101bb7f000000000000000000000000000000000000000000000000000000000000000081565b60606002600054036104785760405162461bcd60e51b815260040161046f90613e52565b60405180910390fd5b600260005582518451146104a557835183516040516374cee48d60e01b815260040161046f929190613e89565b6104d77f00000000000000000000000000000000000000000000000000000000000000006104d23061192d565b6119ba565b835133906000906001600160401b038111156104f5576104f56136f8565b60405190808252806020026020018201604052801561051e578160200160208202803683370190505b50905060005b86518110156106505773__$00d18be641c3a4f9ed15a2e39383149bb3$__637ed7d8ea7f00000000000000000000000000000000000000000000000000000000000000007f0000000000000000000000000000000000000000000000000000000000000000868b868151811061059c5761059c613e97565b60200260200101518b87815181106105b6576105b6613e97565b60200260200101518b6040518763ffffffff1660e01b81526004016105e096959493929190613eba565b602060405180830381865af41580156105fd573d6000803e3d6000fd5b505050506040513d601f19601f820116820180604052508101906106219190613ef4565b82828151811061063357610633613e97565b60209081029190910101528061064881613f23565b915050610524565b50600160005595945050505050565b6002600054036106815760405162461bcd60e51b815260040161046f90613e52565b600260005560405163b3678d5b60e01b81526001600160a01b037f00000000000000000000000000000000000000000000000000000000000000008116600483015233602483015280841660448301528216606482015273__$d7e28679fbfe4f4a6e86262d9995c4a909$__9063b3678d5b9060840160006040518083038186803b15801561070f57600080fd5b505af4158015610723573d6000803e3d6000fd5b5050600160005550505050565b6002600054036107525760405162461bcd60e51b815260040161046f90613e52565b600260005560405163131f507d60e11b81526001600160a01b037f0000000000000000000000000000000000000000000000000000000000000000169063263ea0fa906107a59085908590600401613f80565b600060405180830381600087803b1580156107bf57600080fd5b505af1158015610723573d6000803e3d6000fd5b6002600054036107f55760405162461bcd60e51b815260040161046f90613e52565b6002600090815560405163fdfc26f360e01b815273__$b63e253a228f0e32f671cc49c7fc32477c$__9063fdfc26f390610855907f0000000000000000000000000000000000000000000000000000000000000000908690600401613ff9565b600060405180830381865af4158015610872573d6000803e3d6000fd5b505050506040513d6000823e601f3d908101601f1916820160405261089a9190810190614157565b905060006108a782515190565b6001600160a01b0316036108ce576040516395b66fe960e01b815260040160405180910390fd5b336108d882515190565b6001600160a01b031614610933576040805163a35b150b60e01b8152336004820152602481019190915260196044820152781858d8dbdd5b9d08199bdc8818d85b98d95b11195c1bdcda5d603a1b606482015260840161046f565b604051630c50112160e21b8152600481018390527f00000000000000000000000000000000000000000000000000000000000000006001600160a01b0316906331404484906024016107a5565b60606002600054036109a45760405162461bcd60e51b815260040161046f90613e52565b600260005582518451146109d15783518351604051635b3043dd60e01b815260040161046f929190613e89565b6109fe7f00000000000000000000000000000000000000000000000000000000000000006104d2306119e9565b835133906000906001600160401b03811115610a1c57610a1c6136f8565b604051908082528060200260200182016040528015610a45578160200160208202803683370190505b50905060005b86518110156106505773__$9d4130ea52f4c58807a0c72df3e6362e69$__63d57d53997f00000000000000000000000000000000000000000000000000000000000000007f00000000000000000000000000000000000000000000000000000000000000008a8581518110610ac257610ac2613e97565b60200260200101518a8681518110610adc57610adc613e97565b6020026020010151888b6040518763ffffffff1660e01b8152600401610b0796959493929190613eba565b602060405180830381865af4158015610b24573d6000803e3d6000fd5b505050506040513d601f19601f82011682018060405250810190610b489190613ef4565b828281518110610b5a57610b5a613e97565b602090810291909101015280610b6f81613f23565b915050610a4b565b6000600260005403610b9b5760405162461bcd60e51b815260040161046f90613e52565b600260005560405163718a30b960e11b815233906001600160a01b037f0000000000000000000000000000000000000000000000000000000000000000169063e314617290610bf09084908790600401614449565b6020604051808303816000875af1158015610c0f573d6000803e3d6000fd5b505050506040513d601f19601f82011682018060405250810190610c339190613ef4565b60016000559392505050565b600260005403610c615760405162461bcd60e51b815260040161046f90613e52565b600260005533610cb37f00000000000000000000000000000000000000000000000000000000000000007f00000000000000000000000000000000000000000000000000000000000000008385611a3d565b50506001600055565b6000600260005403610ce05760405162461bcd60e51b815260040161046f90613e52565b600260005560405162bd80c160e61b815233906001600160a01b037f00000000000000000000000000000000000000000000000000000000000000001690632f60304090610bf09084908790600401614569565b600260005403610d565760405162461bcd60e51b815260040161046f90613e52565b6002600055604051636331d7a760e01b81526001600160a01b037f00000000000000000000000000000000000000000000000000000000000000001690636331d7a7906107a59085908590600401613f80565b600260005403610dcb5760405162461bcd60e51b815260040161046f90613e52565b6002600090815560405163fdfc26f360e01b815273__$3dc24d71d6ebafc0c4ce8ac2f69cd1548a$__9063fdfc26f390610e2b907f0000000000000000000000000000000000000000000000000000000000000000908690600401613ff9565b600060405180830381865af4158015610e48573d6000803e3d6000fd5b505050506040513d6000823e601f3d908101601f19168201604052610e7091908101906146b5565b905033610e7c82515190565b6001600160a01b031614610eda576040805163a35b150b60e01b81523360048201526024810191909152601c60448201527b1858d8dbdd5b9d08199bdc8818d85b98d95b15da5d1a191c985dd85b60221b606482015260840161046f565b6040516303909e2d60e51b8152600481018390527f00000000000000000000000000000000000000000000000000000000000000006001600160a01b031690637213c5a0906024016107a5565b600260005403610f495760405162461bcd60e51b815260040161046f90613e52565b6002600090815560405163fdfc26f360e01b815273__$9dcb75ef0bb6c4288f2ccffe7dc492c4eb$__9063fdfc26f390610fa9907f0000000000000000000000000000000000000000000000000000000000000000908690600401613ff9565b600060405180830381865af4158015610fc6573d6000803e3d6000fd5b505050506040513d6000823e601f3d908101601f19168201604052610fee91908101906148e9565b90506000610ffb82515190565b6001600160a01b03160361102257604051631630779760e01b815260040160405180910390fd5b3361102c82515190565b6001600160a01b031614611085576040805163a35b150b60e01b81523360048201526024810191909152601760448201527630b1b1b7bab73a103337b91031b0b731b2b627b93232b960491b606482015260840161046f565b604051637489ec2360e01b8152600481018390527f00000000000000000000000000000000000000000000000000000000000000006001600160a01b031690637489ec23906024016107a5565b6002600054036110f45760405162461bcd60e51b815260040161046f90613e52565b600260005561110282611c0b565b610cb37f00000000000000000000000000000000000000000000000000000000000000008383611c35565b60026000540361114f5760405162461bcd60e51b815260040161046f90613e52565b6002600090815560405163fdfc26f360e01b815273__$9dcb75ef0bb6c4288f2ccffe7dc492c4eb$__9063fdfc26f3906111af907f0000000000000000000000000000000000000000000000000000000000000000908a90600401613ff9565b600060405180830381865af41580156111cc573d6000803e3d6000fd5b505050506040513d6000823e601f3d908101601f191682016040526111f491908101906148e9565b90503361120082515190565b6001600160a01b031614611259576040805163a35b150b60e01b81523360048201526024810191909152601760448201527630b1b1b7bab73a103337b9103ab83230ba32a7b93232b960491b606482015260840161046f565b6040516396fe6a9360e01b81526001600160a01b037f000000000000000000000000000000000000000000000000000000000000000016906396fe6a93906112af90899089908990899089908990600401614a75565b600060405180830381600087803b1580156112c957600080fd5b505af11580156112dd573d6000803e3d6000fd5b505060016000555050505050505050565b6060816001600160401b03811115611308576113086136f8565b60405190808252806020026020018201604052801561133b57816020015b60608152602001906001900390816113265790505b50905060005b82811015611405576000803086868581811061135f5761135f613e97565b90506020028101906113719190614b68565b60405161137f929190614bae565b600060405180830381855af49150503d80600081146113ba576040519150601f19603f3d011682016040523d82523d6000602084013e6113bf565b606091505b5091509150816113d2576113d281611cbe565b808484815181106113e5576113e5613e97565b6020026020010181905250505080806113fd90613f23565b915050611341565b505b92915050565b60006002600054036114315760405162461bcd60e51b815260040161046f90613e52565b6002600055604051634c5a91e560e11b815233906001600160a01b037f000000000000000000000000000000000000000000000000000000000000000016906398b523ca90610bf09084908790600401614bbe565b6002600054036114a85760405162461bcd60e51b815260040161046f90613e52565b6002600055604051635cf17af760e11b81526001600160a01b037f0000000000000000000000000000000000000000000000000000000000000000169063b9e2f5ee906107a59085908590600401613f80565b606060026000540361151f5760405162461bcd60e51b815260040161046f90613e52565b6002600055825184511461154c5783518351604051637363cfa560e01b815260040161046f929190613e89565b6115797f00000000000000000000000000000000000000000000000000000000000000006104d230611cfc565b61158282611c0b565b835133906000906001600160401b038111156115a0576115a06136f8565b6040519080825280602002602001820160405280156115c9578160200160208202803683370190505b50905060005b8651811015610650576116587f00000000000000000000000000000000000000000000000000000000000000007f000000000000000000000000000000000000000000000000000000000000000089848151811061162f5761162f613e97565b602002602001015189858151811061164957611649613e97565b6020026020010151878a611d4b565b82828151811061166a5761166a613e97565b60209081029190910101528061167f81613f23565b9150506115cf565b6002600054036116a95760405162461bcd60e51b815260040161046f90613e52565b60026000556116b782611c0b565b6040516303704f0f60e31b81526001600160a01b0384811660048301523360248301819052848216604484015260648301849052917f000000000000000000000000000000000000000000000000000000000000000090911690631b82787890608401600060405180830381600087803b15801561173457600080fd5b505af1158015611748573d6000803e3d6000fd5b50506001600055505050505050565b606060026000540361177b5760405162461bcd60e51b815260040161046f90613e52565b60026000558351855114158061179357508251845114155b156117c85784518451845160405163216068f960e11b815260048101939093526024830191909152604482015260640161046f565b6117f57f00000000000000000000000000000000000000000000000000000000000000006104d230611fd0565b6117fe82611c0b565b845133906000906001600160401b0381111561181c5761181c6136f8565b604051908082528060200260200182016040528015611845578160200160208202803683370190505b50905060005b875181101561191d576118ee7f00000000000000000000000000000000000000000000000000000000000000007f00000000000000000000000000000000000000000000000000000000000000008a84815181106118ab576118ab613e97565b60200260200101518a85815181106118c5576118c5613e97565b60200260200101518a86815181106118df576118df613e97565b6020026020010151888b61201d565b82828151811061190057611900613e97565b60209081029190910101528061191581613f23565b91505061184b565b5060016000559695505050505050565b6000604051602001611970906020808252601e908201527f434c41494d5f55495f464545535f464541545552455f44495341424c45440000604082015260600190565b60408051601f198184030181528282528051602091820120908301526001600160a01b03841690820152606001604051602081830303815290604052805190602001209050919050565b6119c48282612485565b156119e55760405163dd70e0c960e01b81526004810182905260240161046f565b5050565b60006040516020016119709060208082526028908201527f434c41494d5f414646494c494154455f524557415244535f464541545552455f604082015267111254d05093115160c21b606082015260800190565b6000846001600160a01b031663bd02d0f5604051602001611a839060208082526011908201527026a0ac2faaa4afa322a2afa320a1aa27a960791b604082015260600190565b604051602081830303815290604052805190602001206040518263ffffffff1660e01b8152600401611ab791815260200190565b602060405180830381865afa158015611ad4573d6000803e3d6000fd5b505050506040513d601f19601f82011682018060405250810190611af89190613ef4565b905080821115611b1f578181604051638146813960e01b815260040161046f929190613e89565b846001600160a01b031663e2a4853a611b37856124f8565b846040518363ffffffff1660e01b8152600401611b55929190613e89565b6020604051808303816000875af1158015611b74573d6000803e3d6000fd5b505050506040513d601f19601f82011682018060405250810190611b989190613ef4565b506040516311bfdfd160e21b815273__$c1eebf06e53d0bd092f667687cf73e1ebf$__906346ff7f4490611bd490879087908790600401614cd9565b60006040518083038186803b158015611bec57600080fd5b505af4158015611c00573d6000803e3d6000fd5b505050505050505050565b6001600160a01b038116611c325760405163d551823d60e01b815260040160405180910390fd5b50565b80600003611c4257505050565b611c4b82611c0b565b6000611c568461252b565b9050806001600160a01b031663d0e30db0836040518263ffffffff1660e01b81526004016000604051808303818588803b158015611c9357600080fd5b505af1158015611ca7573d6000803e3d6000fd5b5050505050611cb8848285856125d8565b50505050565b600080611cca8361280e565b915091508015611cee578160405162461bcd60e51b815260040161046f9190614cfd565b611cf78361289e565b505050565b60006040516020016119709060208082526023908201527f434c41494d5f46554e44494e475f464545535f464541545552455f444953414260408201526213115160ea1b606082015260800190565b600080611d598686866128a7565b60405163bd02d0f560e01b8152600481018290529091506000906001600160a01b038a169063bd02d0f590602401602060405180830381865afa158015611da4573d6000803e3d6000fd5b505050506040513d601f19601f82011682018060405250810190611dc89190613ef4565b604051637152429d60e11b81529091506001600160a01b038a169063e2a4853a90611dfa908590600090600401613e89565b6020604051808303816000875af1158015611e19573d6000803e3d6000fd5b505050506040513d601f19601f82011682018060405250810190611e3d9190613ef4565b506000896001600160a01b031663e98aabc1611e598a8a612918565b846040518363ffffffff1660e01b8152600401611e77929190613e89565b6020604051808303816000875af1158015611e96573d6000803e3d6000fd5b505050506040513d601f19601f82011682018060405250810190611eba9190613ef4565b60405163078d3b7960e01b81529091506001600160a01b0389169063078d3b7990611eed908a9089908790600401614cd9565b600060405180830381600087803b158015611f0757600080fd5b505af1158015611f1b573d6000803e3d6000fd5b50505050611f298a8961297f565b604051634ee4c83160e01b81526001600160a01b03808b166004830152808a166024830152808916604483015280881660648301528616608482015260a4810183905260c4810182905273__$c1eebf06e53d0bd092f667687cf73e1ebf$__90634ee4c8319060e40160006040518083038186803b158015611faa57600080fd5b505af4158015611fbe573d6000803e3d6000fd5b50939c9b505050505050505050505050565b60006040516020016119709060208082526021908201527f434c41494d5f434f4c4c41544552414c5f464541545552455f44495341424c456040820152601160fa1b606082015260800190565b600080886001600160a01b031663bd02d0f561203b89898989612997565b6040518263ffffffff1660e01b815260040161205991815260200190565b602060405180830381865afa158015612076573d6000803e3d6000fd5b505050506040513d601f19601f8201168201806040525081019061209a9190613ef4565b90506000808a6001600160a01b031663bd02d0f56120b98b8b8b612a0f565b6040518263ffffffff1660e01b81526004016120d791815260200190565b602060405180830381865afa1580156120f4573d6000803e3d6000fd5b505050506040513d601f19601f820116820180604052508101906121189190613ef4565b905060008b6001600160a01b031663bd02d0f56121378c8c8c8c612a64565b6040518263ffffffff1660e01b815260040161215591815260200190565b602060405180830381865afa158015612172573d6000803e3d6000fd5b505050506040513d601f19601f820116820180604052508101906121969190613ef4565b90508082116121a557806121a7565b815b9250505060008a6001600160a01b031663bd02d0f56121c88b8b8b8b612a75565b6040518263ffffffff1660e01b81526004016121e691815260200190565b602060405180830381865afa158015612203573d6000803e3d6000fd5b505050506040513d601f19601f820116820180604052508101906122279190613ef4565b905060006122358484612ab4565b905081811161225b578082604051631d8db13960e31b815260040161046f929190613e89565b60006122678383614d10565b90508c6001600160a01b031663e2a4853a6122848d8d8d8d612a75565b846040518363ffffffff1660e01b81526004016122a2929190613e89565b6020604051808303816000875af11580156122c1573d6000803e3d6000fd5b505050506040513d601f19601f820116820180604052508101906122e59190613ef4565b5060008d6001600160a01b031663e98aabc16123018e8e612acd565b846040518363ffffffff1660e01b815260040161231f929190613e89565b6020604051808303816000875af115801561233e573d6000803e3d6000fd5b505050506040513d601f19601f820116820180604052508101906123629190613ef4565b60405163078d3b7960e01b81529091506001600160a01b038d169063078d3b7990612395908e908c908790600401614cd9565b600060405180830381600087803b1580156123af57600080fd5b505af11580156123c3573d6000803e3d6000fd5b505050506123d18e8d61297f565b6040516359e8c46f60e11b81526001600160a01b03808f166004830152808e166024830152808d166044830152606482018c9052808b166084830152891660a482015260c4810183905260e4810182905273__$c1eebf06e53d0bd092f667687cf73e1ebf$__9063b3d188de906101040160006040518083038186803b15801561245a57600080fd5b505af415801561246e573d6000803e3d6000fd5b509398505050505050505050979650505050505050565b604051633d70e7e560e11b8152600481018290526000906001600160a01b03841690637ae1cfca90602401602060405180830381865afa1580156124cd573d6000803e3d6000fd5b505050506040513d601f19601f820116820180604052508101906124f19190614d23565b9392505050565b6000604051602001611970906020808252600d908201526c2aa4afa322a2afa320a1aa27a960991b604082015260600190565b6000816001600160a01b03166321f8a7216040516020016125639060208082526003908201526215d39560ea1b604082015260600190565b604051602081830303815290604052805190602001206040518263ffffffff1660e01b815260040161259791815260200190565b602060405180830381865afa1580156125b4573d6000803e3d6000fd5b505050506040513d601f19601f820116820180604052508101906114079190614d40565b8015611cb8576125e782611c0b565b6000846001600160a01b031663bd02d0f561260186612ade565b6040518263ffffffff1660e01b815260040161261f91815260200190565b602060405180830381865afa15801561263c573d6000803e3d6000fd5b505050506040513d601f19601f820116820180604052508101906126609190613ef4565b9050806000036126855783604051634fe14bfd60e11b815260040161046f9190613ab8565b600061269385858585612b1c565b50905080156126a3575050611cb8565b6000866001600160a01b03166321f8a7216040516020016126e7906020808252600f908201526e484f4c44494e475f4144445245535360881b604082015260600190565b604051602081830303815290604052805190602001206040518263ffffffff1660e01b815260040161271b91815260200190565b602060405180830381865afa158015612738573d6000803e3d6000fd5b505050506040513d601f19601f8201168201806040525081019061275c9190614d40565b90506001600160a01b03811661278557604051633a6de2f560e21b815260040160405180910390fd5b60008061279488848888612b1c565b9150915081156127a8575050505050611cb8565b60006127b38261280e565b5090507fc9f14d9a0a9b46470c7c0b6c508f8283abaab7f795f153953c58cd4250824dae81836040516127e7929190614d5d565b60405180910390a188888860405163012f3b8f60e71b815260040161046f93929190614cd9565b60606000604483511015612835575050604080516020810190915260008082529092909150565b6000612842846020015190565b90506307b9e43360e51b6001600160e01b031982160161288157600484019350838060200190518101906128769190614d82565b946001945092505050565b600060405180602001604052806000815250909250925050915091565b80518060208301fd5b60006040516020016128b890614e15565b60408051601f198184030181528282528051602091820120908301526001600160a01b038087169183019190915280851660608301528316608082015260a0015b6040516020818303038152906040528051906020012090509392505050565b600060405160200161292990614e15565b60408051601f198184030181528282528051602091820120908301526001600160a01b03808616918301919091528316606082015260800160405160208183030381529060405280519060200120905092915050565b600061298b8383612c84565b9050611cf78382612d31565b60006040516020016129a890614e47565b60408051601f198184030181528282528051602091820120908301526001600160a01b0380881691830191909152808616606083015260808201859052831660a082015260c001604051602081830303815290604052805190602001209050949350505050565b6000604051602001612a2090614e7c565b60408051601f198184030181528282528051602091820120908301526001600160a01b0380871691830191909152841660608201526080810183905260a0016128f9565b60006040516020016129a890614e7c565b60006040516020016129a89060208082526019908201527810d3105253515117d0d3d31310551154905317d05353d55395603a1b604082015260600190565b60006124f1838368327cb2734119d3b7a9601e1b612d74565b600060405160200161292990614e47565b6000604051602001611970906020808252601890820152771513d2d15397d514905394d1915497d1d054d7d31253525560421b604082015260600190565b60006060600063a9059cbb60e01b8686604051602401612b3d929190613ff9565b604051602081830303815290604052906001600160e01b0319166020820180516001600160e01b0383818316178352505050509050600080886001600160a01b03168684604051612b8e9190614eb1565b60006040518083038160008787f1925050503d8060008114612bcc576040519150601f19603f3d011682016040523d82523d6000602084013e612bd1565b606091505b50915091508115612c72578051600003612c2f576001600160a01b0389163b612c2f5760006040518060400160405280601481526020017310d85b1b081d1bc81b9bdb8b58dbdb9d1c9858dd60621b81525094509450505050612c7b565b60008151118015612c51575080806020019051810190612c4f9190614d23565b155b15612c6457600094509250612c7b915050565b600194509250612c7b915050565b60009450925050505b94509492505050565b60408051608081018252600080825260208201819052918101829052606081019190915260405163a8d8fff560e01b815260009073__$ff439aa65a80c9eec648f15db20b189505$__9063a8d8fff590612ce49087908790600401614ecd565b608060405180830381865af4158015612d01573d6000803e3d6000fd5b505050506040513d601f19601f82011682018060405250810190612d259190614ee7565b90506124f18482612d89565b612d4082828360400151612e52565b80606001516001600160a01b031681604001516001600160a01b031603612d65575050565b6119e582828360600151612e52565b6000612d81848484613050565b949350505050565b80516001600160a01b0316612db1576040516302fde0d760e11b815260040160405180910390fd5b6000826001600160a01b0316637ae1cfca612dcf84600001516130ff565b6040518263ffffffff1660e01b8152600401612ded91815260200190565b602060405180830381865afa158015612e0a573d6000803e3d6000fd5b505050506040513d601f19601f82011682018060405250810190612e2e9190614d23565b90508015611cf75781516040516309f8c93760e01b815261046f9190600401613ab8565b81516001600160a01b03161580612e7057506001600160a01b038116155b15612e9357815160405163e474a42560e01b815261046f91908390600401614ecd565b81516040516370a0823160e01b81526000916001600160a01b038416916370a0823191612ec291600401613ab8565b602060405180830381865afa158015612edf573d6000803e3d6000fd5b505050506040513d601f19601f82011682018060405250810190612f039190613ef4565b90506000612f12858585613137565b905080821015612f3e5783516040516333a1ea6b60e01b815261046f9190859085908590600401614f6b565b6000612f528686600001518660018061345a565b9050612f67868660000151866000600161345a565b612f719082614f94565b905080831015612f9d57845160405163808c464f60e01b815261046f9190869086908590600401614f6b565b6000866001600160a01b031663bd02d0f5612fbc886000015188612918565b6040518263ffffffff1660e01b8152600401612fda91815260200190565b602060405180830381865afa158015612ff7573d6000803e3d6000fd5b505050506040513d601f19601f8201168201806040525081019061301b9190613ef4565b905080841015613047578551604051639dd026db60e01b815261046f9190879087908590600401614f6b565b50505050505050565b600080806000198587098587029250828110838203039150508060000361308a5783828161308057613080614fa7565b04925050506124f1565b80841161309657600080fd5b60008486880960026001871981018816978890046003810283188082028403028082028403028082028403028082028403028082028403029081029092039091026000889003889004909101858311909403939093029303949094049190911702949350505050565b6000604051602001611970906020808252601290820152711254d7d3505492d15517d11254d05093115160721b604082015260600190565b60006131726040518060c001604052806000815260200160008152602001600081526020016000815260200160008152602001600081525090565b846001600160a01b031663bd02d0f561318f8660000151866134ea565b6040518263ffffffff1660e01b81526004016131ad91815260200190565b602060405180830381865afa1580156131ca573d6000803e3d6000fd5b505050506040513d601f19601f820116820180604052508101906131ee9190613ef4565b815283516131fe9086908561351b565b602082015283516001600160a01b0386169063bd02d0f5906132209086612acd565b6040518263ffffffff1660e01b815260040161323e91815260200190565b602060405180830381865afa15801561325b573d6000803e3d6000fd5b505050506040513d601f19601f8201168201806040525081019061327f9190613ef4565b604082015283516001600160a01b0386169063bd02d0f5906132a19086613595565b6040518263ffffffff1660e01b81526004016132bf91815260200190565b602060405180830381865afa1580156132dc573d6000803e3d6000fd5b505050506040513d601f19601f820116820180604052508101906133009190613ef4565b606082015283516001600160a01b0386169063bd02d0f59061332290866135cf565b6040518263ffffffff1660e01b815260040161334091815260200190565b602060405180830381865afa15801561335d573d6000803e3d6000fd5b505050506040513d601f19601f820116820180604052508101906133819190613ef4565b608082015283516001600160a01b0386169063bd02d0f5906133a3908661360c565b6040518263ffffffff1660e01b81526004016133c191815260200190565b602060405180830381865afa1580156133de573d6000803e3d6000fd5b505050506040513d601f19601f820116820180604052508101906134029190613ef4565b60a08201819052608082015160608301516040840151602085015185516134299190614f94565b6134339190614f94565b61343d9190614f94565b6134479190614f94565b6134519190614f94565b95945050505050565b600081866001600160a01b031663bd02d0f5613477888888613642565b6040518263ffffffff1660e01b815260040161349591815260200190565b602060405180830381865afa1580156134b2573d6000803e3d6000fd5b505050506040513d601f19601f820116820180604052508101906134d69190613ef4565b6134e09190614fbd565b9695505050505050565b6000604051602001612929906020808252600b908201526a1413d3d317d05353d5539560aa1b604082015260600190565b6000836001600160a01b031663bd02d0f561353685856136bb565b6040518263ffffffff1660e01b815260040161355491815260200190565b602060405180830381865afa158015613571573d6000803e3d6000fd5b505050506040513d601f19601f82011682018060405250810190612d819190613ef4565b60006040516020016129299060208082526014908201527310d31052535050931157d1915157d05353d5539560621b604082015260600190565b60006040516020016129299060208082526017908201527610d31052535050931157d55257d1915157d05353d55395604a1b604082015260600190565b60006040516020016129299060208082526010908201526f10519192531250551157d49155d0549160821b604082015260600190565b6000604051602001613676906020808252600e908201526d434f4c4c41544552414c5f53554d60901b604082015260600190565b60408051601f198184030181528282528051602091820120908301526001600160a01b038087169183019190915284166060820152821515608082015260a0016128f9565b60006040516020016129299060208082526017908201527614d5d05417d253541050d517d413d3d317d05353d55395604a1b604082015260600190565b634e487b7160e01b600052604160045260246000fd5b604080519081016001600160401b0381118282101715613730576137306136f8565b60405290565b604051606081016001600160401b0381118282101715613730576137306136f8565b60405161012081016001600160401b0381118282101715613730576137306136f8565b60405160e081016001600160401b0381118282101715613730576137306136f8565b60405161014081016001600160401b0381118282101715613730576137306136f8565b604051601f8201601f191681016001600160401b03811182821017156137e8576137e86136f8565b604052919050565b60006001600160401b03821115613809576138096136f8565b5060051b60200190565b6001600160a01b0381168114611c3257600080fd5b803561383381613813565b919050565b600082601f83011261384957600080fd5b8135602061385e613859836137f0565b6137c0565b82815260059290921b8401810191818101908684111561387d57600080fd5b8286015b848110156138a157803561389481613813565b8352918301918301613881565b509695505050505050565b6000806000606084860312156138c157600080fd5b83356001600160401b03808211156138d857600080fd5b6138e487838801613838565b945060208601359150808211156138fa57600080fd5b5061390786828701613838565b925050604084013561391881613813565b809150509250925092565b6020808252825182820181905260009190848201906040850190845b8181101561395b5783518352928401929184019160010161393f565b50909695505050505050565b6000806040838503121561397a57600080fd5b823561398581613813565b9150602083013561399581613813565b809150509250929050565b60008060408084860312156139b457600080fd5b833592506020808501356001600160401b03808211156139d357600080fd5b81870191508382890312156139e757600080fd5b6139ef61370e565b8235828111156139fe57600080fd5b613a0a8a828601613838565b8252508383013582811115613a1e57600080fd5b80840193505088601f840112613a3357600080fd5b82359150613a43613859836137f0565b82815260069290921b8301840191848101908a841115613a6257600080fd5b938501935b83851015613aa25786858c031215613a7f5760008081fd5b613a8761370e565b85358152868601358782015282529386019390850190613a67565b8086840152505080955050505050509250929050565b6001600160a01b0391909116815260200190565b600060208284031215613ade57600080fd5b5035919050565b600060208284031215613af757600080fd5b81356001600160401b03811115613b0d57600080fd5b82016101a081850312156124f157600080fd5b600060208284031215613b3257600080fd5b81356001600160401b03811115613b4857600080fd5b820161018081850312156124f157600080fd5b60008060408385031215613b6e57600080fd5b8235613b7981613813565b946020939093013593505050565b600080600080600060a08688031215613b9f57600080fd5b505083359560208501359550604085013594606081013594506080013592509050565b60008060208385031215613bd557600080fd5b82356001600160401b0380821115613bec57600080fd5b818501915085601f830112613c0057600080fd5b813581811115613c0f57600080fd5b8660208260051b8501011115613c2457600080fd5b60209290920196919550909350505050565b60005b83811015613c51578181015183820152602001613c39565b50506000910152565b60008151808452613c72816020860160208601613c36565b601f01601f19169290920160200192915050565b6000602080830181845280855180835260408601915060408160051b870101925083870160005b82811015613cdb57603f19888603018452613cc9858351613c5a565b94509285019290850190600101613cad565b5092979650505050505050565b600060208284031215613cfa57600080fd5b81356001600160401b03811115613d1057600080fd5b820161016081850312156124f157600080fd5b600080600060608486031215613d3857600080fd5b8335613d4381613813565b92506020840135613d5381613813565b929592945050506040919091013590565b60008060008060808587031215613d7a57600080fd5b84356001600160401b0380821115613d9157600080fd5b613d9d88838901613838565b9550602091508187013581811115613db457600080fd5b613dc089828a01613838565b955050604087013581811115613dd557600080fd5b87019050601f81018813613de857600080fd5b8035613df6613859826137f0565b81815260059190911b8201830190838101908a831115613e1557600080fd5b928401925b82841015613e3357833582529284019290840190613e1a565b8096505050505050613e4760608601613828565b905092959194509250565b6020808252601f908201527f5265656e7472616e637947756172643a207265656e7472616e742063616c6c00604082015260600190565b918252602082015260400190565b634e487b7160e01b600052603260045260246000fd5b6001600160a01b03169052565b6001600160a01b0396871681529486166020860152928516604085015290841660608401528316608083015290911660a082015260c00190565b600060208284031215613f0657600080fd5b5051919050565b634e487b7160e01b600052601160045260246000fd5b600060018201613f3557613f35613f0d565b5060010190565b600081518084526020808501945080840160005b83811015613f755781516001600160a01b031687529582019590820190600101613f50565b509495945050505050565b600060408483526020818185015284518283860152613fa26080860182613f3c565b86830151868203603f19016060880152805180835290840192506000918401905b80831015613fec5783518051835285015185830152928401926001929092019190850190613fc3565b5098975050505050505050565b6001600160a01b03929092168252602082015260400190565b805161383381613813565b600082601f83011261402e57600080fd5b8151602061403e613859836137f0565b82815260059290921b8401810191818101908684111561405d57600080fd5b8286015b848110156138a157805161407481613813565b8352918301918301614061565b600060c0828403121561409357600080fd5b60405160c081016001600160401b03811182821017156140b5576140b56136f8565b8060405250809150825181526020830151602082015260408301516040820152606083015160608201526080830151608082015260a083015160a08201525092915050565b8015158114611c3257600080fd5b60006020828403121561411a57600080fd5b604051602081016001600160401b038111828210171561413c5761413c6136f8565b8060405250809150825161414f816140fa565b905292915050565b60006020828403121561416957600080fd5b81516001600160401b038082111561418057600080fd5b818401915061010080838703121561419757600080fd5b61419f613736565b8351838111156141ae57600080fd5b840161012081890312156141c157600080fd5b6141c9613758565b6141d282614012565b81526141e060208301614012565b60208201526141f160408301614012565b604082015261420260608301614012565b606082015261421360808301614012565b608082015261422460a08301614012565b60a082015261423560c08301614012565b60c082015260e08201518581111561424c57600080fd5b6142588a82850161401d565b60e083015250838201518581111561426f57600080fd5b61427b8a82850161401d565b82860152508252506142908760208601614081565b60208201526142a28760e08601614108565b60408201529695505050505050565b6000808335601e198436030181126142c857600080fd5b83016020810192503590506001600160401b038111156142e757600080fd5b8060051b36038213156142f957600080fd5b9250929050565b8183526000602080850194508260005b85811015613f7557813561432381613813565b6001600160a01b031687529582019590820190600101614310565b6000813561434b81613813565b6001600160a01b03908116845260208301359061436782613813565b908116602085015260408301359061437e82613813565b908116604085015260608301359061439582613813565b90811660608501526080830135906143ac82613813565b1660808401526143bf60a08301836142b1565b60c060a086015261345160c086018284614300565b60088110611c3257600080fd5b8035613833816143d4565b634e487b7160e01b600052602160045260246000fd5b60088110614412576144126143ec565b9052565b60038110611c3257600080fd5b803561383381614416565b60038110614412576144126143ec565b8035613833816140fa565b6001600160a01b038316815260406020820152600082353684900360be1901811261447357600080fd5b6101a080604085015261448c6101e0850186840161433e565b91506144dd6060850160208701803582526020810135602083015260408101356040830152606081013560608301526080810135608083015260a081013560a083015260c081013560c08301525050565b6144ea61010086016143e1565b6101406144f981870183614402565b6145066101208801614423565b91506101606145178188018461442e565b61452282890161443e565b925061018091506145368288018415159052565b61454181890161443e565b9250506145518387018315159052565b808701356101c0870152505050809150509392505050565b6001600160a01b038316815260406020820181905261459290820161458d84613828565b613ead565b60006145a060208401613828565b6145ad6060840182613ead565b506145ba60408401613828565b6145c76080840182613ead565b506145d460608401613828565b6145e160a0840182613ead565b506145ee60808401613828565b6145fb60c0840182613ead565b5061460860a08401613828565b61461560e0840182613ead565b5061462360c08401846142b1565b610180610100818187015261463d6101c087018486614300565b935061464c60e08801886142b1565b9350610120603f198887030181890152614667868684614300565b955061014094508289013585890152614681818a0161443e565b925050506101606146958188018315159052565b928701359186019190915250909301356101a09092019190915250919050565b6000602082840312156146c757600080fd5b81516001600160401b03808211156146de57600080fd5b9083019061010082860312156146f357600080fd5b6146fb613736565b82518281111561470a57600080fd5b830160e0818803121561471c57600080fd5b61472461377b565b61472d82614012565b815261473b60208301614012565b602082015261474c60408301614012565b604082015261475d60608301614012565b606082015261476e60808301614012565b608082015260a08201518481111561478557600080fd5b6147918982850161401d565b60a08301525060c0820151848111156147a957600080fd5b6147b58982850161401d565b60c0830152508252506147cb8660208501614081565b60208201526147dd8660e08501614108565b604082015295945050505050565b8051613833816143d4565b805161383381614416565b6000610140828403121561481457600080fd5b61481c61379d565b9050614827826147eb565b8152614835602083016147f6565b602082015260408201516040820152606082015160608201526080820151608082015260a082015160a082015260c082015160c082015260e082015160e082015261010080830151818301525061012080830151818301525092915050565b6000606082840312156148a657600080fd5b6148ae613736565b905081516148bb816140fa565b815260208201516148cb816140fa565b602082015260408201516148de816140fa565b604082015292915050565b6000602082840312156148fb57600080fd5b81516001600160401b038082111561491257600080fd5b908301906101c0828603121561492757600080fd5b61492f613736565b82518281111561493e57600080fd5b830160e0818803121561495057600080fd5b61495861377b565b61496182614012565b815261496f60208301614012565b602082015261498060408301614012565b604082015261499160608301614012565b60608201526149a260808301614012565b60808201526149b360a08301614012565b60a082015260c0820151848111156149ca57600080fd5b6149d68982850161401d565b60c0830152508252506149ec8660208501614801565b60208201526147dd866101608501614894565b614a0a828251614402565b6020810151614a1c602084018261442e565b5060408101516040830152606081015160608301526080810151608083015260a081015160a083015260c081015160c083015260e081015160e08301526101008082015181840152506101208082015181840152505050565b86815285602082015284604082015283606082015282608082015260c060a0820152600082516101c060c084015260018060a01b0380825116610280850152806020830151166102a0850152806040830151166102c0850152506060810151614ae26102e0850182613ead565b506080810151614af6610300850182613ead565b5060a0810151614b0a610320850182613ead565b5060c0015160e0610340840152614b25610360840182613f3c565b90506020840151614b3960e08501826149ff565b506040848101518051151561022086015260208101511515610240860152908101511515610260850152613fec565b6000808335601e19843603018112614b7f57600080fd5b8301803591506001600160401b03821115614b9957600080fd5b6020019150368190038213156142f957600080fd5b8183823760009101908152919050565b6001600160a01b0383168152604060208201819052614be290820161458d84613828565b6000614bf060208401613828565b614bfd6060840182613ead565b50614c0a60408401613828565b614c176080840182613ead565b50614c2460608401613828565b614c3160a0840182613ead565b50614c3f60808401846142b1565b6101608060c0860152614c576101a086018385614300565b9250614c6660a08701876142b1565b868503603f190160e08801529250614c7f848483614300565b935050610100915060c08601358286015261012060e087013581870152614ca783880161443e565b9250610140614cb98188018515159052565b908701359186019190915290940135610180909301929092525092915050565b6001600160a01b039384168152919092166020820152604081019190915260600190565b6020815260006124f16020830184613c5a565b8181038181111561140757611407613f0d565b600060208284031215614d3557600080fd5b81516124f1816140fa565b600060208284031215614d5257600080fd5b81516124f181613813565b604081526000614d706040830185613c5a565b82810360208401526134518185613c5a565b600060208284031215614d9457600080fd5b81516001600160401b0380821115614dab57600080fd5b818401915084601f830112614dbf57600080fd5b815181811115614dd157614dd16136f8565b614de4601f8201601f19166020016137c0565b9150808252856020828501011115614dfb57600080fd5b614e0c816020840160208601613c36565b50949350505050565b60208082526018908201527710d31052535050931157d1955391125391d7d05353d5539560421b604082015260600190565b6020808252601b908201527a10d31052535050931157d0d3d31310551154905317d05353d55395602a1b604082015260600190565b6020808252601b908201527a21a620a4a6a0a12622afa1a7a62620aa22a920a62fa320a1aa27a960291b604082015260600190565b60008251614ec3818460208701613c36565b9190910192915050565b6001600160a01b0392831681529116602082015260400190565b600060808284031215614ef957600080fd5b604051608081016001600160401b0381118282101715614f1b57614f1b6136f8565b6040528251614f2981613813565b81526020830151614f3981613813565b60208201526040830151614f4c81613813565b60408201526060830151614f5f81613813565b60608201529392505050565b6001600160a01b0394851681529290931660208301526040820152606081019190915260800190565b8082018082111561140757611407613f0d565b634e487b7160e01b600052601260045260246000fd5b600082614fda57634e487b7160e01b600052601260045260246000fd5b50049056fea264697066735822122091a9dad08dc4f2ada06985547d93bcf1b8187c6cc19e48661df5f449f15d719264736f6c63430008120033",
  "linkReferences": {
    "contracts/callback/CallbackUtils.sol": {
      "CallbackUtils": [
        {
          "length": 20,
          "start": 2371
        }
      ]
    },
    "contracts/deposit/DepositStoreUtils.sol": {
      "DepositStoreUtils": [
        {
          "length": 20,
          "start": 2676
        }
      ]
    },
    "contracts/fee/FeeUtils.sol": {
      "FeeUtils": [
        {
          "length": 20,
          "start": 1944
        }
      ]
    },
    "contracts/market/MarketEventUtils.sol": {
      "MarketEventUtils": [
        {
          "length": 20,
          "start": 7697
        },
        {
          "length": 20,
          "start": 8670
        },
        {
          "length": 20,
          "start": 9869
        }
      ]
    },
    "contracts/market/MarketStoreUtils.sol": {
      "MarketStoreUtils": [
        {
          "length": 20,
          "start": 12067
        }
      ]
    },
    "contracts/order/OrderStoreUtils.sol": {
      "OrderStoreUtils": [
        {
          "length": 20,
          "start": 4552
        },
        {
          "length": 20,
          "start": 5070
        }
      ]
    },
    "contracts/referral/ReferralUtils.sol": {
      "ReferralUtils": [
        {
          "length": 20,
          "start": 3263
        }
      ]
    },
    "contracts/withdrawal/WithdrawalStoreUtils.sol": {
      "WithdrawalStoreUtils": [
        {
          "length": 20,
          "start": 4170
        }
      ]
    }
  },
  "deployedLinkReferences": {
    "contracts/callback/CallbackUtils.sol": {
      "CallbackUtils": [
        {
          "length": 20,
          "start": 1754
        }
      ]
    },
    "contracts/deposit/DepositStoreUtils.sol": {
      "DepositStoreUtils": [
        {
          "length": 20,
          "start": 2059
        }
      ]
    },
    "contracts/fee/FeeUtils.sol": {
      "FeeUtils": [
        {
          "length": 20,
          "start": 1327
        }
      ]
    },
    "contracts/market/MarketEventUtils.sol": {
      "MarketEventUtils": [
        {
          "length": 20,
          "start": 7080
        },
        {
          "length": 20,
          "start": 8053
        },
        {
          "length": 20,
          "start": 9252
        }
      ]
    },
    "contracts/market/MarketStoreUtils.sol": {
      "MarketStoreUtils": [
        {
          "length": 20,
          "start": 11450
        }
      ]
    },
    "contracts/order/OrderStoreUtils.sol": {
      "OrderStoreUtils": [
        {
          "length": 20,
          "start": 3935
        },
        {
          "length": 20,
          "start": 4453
        }
      ]
    },
    "contracts/referral/ReferralUtils.sol": {
      "ReferralUtils": [
        {
          "length": 20,
          "start": 2646
        }
      ]
    },
    "contracts/withdrawal/WithdrawalStoreUtils.sol": {
      "WithdrawalStoreUtils": [
        {
          "length": 20,
          "start": 3553
        }
      ]
    }
  }
}