{
  "_format": "hh-sol-artifact-1",
  "contractName": "Config",
  "sourceName": "contracts/config/Config.sol",
  "abi": [
    {
      "inputs": [
        {
          "internalType": "contract RoleStore",
          "name": "_roleStore",
          "type": "address"
        },
        {
          "internalType": "contract DataStore",
          "name": "_dataStore",
          "type": "address"
        },
        {
          "internalType": "contract EventEmitter",
          "name": "_eventEmitter",
          "type": "address"
        }
      ],
      "stateMutability": "nonpayable",
      "type": "constructor"
    },
    {
      "inputs": [
        {
          "internalType": "bytes32",
          "name": "baseKey",
          "type": "bytes32"
        }
      ],
      "name": "InvalidBaseKey",
      "type": "error"
    },
    {
      "inputs": [
        {
          "internalType": "bytes32",
          "name": "baseKey",
          "type": "bytes32"
        },
        {
          "internalType": "uint256",
          "name": "value",
          "type": "uint256"
        }
      ],
      "name": "InvalidFeeFactor",
      "type": "error"
    },
    {
      "inputs": [
        {
          "internalType": "address",
          "name": "msgSender",
          "type": "address"
        },
        {
          "internalType": "string",
          "name": "role",
          "type": "string"
        }
      ],
      "name": "Unauthorized",
      "type": "error"
    },
    {
      "inputs": [],
      "name": "MAX_FEE_FACTOR",
      "outputs": [
        {
          "internalType": "uint256",
          "name": "",
          "type": "uint256"
        }
      ],
      "stateMutability": "view",
      "type": "function"
    },
    {
      "inputs": [
        {
          "internalType": "bytes32",
          "name": "",
          "type": "bytes32"
        }
      ],
      "name": "allowedBaseKeys",
      "outputs": [
        {
          "internalType": "bool",
          "name": "",
          "type": "bool"
        }
      ],
      "stateMutability": "view",
      "type": "function"
    },
    {
      "inputs": [],
      "name": "dataStore",
      "outputs": [
        {
          "internalType": "contract DataStore",
          "name": "",
          "type": "address"
        }
      ],
      "stateMutability": "view",
      "type": "function"
    },
    {
      "inputs": [],
      "name": "eventEmitter",
      "outputs": [
        {
          "internalType": "contract EventEmitter",
          "name": "",
          "type": "address"
        }
      ],
      "stateMutability": "view",
      "type": "function"
    },
    {
      "inputs": [
        {
          "internalType": "bytes[]",
          "name": "data",
          "type": "bytes[]"
        }
      ],
      "name": "multicall",
      "outputs": [
        {
          "internalType": "bytes[]",
          "name": "results",
          "type": "bytes[]"
        }
      ],
      "stateMutability": "nonpayable",
      "type": "function"
    },
    {
      "inputs": [],
      "name": "roleStore",
      "outputs": [
        {
          "internalType": "contract RoleStore",
          "name": "",
          "type": "address"
        }
      ],
      "stateMutability": "view",
      "type": "function"
    },
    {
      "inputs": [
        {
          "internalType": "bytes32",
          "name": "baseKey",
          "type": "bytes32"
        },
        {
          "internalType": "bytes",
          "name": "data",
          "type": "bytes"
        },
        {
          "internalType": "address",
          "name": "value",
          "type": "address"
        }
      ],
      "name": "setAddress",
      "outputs": [],
      "stateMutability": "nonpayable",
      "type": "function"
    },
    {
      "inputs": [
        {
          "internalType": "bytes32",
          "name": "baseKey",
          "type": "bytes32"
        },
        {
          "internalType": "bytes",
          "name": "data",
          "type": "bytes"
        },
        {
          "internalType": "bool",
          "name": "value",
          "type": "bool"
        }
      ],
      "name": "setBool",
      "outputs": [],
      "stateMutability": "nonpayable",
      "type": "function"
    },
    {
      "inputs": [
        {
          "internalType": "bytes32",
          "name": "baseKey",
          "type": "bytes32"
        },
        {
          "internalType": "bytes",
          "name": "data",
          "type": "bytes"
        },
        {
          "internalType": "bytes32",
          "name": "value",
          "type": "bytes32"
        }
      ],
      "name": "setBytes32",
      "outputs": [],
      "stateMutability": "nonpayable",
      "type": "function"
    },
    {
      "inputs": [
        {
          "internalType": "bytes32",
          "name": "baseKey",
          "type": "bytes32"
        },
        {
          "internalType": "bytes",
          "name": "data",
          "type": "bytes"
        },
        {
          "internalType": "int256",
          "name": "value",
          "type": "int256"
        }
      ],
      "name": "setInt",
      "outputs": [],
      "stateMutability": "nonpayable",
      "type": "function"
    },
    {
      "inputs": [
        {
          "internalType": "bytes32",
          "name": "baseKey",
          "type": "bytes32"
        },
        {
          "internalType": "bytes",
          "name": "data",
          "type": "bytes"
        },
        {
          "internalType": "uint256",
          "name": "value",
          "type": "uint256"
        }
      ],
      "name": "setUint",
      "outputs": [],
      "stateMutability": "nonpayable",
      "type": "function"
    }
  ],
  "bytecode": "0x60e06040523480156200001157600080fd5b5060405162004c4438038062004c44833981016040819052620000349162002494565b60016000556001600160a01b0380841660805282811660a052811660c0526200005c62000065565b505050620024e8565b60018060006040516020016200009e906020808252600f908201526e484f4c44494e475f4144445245535360881b604082015260600190565b60405160208183030381529060405280519060200120815260200190815260200160002060006101000a81548160ff021916908315150217905550600180600060405160200162000120906020808252601e908201527f4d494e5f48414e444c455f455845435554494f4e5f4552524f525f4741530000604082015260600190565b60405160208183030381529060405280519060200120815260200190815260200160002060006101000a81548160ff021916908315150217905550600180600060405160200162000197906020808252601290820152711254d7d3505492d15517d11254d05093115160721b604082015260600190565b60405160208183030381529060405280519060200120815260200190815260200160002060006101000a81548160ff0219169083151502179055506001806000604051602001620002199060208082526014908201527f4d41585f535741505f504154485f4c454e475448000000000000000000000000604082015260600190565b60405160208183030381529060405280519060200120815260200190815260200160002060006101000a81548160ff02191690831515021790555060018060006040516020016200029b9060208082526016908201527f4d41585f43414c4c4241434b5f4741535f4c494d495400000000000000000000604082015260600190565b60405160208183030381529060405280519060200120815260200190815260200160002060006101000a81548160ff02191690831515021790555060018060006040516020016200031d9060208082526015908201527f4d494e5f504f534954494f4e5f53495a455f5553440000000000000000000000604082015260600190565b60405160208183030381529060405280519060200120815260200190815260200160002060006101000a81548160ff0219169083151502179055506001806000604051602001620003b3906020808252602b908201527f4d41585f504f534954494f4e5f494d504143545f464143544f525f464f525f4c60408201526a49515549444154494f4e5360a81b606082015260800190565b60405160208183030381529060405280519060200120815260200190815260200160002060006101000a81548160ff021916908315150217905550600180600060405160200162000427906020808252600f908201526e13505617d413d3d317d05353d55395608a1b604082015260600190565b60405160208183030381529060405280519060200120815260200190815260200160002060006101000a81548160ff02191690831515021790555060018060006040516020016200049d9060208082526011908201527013505617d3d4115397d2539511549154d5607a1b604082015260600190565b60405160208183030381529060405280519060200120815260200190815260200160002060006101000a81548160ff02191690831515021790555060018060006040516020016200051f906020808252601f908201527f4352454154455f4445504f5349545f464541545552455f44495341424c454400604082015260600190565b60405160208183030381529060405280519060200120815260200190815260200160002060006101000a81548160ff0219169083151502179055506001806000604051602001620005a1906020808252601f908201527f43414e43454c5f4445504f5349545f464541545552455f44495341424c454400604082015260600190565b60405160208183030381529060405280519060200120815260200190815260200160002060006101000a81548160ff021916908315150217905550600180600060405160200162000621906020808252818101527f455845435554455f4445504f5349545f464541545552455f44495341424c4544604082015260600190565b60405160208183030381529060405280519060200120815260200190815260200160002060006101000a81548160ff0219169083151502179055506001806000604051602001620006ae9060208082526022908201527f4352454154455f5749544844524157414c5f464541545552455f44495341424c604082015261115160f21b606082015260800190565b60405160208183030381529060405280519060200120815260200190815260200160002060006101000a81548160ff02191690831515021790555060018060006040516020016200073b9060208082526022908201527f43414e43454c5f5749544844524157414c5f464541545552455f44495341424c604082015261115160f21b606082015260800190565b60405160208183030381529060405280519060200120815260200190815260200160002060006101000a81548160ff0219169083151502179055506001806000604051602001620007c99060208082526023908201527f455845435554455f5749544844524157414c5f464541545552455f444953414260408201526213115160ea1b606082015260800190565b60405160208183030381529060405280519060200120815260200190815260200160002060006101000a81548160ff02191690831515021790555060018060006040516020016200084b906020808252601d908201527f4352454154455f4f524445525f464541545552455f44495341424c4544000000604082015260600190565b60405160208183030381529060405280519060200120815260200190815260200160002060006101000a81548160ff0219169083151502179055506001806000604051602001620008cd906020808252601e908201527f455845435554455f4f524445525f464541545552455f44495341424c45440000604082015260600190565b60405160208183030381529060405280519060200120815260200190815260200160002060006101000a81548160ff02191690831515021790555060018060006040516020016200094f906020808252601c908201527f455845435554455f41444c5f464541545552455f44495341424c454400000000604082015260600190565b60405160208183030381529060405280519060200120815260200190815260200160002060006101000a81548160ff0219169083151502179055506001806000604051602001620009d1906020808252601d908201527f5550444154455f4f524445525f464541545552455f44495341424c4544000000604082015260600190565b60405160208183030381529060405280519060200120815260200190815260200160002060006101000a81548160ff021916908315150217905550600180600060405160200162000a53906020808252601d908201527f43414e43454c5f4f524445525f464541545552455f44495341424c4544000000604082015260600190565b60405160208183030381529060405280519060200120815260200190815260200160002060006101000a81548160ff021916908315150217905550600180600060405160200162000ae19060208082526023908201527f434c41494d5f46554e44494e475f464545535f464541545552455f444953414260408201526213115160ea1b606082015260800190565b60405160208183030381529060405280519060200120815260200190815260200160002060006101000a81548160ff021916908315150217905550600180600060405160200162000b6d9060208082526021908201527f434c41494d5f434f4c4c41544552414c5f464541545552455f44495341424c456040820152601160fa1b606082015260800190565b60405160208183030381529060405280519060200120815260200190815260200160002060006101000a81548160ff021916908315150217905550600180600060405160200162000c009060208082526028908201527f434c41494d5f414646494c494154455f524557415244535f464541545552455f604082015267111254d05093115160c21b606082015260800190565b60405160208183030381529060405280519060200120815260200190815260200160002060006101000a81548160ff021916908315150217905550600180600060405160200162000c82906020808252601e908201527f434c41494d5f55495f464545535f464541545552455f44495341424c45440000604082015260600190565b60405160208183030381529060405280519060200120815260200190815260200160002060006101000a81548160ff021916908315150217905550600180600060405160200162000d04906020808252601e908201527f4d494e5f4f5241434c455f424c4f434b5f434f4e4649524d4154494f4e530000604082015260600190565b60405160208183030381529060405280519060200120815260200190815260200160002060006101000a81548160ff021916908315150217905550600180600060405160200162000d869060208082526014908201527f4d41585f4f5241434c455f50524943455f414745000000000000000000000000604082015260600190565b60405160208183030381529060405280519060200120815260200190815260200160002060006101000a81548160ff021916908315150217905550600180600060405160200162000e169060208082526025908201527f4d41585f4f5241434c455f5245465f50524943455f444556494154494f4e5f4660408201526420a1aa27a960d91b606082015260800190565b60405160208183030381529060405280519060200120815260200190815260200160002060006101000a81548160ff021916908315150217905550600180600060405160200162000e98906020808252601c908201527f504f534954494f4e5f4645455f52454345495645525f464143544f5200000000604082015260600190565b60405160208183030381529060405280519060200120815260200190815260200160002060006101000a81548160ff021916908315150217905550600180600060405160200162000f1a9060208082526018908201527f535741505f4645455f52454345495645525f464143544f520000000000000000604082015260600190565b60405160208183030381529060405280519060200120815260200190815260200160002060006101000a81548160ff021916908315150217905550600180600060405160200162000f9c906020808252601d908201527f424f52524f57494e475f4645455f52454345495645525f464143544f52000000604082015260600190565b60405160208183030381529060405280519060200120815260200190815260200160002060006101000a81548160ff02191690831515021790555060018060006040516020016200101e906020808252601d908201527f455354494d415445445f4741535f4645455f424153455f414d4f554e54000000604082015260600190565b60405160208183030381529060405280519060200120815260200190815260200160002060006101000a81548160ff0219169083151502179055506001806000604051602001620010ac9060208082526023908201527f455354494d415445445f4741535f4645455f4d554c5449504c4945525f4641436040820152622a27a960e91b606082015260800190565b60405160208183030381529060405280519060200120815260200190815260200160002060006101000a81548160ff02191690831515021790555060018060006040516020016200112e906020808252601d908201527f455845435554494f4e5f4741535f4645455f424153455f414d4f554e54000000604082015260600190565b60405160208183030381529060405280519060200120815260200190815260200160002060006101000a81548160ff0219169083151502179055506001806000604051602001620011bc9060208082526023908201527f455845435554494f4e5f4741535f4645455f4d554c5449504c4945525f4641436040820152622a27a960e91b606082015260800190565b60405160208183030381529060405280519060200120815260200190815260200160002060006101000a81548160ff0219169083151502179055506001806000604051602001620012329060208082526011908201527011115413d4d25517d1d054d7d312535255607a1b604082015260600190565b60405160208183030381529060405280519060200120815260200190815260200160002060006101000a81548160ff021916908315150217905550600180600062001287620023ff60201b62000d8d1760201c565b815260200190815260200160002060006101000a81548160ff0219169083151502179055506001806000604051602001620012f39060208082526015908201527f53494e474c455f535741505f4741535f4c494d49540000000000000000000000604082015260600190565b60405160208183030381529060405280519060200120815260200190815260200160002060006101000a81548160ff0219169083151502179055506001806000604051602001620013759060208082526018908201527f494e4352454153455f4f524445525f4741535f4c494d49540000000000000000604082015260600190565b60405160208183030381529060405280519060200120815260200190815260200160002060006101000a81548160ff0219169083151502179055506001806000604051602001620013f79060208082526018908201527f44454352454153455f4f524445525f4741535f4c494d49540000000000000000604082015260600190565b60405160208183030381529060405280519060200120815260200190815260200160002060006101000a81548160ff0219169083151502179055506001806000604051602001620014799060208082526014908201527f535741505f4f524445525f4741535f4c494d4954000000000000000000000000604082015260600190565b60405160208183030381529060405280519060200120815260200190815260200160002060006101000a81548160ff0219169083151502179055506001806000604051602001620014fb9060208082526018908201527f544f4b454e5f5452414e534645525f4741535f4c494d49540000000000000000604082015260600190565b60405160208183030381529060405280519060200120815260200190815260200160002060006101000a81548160ff02191690831515021790555060018060006040516020016200157d906020808252601f908201527f4e41544956455f544f4b454e5f5452414e534645525f4741535f4c494d495400604082015260600190565b60405160208183030381529060405280519060200120815260200190815260200160002060006101000a81548160ff0219169083151502179055506001806000604051602001620015ff906020808252601c908201527f524551554553545f45585049524154494f4e5f424c4f434b5f41474500000000604082015260600190565b60405160208183030381529060405280519060200120815260200190815260200160002060006101000a81548160ff0219169083151502179055506001806000604051602001620016819060208082526015908201527f4d494e5f434f4c4c41544552414c5f464143544f520000000000000000000000604082015260600190565b60405160208183030381529060405280519060200120815260200190815260200160002060006101000a81548160ff02191690831515021790555060018060006040516020016200171e9060208082526032908201527f4d494e5f434f4c4c41544552414c5f464143544f525f464f525f4f50454e5f49604082015271272a22a922a9aa2fa6aaa62a24a82624a2a960711b606082015260800190565b60405160208183030381529060405280519060200120815260200190815260200160002060006101000a81548160ff0219169083151502179055506001806000604051602001620017959060208082526012908201527113525397d0d3d31310551154905317d554d160721b604082015260600190565b60405160208183030381529060405280519060200120815260200190815260200160002060006101000a81548160ff02191690831515021790555060018060006040516020016200180a9060208082526010908201526f1592549515505317d513d2d15397d25160821b604082015260600190565b60405160208183030381529060405280519060200120815260200190815260200160002060006101000a81548160ff021916908315150217905550600180600060405160200162001880906020808252601190820152701592549515505317d3505492d15517d251607a1b604082015260600190565b60405160208183030381529060405280519060200120815260200190815260200160002060006101000a81548160ff021916908315150217905550600180600060405160200162001902906020808252601b908201527f5649525455414c5f494e56454e544f52595f464f525f53574150530000000000604082015260600190565b60405160208183030381529060405280519060200120815260200190815260200160002060006101000a81548160ff021916908315150217905550600180600060405160200162001984906020808252601f908201527f5649525455414c5f494e56454e544f52595f464f525f504f534954494f4e5300604082015260600190565b60405160208183030381529060405280519060200120815260200190815260200160002060006101000a81548160ff021916908315150217905550600180600060405160200162001a069060208082526016908201527f504f534954494f4e5f494d504143545f464143544f5200000000000000000000604082015260600190565b60405160208183030381529060405280519060200120815260200190815260200160002060006101000a81548160ff021916908315150217905550600180600060405160200162001a88906020808252601f908201527f504f534954494f4e5f494d504143545f4558504f4e454e545f464143544f5200604082015260600190565b60405160208183030381529060405280519060200120815260200190815260200160002060006101000a81548160ff021916908315150217905550600180600060405160200162001b0a906020808252601a908201527f4d41585f504f534954494f4e5f494d504143545f464143544f52000000000000604082015260600190565b60405160208183030381529060405280519060200120815260200190815260200160002060006101000a81548160ff021916908315150217905550600180600060405160200162001b8c9060208082526013908201527f504f534954494f4e5f4645455f464143544f5200000000000000000000000000604082015260600190565b60405160208183030381529060405280519060200120815260200190815260200160002060006101000a81548160ff021916908315150217905550600180600060405160200162001c039060208082526012908201527129aba0a82fa4a6a820a1aa2fa320a1aa27a960711b604082015260600190565b60405160208183030381529060405280519060200120815260200190815260200160002060006101000a81548160ff021916908315150217905550600180600060405160200162001c85906020808252601b908201527f535741505f494d504143545f4558504f4e454e545f464143544f520000000000604082015260600190565b60405160208183030381529060405280519060200120815260200190815260200160002060006101000a81548160ff021916908315150217905550600180600060405160200162001cf9906020808252600f908201526e29aba0a82fa322a2afa320a1aa27a960891b604082015260600190565b60405160208183030381529060405280519060200120815260200190815260200160002060006101000a81548160ff021916908315150217905550600180600060405160200162001d6f9060208082526011908201527026a0ac2faaa4afa322a2afa320a1aa27a960791b604082015260600190565b60405160208183030381529060405280519060200120815260200190815260200160002060006101000a81548160ff021916908315150217905550600180600060405160200162001ddf906020808252600b908201526a4f5241434c455f5459504560a81b604082015260600190565b60405160208183030381529060405280519060200120815260200190815260200160002060006101000a81548160ff021916908315150217905550600180600060405160200162001e52906020808252600e908201526d2922a9a2a92b22afa320a1aa27a960911b604082015260600190565b60405160208183030381529060405280519060200120815260200190815260200160002060006101000a81548160ff021916908315150217905550600180600060405160200162001ed4906020808252601c908201527f4f50454e5f494e5445524553545f524553455256455f464143544f5200000000604082015260600190565b60405160208183030381529060405280519060200120815260200190815260200160002060006101000a81548160ff021916908315150217905550600180600060405160200162001f47906020808252600e908201526d26a0ac2fa827262fa320a1aa27a960911b604082015260600190565b60405160208183030381529060405280519060200120815260200190815260200160002060006101000a81548160ff021916908315150217905550600180600060405160200162001fc99060208082526018908201527f4d494e5f504e4c5f464143544f525f41465445525f41444c0000000000000000604082015260600190565b60405160208183030381529060405280519060200120815260200190815260200160002060006101000a81548160ff02191690831515021790555060018060006040516020016200203c906020808252600e908201526d232aa72224a723afa320a1aa27a960911b604082015260600190565b60405160208183030381529060405280519060200120815260200190815260200160002060006101000a81548160ff0219169083151502179055506001806000604051602001620020be9060208082526015908201527f535441424c455f46554e44494e475f464143544f520000000000000000000000604082015260600190565b60405160208183030381529060405280519060200120815260200190815260200160002060006101000a81548160ff0219169083151502179055506001806000604051602001620021409060208082526017908201527f46554e44494e475f4558504f4e454e545f464143544f52000000000000000000604082015260600190565b60405160208183030381529060405280519060200120815260200190815260200160002060006101000a81548160ff0219169083151502179055506001806000604051602001620021b59060208082526010908201526f2127a92927aba4a723afa320a1aa27a960811b604082015260600190565b60405160208183030381529060405280519060200120815260200190815260200160002060006101000a81548160ff0219169083151502179055506001806000604051602001620022379060208082526019908201527f424f52524f57494e475f4558504f4e454e545f464143544f5200000000000000604082015260600190565b60405160208183030381529060405280519060200120815260200190815260200160002060006101000a81548160ff0219169083151502179055506001806000604051602001620022c59060208082526023908201527f534b49505f424f52524f57494e475f4645455f464f525f534d414c4c45525f5360408201526249444560e81b606082015260800190565b60405160208183030381529060405280519060200120815260200190815260200160002060006101000a81548160ff021916908315150217905550600180600060405160200162002347906020808252601b908201527f434c41494d41424c455f434f4c4c41544552414c5f464143544f520000000000604082015260600190565b60405160208183030381529060405280519060200120815260200190815260200160002060006101000a81548160ff0219169083151502179055506001806000604051602001620023c9906020808252601d908201527f50524943455f464545445f4845415254424541545f4455524154494f4e000000604082015260600190565b60408051808303601f19018152918152815160209283012083529082019290925201600020805460ff1916911515919091179055565b6000604051602001620024439060208082526014908201527f5749544844524157414c5f4741535f4c494d4954000000000000000000000000604082015260600190565b60408051601f198184030181528282528051602091820120908301520160405160208183030381529060405280519060200120905090565b6001600160a01b03811681146200249157600080fd5b50565b600080600060608486031215620024aa57600080fd5b8351620024b7816200247b565b6020850151909350620024ca816200247b565b6040850151909250620024dd816200247b565b809150509250925092565b60805160a05160c0516126df6200256560003960008181610169015281816103f1015281816106210152818161082901528181610a1f0152610d56015260008181610142015281816102ac015281816104dd015281816106c9015281816108cf0152610c030152600081816101030152610e1b01526126df6000f3fe608060405234801561001057600080fd5b50600436106100995760003560e01c8063039f2ca61461009e57806306850ad9146100b3578063160d0ce6146100eb5780634a4a7b04146100fe578063660d0d671461013d5780639ff78c3014610164578063a43f85c51461018b578063aa0179a51461019e578063ac9650d8146101b1578063af4937fc146101d1578063f70f0da2146101e7575b600080fd5b6100b16100ac3660046118a9565b6101fa565b005b6100d66100c13660046118f8565b60016020526000908152604090205460ff1681565b60405190151581526020015b60405180910390f35b6100b16100f9366004611926565b610466565b6101257f000000000000000000000000000000000000000000000000000000000000000081565b6040516001600160a01b0390911681526020016100e2565b6101257f000000000000000000000000000000000000000000000000000000000000000081565b6101257f000000000000000000000000000000000000000000000000000000000000000081565b6100b16101993660046118a9565b610658565b6100b16101ac36600461198e565b610860565b6101c46101bf3660046119dd565b610a56565b6040516100e29190611af6565b6101d9610b75565b6040519081526020016100e2565b6100b16101f53660046118a9565b610b9b565b61024d60405160200161020c90611b10565b604051602081830303815290604052805190602001206040518060400160405280600d81526020016c21a7a72324a3afa5a2a2a822a960991b815250610dff565b6002600054036102785760405162461bcd60e51b815260040161026f90611b37565b60405180910390fd5b600260005561028683610eb3565b60006102928484610ee8565b6040516309d23b6160e31b81529091506001600160a01b037f00000000000000000000000000000000000000000000000000000000000000001690634e91db08906102e39084908690600401611b6e565b6020604051808303816000875af1158015610302573d6000803e3d6000fd5b505050506040513d601f19601f820116820180604052508101906103269190611b7c565b5061032f6116f5565b608081015161033f906002610f2b565b604080518082019091526007815266626173654b657960c81b6020820152608082015161036f9160009088610f90565b60408051808201909152600581526476616c756560d81b6020820152608082015161039d9160019086610f90565b60a08101516103ad906001610fe3565b6040805180820190915260048152636461746160e01b602082015260a08201516103da9160009087611045565b604051630937807960e21b81526001600160a01b037f000000000000000000000000000000000000000000000000000000000000000016906324de01e49061042890889085906004016123aa565b600060405180830381600087803b15801561044257600080fd5b505af1158015610456573d6000803e3d6000fd5b5050600160005550505050505050565b61047860405160200161020c90611b10565b60026000540361049a5760405162461bcd60e51b815260040161026f90611b37565b60026000556104a883610eb3565b60006104b48484610ee8565b60405163ca446dd960e01b8152600481018290526001600160a01b0384811660248301529192507f00000000000000000000000000000000000000000000000000000000000000009091169063ca446dd9906044016020604051808303816000875af1158015610528573d6000803e3d6000fd5b505050506040513d601f19601f8201168201806040525081019061054c91906123ec565b506105556116f5565b6080810151610565906001610f2b565b604080518082019091526007815266626173654b657960c81b602082015260808201516105959160009088610f90565b60a08101516105a5906001610fe3565b6040805180820190915260048152636461746160e01b602082015260a08201516105d29160009087611045565b80516105df906001610f2b565b60408051808201909152600581526476616c756560d81b6020820152815161060a9160009086611097565b604051630937807960e21b81526001600160a01b037f000000000000000000000000000000000000000000000000000000000000000016906324de01e4906104289088908590600401612409565b61066a60405160200161020c90611b10565b60026000540361068c5760405162461bcd60e51b815260040161026f90611b37565b600260005561069a83610eb3565b60006106a68484610ee8565b90506106b284836110f4565b604051637152429d60e11b81526001600160a01b037f0000000000000000000000000000000000000000000000000000000000000000169063e2a4853a906107009084908690600401611b6e565b6020604051808303816000875af115801561071f573d6000803e3d6000fd5b505050506040513d601f19601f820116820180604052508101906107439190611b7c565b5061074c6116f5565b608081015161075c906001610f2b565b604080518082019091526007815266626173654b657960c81b6020820152608082015161078c9160009088610f90565b60a081015161079c906001610fe3565b6040805180820190915260048152636461746160e01b602082015260a08201516107c99160009087611045565b60208101516107d9906001610f2b565b61081260006040518060400160405280600581526020016476616c756560d81b815250858460200151610f90909392919063ffffffff16565b604051630937807960e21b81526001600160a01b037f000000000000000000000000000000000000000000000000000000000000000016906324de01e4906104289088908590600401612443565b61087260405160200161020c90611b10565b6002600054036108945760405162461bcd60e51b815260040161026f90611b37565b60026000556108a283610eb3565b60006108ae8484610ee8565b60405163abfdcced60e01b81526004810182905283151560248201529091507f00000000000000000000000000000000000000000000000000000000000000006001600160a01b03169063abfdcced906044016020604051808303816000875af1158015610920573d6000803e3d6000fd5b505050506040513d601f19601f82011682018060405250810190610944919061247a565b5061094d6116f5565b608081015161095d906001610f2b565b604080518082019091526007815266626173654b657960c81b6020820152608082015161098d9160009088610f90565b60a081015161099d906001610fe3565b6040805180820190915260048152636461746160e01b602082015260a08201516109ca9160009087611045565b60608101516109da906001610f2b565b60408051808201909152600581526476616c756560d81b60208201526060820151610a0891600090866115c9565b604051630937807960e21b81526001600160a01b037f000000000000000000000000000000000000000000000000000000000000000016906324de01e4906104289088908590600401612497565b6060816001600160401b03811115610a7057610a706117e6565b604051908082528060200260200182016040528015610aa357816020015b6060815260200190600190039081610a8e5790505b50905060005b82811015610b6d5760008030868685818110610ac757610ac76124ce565b9050602002810190610ad991906124e4565b604051610ae7929190612531565b600060405180830381855af49150503d8060008114610b22576040519150601f19603f3d011682016040523d82523d6000602084013e610b27565b606091505b509150915081610b3a57610b3a8161161e565b80848481518110610b4d57610b4d6124ce565b602002602001018190525050508080610b6590612557565b915050610aa9565b505b92915050565b6064610b8e68327cb2734119d3b7a9601e1b6005612570565b610b989190612587565b81565b610bad60405160200161020c90611b10565b600260005403610bcf5760405162461bcd60e51b815260040161026f90611b37565b6002600055610bdd83610eb3565b6000610be98484610ee8565b6040516303e49bed60e41b81529091506001600160a01b037f00000000000000000000000000000000000000000000000000000000000000001690633e49bed090610c3a9084908690600401611b6e565b6020604051808303816000875af1158015610c59573d6000803e3d6000fd5b505050506040513d601f19601f82011682018060405250810190610c7d9190611b7c565b50610c866116f5565b6080810151610c96906001610f2b565b604080518082019091526007815266626173654b657960c81b60208201526080820151610cc69160009088610f90565b60a0810151610cd6906001610fe3565b6040805180820190915260048152636461746160e01b602082015260a0820151610d039160009087611045565b6040810151610d13906001610f2b565b604080518082018252600581526476616c756560d81b602082015290820151610d3f9160009086610f90565b604051630937807960e21b81526001600160a01b037f000000000000000000000000000000000000000000000000000000000000000016906324de01e49061042890889085906004016125a9565b6000604051602001610dc79060208082526014908201527315d2551211149055d05317d1d054d7d31253525560621b604082015260600190565b60408051601f198184030181528282528051602091820120908301520160405160208183030381529060405280519060200120905090565b60405163ac4ab3fb60e01b8152336004820152602481018390527f00000000000000000000000000000000000000000000000000000000000000006001600160a01b03169063ac4ab3fb90604401602060405180830381865afa158015610e6a573d6000803e3d6000fd5b505050506040513d601f19601f82011682018060405250810190610e8e919061247a565b610eaf57338160405163a35b150b60e01b815260040161026f9291906125df565b5050565b60008181526001602052604090205460ff16610ee55760405163eb19d3f560e01b81526004810182905260240161026f565b50565b60008151600003610efa575081610b6f565b8282604051602001610f0d929190612603565b60405160208183030381529060405280519060200120905092915050565b806001600160401b03811115610f4357610f436117e6565b604051908082528060200260200182016040528015610f8957816020015b604080518082019091526060815260006020820152815260200190600190039081610f615790505b5090915250565b8184600001518481518110610fa757610fa76124ce565b6020026020010151600001819052508084600001518481518110610fcd57610fcd6124ce565b6020026020010151602001818152505050505050565b806001600160401b03811115610ffb57610ffb6117e6565b604051908082528060200260200182016040528015610f8957816020015b604080518082019091526060808252602082015281526020019060019003908161101957505090915250565b818460000151848151811061105c5761105c6124ce565b6020026020010151600001819052508084600001518481518110611082576110826124ce565b60200260200101516020018190525050505050565b81846000015184815181106110ae576110ae6124ce565b60200260200101516000018190525080846000015184815181106110d4576110d46124ce565b6020908102919091018101516001600160a01b0390921691015250505050565b604051602001611126906020808252600e908201526d232aa72224a723afa320a1aa27a960911b604082015260600190565b6040516020818303038152906040528051906020012082148061119157506040516020016111789060208082526010908201526f2127a92927aba4a723afa320a1aa27a960811b604082015260600190565b6040516020818303038152906040528051906020012082145b156111dd5760646111af68327cb2734119d3b7a9601e1b6001612570565b6111b99190612587565b8111156111dd578181604051633384d6fd60e21b815260040161026f929190611b6e565b604051602001611210906020808252600f908201526e29aba0a82fa322a2afa320a1aa27a960891b604082015260600190565b6040516020818303038152906040528051906020012082148061127e5750604051602001611265906020808252601390820152722827a9a4aa24a7a72fa322a2afa320a1aa27a960691b604082015260600190565b6040516020818303038152906040528051906020012082145b806112d257506040516020016112b99060208082526011908201527026a0ac2faaa4afa322a2afa320a1aa27a960791b604082015260600190565b6040516020818303038152906040528051906020012082145b1561131e5760646112f068327cb2734119d3b7a9601e1b6005612570565b6112fa9190612587565b81111561131e578181604051633384d6fd60e21b815260040161026f929190611b6e565b60405160200161135e906020808252601c908201527b2827a9a4aa24a7a72fa322a2afa922a1a2a4ab22a92fa320a1aa27a960211b604082015260600190565b604051602081830303815290604052805190602001208214806113d157506040516020016113b89060208082526018908201527729aba0a82fa322a2afa922a1a2a4ab22a92fa320a1aa27a960411b604082015260600190565b6040516020818303038152906040528051906020012082145b806114315750604051602001611418906020808252601d908201527f424f52524f57494e475f4645455f52454345495645525f464143544f52000000604082015260600190565b6040516020818303038152906040528051906020012082145b8061148957506040516020016114709060208082526015908201527426a4a72fa1a7a62620aa22a920a62fa320a1aa27a960591b604082015260600190565b6040516020818303038152906040528051906020012082145b806114da57506040516020016114c1906020808252600e908201526d26a0ac2fa827262fa320a1aa27a960911b604082015260600190565b6040516020818303038152906040528051906020012082145b80611535575060405160200161151c9060208082526018908201527713525397d4139317d19050d513d497d05195115497d0511360421b604082015260600190565b6040516020818303038152906040528051906020012082145b80611593575060405160200161157a906020808252601b908201527a21a620a4a6a0a12622afa1a7a62620aa22a920a62fa320a1aa27a960291b604082015260600190565b6040516020818303038152906040528051906020012082145b15610eaf5768327cb2734119d3b7a9601e1b811115610eaf578181604051633384d6fd60e21b815260040161026f929190611b6e565b81846000015184815181106115e0576115e06124ce565b6020026020010151600001819052508084600001518481518110611606576116066124ce565b60209081029190910181015191151591015250505050565b60008061162a8361165c565b91509150801561164e578160405162461bcd60e51b815260040161026f9190612629565b611657836116ec565b505050565b60606000604483511015611683575050604080516020810190915260008082529092909150565b6000611690846020015190565b90506307b9e43360e51b6001600160e01b03198216016116cf57600484019350838060200190518101906116c4919061263c565b946001945092505050565b600060405180602001604052806000815250909250925050915091565b80518060208301fd5b604080516101208101909152606060e0820181815261010083019190915281908152602001611737604051806040016040528060608152602001606081525090565b8152602001611759604051806040016040528060608152602001606081525090565b815260200161177b604051806040016040528060608152602001606081525090565b815260200161179d604051806040016040528060608152602001606081525090565b81526020016117bf604051806040016040528060608152602001606081525090565b81526020016117e1604051806040016040528060608152602001606081525090565b905290565b634e487b7160e01b600052604160045260246000fd5b604051601f8201601f191681016001600160401b0381118282101715611824576118246117e6565b604052919050565b60006001600160401b03821115611845576118456117e6565b50601f01601f191660200190565b600082601f83011261186457600080fd5b81356118776118728261182c565b6117fc565b81815284602083860101111561188c57600080fd5b816020850160208301376000918101602001919091529392505050565b6000806000606084860312156118be57600080fd5b8335925060208401356001600160401b038111156118db57600080fd5b6118e786828701611853565b925050604084013590509250925092565b60006020828403121561190a57600080fd5b5035919050565b6001600160a01b0381168114610ee557600080fd5b60008060006060848603121561193b57600080fd5b8335925060208401356001600160401b0381111561195857600080fd5b61196486828701611853565b925050604084013561197581611911565b809150509250925092565b8015158114610ee557600080fd5b6000806000606084860312156119a357600080fd5b8335925060208401356001600160401b038111156119c057600080fd5b6119cc86828701611853565b925050604084013561197581611980565b600080602083850312156119f057600080fd5b82356001600160401b0380821115611a0757600080fd5b818501915085601f830112611a1b57600080fd5b813581811115611a2a57600080fd5b8660208260051b8501011115611a3f57600080fd5b60209290920196919550909350505050565b60005b83811015611a6c578181015183820152602001611a54565b50506000910152565b60008151808452611a8d816020860160208601611a51565b601f01601f19169290920160200192915050565b600081518084526020808501808196508360051b8101915082860160005b85811015611ae9578284038952611ad7848351611a75565b98850198935090840190600101611abf565b5091979650505050505050565b602081526000611b096020830184611aa1565b9392505050565b6020808252600d908201526c21a7a72324a3afa5a2a2a822a960991b604082015260600190565b6020808252601f908201527f5265656e7472616e637947756172643a207265656e7472616e742063616c6c00604082015260600190565b918252602082015260400190565b600060208284031215611b8e57600080fd5b5051919050565b600081518084526020808501808196508360051b810191508286016000805b86811015611c30578385038a52825160408151818852611bd682890182611a75565b92890151888403898b01528051808552908a01938693508a0191505b80831015611c1b5783516001600160a01b03168252928901926001929092019190890190611bf2565b509b88019b9650505091850191600101611bb4565b509298975050505050505050565b60006040808401835182865281815180845260608801915060608160051b89010193506020808401935060005b82811015611cb557898603605f1901845284518051888852611c8f89890182611a75565b918401516001600160a01b03169784019790975295509381019392810192600101611c6b565b50808801519550888503818a015250505050611cd18183611b95565b95945050505050565b600081518084526020808501808196508360051b810191508286016000805b86811015611c30578385038a52825160408151818852611d1b82890182611a75565b92890151888403898b01528051808552908a01938693508a0191505b80831015611d575783518252928901926001929092019190890190611d37565b509b88019b9650505091850191600101611cf9565b60006040808401835182865281815180845260608801915060608160051b89010193506020808401935060005b82811015611dda57898603605f1901845284518051888852611dbd89890182611a75565b918401519784019790975295509381019392810192600101611d99565b50808801519550888503818a015250505050611cd18183611cda565b600081518084526020808501808196508360051b810191508286016000805b86811015611c30578385038a52825160408151818852611e3782890182611a75565b92890151888403898b01528051808552908a01938693508a0191505b80831015611e735783518252928901926001929092019190890190611e53565b509b88019b9650505091850191600101611e15565b60006040808401835182865281815180845260608801915060608160051b89010193506020808401935060005b82811015611ef657898603605f1901845284518051888852611ed989890182611a75565b918401519784019790975295509381019392810192600101611eb5565b50808801519550888503818a015250505050611cd18183611df6565b600081518084526020808501808196508360051b810191508286016000805b86811015611c30578385038a52825160408151818852611f5382890182611a75565b92890151888403898b01528051808552908a01938693508a0191505b80831015611f9157835115158252928901926001929092019190890190611f6f565b509b88019b9650505091850191600101611f31565b60006040808401835182865281815180845260608801915060608160051b89010193506020808401935060005b8281101561201657898603605f1901845284518051888852611ff789890182611a75565b9184015115159784019790975295509381019392810192600101611fd3565b50808801519550888503818a015250505050611cd18183611f12565b60006040808401835182865281815180845260608801915060608160051b89010193506020808401935060005b82811015611dda57898603605f190184528451805188885261208389890182611a75565b91840151978401979097529550938101939281019260010161205f565b600081518084526020808501808196508360051b8101915082860160005b85811015611ae95782840389528151604081518187526120e082880182611a75565b915050868201519150858103878701526120fa8183611aa1565b9a87019a95505050908401906001016120be565b60006040808401835182865281815180845260608801915060608160051b89010193506020808401935060005b8281101561218b57898603605f190184528451805188885261215f89890182611a75565b91840151888303898601529190506121778183611a75565b97505050938101939281019260010161213b565b50808801519550888503818a015250505050611cd181836120a0565b600081518084526020808501808196506005915083821b81018387016000805b87811015612252578484038b528251604081518187526121e982880182611a75565b928a0151878403888c01528051808552908b019392508a83019150808a1b83018b01865b8281101561223b57601f19858303018452612229828751611a75565b958d0195938d0193915060010161220d565b509e8b019e975050509388019350506001016121c7565b50919998505050505050505050565b60006040808401835182865281815180845260608801915060608160051b89010193506020808401935060005b828110156122de57898603605f19018452845180518888526122b289890182611a75565b91840151888303898601529190506122ca8183611a75565b97505050938101939281019260010161228e565b50808801519550888503818a015250505050611cd181836121a7565b6000815160e0845261230f60e0850182611c3e565b9050602083015184820360208601526123288282611d6c565b915050604083015184820360408601526123428282611e88565b9150506060830151848203606086015261235c8282611fa6565b915050608083015184820360808601526123768282612032565b91505060a083015184820360a0860152612390828261210e565b91505060c083015184820360c0860152611cd18282612261565b60608152600a60608201526929b2ba213cba32b9999960b11b608082015282602082015260a0604082015260006123e460a08301846122fa565b949350505050565b6000602082840312156123fe57600080fd5b8151611b0981611911565b60608152600a6060820152695365744164647265737360b01b608082015282602082015260a0604082015260006123e460a08301846122fa565b60608152600760608201526614d95d155a5b9d60ca1b608082015282602082015260a0604082015260006123e460a08301846122fa565b60006020828403121561248c57600080fd5b8151611b0981611980565b60608152600760608201526614d95d109bdbdb60ca1b608082015282602082015260a0604082015260006123e460a08301846122fa565b634e487b7160e01b600052603260045260246000fd5b6000808335601e198436030181126124fb57600080fd5b8301803591506001600160401b0382111561251557600080fd5b60200191503681900382131561252a57600080fd5b9250929050565b8183823760009101908152919050565b634e487b7160e01b600052601160045260246000fd5b60006001820161256957612569612541565b5060010190565b8082028115828204841417610b6f57610b6f612541565b6000826125a457634e487b7160e01b600052601260045260246000fd5b500490565b60608152600660608201526514d95d125b9d60d21b608082015282602082015260a0604082015260006123e460a08301846122fa565b6001600160a01b03831681526040602082018190526000906123e490830184611a75565b8281526000825161261b816020850160208701611a51565b919091016020019392505050565b602081526000611b096020830184611a75565b60006020828403121561264e57600080fd5b81516001600160401b0381111561266457600080fd5b8201601f8101841361267557600080fd5b80516126836118728261182c565b81815285602083850101111561269857600080fd5b611cd1826020830160208601611a5156fea26469706673582212201d8ac689de90ba868b3fc89e6f69f2b237238f41876f90af9ab3d891fc562a1d64736f6c63430008120033",
  "linkReferences": {},
  "deployedLinkReferences": {}
}