{
  "_format": "hh-sol-artifact-1",
  "contractName": "PositionUtils",
  "sourceName": "contracts/position/PositionUtils.sol",
  "abi": [
    {
      "inputs": [
        {
          "internalType": "address",
          "name": "market",
          "type": "address"
        }
      ],
      "name": "DisabledMarket",
      "type": "error"
    },
    {
      "inputs": [],
      "name": "EmptyMarket",
      "type": "error"
    },
    {
      "inputs": [
        {
          "internalType": "address",
          "name": "market",
          "type": "address"
        },
        {
          "internalType": "address",
          "name": "token",
          "type": "address"
        }
      ],
      "name": "InvalidCollateralTokenForMarket",
      "type": "error"
    },
    {
      "inputs": [
        {
          "internalType": "uint256",
          "name": "sizeInUsd",
          "type": "uint256"
        },
        {
          "internalType": "uint256",
          "name": "sizeInTokens",
          "type": "uint256"
        }
      ],
      "name": "InvalidPositionSizeValues",
      "type": "error"
    },
    {
      "inputs": [
        {
          "internalType": "string",
          "name": "reason",
          "type": "string"
        }
      ],
      "name": "LiquidatablePosition",
      "type": "error"
    },
    {
      "inputs": [
        {
          "internalType": "uint256",
          "name": "positionSizeInUsd",
          "type": "uint256"
        },
        {
          "internalType": "uint256",
          "name": "minPositionSizeUsd",
          "type": "uint256"
        }
      ],
      "name": "MinPositionSize",
      "type": "error"
    },
    {
      "inputs": [
        {
          "internalType": "uint256",
          "name": "x",
          "type": "uint256"
        }
      ],
      "name": "PRBMathUD60x18__Exp2InputTooBig",
      "type": "error"
    },
    {
      "inputs": [
        {
          "internalType": "uint256",
          "name": "x",
          "type": "uint256"
        }
      ],
      "name": "PRBMathUD60x18__LogInputTooSmall",
      "type": "error"
    },
    {
      "inputs": [
        {
          "internalType": "uint256",
          "name": "prod1",
          "type": "uint256"
        }
      ],
      "name": "PRBMath__MulDivFixedPointOverflow",
      "type": "error"
    },
    {
      "inputs": [
        {
          "internalType": "address",
          "name": "token",
          "type": "address"
        },
        {
          "internalType": "address",
          "name": "market",
          "type": "address"
        }
      ],
      "name": "UnableToGetCachedTokenPrice",
      "type": "error"
    },
    {
      "inputs": [
        {
          "internalType": "uint256",
          "name": "positionBorrowingFactor",
          "type": "uint256"
        },
        {
          "internalType": "uint256",
          "name": "cumulativeBorrowingFactor",
          "type": "uint256"
        }
      ],
      "name": "UnexpectedBorrowingFactor",
      "type": "error"
    },
    {
      "inputs": [
        {
          "internalType": "int256",
          "name": "usdDelta",
          "type": "int256"
        },
        {
          "internalType": "uint256",
          "name": "longOpenInterest",
          "type": "uint256"
        }
      ],
      "name": "UsdDeltaExceedsLongOpenInterest",
      "type": "error"
    },
    {
      "inputs": [
        {
          "internalType": "int256",
          "name": "usdDelta",
          "type": "int256"
        },
        {
          "internalType": "uint256",
          "name": "shortOpenInterest",
          "type": "uint256"
        }
      ],
      "name": "UsdDeltaExceedsShortOpenInterest",
      "type": "error"
    },
    {
      "inputs": [
        {
          "internalType": "contract DataStore",
          "name": "dataStore",
          "type": "DataStore"
        },
        {
          "components": [
            {
              "internalType": "address",
              "name": "marketToken",
              "type": "address"
            },
            {
              "internalType": "address",
              "name": "indexToken",
              "type": "address"
            },
            {
              "internalType": "address",
              "name": "longToken",
              "type": "address"
            },
            {
              "internalType": "address",
              "name": "shortToken",
              "type": "address"
            }
          ],
          "internalType": "struct Market.Props",
          "name": "market",
          "type": "tuple"
        },
        {
          "components": [
            {
              "components": [
                {
                  "internalType": "uint256",
                  "name": "min",
                  "type": "uint256"
                },
                {
                  "internalType": "uint256",
                  "name": "max",
                  "type": "uint256"
                }
              ],
              "internalType": "struct Price.Props",
              "name": "indexTokenPrice",
              "type": "tuple"
            },
            {
              "components": [
                {
                  "internalType": "uint256",
                  "name": "min",
                  "type": "uint256"
                },
                {
                  "internalType": "uint256",
                  "name": "max",
                  "type": "uint256"
                }
              ],
              "internalType": "struct Price.Props",
              "name": "longTokenPrice",
              "type": "tuple"
            },
            {
              "components": [
                {
                  "internalType": "uint256",
                  "name": "min",
                  "type": "uint256"
                },
                {
                  "internalType": "uint256",
                  "name": "max",
                  "type": "uint256"
                }
              ],
              "internalType": "struct Price.Props",
              "name": "shortTokenPrice",
              "type": "tuple"
            }
          ],
          "internalType": "struct MarketUtils.MarketPrices",
          "name": "prices",
          "type": "tuple"
        },
        {
          "components": [
            {
              "components": [
                {
                  "internalType": "address",
                  "name": "account",
                  "type": "address"
                },
                {
                  "internalType": "address",
                  "name": "market",
                  "type": "address"
                },
                {
                  "internalType": "address",
                  "name": "collateralToken",
                  "type": "address"
                }
              ],
              "internalType": "struct Position.Addresses",
              "name": "addresses",
              "type": "tuple"
            },
            {
              "components": [
                {
                  "internalType": "uint256",
                  "name": "sizeInUsd",
                  "type": "uint256"
                },
                {
                  "internalType": "uint256",
                  "name": "sizeInTokens",
                  "type": "uint256"
                },
                {
                  "internalType": "uint256",
                  "name": "collateralAmount",
                  "type": "uint256"
                },
                {
                  "internalType": "uint256",
                  "name": "borrowingFactor",
                  "type": "uint256"
                },
                {
                  "internalType": "uint256",
                  "name": "fundingFeeAmountPerSize",
                  "type": "uint256"
                },
                {
                  "internalType": "uint256",
                  "name": "longTokenClaimableFundingAmountPerSize",
                  "type": "uint256"
                },
                {
                  "internalType": "uint256",
                  "name": "shortTokenClaimableFundingAmountPerSize",
                  "type": "uint256"
                },
                {
                  "internalType": "uint256",
                  "name": "increasedAtBlock",
                  "type": "uint256"
                },
                {
                  "internalType": "uint256",
                  "name": "decreasedAtBlock",
                  "type": "uint256"
                }
              ],
              "internalType": "struct Position.Numbers",
              "name": "numbers",
              "type": "tuple"
            },
            {
              "components": [
                {
                  "internalType": "bool",
                  "name": "isLong",
                  "type": "bool"
                }
              ],
              "internalType": "struct Position.Flags",
              "name": "flags",
              "type": "tuple"
            }
          ],
          "internalType": "struct Position.Props",
          "name": "position",
          "type": "tuple"
        },
        {
          "internalType": "uint256",
          "name": "sizeDeltaUsd",
          "type": "uint256"
        }
      ],
      "name": "getPositionPnlUsd",
      "outputs": [
        {
          "internalType": "int256",
          "name": "",
          "type": "int256"
        },
        {
          "internalType": "int256",
          "name": "",
          "type": "int256"
        },
        {
          "internalType": "uint256",
          "name": "",
          "type": "uint256"
        }
      ],
      "stateMutability": "view",
      "type": "function"
    },
    {
      "inputs": [
        {
          "internalType": "contract DataStore",
          "name": "dataStore",
          "type": "DataStore"
        },
        {
          "internalType": "contract IReferralStorage",
          "name": "referralStorage",
          "type": "IReferralStorage"
        },
        {
          "components": [
            {
              "components": [
                {
                  "internalType": "address",
                  "name": "account",
                  "type": "address"
                },
                {
                  "internalType": "address",
                  "name": "market",
                  "type": "address"
                },
                {
                  "internalType": "address",
                  "name": "collateralToken",
                  "type": "address"
                }
              ],
              "internalType": "struct Position.Addresses",
              "name": "addresses",
              "type": "tuple"
            },
            {
              "components": [
                {
                  "internalType": "uint256",
                  "name": "sizeInUsd",
                  "type": "uint256"
                },
                {
                  "internalType": "uint256",
                  "name": "sizeInTokens",
                  "type": "uint256"
                },
                {
                  "internalType": "uint256",
                  "name": "collateralAmount",
                  "type": "uint256"
                },
                {
                  "internalType": "uint256",
                  "name": "borrowingFactor",
                  "type": "uint256"
                },
                {
                  "internalType": "uint256",
                  "name": "fundingFeeAmountPerSize",
                  "type": "uint256"
                },
                {
                  "internalType": "uint256",
                  "name": "longTokenClaimableFundingAmountPerSize",
                  "type": "uint256"
                },
                {
                  "internalType": "uint256",
                  "name": "shortTokenClaimableFundingAmountPerSize",
                  "type": "uint256"
                },
                {
                  "internalType": "uint256",
                  "name": "increasedAtBlock",
                  "type": "uint256"
                },
                {
                  "internalType": "uint256",
                  "name": "decreasedAtBlock",
                  "type": "uint256"
                }
              ],
              "internalType": "struct Position.Numbers",
              "name": "numbers",
              "type": "tuple"
            },
            {
              "components": [
                {
                  "internalType": "bool",
                  "name": "isLong",
                  "type": "bool"
                }
              ],
              "internalType": "struct Position.Flags",
              "name": "flags",
              "type": "tuple"
            }
          ],
          "internalType": "struct Position.Props",
          "name": "position",
          "type": "tuple"
        },
        {
          "components": [
            {
              "internalType": "address",
              "name": "marketToken",
              "type": "address"
            },
            {
              "internalType": "address",
              "name": "indexToken",
              "type": "address"
            },
            {
              "internalType": "address",
              "name": "longToken",
              "type": "address"
            },
            {
              "internalType": "address",
              "name": "shortToken",
              "type": "address"
            }
          ],
          "internalType": "struct Market.Props",
          "name": "market",
          "type": "tuple"
        },
        {
          "components": [
            {
              "components": [
                {
                  "internalType": "uint256",
                  "name": "min",
                  "type": "uint256"
                },
                {
                  "internalType": "uint256",
                  "name": "max",
                  "type": "uint256"
                }
              ],
              "internalType": "struct Price.Props",
              "name": "indexTokenPrice",
              "type": "tuple"
            },
            {
              "components": [
                {
                  "internalType": "uint256",
                  "name": "min",
                  "type": "uint256"
                },
                {
                  "internalType": "uint256",
                  "name": "max",
                  "type": "uint256"
                }
              ],
              "internalType": "struct Price.Props",
              "name": "longTokenPrice",
              "type": "tuple"
            },
            {
              "components": [
                {
                  "internalType": "uint256",
                  "name": "min",
                  "type": "uint256"
                },
                {
                  "internalType": "uint256",
                  "name": "max",
                  "type": "uint256"
                }
              ],
              "internalType": "struct Price.Props",
              "name": "shortTokenPrice",
              "type": "tuple"
            }
          ],
          "internalType": "struct MarketUtils.MarketPrices",
          "name": "prices",
          "type": "tuple"
        },
        {
          "internalType": "bool",
          "name": "shouldValidateMinCollateralUsd",
          "type": "bool"
        }
      ],
      "name": "isPositionLiquidatable",
      "outputs": [
        {
          "internalType": "bool",
          "name": "",
          "type": "bool"
        },
        {
          "internalType": "string",
          "name": "",
          "type": "string"
        }
      ],
      "stateMutability": "view",
      "type": "function"
    },
    {
      "inputs": [
        {
          "internalType": "contract DataStore",
          "name": "dataStore",
          "type": "DataStore"
        },
        {
          "internalType": "contract IReferralStorage",
          "name": "referralStorage",
          "type": "IReferralStorage"
        },
        {
          "components": [
            {
              "components": [
                {
                  "internalType": "address",
                  "name": "account",
                  "type": "address"
                },
                {
                  "internalType": "address",
                  "name": "market",
                  "type": "address"
                },
                {
                  "internalType": "address",
                  "name": "collateralToken",
                  "type": "address"
                }
              ],
              "internalType": "struct Position.Addresses",
              "name": "addresses",
              "type": "tuple"
            },
            {
              "components": [
                {
                  "internalType": "uint256",
                  "name": "sizeInUsd",
                  "type": "uint256"
                },
                {
                  "internalType": "uint256",
                  "name": "sizeInTokens",
                  "type": "uint256"
                },
                {
                  "internalType": "uint256",
                  "name": "collateralAmount",
                  "type": "uint256"
                },
                {
                  "internalType": "uint256",
                  "name": "borrowingFactor",
                  "type": "uint256"
                },
                {
                  "internalType": "uint256",
                  "name": "fundingFeeAmountPerSize",
                  "type": "uint256"
                },
                {
                  "internalType": "uint256",
                  "name": "longTokenClaimableFundingAmountPerSize",
                  "type": "uint256"
                },
                {
                  "internalType": "uint256",
                  "name": "shortTokenClaimableFundingAmountPerSize",
                  "type": "uint256"
                },
                {
                  "internalType": "uint256",
                  "name": "increasedAtBlock",
                  "type": "uint256"
                },
                {
                  "internalType": "uint256",
                  "name": "decreasedAtBlock",
                  "type": "uint256"
                }
              ],
              "internalType": "struct Position.Numbers",
              "name": "numbers",
              "type": "tuple"
            },
            {
              "components": [
                {
                  "internalType": "bool",
                  "name": "isLong",
                  "type": "bool"
                }
              ],
              "internalType": "struct Position.Flags",
              "name": "flags",
              "type": "tuple"
            }
          ],
          "internalType": "struct Position.Props",
          "name": "position",
          "type": "tuple"
        },
        {
          "components": [
            {
              "internalType": "address",
              "name": "marketToken",
              "type": "address"
            },
            {
              "internalType": "address",
              "name": "indexToken",
              "type": "address"
            },
            {
              "internalType": "address",
              "name": "longToken",
              "type": "address"
            },
            {
              "internalType": "address",
              "name": "shortToken",
              "type": "address"
            }
          ],
          "internalType": "struct Market.Props",
          "name": "market",
          "type": "tuple"
        },
        {
          "components": [
            {
              "components": [
                {
                  "internalType": "uint256",
                  "name": "min",
                  "type": "uint256"
                },
                {
                  "internalType": "uint256",
                  "name": "max",
                  "type": "uint256"
                }
              ],
              "internalType": "struct Price.Props",
              "name": "indexTokenPrice",
              "type": "tuple"
            },
            {
              "components": [
                {
                  "internalType": "uint256",
                  "name": "min",
                  "type": "uint256"
                },
                {
                  "internalType": "uint256",
                  "name": "max",
                  "type": "uint256"
                }
              ],
              "internalType": "struct Price.Props",
              "name": "longTokenPrice",
              "type": "tuple"
            },
            {
              "components": [
                {
                  "internalType": "uint256",
                  "name": "min",
                  "type": "uint256"
                },
                {
                  "internalType": "uint256",
                  "name": "max",
                  "type": "uint256"
                }
              ],
              "internalType": "struct Price.Props",
              "name": "shortTokenPrice",
              "type": "tuple"
            }
          ],
          "internalType": "struct MarketUtils.MarketPrices",
          "name": "prices",
          "type": "tuple"
        },
        {
          "internalType": "bool",
          "name": "shouldValidateMinPositionSize",
          "type": "bool"
        },
        {
          "internalType": "bool",
          "name": "shouldValidateMinCollateralUsd",
          "type": "bool"
        }
      ],
      "name": "validatePosition",
      "outputs": [],
      "stateMutability": "view",
      "type": "function"
    },
    {
      "inputs": [
        {
          "internalType": "contract DataStore",
          "name": "dataStore",
          "type": "DataStore"
        },
        {
          "components": [
            {
              "internalType": "address",
              "name": "marketToken",
              "type": "address"
            },
            {
              "internalType": "address",
              "name": "indexToken",
              "type": "address"
            },
            {
              "internalType": "address",
              "name": "longToken",
              "type": "address"
            },
            {
              "internalType": "address",
              "name": "shortToken",
              "type": "address"
            }
          ],
          "internalType": "struct Market.Props",
          "name": "market",
          "type": "tuple"
        },
        {
          "components": [
            {
              "components": [
                {
                  "internalType": "uint256",
                  "name": "min",
                  "type": "uint256"
                },
                {
                  "internalType": "uint256",
                  "name": "max",
                  "type": "uint256"
                }
              ],
              "internalType": "struct Price.Props",
              "name": "indexTokenPrice",
              "type": "tuple"
            },
            {
              "components": [
                {
                  "internalType": "uint256",
                  "name": "min",
                  "type": "uint256"
                },
                {
                  "internalType": "uint256",
                  "name": "max",
                  "type": "uint256"
                }
              ],
              "internalType": "struct Price.Props",
              "name": "longTokenPrice",
              "type": "tuple"
            },
            {
              "components": [
                {
                  "internalType": "uint256",
                  "name": "min",
                  "type": "uint256"
                },
                {
                  "internalType": "uint256",
                  "name": "max",
                  "type": "uint256"
                }
              ],
              "internalType": "struct Price.Props",
              "name": "shortTokenPrice",
              "type": "tuple"
            }
          ],
          "internalType": "struct MarketUtils.MarketPrices",
          "name": "prices",
          "type": "tuple"
        },
        {
          "internalType": "address",
          "name": "collateralToken",
          "type": "address"
        },
        {
          "internalType": "bool",
          "name": "isLong",
          "type": "bool"
        },
        {
          "components": [
            {
              "internalType": "uint256",
              "name": "positionSizeInUsd",
              "type": "uint256"
            },
            {
              "internalType": "uint256",
              "name": "positionCollateralAmount",
              "type": "uint256"
            },
            {
              "internalType": "int256",
              "name": "realizedPnlUsd",
              "type": "int256"
            },
            {
              "internalType": "int256",
              "name": "openInterestDelta",
              "type": "int256"
            }
          ],
          "internalType": "struct PositionUtils.WillPositionCollateralBeSufficientValues",
          "name": "values",
          "type": "tuple"
        }
      ],
      "name": "willPositionCollateralBeSufficient",
      "outputs": [
        {
          "internalType": "bool",
          "name": "",
          "type": "bool"
        },
        {
          "internalType": "int256",
          "name": "",
          "type": "int256"
        }
      ],
      "stateMutability": "view",
      "type": "function"
    }
  ],
  "bytecode": "0x6140e761003a600b82828239805160001a60731461002d57634e487b7160e01b600052600060045260246000fd5b30600052607381538281f3fe73000000000000000000000000000000000000000030146080604052600436106100565760003560e01c8063d7e332111461005b578063dac6485714610070578063e22de7931461009f578063f8b56334146100cd575b600080fd5b61006e610069366004613bad565b6100ee565b005b61008361007e366004613c45565b61029b565b6040805192151583526020830191909152015b60405180910390f35b6100b26100ad366004613d00565b61036c565b60408051938452602084019290925290820152606001610096565b6100e06100db366004613d64565b6106cc565b604051610096929190613e2d565b602085015151158061010557506020808601510151155b1561013957602085810151805191015160405163bff65b3f60e01b8152610130929190600401613e48565b60405180910390fd5b610147878560000151610ae5565b61015c8461015787516040015190565b610b73565b811561025a576000876001600160a01b031663bd02d0f56040516020016101ac9060208082526015908201527413525397d413d4d2551253d397d4d2569157d554d1605a1b604082015260600190565b604051602081830303815290604052805190602001206040518263ffffffff1660e01b81526004016101e091815260200190565b602060405180830381865afa1580156101fd573d6000803e3d6000fd5b505050506040513d601f19601f820116820180604052508101906102219190613e56565b90508061023087602001515190565b101561025857602086015151816040516342f7d98d60e11b8152600401610130929190613e48565b505b60008061026b8989898989886106cc565b91509150811561029057806040516375939b9360e11b81526004016101309190613e6f565b505050505050505050565b60008060006102ab868989610ba3565b905060006102bc8260000151610c44565b6102c98660200151610c44565b6102d39190613e98565b90506000856040015112156102f45760408501516102f19082613ec8565b90505b600081121561030a576000935091506103619050565b600061031c8b8b88606001518a610cb2565b9050600061032e8c8c60000151610cf8565b90508181111561033c578091505b600061035461034f896000015185610d7a565b610c44565b8412159650929450505050505b965096945050505050565b60008060006103de60405180610180016040528060008152602001600081526020016000815260200160006001600160a01b0316815260200160008152602001600081526020016000815260200160008152602001600081526020016000815260200160008152602001600081525090565b60006103f96103ef88604001515190565b8951906000610d93565b90506104188161040e89602090810151015190565b61034f9190613ef0565b825260408701515161044457815161043561034f89602001515190565b61043f9190613f07565b61045f565b61045361034f88602001515190565b825161045f9190613f07565b6020830181905260408301819052600012156105de5760408701515161048957886060015161048f565b88604001515b6001600160a01b0316606083018190526104ac908b908b90610dcc565b60808301526040870151516104c6576040880151516104cd565b6020880151515b60a0830181905260808301516104e39190613ef0565b60c08301528751610505908b908b906104fe8b604001515190565b6001610e73565b60e0830152885160408801515161057b918c918560e001518660c00151604051602001610560906020808252601a90820152794d41585f504e4c5f464143544f525f464f525f5452414445525360301b604082015260600190565b60405160208183030381529060405280519060200120610eff565b610100830181905260e08301511480159061059b57506000826101000151135b80156105ab575060008260e00151135b156105de576105d86105c08360200151610f4f565b8361010001516105d38560e00151610f4f565b610fa1565b60208301525b856105eb88602001515190565b036106045760208088015101515b61012083015261065e565b60408701515115610637576105f98661062289602090810151015190565b61062c9190613ef0565b602089015151610fe1565b602087810151805191015161064d908890613ef0565b6106579190613f44565b6101208301525b610680826020015183610120015161067b8a602090810151015190565b611004565b61014083015260408201516101208301516020808a015101516106a4929190611004565b610160830181905261014083015161012090930151929b909a50919850909650505050505050565b600060606106d86136c2565b6106eb8987878a6100ad8c602001515190565b505081526107056106fe88516040015190565b8787610ba3565b604082018190525161071c88602001516040015190565b6107269190613ef0565b606082015261073a61034f88602001515190565b61074390613f66565b81608001818152505061078e60405180608001604052808b6001600160a01b03168152602001888152602001836080015181526020016107858a604001515190565b15159052611011565b60a08201819052600080821360c0840152136107b057600060a08201526107fe565b60006107c08a88600001516110b9565b905060006107dc61034f6107d68b602001515190565b84610d7a565b6107e590613f66565b9050808360a0015112156107fb5760a083018190525b50505b60006040518061012001604052808b6001600160a01b031681526020018a6001600160a01b03168152602001898152602001836040015181526020018360c001511515815260200188604001516001600160a01b0316815260200188606001516001600160a01b031681526020016108788a602001515190565b815260200160006001600160a01b031681525090506000610898826110d3565b90506000836040015160000151826101a001516108b59190613ef0565b90506108c081610c44565b60a0850151855160608701516108d590610c44565b6108df9190613ec8565b6108e99190613ec8565b6108f39190613f07565b6101208501528615610a05576109bc8c6001600160a01b031663bd02d0f56040516020016109479060208082526012908201527113525397d0d3d31310551154905317d554d160721b604082015260600190565b604051602081830303815290604052805190602001206040518263ffffffff1660e01b815260040161097b91815260200190565b602060405180830381865afa158015610998573d6000803e3d6000fd5b505050506040513d601f19601f8201168201806040525081019061034f9190613e56565b60e085018190526101208501511215610a055760016040518060400160405280600e81526020016d1b5a5b8818dbdb1b185d195c985b60921b8152509550955050505050610361565b600084610120015113610a3d5760016040518060400160405280600381526020016203c20360ec1b8152509550955050505050610361565b610a4b8c8a60000151610cf8565b6020850152610a6c61034f610a628c602001515190565b8660200151610d7a565b61010085018190526101208501511215610ac35760016040518060400160405280601b81526020017a6d696e20636f6c6c61746572616c20666f72206c6576657261676560281b8152509550955050505050610361565b5050604080516020810190915260008082529b909a5098505050505050505050565b60405163a8d8fff560e01b815260009073__$ff439aa65a80c9eec648f15db20b189505$__9063a8d8fff590610b219086908690600401613f82565b608060405180830381865af4158015610b3e573d6000803e3d6000fd5b505050506040513d601f19601f82011682018060405250810190610b629190613f9c565b9050610b6e83826112c3565b505050565b610b7d828261138c565b610b9f5781516040516341ce349f60e11b815261013091908390600401613f82565b5050565b610bab61371d565b82604001516001600160a01b0316846001600160a01b031603610bd357506020810151610c3d565b82606001516001600160a01b0316846001600160a01b031603610bfb57506040810151610c3d565b82602001516001600160a01b0316846001600160a01b031603610c2057508051610c3d565b8251604051635f2394d160e11b8152610130918691600401613f82565b9392505050565b60006001600160ff1b03821115610cae5760405162461bcd60e51b815260206004820152602860248201527f53616665436173743a2076616c756520646f65736e27742066697420696e2061604482015267371034b73a191a9b60c11b6064820152608401610130565b5090565b600080610cc08686856113c5565b9050610ccc8185611423565b90506000610cdf8787600001518661145a565b9050610ceb8282610d7a565b925050505b949350505050565b6000826001600160a01b031663bd02d0f5610d12846114d4565b6040518263ffffffff1660e01b8152600401610d3091815260200190565b602060405180830381865afa158015610d4d573d6000803e3d6000fd5b505050506040513d601f19601f82011682018060405250810190610d719190613e56565b90505b92915050565b6000610d71838368327cb2734119d3b7a9601e1b61155a565b60008215610db45781610da7578351610dad565b83602001515b9050610c3d565b81610dc3578360200151610cf0565b50509051919050565b600080610de184604001518560600151611567565b905080856001600160a01b031663bd02d0f5610e01876000015187611596565b6040518263ffffffff1660e01b8152600401610e1f91815260200190565b602060405180830381865afa158015610e3c573d6000803e3d6000fd5b505050506040513d601f19601f82011682018060405250810190610e609190613e56565b610e6a9190613f44565b95945050505050565b600080610e8461034f8888876113c5565b90506000610e9388888761161e565b9050811580610ea0575080155b15610eb057600092505050610e6a565b6000610ebd878787610d93565b90506000610ece61034f8385613ef0565b9050600087610ee657610ee18286613f07565b610ef0565b610ef08583613f07565b9b9a5050505050505050505050565b600080841215610f10575082610f45565b6000610f1e88848989611665565b90506000610f2f61034f8684610d7a565b9050808613610f3e5785610f40565b805b925050505b9695505050505050565b600080821215610cae5760405162461bcd60e51b815260206004820181905260248201527f53616665436173743a2076616c7565206d75737420626520706f7369746976656044820152606401610130565b600080610fb785610fb1866116e0565b8561155a565b905060008413610fd857610fca81610c44565b610fd390613f66565b610e6a565b610e6a81610c44565b6000816001610ff08286614003565b610ffa9190614016565b610d719190613f44565b6000610cf0838584610fa1565b60008061101d836116f1565b90506000611038846000015185602001516000015184611734565b905060008112611049579392505050565b6000806110628660000151876020015160200151611845565b9150915081611075575090949350505050565b6000611081878361195b565b9050600061109c886000015189602001516000015184611734565b90508481126110ab57846110ad565b805b98975050505050505050565b6000826001600160a01b031663bd02d0f5610d12846119da565b6110db613737565b600061111583600001518460200151856060015186608001516111018860400151515190565b604089015151602001518960e00151611a31565b9050600061112b84600001518560400151611c98565b90506111408460000151856060015183611d25565b6040830181905260608101516020909101516101408401516111629190614003565b61116c9190614016565b6101208301526040820151606001516101008301805161118d908390614003565b905250835160408086015180516020810151908301519190920151516111b593929190611e34565b602083015160600152835160408501516111e991906111d690516020015190565b60a0870151604080890151015151611e50565b6020830151608001528351604085015161121d919061120a90516020015190565b60c0870151604080890151015151611e50565b60208301805160a0019190915251604085015161123a9190611e6c565b60208301528351606085015160e086015161010087015161125d93929190611ee8565b60608301819052825160c00151604091820151918401516020015161016085015191929161128b9190614003565b6112959190614003565b61129f9190614016565b61018083018190526020830151516112b691614003565b6101a08301525092915050565b80516001600160a01b03166112eb576040516302fde0d760e11b815260040160405180910390fd5b6000826001600160a01b0316637ae1cfca6113098460000151611f50565b6040518263ffffffff1660e01b815260040161132791815260200190565b602060405180830381865afa158015611344573d6000803e3d6000fd5b505050506040513d601f19601f820116820180604052508101906113689190614029565b90508015610b6e5781516040516309f8c93760e01b81526101309190600401614046565b600082604001516001600160a01b0316826001600160a01b03161480610d715750506060909101516001600160a01b0391821691161490565b6000806113da84604001518560600151611567565b905060006113f386866000015187604001518786611f88565b9050600061140c87876000015188606001518887611f88565b90506114188183614003565b979650505050505050565b60008082131561144757611436826116e0565b6114409084614003565b9050610d74565b611450826116e0565b610d719084614016565b6000836001600160a01b031663bd02d0f5611475858561200e565b6040518263ffffffff1660e01b815260040161149391815260200190565b602060405180830381865afa1580156114b0573d6000803e3d6000fd5b505050506040513d601f19601f82011682018060405250810190610cf09190613e56565b600060405160200161150f9060208082526015908201527426a4a72fa1a7a62620aa22a920a62fa320a1aa27a960591b604082015260600190565b60408051601f198184030181528282528051602091820120908301526001600160a01b038416908201526060015b604051602081830303815290604052805190602001209050919050565b6000610cf08484846120a6565b6000816001600160a01b0316836001600160a01b03161461158957600161158c565b60025b60ff169392505050565b60006040516020016115c7906020808252600b908201526a1413d3d317d05353d5539560aa1b604082015260600190565b60408051601f198184030181528282528051602091820120908301526001600160a01b0380861691830191909152831660608201526080015b60405160208183030381529060405280519060200120905092915050565b60008061163384604001518560600151611567565b9050600061164c86866000015187604001518786612155565b9050600061140c87876000015188606001518887612155565b6000846001600160a01b031663bd02d0f5611681868686612172565b6040518263ffffffff1660e01b815260040161169f91815260200190565b602060405180830381865afa1580156116bc573d6000803e3d6000fd5b505050506040513d601f19601f82011682018060405250810190610e6a9190613e56565b600080821215610cae575060000390565b6116f9613800565b600061170f8360000151846020015160016113c5565b905060006117278460000151856020015160006113c5565b9050610cf0848383612201565b600080611749836000015184602001516122f3565b9050600061175f846040015185606001516122f3565b6060850151604086015160208701518751939450909211159111151460006001600160a01b03881663bd02d0f561179589612315565b6040518263ffffffff1660e01b81526004016117b391815260200190565b602060405180830381865afa1580156117d0573d6000803e3d6000fd5b505050506040513d601f19601f820116820180604052508101906117f49190613e56565b9050811561182757838310600061180c8a8a84612358565b905061181a8686838661237f565b9650505050505050610c3d565b6000806118348a8a6123b1565b9150915061181a86868484876124c5565b6000806000846001600160a01b031663a6ed563e6118628661250e565b6040518263ffffffff1660e01b815260040161188091815260200190565b602060405180830381865afa15801561189d573d6000803e3d6000fd5b505050506040513d601f19601f820116820180604052508101906118c19190613e56565b9050806118d5576000809250925050611954565b6001856001600160a01b031663dc97d9626118ef84612544565b6040518263ffffffff1660e01b815260040161190d91815260200190565b602060405180830381865afa15801561192a573d6000803e3d6000fd5b505050506040513d601f19601f8201168201806040525081019061194e9190613e56565b92509250505b9250929050565b611963613800565b600080600084131561197f5761197884610f4f565b9050611993565b61199061198b85613f66565b610f4f565b91505b6000856040015112156119cf5760006119b3866040015161198b90613f66565b90506119bf8184614003565b92506119cb8183614003565b9150505b610e6a858383612201565b600060405160200161150f906020808252602b908201527f4d41585f504f534954494f4e5f494d504143545f464143544f525f464f525f4c60408201526a49515549444154494f4e5360a81b606082015260800190565b611a39613737565b611a41613737565b6080810187905280516001600160a01b038616604090910152611a6488866125af565b8451608081019190915260608101919091526001600160a01b03918216602082015291909152891663bd02d0f5611a9b8689612821565b6040518263ffffffff1660e01b8152600401611ab991815260200190565b602060405180830381865afa158015611ad6573d6000803e3d6000fd5b505050506040513d601f19601f82011682018060405250810190611afa9190613e56565b60a08201819052875190611b0f908590610d7a565b611b199190613f44565b6101608201819052815160600151611b319190610d7a565b815160a090810191909152815190810151608090910151611b529190610d7a565b815160c09081019190915281519081015160a090910151611b739190614016565b815160e00152805160a00151610160820151611b8f9190614016565b60c08201526040516001600160a01b038a169063bd02d0f590611be5906020016020808252601c908201527b2827a9a4aa24a7a72fa322a2afa922a1a2a4ab22a92fa320a1aa27a960211b604082015260600190565b604051602081830303815290604052805190602001206040518263ffffffff1660e01b8152600401611c1991815260200190565b602060405180830381865afa158015611c36573d6000803e3d6000fd5b505050506040513d601f19601f82011682018060405250810190611c5a9190613e56565b60e0820181905260c0820151611c6f91610d7a565b610100820181905260c0820151611c869190614016565b61014082015298975050505050505050565b600080611cb684611cab85516020015190565b60408601515161285a565b905080611cc884602001516060015190565b1115611cf35760208301516060015181604051634cd96ac160e11b8152600401610130929190613e48565b6000611d0484602001516060015190565b611d0e9083614016565b9050610e6a611d1f85602001515190565b82610d7a565b611d2d613800565b611d35613800565b8281528351611d449084613f44565b816020018181525050846001600160a01b031663bd02d0f5604051602001611d9d906020808252601d908201527f424f52524f57494e475f4645455f52454345495645525f464143544f52000000604082015260600190565b604051602081830303815290604052805190602001206040518263ffffffff1660e01b8152600401611dd191815260200190565b602060405180830381865afa158015611dee573d6000803e3d6000fd5b505050506040513d601f19601f82011682018060405250810190611e129190613e56565b604082018190526020820151611e2791610d7a565b6060820152949350505050565b6000846001600160a01b031663bd02d0f5611681868686612875565b6000846001600160a01b031663bd02d0f56116818686866128fb565b611e74613828565b611e988360600151611e8b84602001516080015190565b6020850151516001612948565b83526080830151611ebf90611eb2846020015160a0015190565b6020850151516000612948565b602084015260a0830151611edc90611eb2846020015160c0015190565b60408401525090919050565b611ef061385e565b611ef861385e565b6001600160a01b038316611f0d579050610cf0565b6001600160a01b0383168152611f23868461297f565b60208201819052855190611f38908690610d7a565b611f429190613f44565b604082015295945050505050565b600060405160200161150f906020808252601290820152711254d7d3505492d15517d11254d05093115160721b604082015260600190565b600081866001600160a01b031663bd02d0f5611fa5888888612ac5565b6040518263ffffffff1660e01b8152600401611fc391815260200190565b602060405180830381865afa158015611fe0573d6000803e3d6000fd5b505050506040513d601f19601f820116820180604052508101906120049190613e56565b610f459190613f44565b600060405160200161206c9060208082526032908201527f4d494e5f434f4c4c41544552414c5f464143544f525f464f525f4f50454e5f49604082015271272a22a922a9aa2fa6aaa62a24a82624a2a960711b606082015260800190565b60408051601f198184030181528282528051602091820120908301526001600160a01b038516908201528215156060820152608001611600565b60008080600019858709858702925082811083820303915050806000036120e0578382816120d6576120d6613f2e565b0492505050610c3d565b8084116120ec57600080fd5b60008486880960026001871981018816978890046003810283188082028403028082028403028082028403028082028403028082028403029081029092039091026000889003889004909101858311909403939093029303949094049190911702949350505050565b600081866001600160a01b031663bd02d0f5611fa5888888612af8565b60006040516020016121a6906020808252600e908201526d26a0ac2fa827262fa320a1aa27a960911b604082015260600190565b60408051601f1981840301815282825280516020918201209083015281018590526001600160a01b0384166060820152821515608082015260a0015b6040516020818303038152906040528051906020012090509392505050565b612209613800565b60608401518390839015612275576000866040015112801561223a575084612238876040015161198b90613f66565b115b156122605785604001518560405163756d7c9d60e11b8152600401610130929190613e48565b61226e858760400151611423565b91506122cf565b60008660400151128015612298575083612296876040015161198b90613f66565b115b156122be5785604001518460405163022bc34560e61b8152600401610130929190613e48565b6122cc848760400151611423565b90505b60408051608081018252958652602086019490945292840152506060820152919050565b600081831161230b576123068383614016565b610d71565b610d718284614016565b600060405160200161150f906020808252601f908201527f504f534954494f4e5f494d504143545f4558504f4e454e545f464143544f5200604082015260600190565b600080600061236786866123b1565b91509150836123765780610f45565b50949350505050565b6000848410816123a3612393888787612b35565b61239e888888612b35565b6122f3565b905060006110ad8284612b4e565b6000806000846001600160a01b031663bd02d0f56123d0866001612b71565b6040518263ffffffff1660e01b81526004016123ee91815260200190565b602060405180830381865afa15801561240b573d6000803e3d6000fd5b505050506040513d601f19601f8201168201806040525081019061242f9190613e56565b90506000856001600160a01b031663bd02d0f561244d876000612b71565b6040518263ffffffff1660e01b815260040161246b91815260200190565b602060405180830381865afa158015612488573d6000803e3d6000fd5b505050506040513d601f19601f820116820180604052508101906124ac9190613e56565b9050808211156124ba578091505b909590945092505050565b6000806124d3878685612b35565b905060006124e2878686612b35565b905060006124f083836122f3565b9050600061250082848611612b4e565b9a9950505050505050505050565b600060405160200161150f9060208082526010908201526f1592549515505317d513d2d15397d25160821b604082015260600190565b6000604051602001612587906020808252601f908201527f5649525455414c5f494e56454e544f52595f464f525f504f534954494f4e5300604082015260600190565b604051602081830303815290604052805190602001208260405160200161153d929190613e48565b6000806000806000866001600160a01b03166385725b58876040518263ffffffff1660e01b81526004016125e39190614046565b602060405180830381865afa158015612600573d6000803e3d6000fd5b505050506040513d601f19601f820116820180604052508101906126249190613e56565b90506000808083156127f9576040516306459e2360e51b8152600481018590526001600160a01b038b169063c8b3c46090602401602060405180830381865afa158015612675573d6000803e3d6000fd5b505050506040513d601f19601f82011682018060405250810190612699919061405a565b925060008a6001600160a01b0316631582a018856040518263ffffffff1660e01b81526004016126c99190614046565b602060405180830381865afa1580156126e6573d6000803e3d6000fd5b505050506040513d601f19601f8201168201806040525081019061270a9190613e56565b60405163039af9eb60e01b8152600481018290529091506001600160a01b038c169063039af9eb906024016040805180830381865afa158015612751573d6000803e3d6000fd5b505050506040513d601f19601f820116820180604052508101906127759190614077565b60405163071a6a7960e41b815291945092506000906001600160a01b038d16906371a6a790906127a9908890600401614046565b602060405180830381865afa1580156127c6573d6000803e3d6000fd5b505050506040513d601f19601f820116820180604052508101906127ea9190613e56565b905080156127f6578092505b50505b838361280484612bad565b61280d84612bad565b929d919c509a509098509650505050505050565b600060405160200161206c906020808252601390820152722827a9a4aa24a7a72fa322a2afa320a1aa27a960691b604082015260600190565b6000836001600160a01b031663bd02d0f56114758585612bd2565b60006040516020016128b6906020808252601b908201527a46554e44494e475f4645455f414d4f554e545f5045525f53495a4560281b604082015260600190565b60408051601f198184030181528282528051602091820120908301526001600160a01b038087169183019190915284166060820152821515608082015260a0016121e2565b60006040516020016128b69060208082526021908201527f434c41494d41424c455f46554e44494e475f414d4f554e545f5045525f53495a6040820152604560f81b606082015260800190565b6000806129558587614016565b9050610f45848261297966038d7ea4c6800068327cb2734119d3b7a9601e1b613ef0565b86612c13565b600080836001600160a01b031663bd02d0f56040516020016129c69060208082526011908201527026a0ac2faaa4afa322a2afa320a1aa27a960791b604082015260600190565b604051602081830303815290604052805190602001206040518263ffffffff1660e01b81526004016129fa91815260200190565b602060405180830381865afa158015612a17573d6000803e3d6000fd5b505050506040513d601f19601f82011682018060405250810190612a3b9190613e56565b90506000846001600160a01b031663bd02d0f5612a5786612c3a565b6040518263ffffffff1660e01b8152600401612a7591815260200190565b602060405180830381865afa158015612a92573d6000803e3d6000fd5b505050506040513d601f19601f82011682018060405250810190612ab69190613e56565b9050818110610cf05781610e6a565b60006040516020016128b6906020808252600d908201526c13d4115397d2539511549154d5609a1b604082015260600190565b60006040516020016128b6906020808252601790820152764f50454e5f494e5445524553545f494e5f544f4b454e5360481b604082015260600190565b600080612b428584612c6d565b9050610e6a8185610d7a565b60008115612b5f5761144083610c44565b612b6883610c44565b61144090613f66565b600060405160200161206c906020808252601690820152752827a9a4aa24a7a72fa4a6a820a1aa2fa320a1aa27a960511b604082015260600190565b6000612710612bc868327cb2734119d3b7a9601e1b84613ef0565b610d749190613f44565b600060405160200161206c906020808252601b908201527a21aaa6aaa620aa24ab22afa127a92927aba4a723afa320a1aa27a960291b604082015260600190565b60008115612c2f57612c288585856001612ccc565b9050610cf0565b610e6a8585856120a6565b600060405160200161150f906020808252600d908201526c2aa4afa322a2afa320a1aa27a960991b604082015260600190565b600068327cb2734119d3b7a9601e1b831015612c8b57506000610d74565b68327cb2734119d3b7a9601e1b8203612ca5575081610d74565b6000612cc1612cb385612d1d565b612cbc85612d1d565b612d2e565b9050610cf081612d6e565b600080612cda8686866120a6565b90506001836002811115612cf057612cf061409b565b148015612d0d575060008480612d0857612d08613f2e565b868809115b15610e6a57610f45600182614003565b6000610d7464e8d4a5100083613f44565b600082600003612d54578115612d45576000611440565b50670de0b6b3a7640000610d74565b610d71612d69612d6385612d7f565b84612e35565b612e41565b6000610d7464e8d4a5100083613ef0565b6000670de0b6b3a7640000821015612dad57604051633621413760e21b815260048101839052602401610130565b6000612dc2670de0b6b3a76400008404612e87565b670de0b6b3a764000081029250905082811c670de0b6b3a763ffff198101612deb575050919050565b6706f05b59d3b200005b8015612e2d57670de0b6b3a7640000828002049150671bc16d674ec800008210612e25579283019260019190911c905b60011c612df5565b505050919050565b6000610d718383612f6a565b6000680a688906bd8b0000008210612e6f57604051634a4f26f160e01b815260048101839052602401610130565b670de0b6b3a7640000604083901b04610c3d81613030565b6000600160801b8210612ea757608091821c91612ea49082614003565b90505b600160401b8210612ec557604091821c91612ec29082614003565b90505b600160201b8210612ee357602091821c91612ee09082614003565b90505b620100008210612f0057601091821c91612efd9082614003565b90505b6101008210612f1c57600891821c91612f199082614003565b90505b60108210612f3757600491821c91612f349082614003565b90505b60048210612f5257600291821c91612f4f9082614003565b90505b60028210612f6557610d74600182614003565b919050565b60008080600019848609848602925082811083820303915050670de0b6b3a76400008110612fae5760405163698d9a0160e11b815260048101829052602401610130565b600080670de0b6b3a764000086880991506706f05b59d3b1ffff8211905082600003612fec5780670de0b6b3a7640000850401945050505050610d74565b620400008285030493909111909103600160ee1b02919091177faccb18165bd6fe31ae1cf318dc5b51eee0e1ba569b88cd74c1773b91fac106690201905092915050565b600160bf1b6001603f1b8216156130505768016a09e667f3bcc9090260401c5b6001603e1b82161561306b576801306fe0a31b7152df0260401c5b6001603d1b821615613086576801172b83c7d517adce0260401c5b6001603c1b8216156130a15768010b5586cf9890f62a0260401c5b6001603b1b8216156130bc576801059b0d31585743ae0260401c5b6001603a1b8216156130d757680102c9a3e778060ee70260401c5b600160391b8216156130f25768010163da9fb33356d80260401c5b600160381b82161561310d57680100b1afa5abcbed610260401c5b600160371b8216156131285768010058c86da1c09ea20260401c5b600160361b821615613143576801002c605e2e8cec500260401c5b600160351b82161561315e57680100162f3904051fa10260401c5b600160341b821615613179576801000b175effdc76ba0260401c5b600160331b82161561319457680100058ba01fb9f96d0260401c5b600160321b8216156131af5768010002c5cc37da94920260401c5b600160311b8216156131ca576801000162e525ee05470260401c5b600160301b8216156131e55768010000b17255775c040260401c5b6001602f1b821615613200576801000058b91b5bc9ae0260401c5b6001602e1b82161561321b57680100002c5c89d5ec6d0260401c5b6001602d1b8216156132365768010000162e43f4f8310260401c5b6001602c1b82161561325157680100000b1721bcfc9a0260401c5b6001602b1b82161561326c5768010000058b90cf1e6e0260401c5b6001602a1b821615613287576801000002c5c863b73f0260401c5b600160291b8216156132a257680100000162e430e5a20260401c5b600160281b8216156132bd576801000000b1721835510260401c5b600160271b8216156132d857680100000058b90c0b490260401c5b600160261b8216156132f35768010000002c5c8601cc0260401c5b600160251b82161561330e576801000000162e42fff00260401c5b600160241b8216156133295768010000000b17217fbb0260401c5b600160231b821615613344576801000000058b90bfce0260401c5b600160221b82161561335f57680100000002c5c85fe30260401c5b600160211b82161561337a5768010000000162e42ff10260401c5b600160201b82161561339557680100000000b17217f80260401c5b63800000008216156133b05768010000000058b90bfc0260401c5b63400000008216156133cb576801000000002c5c85fe0260401c5b63200000008216156133e657680100000000162e42ff0260401c5b6310000000821615613401576801000000000b17217f0260401c5b630800000082161561341c57680100000000058b90c00260401c5b63040000008216156134375768010000000002c5c8600260401c5b6302000000821615613452576801000000000162e4300260401c5b630100000082161561346d5768010000000000b172180260401c5b62800000821615613487576801000000000058b90c0260401c5b624000008216156134a157680100000000002c5c860260401c5b622000008216156134bb5768010000000000162e430260401c5b621000008216156134d557680100000000000b17210260401c5b620800008216156134ef5768010000000000058b910260401c5b62040000821615613509576801000000000002c5c80260401c5b6202000082161561352357680100000000000162e40260401c5b6201000082161561353c5761b172600160401b010260401c5b618000821615613554576158b9600160401b010260401c5b61400082161561356c57612c5d600160401b010260401c5b6120008216156135845761162e600160401b010260401c5b61100082161561359c57610b17600160401b010260401c5b6108008216156135b45761058c600160401b010260401c5b6104008216156135cc576102c6600160401b010260401c5b6102008216156135e457610163600160401b010260401c5b6101008216156135fb5760b1600160401b010260401c5b6080821615613611576059600160401b010260401c5b604082161561362757602c600160401b010260401c5b602082161561363d576016600160401b010260401c5b601082161561365357600b600160401b010260401c5b6008821615613669576006600160401b010260401c5b600482161561367f576003600160401b010260401c5b6002821615613695576001600160401b010260401c5b60018216156136ab576001600160401b010260401c5b670de0b6b3a76400000260409190911c60bf031c90565b60405180610140016040528060008152602001600081526020016136e461371d565b81526020016000815260200160008152602001600081526020016000151581526020016000815260200160008152602001600081525090565b604051806040016040528060008152602001600081525090565b604080516102c0810190915260006101c082018181526101e08301829052610200830182905261022083018290526102408301829052610260830182905261028083018290526102a0830191909152815260208101613794613828565b81526020016137a1613800565b81526020016137ae61385e565b81526020016137bb61371d565b81526020016000815260200160008152602001600081526020016000815260200160008152602001600081526020016000815260200160008152602001600081525090565b6040518060800160405280600081526020016000815260200160008152602001600081525090565b6040518060c001604052806000815260200160008152602001600081526020016000815260200160008152602001600081525090565b604051806060016040528060006001600160a01b0316815260200160008152602001600081525090565b6001600160a01b038116811461389d57600080fd5b50565b604051606081016001600160401b03811182821017156138d057634e487b7160e01b600052604160045260246000fd5b60405290565b60405161012081016001600160401b03811182821017156138d057634e487b7160e01b600052604160045260246000fd5b604051608081016001600160401b03811182821017156138d057634e487b7160e01b600052604160045260246000fd5b801515811461389d57600080fd5b60006020828403121561395757600080fd5b604051602081016001600160401b038111828210171561398757634e487b7160e01b600052604160045260246000fd5b604052905080823561399881613937565b905292915050565b60008183036101a08112156139b457600080fd5b6139bc6138a0565b915060608112156139cc57600080fd5b6139d46138a0565b83356139df81613888565b815260208401356139ef81613888565b60208201526040840135613a0281613888565b60408201528252610120605f198201811315613a1d57600080fd5b613a256138d6565b9150606084013582526080840135602083015260a0840135604083015260c0840135606083015260e084013560808301526101008085013560a08401528185013560c084015261014085013560e084015261016085013581840152505080602083015250613a97836101808401613945565b604082015292915050565b600060808284031215613ab457600080fd5b613abc613907565b90508135613ac981613888565b81526020820135613ad981613888565b60208201526040820135613aec81613888565b60408201526060820135613aff81613888565b606082015292915050565b600060408284031215613b1c57600080fd5b604080519081016001600160401b0381118282101715613b4c57634e487b7160e01b600052604160045260246000fd5b604052823581526020928301359281019290925250919050565b600060c08284031215613b7857600080fd5b613b806138a0565b9050613b8c8383613b0a565b8152613b9b8360408401613b0a565b6020820152613a978360808401613b0a565b6000806000806000806000610360888a031215613bc957600080fd5b8735613bd481613888565b96506020880135613be481613888565b9550613bf38960408a016139a0565b9450613c03896101e08a01613aa2565b9350613c13896102608a01613b66565b9250610320880135613c2481613937565b9150610340880135613c3581613937565b8091505092959891949750929550565b600080600080600080868803610220811215613c6057600080fd5b8735613c6b81613888565b9650613c7a8960208a01613aa2565b9550613c898960a08a01613b66565b9450610160880135613c9a81613888565b9350610180880135613cab81613937565b9250608061019f1982011215613cc057600080fd5b50613cc9613907565b6101a088013581526101c088013560208201526101e088013560408201526102008801356060820152809150509295509295509295565b60008060008060006103208688031215613d1957600080fd5b8535613d2481613888565b9450613d338760208801613aa2565b9350613d428760a08801613b66565b9250613d528761016088016139a0565b94979396509194610300013592915050565b6000806000806000806103408789031215613d7e57600080fd5b8635613d8981613888565b95506020870135613d9981613888565b9450613da888604089016139a0565b9350613db8886101e08901613aa2565b9250613dc8886102608901613b66565b9150610320870135613dd981613937565b809150509295509295509295565b6000815180845260005b81811015613e0d57602081850181015186830182015201613df1565b506000602082860101526020601f19601f83011685010191505092915050565b8215158152604060208201526000610cf06040830184613de7565b918252602082015260400190565b600060208284031215613e6857600080fd5b5051919050565b602081526000610d716020830184613de7565b634e487b7160e01b600052601160045260246000fd5b80820260008212600160ff1b84141615613eb457613eb4613e82565b8181058314821517610d7457610d74613e82565b8082018281126000831280158216821582161715613ee857613ee8613e82565b505092915050565b8082028115828204841417610d7457610d74613e82565b8181036000831280158383131683831282161715613f2757613f27613e82565b5092915050565b634e487b7160e01b600052601260045260246000fd5b600082613f6157634e487b7160e01b600052601260045260246000fd5b500490565b6000600160ff1b8201613f7b57613f7b613e82565b5060000390565b6001600160a01b0392831681529116602082015260400190565b600060808284031215613fae57600080fd5b613fb6613907565b8251613fc181613888565b81526020830151613fd181613888565b60208201526040830151613fe481613888565b60408201526060830151613ff781613888565b60608201529392505050565b80820180821115610d7457610d74613e82565b81810381811115610d7457610d74613e82565b60006020828403121561403b57600080fd5b8151610c3d81613937565b6001600160a01b0391909116815260200190565b60006020828403121561406c57600080fd5b8151610c3d81613888565b6000806040838503121561408a57600080fd5b505080516020909101519092909150565b634e487b7160e01b600052602160045260246000fdfea2646970667358221220a752f7478544f974c2bb14e98d0af22eec492886f012e51d2a92c84eb989994c64736f6c63430008120033",
  "linkReferences": {
    "contracts/market/MarketStoreUtils.sol": {
      "MarketStoreUtils": [
        {
          "length": 20,
          "start": 2865
        }
      ]
    }
  },
  "deployedLinkReferences": {
    "contracts/market/MarketStoreUtils.sol": {
      "MarketStoreUtils": [
        {
          "length": 20,
          "start": 2807
        }
      ]
    }
  }
}