{
  "_format": "hh-sol-artifact-1",
  "contractName": "FeeHandler",
  "sourceName": "contracts/fee/FeeHandler.sol",
  "abi": [
    {
      "inputs": [
        {
          "internalType": "contract RoleStore",
          "name": "_roleStore",
          "type": "address"
        },
        {
          "internalType": "contract Oracle",
          "name": "_oracle",
          "type": "address"
        },
        {
          "internalType": "contract DataStore",
          "name": "_dataStore",
          "type": "address"
        },
        {
          "internalType": "contract EventEmitter",
          "name": "_eventEmitter",
          "type": "address"
        },
        {
          "internalType": "contract IVaultV1",
          "name": "_vaultV1",
          "type": "address"
        },
        {
          "internalType": "address",
          "name": "_gmx",
          "type": "address"
        }
      ],
      "stateMutability": "nonpayable",
      "type": "constructor"
    },
    {
      "inputs": [
        {
          "internalType": "address",
          "name": "feeToken",
          "type": "address"
        },
        {
          "internalType": "address",
          "name": "buybackToken",
          "type": "address"
        },
        {
          "internalType": "uint256",
          "name": "availableFeeAmount",
          "type": "uint256"
        }
      ],
      "name": "AvailableFeeAmountIsZero",
      "type": "error"
    },
    {
      "inputs": [
        {
          "internalType": "address",
          "name": "feeToken",
          "type": "address"
        },
        {
          "internalType": "address",
          "name": "buybackToken",
          "type": "address"
        }
      ],
      "name": "BuybackAndFeeTokenAreEqual",
      "type": "error"
    },
    {
      "inputs": [],
      "name": "EmptyClaimFeesMarket",
      "type": "error"
    },
    {
      "inputs": [],
      "name": "EmptyReceiver",
      "type": "error"
    },
    {
      "inputs": [
        {
          "internalType": "address",
          "name": "feeToken",
          "type": "address"
        },
        {
          "internalType": "address",
          "name": "buybackToken",
          "type": "address"
        },
        {
          "internalType": "uint256",
          "name": "outputAmount",
          "type": "uint256"
        },
        {
          "internalType": "uint256",
          "name": "minOutputAmount",
          "type": "uint256"
        }
      ],
      "name": "InsufficientBuybackOutputAmount",
      "type": "error"
    },
    {
      "inputs": [
        {
          "internalType": "address",
          "name": "buybackToken",
          "type": "address"
        }
      ],
      "name": "InvalidBuybackToken",
      "type": "error"
    },
    {
      "inputs": [
        {
          "internalType": "uint256",
          "name": "version",
          "type": "uint256"
        }
      ],
      "name": "InvalidVersion",
      "type": "error"
    },
    {
      "inputs": [
        {
          "internalType": "uint256",
          "name": "priceTimestamp",
          "type": "uint256"
        },
        {
          "internalType": "uint256",
          "name": "buybackMaxPriceAge",
          "type": "uint256"
        },
        {
          "internalType": "uint256",
          "name": "currentTimestamp",
          "type": "uint256"
        }
      ],
      "name": "MaxBuybackPriceAgeExceeded",
      "type": "error"
    },
    {
      "inputs": [
        {
          "internalType": "address",
          "name": "msgSender",
          "type": "address"
        },
        {
          "internalType": "string",
          "name": "role",
          "type": "string"
        }
      ],
      "name": "Unauthorized",
      "type": "error"
    },
    {
      "inputs": [
        {
          "internalType": "address",
          "name": "feeToken",
          "type": "address"
        },
        {
          "internalType": "address",
          "name": "buybackToken",
          "type": "address"
        },
        {
          "internalType": "uint256",
          "name": "minOutputAmount",
          "type": "uint256"
        },
        {
          "components": [
            {
              "internalType": "address[]",
              "name": "tokens",
              "type": "address[]"
            },
            {
              "internalType": "address[]",
              "name": "providers",
              "type": "address[]"
            },
            {
              "internalType": "bytes[]",
              "name": "data",
              "type": "bytes[]"
            }
          ],
          "internalType": "struct OracleUtils.SetPricesParams",
          "name": "params",
          "type": "tuple"
        }
      ],
      "name": "buyback",
      "outputs": [],
      "stateMutability": "nonpayable",
      "type": "function"
    },
    {
      "inputs": [
        {
          "internalType": "address",
          "name": "market",
          "type": "address"
        },
        {
          "internalType": "address",
          "name": "feeToken",
          "type": "address"
        },
        {
          "internalType": "uint256",
          "name": "version",
          "type": "uint256"
        }
      ],
      "name": "claimFees",
      "outputs": [],
      "stateMutability": "nonpayable",
      "type": "function"
    },
    {
      "inputs": [],
      "name": "dataStore",
      "outputs": [
        {
          "internalType": "contract DataStore",
          "name": "",
          "type": "address"
        }
      ],
      "stateMutability": "view",
      "type": "function"
    },
    {
      "inputs": [],
      "name": "eventEmitter",
      "outputs": [
        {
          "internalType": "contract EventEmitter",
          "name": "",
          "type": "address"
        }
      ],
      "stateMutability": "view",
      "type": "function"
    },
    {
      "inputs": [
        {
          "internalType": "address[]",
          "name": "markets",
          "type": "address[]"
        },
        {
          "internalType": "address",
          "name": "feeToken",
          "type": "address"
        },
        {
          "internalType": "address",
          "name": "buybackToken",
          "type": "address"
        },
        {
          "internalType": "uint256",
          "name": "version",
          "type": "uint256"
        },
        {
          "internalType": "uint256",
          "name": "feeTokenPrice",
          "type": "uint256"
        },
        {
          "internalType": "uint256",
          "name": "buybackTokenPrice",
          "type": "uint256"
        }
      ],
      "name": "getOutputAmount",
      "outputs": [
        {
          "internalType": "uint256",
          "name": "",
          "type": "uint256"
        }
      ],
      "stateMutability": "view",
      "type": "function"
    },
    {
      "inputs": [],
      "name": "gmx",
      "outputs": [
        {
          "internalType": "address",
          "name": "",
          "type": "address"
        }
      ],
      "stateMutability": "view",
      "type": "function"
    },
    {
      "inputs": [
        {
          "internalType": "bytes[]",
          "name": "data",
          "type": "bytes[]"
        }
      ],
      "name": "multicall",
      "outputs": [
        {
          "internalType": "bytes[]",
          "name": "results",
          "type": "bytes[]"
        }
      ],
      "stateMutability": "nonpayable",
      "type": "function"
    },
    {
      "inputs": [],
      "name": "oracle",
      "outputs": [
        {
          "internalType": "contract Oracle",
          "name": "",
          "type": "address"
        }
      ],
      "stateMutability": "view",
      "type": "function"
    },
    {
      "inputs": [],
      "name": "roleStore",
      "outputs": [
        {
          "internalType": "contract RoleStore",
          "name": "",
          "type": "address"
        }
      ],
      "stateMutability": "view",
      "type": "function"
    },
    {
      "inputs": [],
      "name": "v1",
      "outputs": [
        {
          "internalType": "uint256",
          "name": "",
          "type": "uint256"
        }
      ],
      "stateMutability": "view",
      "type": "function"
    },
    {
      "inputs": [],
      "name": "v2",
      "outputs": [
        {
          "internalType": "uint256",
          "name": "",
          "type": "uint256"
        }
      ],
      "stateMutability": "view",
      "type": "function"
    },
    {
      "inputs": [],
      "name": "vaultV1",
      "outputs": [
        {
          "internalType": "contract IVaultV1",
          "name": "",
          "type": "address"
        }
      ],
      "stateMutability": "view",
      "type": "function"
    },
    {
      "inputs": [
        {
          "internalType": "address",
          "name": "buybackToken",
          "type": "address"
        }
      ],
      "name": "withdrawFees",
      "outputs": [],
      "stateMutability": "nonpayable",
      "type": "function"
    }
  ],
  "bytecode": "0x6101406040523480156200001257600080fd5b50604051620038cb380380620038cb833981016040819052620000359162000083565b60016000556001600160a01b0395861660805293851660a05291841660c052831660e052821661010052166101205262000117565b6001600160a01b03811681146200008057600080fd5b50565b60008060008060008060c087890312156200009d57600080fd5b8651620000aa816200006a565b6020880151909650620000bd816200006a565b6040880151909550620000d0816200006a565b6060880151909450620000e3816200006a565b6080880151909350620000f6816200006a565b60a088015190925062000109816200006a565b809150509295509295509295565b60805160a05160c05160e05161010051610120516136c4620002076000396000818161010b0152818161065501526113de01526000818160ce0152818161055301528181610897015261092e0152600081816101d001528181610a5e015281816118220152611f9b01526000818161017a015281816102cd015281816103a50152818161043e01528181610a3d01528181610fd7015281816112ff01528181611ce501528181611d7e0152611e200152600081816101a901528181610ae401528181610c44015281816114220152818161155501526115d40152600081816101320152610d3501526136c46000f3fe608060405234801561001057600080fd5b50600436106100af5760003560e01c8063164e68de146100b45780631ee00bc3146100c957806331e67c71146101065780634a4a7b041461012d5780634a6f4d0e14610154578063660d0d67146101755780636854171d1461019c5780637dc0d1d0146101a45780639ff78c30146101cb578063ac9650d8146101f2578063ceca23f114610212578063f3acae3a14610225578063fc7dc1d31461022d575b600080fd5b6100c76100c23660046124c0565b610240565b005b6100f07f000000000000000000000000000000000000000000000000000000000000000081565b6040516100fd91906124dd565b60405180910390f35b6100f07f000000000000000000000000000000000000000000000000000000000000000081565b6100f07f000000000000000000000000000000000000000000000000000000000000000081565b61016761016236600461253c565b6104fa565b6040519081526020016100fd565b6100f07f000000000000000000000000000000000000000000000000000000000000000081565b610167600181565b6100f07f000000000000000000000000000000000000000000000000000000000000000081565b6100f07f000000000000000000000000000000000000000000000000000000000000000081565b6102056102003660046125be565b6106f2565b6040516100fd919061264f565b6100c76102203660046126b1565b610811565b610167600281565b6100c761023b36600461281e565b610ac3565b610248610cc5565b6102b7604051602001610279906020808252600a90820152692322a2afa5a2a2a822a960b11b604082015260600190565b604051602081830303815290604052805190602001206040518060400160405280600a8152602001692322a2afa5a2a2a822a960b11b815250610d1e565b6102c96102c382610dd2565b82610de0565b60007f00000000000000000000000000000000000000000000000000000000000000006001600160a01b03166321f8a72160405160200161032a906020808252600c908201526b2322a2afa922a1a2a4ab22a960a11b604082015260600190565b604051602081830303815290604052805190602001206040518263ffffffff1660e01b815260040161035e91815260200190565b602060405180830381865afa15801561037b573d6000803e3d6000fd5b505050506040513d601f19601f8201168201806040525081019061039f91906129b6565b905060007f00000000000000000000000000000000000000000000000000000000000000006001600160a01b031663bd02d0f56103db85610e03565b6040518263ffffffff1660e01b81526004016103f991815260200190565b602060405180830381865afa158015610416573d6000803e3d6000fd5b505050506040513d601f19601f8201168201806040525081019061043a91906129d3565b90507f00000000000000000000000000000000000000000000000000000000000000006001600160a01b031663e2a4853a61047485610e03565b60006040518363ffffffff1660e01b81526004016104939291906129ec565b6020604051808303816000875af11580156104b2573d6000803e3d6000fd5b505050506040513d601f19601f820116820180604052508101906104d691906129d3565b506104eb6001600160a01b0384168383610e9b565b50506104f76001600055565b50565b60008061050686610dd2565b90506105128187610de0565b60008061051f8989610ef1565b90506105296123a0565b60005b8b8110156106b957600189036105d057604051631ce9cb8f60e01b81526001600160a01b037f00000000000000000000000000000000000000000000000000000000000000001690631ce9cb8f90610588908e906004016124dd565b602060405180830381865afa1580156105a5573d6000803e3d6000fd5b505050506040513d601f19601f820116820180604052508101906105c991906129d3565b9350610647565b600289036106265760008d8d838181106105ec576105ec6129fa565b905060200201602081019061060191906124c0565b905061060c81610f07565b61061e610619828e610f2e565b610fbe565b945050610647565b604051630778af2960e21b8152600481018a90526024015b60405180910390fd5b610651898561104a565b91507f00000000000000000000000000000000000000000000000000000000000000006001600160a01b03168a6001600160a01b031614610696578160200151610699565b81515b93506106a58484612a26565b9250806106b181612a39565b91505061052c565b5060006106c98b8b878b8b61108e565b9050808311156106df5794506106e79350505050565b509093505050505b979650505050505050565b6060816001600160401b0381111561070c5761070c6126f2565b60405190808252806020026020018201604052801561073f57816020015b606081526020019060019003908161072a5790505b50905060005b828110156108095760008030868685818110610763576107636129fa565b90506020028101906107759190612a52565b604051610783929190612a98565b600060405180830381855af49150503d80600081146107be576040519150601f19603f3d011682016040523d82523d6000602084013e6107c3565b606091505b5091509150816107d6576107d6816110ef565b808484815181106107e9576107e96129fa565b60200260200101819052505050808061080190612a39565b915050610745565b505b92915050565b610819610cc5565b600060018203610a27576040516370a0823160e01b81526000906001600160a01b038516906370a08231906108529030906004016124dd565b602060405180830381865afa15801561086f573d6000803e3d6000fd5b505050506040513d601f19601f8201168201806040525081019061089391906129d3565b90507f00000000000000000000000000000000000000000000000000000000000000006001600160a01b03166312d43a516040518163ffffffff1660e01b8152600401602060405180830381865afa1580156108f3573d6000803e3d6000fd5b505050506040513d601f19601f8201168201806040525081019061091791906129b6565b604051630e9587f360e01b81526001600160a01b037f00000000000000000000000000000000000000000000000000000000000000008116600483015286811660248301523060448301529190911690630e9587f390606401600060405180830381600087803b15801561098a57600080fd5b505af115801561099e573d6000803e3d6000fd5b50506040516370a0823160e01b8152600092506001600160a01b03871691506370a08231906109d19030906004016124dd565b602060405180830381865afa1580156109ee573d6000803e3d6000fd5b505050506040513d601f19601f82011682018060405250810190610a1291906129d3565b9050610a1e8282612aa8565b92505050610aa8565b60028203610a8c57610a3884610f07565b610a857f00000000000000000000000000000000000000000000000000000000000000007f0000000000000000000000000000000000000000000000000000000000000000868630611128565b9050610aa8565b604051630778af2960e21b81526004810183905260240161063e565b610ab38284836112fb565b50610abe6001600055565b505050565b610acb610cc5565b604051633d333c8560e01b815281906001600160a01b037f00000000000000000000000000000000000000000000000000000000000000001690633d333c8590610b19908490600401612b54565b600060405180830381600087803b158015610b3357600080fd5b505af1158015610b47573d6000803e3d6000fd5b50505050836001600160a01b0316856001600160a01b031603610b81578484604051633b1dd52160e21b815260040161063e929190612bb5565b6000610b8c85610dd2565b9050610b988186610de0565b6000610ba48787610ef1565b905080600003610bcd57868682604051633062f23960e11b815260040161063e93929190612bcf565b6000610bda88888561141d565b90506000818310610beb5781610bed565b825b905086811015610c31576040516314b03ec960e31b81526001600160a01b03808b16600483015289166024820152604481018290526064810188905260840161063e565b610c3e898986848761167b565b505050507f00000000000000000000000000000000000000000000000000000000000000006001600160a01b031662ccf1556040518163ffffffff1660e01b8152600401600060405180830381600087803b158015610c9c57600080fd5b505af1158015610cb0573d6000803e3d6000fd5b5050505050610cbf6001600055565b50505050565b600260005403610d175760405162461bcd60e51b815260206004820152601f60248201527f5265656e7472616e637947756172643a207265656e7472616e742063616c6c00604482015260640161063e565b6002600055565b60405163ac4ab3fb60e01b81526001600160a01b037f0000000000000000000000000000000000000000000000000000000000000000169063ac4ab3fb90610d6c9033908690600401612bf3565b602060405180830381865afa158015610d89573d6000803e3d6000fd5b505050506040513d601f19601f82011682018060405250810190610dad9190612c0c565b610dce57338160405163a35b150b60e01b815260040161063e929190612c2e565b5050565b600061080b61061983611891565b81600003610dce578060405163752fdb6360e01b815260040161063e91906124dd565b6000604051602001610e509060208082526021908201527f574954484452415741424c455f4255594241434b5f544f4b454e5f414d4f554e6040820152601560fa1b606082015260800190565b60408051601f198184030181528282528051602091820120908301526001600160a01b038416908201526060015b604051602081830303815290604052805190602001209050919050565b610abe8363a9059cbb60e01b8484604051602401610eba929190612bf3565b60408051601f198184030181529190526020810180516001600160e01b03166001600160e01b0319909316929092179091526118cb565b6000610f0061061984846119a0565b9392505050565b6001600160a01b0381166104f75760405163616daf1f60e01b815260040160405180910390fd5b6000604051602001610f689060208082526014908201527310d31052535050931157d1915157d05353d5539560621b604082015260600190565b60408051601f198184030181528282528051602091820120908301526001600160a01b03808616918301919091528316606082015260800160405160208183030381529060405280519060200120905092915050565b60405163bd02d0f560e01b8152600481018290526000907f00000000000000000000000000000000000000000000000000000000000000006001600160a01b03169063bd02d0f590602401602060405180830381865afa158015611026573d6000803e3d6000fd5b505050506040513d601f19601f8201168201806040525081019061080b91906129d3565b6110526123a0565b6000611060610619856119e2565b905061106a6123a0565b6110748483611a42565b8082526110819085612aa8565b6020820152949350505050565b60008061109c858486611a57565b905060006110ac61061988611a6c565b6110b86106198a611a6c565b6110c29190612a26565b90506110e3826110de68327cb2734119d3b7a9601e1b84612a26565b611a42565b98975050505050505050565b6000806110fb83611aaf565b91509150801561111f578160405162461bcd60e51b815260040161063e9190612c52565b610abe83611b3f565b600061113382611b48565b600061113f8585610f2e565b60405163bd02d0f560e01b8152600481018290529091506000906001600160a01b0389169063bd02d0f590602401602060405180830381865afa15801561118a573d6000803e3d6000fd5b505050506040513d601f19601f820116820180604052508101906111ae91906129d3565b604051637152429d60e11b81529091506001600160a01b0389169063e2a4853a906111e09085906000906004016129ec565b6020604051808303816000875af11580156111ff573d6000803e3d6000fd5b505050506040513d601f19601f8201168201806040525081019061122391906129d3565b5060405163078d3b7960e01b81526001600160a01b0387169063078d3b799061125490889088908690600401612bcf565b600060405180830381600087803b15801561126e57600080fd5b505af1158015611282573d6000803e3d6000fd5b5050604051632c9800af60e11b815273__$e53db83827f4e07ebc418caf7145b8c2d5$__9250635930015e91506112bf908b908a90600401612bb5565b60006040518083038186803b1580156112d757600080fd5b505af41580156112eb573d6000803e3d6000fd5b505050506106e787878684611b6f565b60007f00000000000000000000000000000000000000000000000000000000000000006001600160a01b03166321f8a7216040516020016113539060208082526003908201526215d39560ea1b604082015260600190565b604051602081830303815290604052805190602001206040518263ffffffff1660e01b815260040161138791815260200190565b602060405180830381865afa1580156113a4573d6000803e3d6000fd5b505050506040513d601f19601f820116820180604052508101906113c891906129b6565b905060006113d6858461104a565b9050611407847f00000000000000000000000000000000000000000000000000000000000000008360000151611ca1565b61141684838360200151611ca1565b5050505050565b6000807f00000000000000000000000000000000000000000000000000000000000000006001600160a01b031663f002606b6040518163ffffffff1660e01b8152600401602060405180830381865afa15801561147e573d6000803e3d6000fd5b505050506040513d601f19601f820116820180604052508101906114a291906129d3565b905060006114fd6040516020016114e2906020808252601590820152744255594241434b5f4d41585f50524943455f41474560581b604082015260600190565b60405160208183030381529060405280519060200120610fbe565b9050428061150b8385612a26565b101561153b576040516309c7ec5560e31b815260048101849052602481018390526044810182905260640161063e565b604051631773dc6560e21b81526000906001600160a01b037f00000000000000000000000000000000000000000000000000000000000000001690635dcf71949061158a908b906004016124dd565b6040805180830381865afa1580156115a6573d6000803e3d6000fd5b505050506040513d601f19601f820116820180604052508101906115ca9190612c65565b60200151905060007f00000000000000000000000000000000000000000000000000000000000000006001600160a01b0316635dcf7194896040518263ffffffff1660e01b815260040161161e91906124dd565b6040805180830381865afa15801561163a573d6000803e3d6000fd5b505050506040513d601f19601f8201168201806040525081019061165e9190612c65565b51905061166e898989858561108e565b9998505050505050505050565b6116858484611ce1565b61169985856116948585612aa8565b611e1e565b6116ae6001600160a01b038516333086612008565b6116c26001600160a01b0386163384610e9b565b6116ca6123ba565b80516116d7906002612029565b6040805180820190915260088152673332b2aa37b5b2b760c11b60208201528151611705916000908961208e565b60408051808201909152600c81526b313abcb130b1b5aa37b5b2b760a11b60208201528151611737916001908861208e565b6020810151611747906003612029565b611784600060405180604001604052806009815260200168626174636853697a6560b81b8152508684602001516120eb909392919063ffffffff16565b6117c560016040518060400160405280600d81526020016c189d5e589858dad05b5bdd5b9d609a1b8152508584602001516120eb909392919063ffffffff16565b61180b600260405180604001604052806012815260200171185d985a5b18589b19519959505b5bdd5b9d60721b8152508484602001516120eb909392919063ffffffff16565b60405163483624fb60e11b81526001600160a01b037f0000000000000000000000000000000000000000000000000000000000000000169063906c49f690611857908490600401613540565b600060405180830381600087803b15801561187157600080fd5b505af1158015611885573d6000803e3d6000fd5b50505050505050505050565b6000604051602001610e5090602080825260149082015273109556509050d2d7d0905510d217d05353d5539560621b604082015260600190565b6000611920826040518060400160405280602081526020017f5361666545524332303a206c6f772d6c6576656c2063616c6c206661696c6564815250856001600160a01b031661213e9092919063ffffffff16565b90508051600014806119415750808060200190518101906119419190612c0c565b610abe5760405162461bcd60e51b815260206004820152602a60248201527f5361666545524332303a204552433230206f7065726174696f6e20646964206e6044820152691bdd081cdd58d8d9595960b21b606482015260840161063e565b6000604051602001610f68906020808252601c908201527b109556509050d2d7d0559052531050931157d1915157d05353d5539560221b604082015260600190565b6000604051602001611a1a90602080825260129082015271212aaca120a1a5afa3a6ac2fa320a1aa27a960711b604082015260600190565b6040516020818303038152906040528051906020012082604051602001610e7e9291906129ec565b6000610f00838368327cb2734119d3b7a9601e1b5b6000611a6484848461214d565b949350505050565b6000604051602001610e50906020808252601f908201527f4255594241434b5f4d41585f50524943455f494d504143545f464143544f5200604082015260600190565b60606000604483511015611ad6575050604080516020810190915260008082529092909150565b6000611ae3846020015190565b90506307b9e43360e51b6001600160e01b0319821601611b225760048401935083806020019051810190611b179190613575565b946001945092505050565b600060405180602001604052806000815250909250925050915091565b80518060208301fd5b6001600160a01b0381166104f75760405163d551823d60e01b815260040160405180910390fd5b611b776123ba565b8051611b84906002612029565b6040805180820190915260068152651b585c9ad95d60d21b60208201528151611bb0916000908761208e565b6040805180820190915260088152673932b1b2b4bb32b960c11b60208201528151611bde916001908661208e565b6020810151611bee906001612029565b611c2b600060405180604001604052806009815260200168199959505b5bdd5b9d60ba1b8152508484602001516120eb909392919063ffffffff16565b846001600160a01b03166324de01e4611c4a866001600160a01b031690565b836040518363ffffffff1660e01b8152600401611c689291906135e2565b600060405180830381600087803b158015611c8257600080fd5b505af1158015611c96573d6000803e3d6000fd5b505050505050505050565b816001600160a01b0316836001600160a01b031603611cc457610abe8282611ce1565b6000611cd08484610ef1565b9050610cbf84846116948585612a26565b60007f00000000000000000000000000000000000000000000000000000000000000006001600160a01b031663bd02d0f5611d1b85610e03565b6040518263ffffffff1660e01b8152600401611d3991815260200190565b602060405180830381865afa158015611d56573d6000803e3d6000fd5b505050506040513d601f19601f82011682018060405250810190611d7a91906129d3565b90507f00000000000000000000000000000000000000000000000000000000000000006001600160a01b031663e2a4853a611db485610e03565b611dbe8585612a26565b6040518363ffffffff1660e01b8152600401611ddb9291906129ec565b6020604051808303816000875af1158015611dfa573d6000803e3d6000fd5b505050506040513d601f19601f82011682018060405250810190610cbf91906129d3565b7f00000000000000000000000000000000000000000000000000000000000000006001600160a01b031663e2a4853a611e5785856119a0565b836040518363ffffffff1660e01b8152600401611e759291906129ec565b6020604051808303816000875af1158015611e94573d6000803e3d6000fd5b505050506040513d601f19601f82011682018060405250810190611eb891906129d3565b50611ec16123ba565b8051611ece906002612029565b6040805180820190915260088152673332b2aa37b5b2b760c11b60208201528151611efc916000908761208e565b60408051808201909152600c81526b313abcb130b1b5aa37b5b2b760a11b60208201528151611f2e916001908661208e565b6020810151611f3e906001612029565b611f84600060405180604001604052806012815260200171185d985a5b18589b19519959505b5bdd5b9d60721b8152508484602001516120eb909392919063ffffffff16565b60405163483624fb60e11b81526001600160a01b037f0000000000000000000000000000000000000000000000000000000000000000169063906c49f690611fd090849060040161361d565b600060405180830381600087803b158015611fea57600080fd5b505af1158015611ffe573d6000803e3d6000fd5b5050505050505050565b610cbf846323b872dd60e01b858585604051602401610eba93929190612bcf565b806001600160401b03811115612041576120416126f2565b60405190808252806020026020018201604052801561208757816020015b60408051808201909152606081526000602082015281526020019060019003908161205f5790505b5090915250565b81846000015184815181106120a5576120a56129fa565b60200260200101516000018190525080846000015184815181106120cb576120cb6129fa565b6020908102919091018101516001600160a01b0390921691015250505050565b8184600001518481518110612102576121026129fa565b6020026020010151600001819052508084600001518481518110612128576121286129fa565b6020026020010151602001818152505050505050565b6060611a648484600085612237565b60008080600019858709858702925082811083820303915050806000036121875783828161217d5761217d61365c565b0492505050610f00565b8084116121ce5760405162461bcd60e51b81526020600482015260156024820152744d6174683a206d756c446976206f766572666c6f7760581b604482015260640161063e565b60008486880960026001871981018816978890046003810283188082028403028082028403028082028403028082028403028082028403029081029092039091026000889003889004909101858311909403939093029303949094049190911702949350505050565b6060824710156122985760405162461bcd60e51b815260206004820152602660248201527f416464726573733a20696e73756666696369656e742062616c616e636520666f6044820152651c8818d85b1b60d21b606482015260840161063e565b600080866001600160a01b031685876040516122b49190613672565b60006040518083038185875af1925050503d80600081146122f1576040519150601f19603f3d011682016040523d82523d6000602084013e6122f6565b606091505b50915091506106e7878383876060831561237157825160000361236a576001600160a01b0385163b61236a5760405162461bcd60e51b815260206004820152601d60248201527f416464726573733a2063616c6c20746f206e6f6e2d636f6e7472616374000000604482015260640161063e565b5081611a64565b611a6483838151156123865781518083602001fd5b8060405162461bcd60e51b815260040161063e9190612c52565b604051806040016040528060008152602001600081525090565b604080516101208101909152606060e08201818152610100830191909152819081526020016123fc604051806040016040528060608152602001606081525090565b815260200161241e604051806040016040528060608152602001606081525090565b8152602001612440604051806040016040528060608152602001606081525090565b8152602001612462604051806040016040528060608152602001606081525090565b8152602001612484604051806040016040528060608152602001606081525090565b81526020016124a6604051806040016040528060608152602001606081525090565b905290565b6001600160a01b03811681146104f757600080fd5b6000602082840312156124d257600080fd5b8135610f00816124ab565b6001600160a01b0391909116815260200190565b60008083601f84011261250357600080fd5b5081356001600160401b0381111561251a57600080fd5b6020830191508360208260051b850101111561253557600080fd5b9250929050565b600080600080600080600060c0888a03121561255757600080fd5b87356001600160401b0381111561256d57600080fd5b6125798a828b016124f1565b909850965050602088013561258d816124ab565b9450604088013561259d816124ab565b969995985093966060810135956080820135955060a0909101359350915050565b600080602083850312156125d157600080fd5b82356001600160401b038111156125e757600080fd5b6125f3858286016124f1565b90969095509350505050565b60005b8381101561261a578181015183820152602001612602565b50506000910152565b6000815180845261263b8160208601602086016125ff565b601f01601f19169290920160200192915050565b6000602080830181845280855180835260408601915060408160051b870101925083870160005b828110156126a457603f19888603018452612692858351612623565b94509285019290850190600101612676565b5092979650505050505050565b6000806000606084860312156126c657600080fd5b83356126d1816124ab565b925060208401356126e1816124ab565b929592945050506040919091013590565b634e487b7160e01b600052604160045260246000fd5b604051606081016001600160401b038111828210171561272a5761272a6126f2565b60405290565b604051601f8201601f191681016001600160401b0381118282101715612758576127586126f2565b604052919050565b60006001600160401b03821115612779576127796126f2565b5060051b60200190565b600082601f83011261279457600080fd5b813560206127a96127a483612760565b612730565b82815260059290921b840181019181810190868411156127c857600080fd5b8286015b848110156127ec5780356127df816124ab565b83529183019183016127cc565b509695505050505050565b60006001600160401b03821115612810576128106126f2565b50601f01601f191660200190565b6000806000806080858703121561283457600080fd5b61283e85356124ab565b843593506020850135612850816124ab565b92506040850135915060608501356001600160401b038082111561287357600080fd5b908601906060828903121561288757600080fd5b61288f612708565b818335111561289d57600080fd5b6128aa8984358501612783565b81526020830135828111156128be57600080fd5b6128ca8a828601612783565b6020830152506040830135828111156128e257600080fd5b80840193505088601f8401126128f757600080fd5b6129046127a48435612760565b83358082526020808301929160051b8601018b81111561292357600080fd5b602086015b818110156129a157858135111561293e57600080fd5b803587018d603f82011261295157600080fd5b60208101356129626127a4826127f7565b8181528f604083850101111561297757600080fd5b81604084016020830137600060208383010152808752505050602084019350602081019050612928565b50506040830152509598949750929550505050565b6000602082840312156129c857600080fd5b8151610f00816124ab565b6000602082840312156129e557600080fd5b5051919050565b918252602082015260400190565b634e487b7160e01b600052603260045260246000fd5b634e487b7160e01b600052601160045260246000fd5b8082018082111561080b5761080b612a10565b600060018201612a4b57612a4b612a10565b5060010190565b6000808335601e19843603018112612a6957600080fd5b8301803591506001600160401b03821115612a8357600080fd5b60200191503681900382131561253557600080fd5b8183823760009101908152919050565b8181038181111561080b5761080b612a10565b600081518084526020808501945080840160005b83811015612af45781516001600160a01b031687529582019590820190600101612acf565b509495945050505050565b600081518084526020808501808196508360051b8101915082860160005b85811015612b47578284038952612b35848351612623565b98850198935090840190600101612b1d565b5091979650505050505050565b602081526000825160606020840152612b706080840182612abb565b90506020840151601f1980858403016040860152612b8e8383612abb565b9250604086015191508085840301606086015250612bac8282612aff565b95945050505050565b6001600160a01b0392831681529116602082015260400190565b6001600160a01b039384168152919092166020820152604081019190915260600190565b6001600160a01b03929092168252602082015260400190565b600060208284031215612c1e57600080fd5b81518015158114610f0057600080fd5b6001600160a01b0383168152604060208201819052600090611a6490830184612623565b602081526000610f006020830184612623565b600060408284031215612c7757600080fd5b604080519081016001600160401b0381118282101715612c9957612c996126f2565b604052825181526020928301519281019290925250919050565b600081518084526020808501808196508360051b8101915082860160005b85811015612b47578284038952815160408151818752612cf382880182612623565b91505086820151915085810387870152612d0d8183612abb565b9a87019a9550505090840190600101612cd1565b60006040808401835182865281815180845260608801915060608160051b89010193506020808401935060005b82811015612d9857898603605f1901845284518051888852612d7289890182612623565b918401516001600160a01b03169784019790975295509381019392810192600101612d4e565b50808801519550888503818a015250505050612bac8183612cb3565b600081518084526020808501808196508360051b810191508286016000805b86811015612e46578385038a52825160408151818852612df582890182612623565b92890151888403898b01528051808552908a01938693508a0191505b80831015612e315783518252928901926001929092019190890190612e11565b509b88019b9650505091850191600101612dd3565b509298975050505050505050565b60006040808401835182865281815180845260608801915060608160051b89010193506020808401935060005b82811015612ec257898603605f1901845284518051888852612ea589890182612623565b918401519784019790975295509381019392810192600101612e81565b50808801519550888503818a015250505050612bac8183612db4565b600081518084526020808501808196508360051b810191508286016000805b86811015612e46578385038a52825160408151818852612f1f82890182612623565b92890151888403898b01528051808552908a01938693508a0191505b80831015612f5b5783518252928901926001929092019190890190612f3b565b509b88019b9650505091850191600101612efd565b60006040808401835182865281815180845260608801915060608160051b89010193506020808401935060005b82811015612fde57898603605f1901845284518051888852612fc189890182612623565b918401519784019790975295509381019392810192600101612f9d565b50808801519550888503818a015250505050612bac8183612ede565b600081518084526020808501808196508360051b810191508286016000805b86811015612e46578385038a5282516040815181885261303b82890182612623565b92890151888403898b01528051808552908a01938693508a0191505b8083101561307957835115158252928901926001929092019190890190613057565b509b88019b9650505091850191600101613019565b60006040808401835182865281815180845260608801915060608160051b89010193506020808401935060005b828110156130fe57898603605f19018452845180518888526130df89890182612623565b91840151151597840197909752955093810193928101926001016130bb565b50808801519550888503818a015250505050612bac8183612ffa565b600081518084526020808501808196508360051b810191508286016000805b86811015612e46578385038a5282516040815181885261315b82890182612623565b92890151888403898b01528051808552908a01938693508a0191505b808310156131975783518252928901926001929092019190890190613177565b509b88019b9650505091850191600101613139565b60006040808401835182865281815180845260608801915060608160051b89010193506020808401935060005b8281101561321a57898603605f19018452845180518888526131fd89890182612623565b9184015197840197909752955093810193928101926001016131d9565b50808801519550888503818a015250505050612bac818361311a565b600081518084526020808501808196508360051b8101915082860160005b85811015612b4757828403895281516040815181875261327682880182612623565b915050868201519150858103878701526132908183612aff565b9a87019a9550505090840190600101613254565b60006040808401835182865281815180845260608801915060608160051b89010193506020808401935060005b8281101561332157898603605f19018452845180518888526132f589890182612623565b918401518883038986015291905061330d8183612623565b9750505093810193928101926001016132d1565b50808801519550888503818a015250505050612bac8183613236565b600081518084526020808501808196506005915083821b81018387016000805b878110156133e8578484038b5282516040815181875261337f82880182612623565b928a0151878403888c01528051808552908b019392508a83019150808a1b83018b01865b828110156133d157601f198583030184526133bf828751612623565b958d0195938d019391506001016133a3565b509e8b019e9750505093880193505060010161335d565b50919998505050505050505050565b60006040808401835182865281815180845260608801915060608160051b89010193506020808401935060005b8281101561347457898603605f190184528451805188885261344889890182612623565b91840151888303898601529190506134608183612623565b975050509381019392810192600101613424565b50808801519550888503818a015250505050612bac818361333d565b6000815160e084526134a560e0850182612d21565b9050602083015184820360208601526134be8282612e54565b915050604083015184820360408601526134d88282612f70565b915050606083015184820360608601526134f2828261308e565b9150506080830151848203608086015261350c82826131ac565b91505060a083015184820360a086015261352682826132a4565b91505060c083015184820360c0860152612bac82826133f7565b60408152600b60408201526a4275796261636b4665657360a81b6060820152608060208201526000610f006080830184613490565b60006020828403121561358757600080fd5b81516001600160401b0381111561359d57600080fd5b8201601f810184136135ae57600080fd5b80516135bc6127a4826127f7565b8181528560208385010111156135d157600080fd5b612bac8260208301602086016125ff565b60608152600b60608201526a1199595cd0db185a5b595960aa1b608082015282602082015260a060408201526000611a6460a0830184613490565b60408152601560408201527414d95d105d985a5b18589b19519959505b5bdd5b9d605a1b6060820152608060208201526000610f006080830184613490565b634e487b7160e01b600052601260045260246000fd5b600082516136848184602087016125ff565b919091019291505056fea2646970667358221220d283d4cd538770f4eb001030101a3eb9f35b89aacc35c222add7f693f41fb8a764736f6c63430008120033",
  "linkReferences": {
    "contracts/market/MarketUtils.sol": {
      "MarketUtils": [
        {
          "length": 20,
          "start": 5274
        }
      ]
    }
  },
  "deployedLinkReferences": {
    "contracts/market/MarketUtils.sol": {
      "MarketUtils": [
        {
          "length": 20,
          "start": 4755
        }
      ]
    }
  }
}