{
  "_format": "hh-sol-artifact-1",
  "contractName": "FeeHandler",
  "sourceName": "contracts/fee/FeeHandler.sol",
  "abi": [
    {
      "inputs": [
        {
          "internalType": "contract RoleStore",
          "name": "_roleStore",
          "type": "address"
        },
        {
          "internalType": "contract DataStore",
          "name": "_dataStore",
          "type": "address"
        },
        {
          "internalType": "contract EventEmitter",
          "name": "_eventEmitter",
          "type": "address"
        }
      ],
      "stateMutability": "nonpayable",
      "type": "constructor"
    },
    {
      "inputs": [],
      "name": "EmptyReceiver",
      "type": "error"
    },
    {
      "inputs": [
        {
          "internalType": "uint256",
          "name": "marketsLength",
          "type": "uint256"
        },
        {
          "internalType": "uint256",
          "name": "tokensLength",
          "type": "uint256"
        }
      ],
      "name": "InvalidClaimFeesInput",
      "type": "error"
    },
    {
      "inputs": [
        {
          "internalType": "address",
          "name": "msgSender",
          "type": "address"
        },
        {
          "internalType": "string",
          "name": "role",
          "type": "string"
        }
      ],
      "name": "Unauthorized",
      "type": "error"
    },
    {
      "inputs": [
        {
          "internalType": "address[]",
          "name": "markets",
          "type": "address[]"
        },
        {
          "internalType": "address[]",
          "name": "tokens",
          "type": "address[]"
        }
      ],
      "name": "claimFees",
      "outputs": [],
      "stateMutability": "nonpayable",
      "type": "function"
    },
    {
      "inputs": [],
      "name": "dataStore",
      "outputs": [
        {
          "internalType": "contract DataStore",
          "name": "",
          "type": "address"
        }
      ],
      "stateMutability": "view",
      "type": "function"
    },
    {
      "inputs": [],
      "name": "eventEmitter",
      "outputs": [
        {
          "internalType": "contract EventEmitter",
          "name": "",
          "type": "address"
        }
      ],
      "stateMutability": "view",
      "type": "function"
    },
    {
      "inputs": [],
      "name": "roleStore",
      "outputs": [
        {
          "internalType": "contract RoleStore",
          "name": "",
          "type": "address"
        }
      ],
      "stateMutability": "view",
      "type": "function"
    }
  ],
  "bytecode": "0x60e06040523480156200001157600080fd5b50604051620016e7380380620016e7833981016040819052620000349162000070565b60016000556001600160a01b0392831660805290821660a0521660c052620000c4565b6001600160a01b03811681146200006d57600080fd5b50565b6000806000606084860312156200008657600080fd5b8351620000938162000057565b6020850151909350620000a68162000057565b6040850151909250620000b98162000057565b809150509250925092565b60805160a05160c0516115da6200010d6000396000818160d501526102fc01526000818160ae015281816101f601526102db015260008181606b015261038e01526115da6000f3fe608060405234801561001057600080fd5b506004361061004c5760003560e01c80633de460f0146100515780634a4a7b0414610066578063660d0d67146100a95780639ff78c30146100d0575b600080fd5b61006461005f366004610ae0565b6100f7565b005b61008d7f000000000000000000000000000000000000000000000000000000000000000081565b6040516001600160a01b03909116815260200160405180910390f35b61008d7f000000000000000000000000000000000000000000000000000000000000000081565b61008d7f000000000000000000000000000000000000000000000000000000000000000081565b60026000540361014e5760405162461bcd60e51b815260206004820152601f60248201527f5265656e7472616e637947756172643a207265656e7472616e742063616c6c0060448201526064015b60405180910390fd5b60026000556040516101c390610185906020016020808252600a90820152692322a2afa5a2a2a822a960b11b604082015260600190565b604051602081830303815290604052805190602001206040518060400160405280600a8152602001692322a2afa5a2a2a822a960b11b815250610372565b80518251146101f257815181516040516384fa13d560e01b815260048101929092526024820152604401610145565b60007f00000000000000000000000000000000000000000000000000000000000000006001600160a01b03166321f8a721604051602001610253906020808252600c908201526b2322a2afa922a1a2a4ab22a960a11b604082015260600190565b604051602081830303815290604052805190602001206040518263ffffffff1660e01b815260040161028791815260200190565b602060405180830381865afa1580156102a4573d6000803e3d6000fd5b505050506040513d601f19601f820116820180604052508101906102c89190610b43565b905060005b8351811015610367576103557f00000000000000000000000000000000000000000000000000000000000000007f000000000000000000000000000000000000000000000000000000000000000086848151811061032d5761032d610b67565b602002602001015186858151811061034757610347610b67565b602002602001015186610426565b8061035f81610b7d565b9150506102cd565b505060016000555050565b60405163ac4ab3fb60e01b8152336004820152602481018390527f00000000000000000000000000000000000000000000000000000000000000006001600160a01b03169063ac4ab3fb90604401602060405180830381865afa1580156103dd573d6000803e3d6000fd5b505050506040513d601f19601f820116820180604052508101906104019190610ba4565b61042257338160405163a35b150b60e01b8152600401610145929190610c0c565b5050565b61042f81610612565b600061043b848461063c565b60405163bd02d0f560e01b8152600481018290529091506000906001600160a01b0388169063bd02d0f590602401602060405180830381865afa158015610486573d6000803e3d6000fd5b505050506040513d601f19601f820116820180604052508101906104aa9190610c38565b604051637152429d60e11b815260048101849052600060248201529091506001600160a01b0388169063e2a4853a906044016020604051808303816000875af11580156104fb573d6000803e3d6000fd5b505050506040513d601f19601f8201168201806040525081019061051f9190610c38565b5060405163078d3b7960e01b81526001600160a01b03858116600483015284811660248301526044820183905286169063078d3b7990606401600060405180830381600087803b15801561057257600080fd5b505af1158015610586573d6000803e3d6000fd5b5050604051632c9800af60e11b81526001600160a01b03808b1660048301528816602482015273__$e53db83827f4e07ebc418caf7145b8c2d5$__9250635930015e915060440160006040518083038186803b1580156105e557600080fd5b505af41580156105f9573d6000803e3d6000fd5b50505050610609868685846106cc565b50505050505050565b6001600160a01b0381166106395760405163d551823d60e01b815260040160405180910390fd5b50565b60006040516020016106769060208082526014908201527310d31052535050931157d1915157d05353d5539560621b604082015260600190565b60408051601f198184030181528282528051602091820120908301526001600160a01b03808616918301919091528316606082015260800160405160208183030381529060405280519060200120905092915050565b6106d4610913565b80516106e19060026107fe565b6040805180820190915260068152651b585c9ad95d60d21b6020820152815161070d9160009087610863565b6040805180820190915260088152673932b1b2b4bb32b960c11b6020820152815161073b9160019086610863565b602081015161074b9060016107fe565b610788600060405180604001604052806009815260200168199959505b5bdd5b9d60ba1b8152508484602001516108c0909392919063ffffffff16565b846001600160a01b03166324de01e46107a7866001600160a01b031690565b836040518363ffffffff1660e01b81526004016107c59291906114a1565b600060405180830381600087803b1580156107df57600080fd5b505af11580156107f3573d6000803e3d6000fd5b505050505050505050565b806001600160401b0381111561081657610816610a04565b60405190808252806020026020018201604052801561085c57816020015b6040805180820190915260608152600060208201528152602001906001900390816108345790505b5090915250565b818460000151848151811061087a5761087a610b67565b60200260200101516000018190525080846000015184815181106108a0576108a0610b67565b6020908102919091018101516001600160a01b0390921691015250505050565b81846000015184815181106108d7576108d7610b67565b60200260200101516000018190525080846000015184815181106108fd576108fd610b67565b6020026020010151602001818152505050505050565b604080516101208101909152606060e0820181815261010083019190915281908152602001610955604051806040016040528060608152602001606081525090565b8152602001610977604051806040016040528060608152602001606081525090565b8152602001610999604051806040016040528060608152602001606081525090565b81526020016109bb604051806040016040528060608152602001606081525090565b81526020016109dd604051806040016040528060608152602001606081525090565b81526020016109ff604051806040016040528060608152602001606081525090565b905290565b634e487b7160e01b600052604160045260246000fd5b6001600160a01b038116811461063957600080fd5b8035610a3a81610a1a565b919050565b600082601f830112610a5057600080fd5b813560206001600160401b0380831115610a6c57610a6c610a04565b8260051b604051601f19603f83011681018181108482111715610a9157610a91610a04565b604052938452858101830193838101925087851115610aaf57600080fd5b83870191505b84821015610ad557610ac682610a2f565b83529183019190830190610ab5565b979650505050505050565b60008060408385031215610af357600080fd5b82356001600160401b0380821115610b0a57600080fd5b610b1686838701610a3f565b93506020850135915080821115610b2c57600080fd5b50610b3985828601610a3f565b9150509250929050565b600060208284031215610b5557600080fd5b8151610b6081610a1a565b9392505050565b634e487b7160e01b600052603260045260246000fd5b600060018201610b9d57634e487b7160e01b600052601160045260246000fd5b5060010190565b600060208284031215610bb657600080fd5b81518015158114610b6057600080fd5b6000815180845260005b81811015610bec57602081850181015186830182015201610bd0565b506000602082860101526020601f19601f83011685010191505092915050565b6001600160a01b0383168152604060208201819052600090610c3090830184610bc6565b949350505050565b600060208284031215610c4a57600080fd5b5051919050565b600081518084526020808501808196508360051b810191508286016000805b86811015610cec578385038a52825160408151818852610c9282890182610bc6565b92890151888403898b01528051808552908a01938693508a0191505b80831015610cd75783516001600160a01b03168252928901926001929092019190890190610cae565b509b88019b9650505091850191600101610c70565b509298975050505050505050565b60006040808401835182865281815180845260608801915060608160051b89010193506020808401935060005b82811015610d7157898603605f1901845284518051888852610d4b89890182610bc6565b918401516001600160a01b03169784019790975295509381019392810192600101610d27565b50808801519550888503818a015250505050610d8d8183610c51565b95945050505050565b600081518084526020808501808196508360051b810191508286016000805b86811015610cec578385038a52825160408151818852610dd782890182610bc6565b92890151888403898b01528051808552908a01938693508a0191505b80831015610e135783518252928901926001929092019190890190610df3565b509b88019b9650505091850191600101610db5565b60006040808401835182865281815180845260608801915060608160051b89010193506020808401935060005b82811015610e9657898603605f1901845284518051888852610e7989890182610bc6565b918401519784019790975295509381019392810192600101610e55565b50808801519550888503818a015250505050610d8d8183610d96565b600081518084526020808501808196508360051b810191508286016000805b86811015610cec578385038a52825160408151818852610ef382890182610bc6565b92890151888403898b01528051808552908a01938693508a0191505b80831015610f2f5783518252928901926001929092019190890190610f0f565b509b88019b9650505091850191600101610ed1565b60006040808401835182865281815180845260608801915060608160051b89010193506020808401935060005b82811015610fb257898603605f1901845284518051888852610f9589890182610bc6565b918401519784019790975295509381019392810192600101610f71565b50808801519550888503818a015250505050610d8d8183610eb2565b600081518084526020808501808196508360051b810191508286016000805b86811015610cec578385038a5282516040815181885261100f82890182610bc6565b92890151888403898b01528051808552908a01938693508a0191505b8083101561104d5783511515825292890192600192909201919089019061102b565b509b88019b9650505091850191600101610fed565b60006040808401835182865281815180845260608801915060608160051b89010193506020808401935060005b828110156110d257898603605f19018452845180518888526110b389890182610bc6565b918401511515978401979097529550938101939281019260010161108f565b50808801519550888503818a015250505050610d8d8183610fce565b600081518084526020808501808196508360051b810191508286016000805b86811015610cec578385038a5282516040815181885261112f82890182610bc6565b92890151888403898b01528051808552908a01938693508a0191505b8083101561116b578351825292890192600192909201919089019061114b565b509b88019b965050509185019160010161110d565b60006040808401835182865281815180845260608801915060608160051b89010193506020808401935060005b828110156111ee57898603605f19018452845180518888526111d189890182610bc6565b9184015197840197909752955093810193928101926001016111ad565b50808801519550888503818a015250505050610d8d81836110ee565b600081518084526020808501808196506005915083821b81018387016000805b878110156112b5578484038b5282516040815181875261124c82880182610bc6565b928a0151878403888c01528051808552908b019392508a83019150808a1b83018b01865b8281101561129e57601f1985830301845261128c828751610bc6565b958d0195938d01939150600101611270565b509e8b019e9750505093880193505060010161122a565b50919998505050505050505050565b60006040808401835182865281815180845260608801915060608160051b89010193506020808401935060005b8281101561134157898603605f190184528451805188885261131589890182610bc6565b918401518883038986015291905061132d8183610bc6565b9750505093810193928101926001016112f1565b50808801519550888503818a015250505050610d8d818361120a565b600081518084526020808501808196506005915083821b81018387016000805b878110156112b5578484038b5282516040815181875261139f82880182610bc6565b928a0151878403888c01528051808552908b019392508a83019150808a1b83018b01865b828110156113f157601f198583030184526113df828751610bc6565b958d0195938d019391506001016113c3565b509e8b019e9750505093880193505060010161137d565b60006040808401835182865281815180845260608801915060608160051b89010193506020808401935060005b8281101561148557898603605f190184528451805188885261145989890182610bc6565b91840151888303898601529190506114718183610bc6565b975050509381019392810192600101611435565b50808801519550888503818a015250505050610d8d818361135d565b60608152600b60608201526a1199595cd0db185a5b595960aa1b608082015282602082015260a060408201526000825160e060a08401526114e6610180840182610cfa565b90506020840151609f19808584030160c08601526115048383610e28565b925060408601519150808584030160e08601526115218383610f44565b925060608601519150808584030161010086015261153f8383611062565b925060808601519150808584030161012086015261155d8383611180565b925060a08601519150808584030161014086015261157b83836112c4565b925060c0860151915080858403016101608601525061159a8282611408565b969550505050505056fea26469706673582212201162e41392df173d1ac3ffde8c11a978cf2c91bb879ee05c72c34ebcd58136ef64736f6c63430008120033",
  "linkReferences": {
    "contracts/market/MarketUtils.sol": {
      "MarketUtils": [
        {
          "length": 20,
          "start": 1723
        }
      ]
    }
  },
  "deployedLinkReferences": {
    "contracts/market/MarketUtils.sol": {
      "MarketUtils": [
        {
          "length": 20,
          "start": 1454
        }
      ]
    }
  }
}