{
  "_format": "hh-sol-artifact-1",
  "contractName": "ArrayTest",
  "sourceName": "contracts/test/ArrayTest.sol",
  "abi": [
    {
      "inputs": [
        {
          "internalType": "uint256[]",
          "name": "arr",
          "type": "uint256[]"
        }
      ],
      "name": "getMedian",
      "outputs": [
        {
          "internalType": "uint256",
          "name": "",
          "type": "uint256"
        }
      ],
      "stateMutability": "pure",
      "type": "function"
    }
  ],
  "bytecode": "0x608060405234801561001057600080fd5b506102b4806100206000396000f3fe608060405234801561001057600080fd5b506004361061002b5760003560e01c8063e8787f4114610030575b600080fd5b61004361003e366004610131565b610055565b60405190815260200160405180910390f35b600061006082610066565b92915050565b6000600282516100769190610204565b6001036100ab57816002835161008c919061022e565b8151811061009c5761009c610242565b60200260200101519050919050565b6002826001600285516100be919061022e565b6100c89190610258565b815181106100d8576100d8610242565b602002602001015183600285516100ef919061022e565b815181106100ff576100ff610242565b6020026020010151610111919061026b565b610060919061022e565b634e487b7160e01b600052604160045260246000fd5b6000602080838503121561014457600080fd5b82356001600160401b038082111561015b57600080fd5b818501915085601f83011261016f57600080fd5b8135818111156101815761018161011b565b8060051b604051601f19603f830116810181811085821117156101a6576101a661011b565b6040529182528482019250838101850191888311156101c457600080fd5b938501935b828510156101e2578435845293850193928501926101c9565b98975050505050505050565b634e487b7160e01b600052601260045260246000fd5b600082610213576102136101ee565b500690565b634e487b7160e01b600052601160045260246000fd5b60008261023d5761023d6101ee565b500490565b634e487b7160e01b600052603260045260246000fd5b8181038181111561006057610060610218565b808201808211156100605761006061021856fea264697066735822122034f25c51684eea2b582175f78905e971525a417a5b7751ea5cf20da82e6366de64736f6c63430008120033",
  "linkReferences": {},
  "deployedLinkReferences": {}
}