{
  "_format": "hh-sol-artifact-1",
  "contractName": "DepositHandler",
  "sourceName": "contracts/exchange/DepositHandler.sol",
  "abi": [
    {
      "inputs": [
        {
          "internalType": "contract RoleStore",
          "name": "_roleStore",
          "type": "address"
        },
        {
          "internalType": "contract DataStore",
          "name": "_dataStore",
          "type": "address"
        },
        {
          "internalType": "contract EventEmitter",
          "name": "_eventEmitter",
          "type": "address"
        },
        {
          "internalType": "contract DepositVault",
          "name": "_depositVault",
          "type": "address"
        },
        {
          "internalType": "contract Oracle",
          "name": "_oracle",
          "type": "address"
        }
      ],
      "stateMutability": "nonpayable",
      "type": "constructor"
    },
    {
      "inputs": [
        {
          "internalType": "uint256[]",
          "name": "compactedValues",
          "type": "uint256[]"
        },
        {
          "internalType": "uint256",
          "name": "index",
          "type": "uint256"
        },
        {
          "internalType": "uint256",
          "name": "slotIndex",
          "type": "uint256"
        },
        {
          "internalType": "string",
          "name": "label",
          "type": "string"
        }
      ],
      "name": "CompactedArrayOutOfBounds",
      "type": "error"
    },
    {
      "inputs": [
        {
          "internalType": "bytes32",
          "name": "key",
          "type": "bytes32"
        }
      ],
      "name": "DisabledFeature",
      "type": "error"
    },
    {
      "inputs": [
        {
          "internalType": "uint256",
          "name": "index",
          "type": "uint256"
        }
      ],
      "name": "EmptyCompactedBlockNumber",
      "type": "error"
    },
    {
      "inputs": [],
      "name": "EndOfOracleSimulation",
      "type": "error"
    },
    {
      "inputs": [
        {
          "internalType": "uint256",
          "name": "startingGas",
          "type": "uint256"
        },
        {
          "internalType": "uint256",
          "name": "minHandleErrorGas",
          "type": "uint256"
        }
      ],
      "name": "InsufficientExecutionGas",
      "type": "error"
    },
    {
      "inputs": [
        {
          "internalType": "uint256",
          "name": "primaryTokensLength",
          "type": "uint256"
        },
        {
          "internalType": "uint256",
          "name": "primaryPricesLength",
          "type": "uint256"
        }
      ],
      "name": "InvalidPrimaryPricesForSimulation",
      "type": "error"
    },
    {
      "inputs": [
        {
          "internalType": "uint256",
          "name": "requestAge",
          "type": "uint256"
        },
        {
          "internalType": "uint256",
          "name": "requestExpirationAge",
          "type": "uint256"
        },
        {
          "internalType": "string",
          "name": "requestType",
          "type": "string"
        }
      ],
      "name": "RequestNotYetCancellable",
      "type": "error"
    },
    {
      "inputs": [
        {
          "internalType": "address",
          "name": "msgSender",
          "type": "address"
        },
        {
          "internalType": "string",
          "name": "role",
          "type": "string"
        }
      ],
      "name": "Unauthorized",
      "type": "error"
    },
    {
      "anonymous": false,
      "inputs": [
        {
          "indexed": false,
          "internalType": "string",
          "name": "reason",
          "type": "string"
        }
      ],
      "name": "OracleError",
      "type": "event"
    },
    {
      "inputs": [
        {
          "internalType": "bytes32",
          "name": "key",
          "type": "bytes32"
        },
        {
          "components": [
            {
              "internalType": "uint256",
              "name": "signerInfo",
              "type": "uint256"
            },
            {
              "internalType": "address[]",
              "name": "tokens",
              "type": "address[]"
            },
            {
              "internalType": "uint256[]",
              "name": "compactedMinOracleBlockNumbers",
              "type": "uint256[]"
            },
            {
              "internalType": "uint256[]",
              "name": "compactedMaxOracleBlockNumbers",
              "type": "uint256[]"
            },
            {
              "internalType": "uint256[]",
              "name": "compactedOracleTimestamps",
              "type": "uint256[]"
            },
            {
              "internalType": "uint256[]",
              "name": "compactedDecimals",
              "type": "uint256[]"
            },
            {
              "internalType": "uint256[]",
              "name": "compactedMinPrices",
              "type": "uint256[]"
            },
            {
              "internalType": "uint256[]",
              "name": "compactedMinPricesIndexes",
              "type": "uint256[]"
            },
            {
              "internalType": "uint256[]",
              "name": "compactedMaxPrices",
              "type": "uint256[]"
            },
            {
              "internalType": "uint256[]",
              "name": "compactedMaxPricesIndexes",
              "type": "uint256[]"
            },
            {
              "internalType": "bytes[]",
              "name": "signatures",
              "type": "bytes[]"
            },
            {
              "internalType": "address[]",
              "name": "priceFeedTokens",
              "type": "address[]"
            },
            {
              "internalType": "address[]",
              "name": "realtimeFeedTokens",
              "type": "address[]"
            },
            {
              "internalType": "bytes[]",
              "name": "realtimeFeedData",
              "type": "bytes[]"
            }
          ],
          "internalType": "struct OracleUtils.SetPricesParams",
          "name": "oracleParams",
          "type": "tuple"
        },
        {
          "internalType": "address",
          "name": "keeper",
          "type": "address"
        }
      ],
      "name": "_executeDeposit",
      "outputs": [],
      "stateMutability": "nonpayable",
      "type": "function"
    },
    {
      "inputs": [
        {
          "internalType": "bytes32",
          "name": "key",
          "type": "bytes32"
        }
      ],
      "name": "cancelDeposit",
      "outputs": [],
      "stateMutability": "nonpayable",
      "type": "function"
    },
    {
      "inputs": [
        {
          "internalType": "address",
          "name": "account",
          "type": "address"
        },
        {
          "components": [
            {
              "internalType": "address",
              "name": "receiver",
              "type": "address"
            },
            {
              "internalType": "address",
              "name": "callbackContract",
              "type": "address"
            },
            {
              "internalType": "address",
              "name": "uiFeeReceiver",
              "type": "address"
            },
            {
              "internalType": "address",
              "name": "market",
              "type": "address"
            },
            {
              "internalType": "address",
              "name": "initialLongToken",
              "type": "address"
            },
            {
              "internalType": "address",
              "name": "initialShortToken",
              "type": "address"
            },
            {
              "internalType": "address[]",
              "name": "longTokenSwapPath",
              "type": "address[]"
            },
            {
              "internalType": "address[]",
              "name": "shortTokenSwapPath",
              "type": "address[]"
            },
            {
              "internalType": "uint256",
              "name": "minMarketTokens",
              "type": "uint256"
            },
            {
              "internalType": "bool",
              "name": "shouldUnwrapNativeToken",
              "type": "bool"
            },
            {
              "internalType": "uint256",
              "name": "executionFee",
              "type": "uint256"
            },
            {
              "internalType": "uint256",
              "name": "callbackGasLimit",
              "type": "uint256"
            }
          ],
          "internalType": "struct DepositUtils.CreateDepositParams",
          "name": "params",
          "type": "tuple"
        }
      ],
      "name": "createDeposit",
      "outputs": [
        {
          "internalType": "bytes32",
          "name": "",
          "type": "bytes32"
        }
      ],
      "stateMutability": "nonpayable",
      "type": "function"
    },
    {
      "inputs": [],
      "name": "dataStore",
      "outputs": [
        {
          "internalType": "contract DataStore",
          "name": "",
          "type": "address"
        }
      ],
      "stateMutability": "view",
      "type": "function"
    },
    {
      "inputs": [],
      "name": "depositVault",
      "outputs": [
        {
          "internalType": "contract DepositVault",
          "name": "",
          "type": "address"
        }
      ],
      "stateMutability": "view",
      "type": "function"
    },
    {
      "inputs": [],
      "name": "eventEmitter",
      "outputs": [
        {
          "internalType": "contract EventEmitter",
          "name": "",
          "type": "address"
        }
      ],
      "stateMutability": "view",
      "type": "function"
    },
    {
      "inputs": [
        {
          "internalType": "bytes32",
          "name": "key",
          "type": "bytes32"
        },
        {
          "components": [
            {
              "internalType": "uint256",
              "name": "signerInfo",
              "type": "uint256"
            },
            {
              "internalType": "address[]",
              "name": "tokens",
              "type": "address[]"
            },
            {
              "internalType": "uint256[]",
              "name": "compactedMinOracleBlockNumbers",
              "type": "uint256[]"
            },
            {
              "internalType": "uint256[]",
              "name": "compactedMaxOracleBlockNumbers",
              "type": "uint256[]"
            },
            {
              "internalType": "uint256[]",
              "name": "compactedOracleTimestamps",
              "type": "uint256[]"
            },
            {
              "internalType": "uint256[]",
              "name": "compactedDecimals",
              "type": "uint256[]"
            },
            {
              "internalType": "uint256[]",
              "name": "compactedMinPrices",
              "type": "uint256[]"
            },
            {
              "internalType": "uint256[]",
              "name": "compactedMinPricesIndexes",
              "type": "uint256[]"
            },
            {
              "internalType": "uint256[]",
              "name": "compactedMaxPrices",
              "type": "uint256[]"
            },
            {
              "internalType": "uint256[]",
              "name": "compactedMaxPricesIndexes",
              "type": "uint256[]"
            },
            {
              "internalType": "bytes[]",
              "name": "signatures",
              "type": "bytes[]"
            },
            {
              "internalType": "address[]",
              "name": "priceFeedTokens",
              "type": "address[]"
            },
            {
              "internalType": "address[]",
              "name": "realtimeFeedTokens",
              "type": "address[]"
            },
            {
              "internalType": "bytes[]",
              "name": "realtimeFeedData",
              "type": "bytes[]"
            }
          ],
          "internalType": "struct OracleUtils.SetPricesParams",
          "name": "oracleParams",
          "type": "tuple"
        }
      ],
      "name": "executeDeposit",
      "outputs": [],
      "stateMutability": "nonpayable",
      "type": "function"
    },
    {
      "inputs": [],
      "name": "oracle",
      "outputs": [
        {
          "internalType": "contract Oracle",
          "name": "",
          "type": "address"
        }
      ],
      "stateMutability": "view",
      "type": "function"
    },
    {
      "inputs": [],
      "name": "roleStore",
      "outputs": [
        {
          "internalType": "contract RoleStore",
          "name": "",
          "type": "address"
        }
      ],
      "stateMutability": "view",
      "type": "function"
    },
    {
      "inputs": [
        {
          "internalType": "bytes32",
          "name": "key",
          "type": "bytes32"
        },
        {
          "components": [
            {
              "internalType": "address[]",
              "name": "primaryTokens",
              "type": "address[]"
            },
            {
              "components": [
                {
                  "internalType": "uint256",
                  "name": "min",
                  "type": "uint256"
                },
                {
                  "internalType": "uint256",
                  "name": "max",
                  "type": "uint256"
                }
              ],
              "internalType": "struct Price.Props[]",
              "name": "primaryPrices",
              "type": "tuple[]"
            }
          ],
          "internalType": "struct OracleUtils.SimulatePricesParams",
          "name": "params",
          "type": "tuple"
        }
      ],
      "name": "simulateExecuteDeposit",
      "outputs": [],
      "stateMutability": "nonpayable",
      "type": "function"
    }
  ],
  "bytecode": "0x6101206040523480156200001257600080fd5b5060405162002f7f38038062002f7f833981016040819052620000359162000078565b6001600160a01b0393841660805293831660a05290821660c052811660e0521661010052620000f8565b6001600160a01b03811681146200007557600080fd5b50565b600080600080600060a086880312156200009157600080fd5b85516200009e816200005f565b6020870151909550620000b1816200005f565b6040870151909450620000c4816200005f565b6060870151909350620000d7816200005f565b6080870151909250620000ea816200005f565b809150509295509295909350565b60805160a05160c05160e05161010051612d9b620001e46000396000818161014c015281816106a40152818161077c0152610a220152600081816101c0015281816102e1015281816104a6015281816106750152611330015260008181610173015281816102bf015281816104850152818161064601528181610a64015261130e01526000818160d30152610df2015260008181610112015281816102410152818161029d0152818161038d015281816105b10152818161061701528181610a4301528181610afa01528181610c2001528181610d2301528181610f4501526112ec0152612d9b6000f3fe608060405234801561001057600080fd5b506004361061008e5760003560e01c80632f6030401461009357806331404484146100b95780634a4a7b04146100ce578063660d0d671461010d57806371508a87146101345780637dc0d1d0146101475780639ff78c301461016e578063b9e2f5ee14610195578063ced96625146101a8578063d7cd3949146101bb575b600080fd5b6100a66100a13660046117cd565b6101e2565b6040519081526020015b60405180910390f35b6100cc6100c7366004611824565b61035e565b005b6100f57f000000000000000000000000000000000000000000000000000000000000000081565b6040516001600160a01b0390911681526020016100b0565b6100f57f000000000000000000000000000000000000000000000000000000000000000081565b6100cc610142366004611d13565b61055e565b6100f57f000000000000000000000000000000000000000000000000000000000000000081565b6100f57f000000000000000000000000000000000000000000000000000000000000000081565b6100cc6101a3366004611d6d565b610768565b6100cc6101b6366004611e85565b6109a5565b6100f57f000000000000000000000000000000000000000000000000000000000000000081565b60006101ec610c1c565b61023c6040516020016101fe90611ec8565b604051602081830303815290604052805190602001206040518060400160405280600a81526020016921a7a72a2927a62622a960b11b815250610ddb565b61026e7f000000000000000000000000000000000000000000000000000000000000000061026930610e8b565b610f18565b604051639ef3818960e01b815273__$b47f57a87b0fdb80638269130c078613b3$__90639ef381899061030d907f0000000000000000000000000000000000000000000000000000000000000000907f0000000000000000000000000000000000000000000000000000000000000000907f00000000000000000000000000000000000000000000000000000000000000009089908990600401611f9d565b602060405180830381865af415801561032a573d6000803e3d6000fd5b505050506040513d601f19601f8201168201806040525081019061034e9190612100565b9050610358610f43565b92915050565b610366610c1c565b6103786040516020016101fe90611ec8565b60005a60405163fdfc26f360e01b81529091507f00000000000000000000000000000000000000000000000000000000000000009060009073__$b63e253a228f0e32f671cc49c7fc32477c$__9063fdfc26f3906103dc9085908890600401612119565b600060405180830381865af41580156103f9573d6000803e3d6000fd5b505050506040513d6000823e601f3d908101601f191682016040526104219190810190612269565b90506104308261026930610ffd565b6104688261044383602001516060015190565b6040518060400160405280600781526020016611195c1bdcda5d60ca1b815250611040565b73__$b47f57a87b0fdb80638269130c078613b3$__636c6a42ac837f00000000000000000000000000000000000000000000000000000000000000007f0000000000000000000000000000000000000000000000000000000000000000886104cf87515190565b60408051808201825260158152741554d15497d2539255125055115117d0d05390d153605a1b602082015290516001600160e01b031960e089901b1681526105209695949392918c91600401612413565b60006040518083038186803b15801561053857600080fd5b505af415801561054c573d6000803e3d6000fd5b5050505050505061055b610f43565b50565b3330146105a7576040805163a35b150b60e01b815233600480830191909152602482019290925260448101919091526329a2a62360e11b60648201526084015b60405180910390fd5b60005a90506105d97f00000000000000000000000000000000000000000000000000000000000000006102693061114d565b60006105ee846040015185602001515161118e565b90506000610605856060015186602001515161118e565b905060006040518061012001604052807f00000000000000000000000000000000000000000000000000000000000000006001600160a01b031681526020017f00000000000000000000000000000000000000000000000000000000000000006001600160a01b031681526020017f00000000000000000000000000000000000000000000000000000000000000006001600160a01b031681526020017f00000000000000000000000000000000000000000000000000000000000000006001600160a01b03168152602001888152602001848152602001838152602001866001600160a01b0316815260200185815250905073__$a26e5ecaf38b60f56220843100c2d8b777$__63945f9875826040518263ffffffff1660e01b815260040161072f91906124ae565b60006040518083038186803b15801561074757600080fd5b505af415801561075b573d6000803e3d6000fd5b5050505050505050505050565b61077a6040516020016101fe90611ec8565b7f000000000000000000000000000000000000000000000000000000000000000081806020015151816000015151146107d85780515160208201515160405163663de02360e01b81526004810192909252602482015260440161059e565b60005b8151518110156108af576000826000015182815181106107fd576107fd612566565b6020026020010151905060008360200151838151811061081f5761081f612566565b6020908102919091018101516040516347cba33d60e01b81526001600160a01b03858116600483015282516024830152928201516044820152909250908616906347cba33d90606401600060405180830381600087803b15801561088257600080fd5b505af1158015610896573d6000803e3d6000fd5b50505050505080806108a790612592565b9150506107db565b506108b8610c1c565b61092a604051806101c0016040528060008152602001606081526020016060815260200160608152602001606081526020016060815260200160608152602001606081526020016060815260200160608152602001606081526020016060815260200160608152602001606081525090565b6040516371508a8760e01b815230906371508a8790610951908890859033906004016127a6565b600060405180830381600087803b15801561096b57600080fd5b505af115801561097f573d6000803e3d6000fd5b505050505061098c610f43565b6040516327246e6d60e11b815260040160405180910390fd5b6109ad610c1c565b610a206040516020016109e0906020808252600c908201526b27a92222a92fa5a2a2a822a960a11b604082015260600190565b604051602081830303815290604052805190602001206040518060400160405280600c81526020016b27a92222a92fa5a2a2a822a960a11b815250610ddb565b7f00000000000000000000000000000000000000000000000000000000000000007f00000000000000000000000000000000000000000000000000000000000000007f0000000000000000000000000000000000000000000000000000000000000000610a8c846127d7565b6040516304a76ae360e21b81526001600160a01b0385169063129dab8c90610abc908690869086906004016127e3565b600060405180830381600087803b158015610ad657600080fd5b505af1158015610aea573d6000803e3d6000fd5b5050505060005a90506000610b1f7f000000000000000000000000000000000000000000000000000000000000000083611222565b6040516371508a8760e01b815290915030906371508a87908390610b4b908c908c903390600401612935565b600060405180830381600088803b158015610b6557600080fd5b5087f193505050508015610b77575060015b610bb8573d808015610ba5576040519150601f19603f3d011682016040523d82523d6000602084013e610baa565b606091505b50610bb689848361126d565b505b5050836001600160a01b031662ccf1556040518163ffffffff1660e01b8152600401600060405180830381600087803b158015610bf457600080fd5b505af1158015610c08573d6000803e3d6000fd5b5050505050505050610c18610f43565b5050565b60007f00000000000000000000000000000000000000000000000000000000000000006001600160a01b031663bd02d0f5604051602001610c5c90612b71565b604051602081830303815290604052805190602001206040518263ffffffff1660e01b8152600401610c9091815260200190565b602060405180830381865afa158015610cad573d6000803e3d6000fd5b505050506040513d601f19601f82011682018060405250810190610cd19190612100565b90508015610d215760405162461bcd60e51b815260206004820152601f60248201527f5265656e7472616e637947756172643a207265656e7472616e742063616c6c00604482015260640161059e565b7f00000000000000000000000000000000000000000000000000000000000000006001600160a01b031663e2a4853a604051602001610d5f90612b71565b60408051601f198184030181529082905280516020909101206001600160e01b031960e084901b1682526004820152600160248201526044016020604051808303816000875af1158015610db7573d6000803e3d6000fd5b505050506040513d601f19601f82011682018060405250810190610c189190612100565b60405163ac4ab3fb60e01b81526001600160a01b037f0000000000000000000000000000000000000000000000000000000000000000169063ac4ab3fb90610e299033908690600401612119565b602060405180830381865afa158015610e46573d6000803e3d6000fd5b505050506040513d601f19601f82011682018060405250810190610e6a9190612ba2565b610c1857338160405163a35b150b60e01b815260040161059e929190612bbf565b6000604051602001610ece906020808252601f908201527f4352454154455f4445504f5349545f464541545552455f44495341424c454400604082015260600190565b60408051601f198184030181528282528051602091820120908301526001600160a01b03841690820152606001604051602081830303815290604052805190602001209050919050565b610f228282611399565b15610c185760405163dd70e0c960e01b81526004810182905260240161059e565b7f00000000000000000000000000000000000000000000000000000000000000006001600160a01b031663e2a4853a604051602001610f8190612b71565b60408051601f198184030181529082905280516020909101206001600160e01b031960e084901b1682526004820152600060248201526044016020604051808303816000875af1158015610fd9573d6000803e3d6000fd5b505050506040513d601f19601f8201168201806040525081019061055b9190612100565b6000604051602001610ece906020808252601f908201527f43414e43454c5f4445504f5349545f464541545552455f44495341424c454400604082015260600190565b6000836001600160a01b031663bd02d0f5604051602001611091906020808252601c908201527b524551554553545f45585049524154494f4e5f424c4f434b5f41474560201b604082015260600190565b604051602081830303815290604052805190602001206040518263ffffffff1660e01b81526004016110c591815260200190565b602060405180830381865afa1580156110e2573d6000803e3d6000fd5b505050506040513d601f19601f820116820180604052508101906111069190612100565b905060008361111361140c565b61111d9190612be3565b90508181101561114657808284604051631d04cc8760e31b815260040161059e93929190612bf6565b5050505050565b6000604051602001610ece906020808252818101527f455845435554455f4445504f5349545f464541545552455f44495341424c4544604082015260600190565b60606000826001600160401b038111156111aa576111aa61184a565b6040519080825280602002602001820160405280156111d3578160200160208202803683370190505b50905060005b8381101561121a576111eb8582611488565b8282815181106111fd576111fd612566565b60209081029190910101528061121281612592565b9150506111d9565b509392505050565b60008061122e846114fa565b90508083101561125b57604051631c09bc2160e01b8152600481018490526024810182905260440161059e565b6112658184612be3565b949350505050565b600061127a826020015190565b9050611285816115c1565b806112a057506001600160e01b0319811663dd70e0c960e01b145b156112ae576112ae826115f7565b60006112b983611600565b50604051631b1a90ab60e21b815290915073__$b47f57a87b0fdb80638269130c078613b3$__90636c6a42ac90611362907f0000000000000000000000000000000000000000000000000000000000000000907f0000000000000000000000000000000000000000000000000000000000000000907f0000000000000000000000000000000000000000000000000000000000000000908b9033908c908a908d90600401612c15565b60006040518083038186803b15801561137a57600080fd5b505af415801561138e573d6000803e3d6000fd5b505050505050505050565b604051633d70e7e560e11b8152600481018290526000906001600160a01b03841690637ae1cfca90602401602060405180830381865afa1580156113e1573d6000803e3d6000fd5b505050506040513d601f19601f820116820180604052508101906114059190612ba2565b9392505050565b6000611416611690565b156114835760646001600160a01b031663a3b1b31d6040518163ffffffff1660e01b8152600401602060405180830381865afa15801561145a573d6000803e3d6000fd5b505050506040513d601f19601f8201168201806040525081019061147e9190612100565b905090565b504390565b6000806114d48484604060c0600019901c6040518060400160405280601f81526020017f676574556e636f6d7061637465644f7261636c65426c6f636b4e756d626572008152506116a7565b9050806000036114055760405163349f5fdd60e11b81526004810184905260240161059e565b6000816001600160a01b031663bd02d0f560405160200161154c906020808252601e908201527f4d494e5f48414e444c455f455845435554494f4e5f4552524f525f4741530000604082015260600190565b604051602081830303815290604052805190602001206040518263ffffffff1660e01b815260040161158091815260200190565b602060405180830381865afa15801561159d573d6000803e3d6000fd5b505050506040513d601f19601f820116820180604052508101906103589190612100565b60006115cc82611744565b156115d957506001919050565b6115e282611786565b156115ef57506001919050565b506000919050565b80518060208301fd5b60606000604483511015611627575050604080516020810190915260008082529092909150565b6000611634846020015190565b90506307b9e43360e51b6001600160e01b031982160161167357600484019350838060200190518101906116689190612c83565b946001945092505050565b600060405180602001604052806000815250909250925050915091565b600061a4b146148061147e5750504662066eed1490565b6000806116b685610100612cf0565b905060006116c48288612cf0565b9050875181106116ef578787828660405163bdec9c0d60e01b815260040161059e9493929190612d12565b600088828151811061170357611703612566565b60200260200101519050600087848461171c9190612d4e565b611726908b612be3565b6117309190612d4e565b9190911c8616935050505095945050505050565b600063010dcfd160e71b6001600160e01b031983160161176657506001919050565b6341f057fb60e11b6001600160e01b03198316016115ef57506001919050565b600063329b5fdb60e01b6001600160e01b03198316016115ef57506001919050565b6001600160a01b038116811461055b57600080fd5b80356117c8816117a8565b919050565b600080604083850312156117e057600080fd5b82356117eb816117a8565b915060208301356001600160401b0381111561180657600080fd5b8301610180818603121561181957600080fd5b809150509250929050565b60006020828403121561183657600080fd5b5035919050565b6001600160a01b03169052565b634e487b7160e01b600052604160045260246000fd5b6040516101c081016001600160401b03811182821017156118835761188361184a565b60405290565b604080519081016001600160401b03811182821017156118835761188361184a565b604051606081016001600160401b03811182821017156118835761188361184a565b60405161012081016001600160401b03811182821017156118835761188361184a565b604051601f8201601f191681016001600160401b03811182821017156119185761191861184a565b604052919050565b60006001600160401b038211156119395761193961184a565b5060051b60200190565b600082601f83011261195457600080fd5b8135602061196961196483611920565b6118f0565b82815260059290921b8401810191818101908684111561198857600080fd5b8286015b848110156119ac57803561199f816117a8565b835291830191830161198c565b509695505050505050565b600082601f8301126119c857600080fd5b813560206119d861196483611920565b82815260059290921b840181019181810190868411156119f757600080fd5b8286015b848110156119ac57803583529183019183016119fb565b60006001600160401b03821115611a2b57611a2b61184a565b50601f01601f191660200190565b600082601f830112611a4a57600080fd5b81356020611a5a61196483611920565b82815260059290921b84018101918181019086841115611a7957600080fd5b8286015b848110156119ac5780356001600160401b03811115611a9c5760008081fd5b8701603f81018913611aae5760008081fd5b848101356040611ac061196483611a12565b8281528b82848601011115611ad55760008081fd5b8282850189830137600092810188019290925250845250918301918301611a7d565b60006101c08284031215611b0a57600080fd5b611b12611860565b82358152905060208201356001600160401b0380821115611b3257600080fd5b611b3e85838601611943565b60208401526040840135915080821115611b5757600080fd5b611b63858386016119b7565b60408401526060840135915080821115611b7c57600080fd5b611b88858386016119b7565b60608401526080840135915080821115611ba157600080fd5b611bad858386016119b7565b608084015260a0840135915080821115611bc657600080fd5b611bd2858386016119b7565b60a084015260c0840135915080821115611beb57600080fd5b611bf7858386016119b7565b60c084015260e0840135915080821115611c1057600080fd5b611c1c858386016119b7565b60e084015261010091508184013581811115611c3757600080fd5b611c43868287016119b7565b838501525061012091508184013581811115611c5e57600080fd5b611c6a868287016119b7565b838501525061014091508184013581811115611c8557600080fd5b611c9186828701611a39565b838501525061016091508184013581811115611cac57600080fd5b611cb886828701611943565b838501525061018091508184013581811115611cd357600080fd5b611cdf86828701611943565b83850152506101a091508184013581811115611cfa57600080fd5b611d0686828701611a39565b8385015250505092915050565b600080600060608486031215611d2857600080fd5b8335925060208401356001600160401b03811115611d4557600080fd5b611d5186828701611af7565b9250506040840135611d62816117a8565b809150509250925092565b6000806040808486031215611d8157600080fd5b833592506020808501356001600160401b0380821115611da057600080fd5b8187019150838289031215611db457600080fd5b611dbc611889565b823582811115611dcb57600080fd5b611dd78a828601611943565b8252508383013582811115611deb57600080fd5b80840193505088601f840112611e0057600080fd5b82359150611e1061196483611920565b82815260069290921b8301840191848101908a841115611e2f57600080fd5b938501935b83851015611e6f5786858c031215611e4c5760008081fd5b611e54611889565b85358152868601358782015282529386019390850190611e34565b8086840152505080955050505050509250929050565b60008060408385031215611e9857600080fd5b8235915060208301356001600160401b03811115611eb557600080fd5b83016101c0818603121561181957600080fd5b6020808252600a908201526921a7a72a2927a62622a960b11b604082015260600190565b6000808335601e19843603018112611f0357600080fd5b83016020810192503590506001600160401b03811115611f2257600080fd5b8060051b3603821315611f3457600080fd5b9250929050565b8183526000602080850194508260005b85811015611f79578135611f5e816117a8565b6001600160a01b031687529582019590820190600101611f4b565b509495945050505050565b801515811461055b57600080fd5b80356117c881611f84565b6001600160a01b038681168252858116602083015284811660408301528316606082015260a060808201819052600090611fe1908301611fdc856117bd565b61183d565b611fed602084016117bd565b611ffa60c084018261183d565b50612007604084016117bd565b61201460e084018261183d565b50612021606084016117bd565b6101006120308185018361183d565b61203c608086016117bd565b915061012061204d8186018461183d565b61205960a087016117bd565b925061014061206a8187018561183d565b61207760c0880188611eec565b945061018061016081818a01526120936102208a018885611f3b565b96506120a260e08b018b611eec565b8a8903609f1901848c015293506120ba888583611f3b565b975050858a01356101a08a01526120d2858b01611f92565b15156101c08a0152928901356101e08901525050959095013561020090940193909352979650505050505050565b60006020828403121561211257600080fd5b5051919050565b6001600160a01b03929092168252602082015260400190565b80516117c8816117a8565b600082601f83011261214e57600080fd5b8151602061215e61196483611920565b82815260059290921b8401810191818101908684111561217d57600080fd5b8286015b848110156119ac578051612194816117a8565b8352918301918301612181565b600060c082840312156121b357600080fd5b60405160c081016001600160401b03811182821017156121d5576121d561184a565b8060405250809150825181526020830151602082015260408301516040820152606083015160608201526080830151608082015260a083015160a08201525092915050565b60006020828403121561222c57600080fd5b604051602081016001600160401b038111828210171561224e5761224e61184a565b8060405250809150825161226181611f84565b905292915050565b60006020828403121561227b57600080fd5b81516001600160401b038082111561229257600080fd5b81840191506101008083870312156122a957600080fd5b6122b16118ab565b8351838111156122c057600080fd5b840161012081890312156122d357600080fd5b6122db6118cd565b6122e482612132565b81526122f260208301612132565b602082015261230360408301612132565b604082015261231460608301612132565b606082015261232560808301612132565b608082015261233660a08301612132565b60a082015261234760c08301612132565b60c082015260e08201518581111561235e57600080fd5b61236a8a82850161213d565b60e083015250838201518581111561238157600080fd5b61238d8a82850161213d565b82860152508252506123a287602086016121a1565b60208201526123b48760e0860161221a565b60408201529695505050505050565b60005b838110156123de5781810151838201526020016123c6565b50506000910152565b600081518084526123ff8160208601602086016123c3565b601f01601f19169290920160200192915050565b6001600160a01b03888116825287811660208301528681166040830152606082018690528416608082015260a0810183905261010060c0820181905260009061245e838201856123e7565b83810360e090940193909352505060008152602001979650505050505050565b600081518084526020808501945080840160005b83811015611f7957815187529582019590820190600101612492565b602081526124c060208201835161183d565b600060208301516124d4604084018261183d565b5060408301516124e7606084018261183d565b5060608301516124fa608084018261183d565b50608083015160a083015260a08301516101208060c085015261252161014085018361247e565b915060c0850151601f198584030160e086015261253e838261247e565b92505060e08501516101006125558187018361183d565b959095015193019290925250919050565b634e487b7160e01b600052603260045260246000fd5b634e487b7160e01b600052601160045260246000fd5b6000600182016125a4576125a461257c565b5060010190565b600081518084526020808501945080840160005b83811015611f795781516001600160a01b0316875295820195908201906001016125bf565b600081518084526020808501808196508360051b8101915082860160005b8581101561262c57828403895261261a8483516123e7565b98850198935090840190600101612602565b5091979650505050505050565b60006101c0825184526020830151816020860152612659828601826125ab565b91505060408301518482036040860152612673828261247e565b9150506060830151848203606086015261268d828261247e565b915050608083015184820360808601526126a7828261247e565b91505060a083015184820360a08601526126c1828261247e565b91505060c083015184820360c08601526126db828261247e565b91505060e083015184820360e08601526126f5828261247e565b9150506101008084015185830382870152612710838261247e565b92505050610120808401518583038287015261272c838261247e565b92505050610140808401518583038287015261274883826125e4565b92505050610160808401518583038287015261276483826125ab565b92505050610180808401518583038287015261278083826125ab565b925050506101a0808401518583038287015261279c83826125e4565b9695505050505050565b8381526060602082015260006127bf6060830185612639565b905060018060a01b0383166040830152949350505050565b60006103583683611af7565b6001600160a01b0384811682528316602082015260606040820181905260009061280f90830184612639565b95945050505050565b8183526000602080850194508260005b85811015611f7957813561283b816117a8565b6001600160a01b031687529582019590820190600101612828565b81835260006001600160fb1b0383111561286f57600080fd5b8260051b80836020870137939093016020019392505050565b81835281816020850137506000828201602090810191909152601f909101601f19169091010190565b81835260006020808501808196508560051b810191508460005b8781101561262c5782840389528135601e198836030181126128ec57600080fd5b870185810190356001600160401b0381111561290757600080fd5b80360382131561291657600080fd5b612921868284612888565b9a87019a95505050908401906001016128cb565b838152606060208201528235606082015260006129556020850185611eec565b6101c080608086015261296d61022086018385612818565b925061297c6040880188611eec565b9250605f19808786030160a0880152612996858584612856565b94506129a560608a018a611eec565b94509150808786030160c08801526129be858584612856565b94506129cd60808a018a611eec565b94509150808786030160e08801526129e6858584612856565b94506129f560a08a018a611eec565b94509150610100818887030181890152612a10868685612856565b9550612a1f60c08b018b611eec565b955092506101208289880301818a0152612a3a878786612856565b9650612a4960e08c018c611eec565b96509350610140838a890301818b0152612a64888887612856565b9750612a72838d018d611eec565b975094506101609250838a890301838b0152612a8f888887612856565b9750612a9d828d018d611eec565b975094506101809150838a890301828b0152612aba888887612856565b9750612ac8818d018d611eec565b97509450506101a0838a890301818b0152612ae48888876128b1565b9750612af2838d018d611eec565b97509450838a890301868b0152612b0a888887612818565b9750612b18828d018d611eec565b97509550838a8903016101e08b0152612b32888888612818565b9750612b40818d018d611eec565b9750955050505080878603016102008801525050612b5f8383836128b1565b9350505050611265604083018461183d565b6020808252601790820152765245454e5452414e43595f47554152445f53544154555360481b604082015260600190565b600060208284031215612bb457600080fd5b815161140581611f84565b6001600160a01b0383168152604060208201819052600090611265908301846123e7565b818103818111156103585761035861257c565b83815282602082015260606040820152600061280f60608301846123e7565b6001600160a01b03898116825288811660208301528781166040830152606082018790528516608082015260a0810184905261010060c08201819052600090612c60838201866123e7565b905082810360e0840152612c7481856123e7565b9b9a5050505050505050505050565b600060208284031215612c9557600080fd5b81516001600160401b03811115612cab57600080fd5b8201601f81018413612cbc57600080fd5b8051612cca61196482611a12565b818152856020838501011115612cdf57600080fd5b61280f8260208301602086016123c3565b600082612d0d57634e487b7160e01b600052601260045260246000fd5b500490565b608081526000612d25608083018761247e565b8560208401528460408401528281036060840152612d4381856123e7565b979650505050505050565b80820281158282048414176103585761035861257c56fea26469706673582212202778942cb5c90e55b12061607fab44ffc7df6442bc13c82b5bbc297298ab31e664736f6c63430008120033",
  "linkReferences": {
    "contracts/deposit/DepositStoreUtils.sol": {
      "DepositStoreUtils": [
        {
          "length": 20,
          "start": 1430
        }
      ]
    },
    "contracts/deposit/DepositUtils.sol": {
      "DepositUtils": [
        {
          "length": 20,
          "start": 1121
        },
        {
          "length": 20,
          "start": 1614
        },
        {
          "length": 20,
          "start": 5296
        }
      ]
    },
    "contracts/deposit/ExecuteDepositUtils.sol": {
      "ExecuteDepositUtils": [
        {
          "length": 20,
          "start": 2270
        }
      ]
    }
  },
  "deployedLinkReferences": {
    "contracts/deposit/DepositStoreUtils.sol": {
      "DepositStoreUtils": [
        {
          "length": 20,
          "start": 946
        }
      ]
    },
    "contracts/deposit/DepositUtils.sol": {
      "DepositUtils": [
        {
          "length": 20,
          "start": 637
        },
        {
          "length": 20,
          "start": 1130
        },
        {
          "length": 20,
          "start": 4812
        }
      ]
    },
    "contracts/deposit/ExecuteDepositUtils.sol": {
      "ExecuteDepositUtils": [
        {
          "length": 20,
          "start": 1786
        }
      ]
    }
  }
}