{
  "_format": "hh-sol-artifact-1",
  "contractName": "Router",
  "sourceName": "contracts/router/Router.sol",
  "abi": [
    {
      "inputs": [
        {
          "internalType": "contract RoleStore",
          "name": "_roleStore",
          "type": "address"
        }
      ],
      "stateMutability": "nonpayable",
      "type": "constructor"
    },
    {
      "inputs": [
        {
          "internalType": "address",
          "name": "msgSender",
          "type": "address"
        },
        {
          "internalType": "string",
          "name": "role",
          "type": "string"
        }
      ],
      "name": "Unauthorized",
      "type": "error"
    },
    {
      "inputs": [
        {
          "internalType": "address",
          "name": "token",
          "type": "address"
        },
        {
          "internalType": "address",
          "name": "account",
          "type": "address"
        },
        {
          "internalType": "address",
          "name": "receiver",
          "type": "address"
        },
        {
          "internalType": "uint256",
          "name": "amount",
          "type": "uint256"
        }
      ],
      "name": "pluginTransfer",
      "outputs": [],
      "stateMutability": "nonpayable",
      "type": "function"
    },
    {
      "inputs": [],
      "name": "roleStore",
      "outputs": [
        {
          "internalType": "contract RoleStore",
          "name": "",
          "type": "address"
        }
      ],
      "stateMutability": "view",
      "type": "function"
    }
  ],
  "bytecode": "0x60a060405234801561001057600080fd5b5060405161067038038061067083398101604081905261002f91610040565b6001600160a01b0316608052610070565b60006020828403121561005257600080fd5b81516001600160a01b038116811461006957600080fd5b9392505050565b6080516105df610091600039600081816055015261013f01526105df6000f3fe608060405234801561001057600080fd5b50600436106100365760003560e01c80631b8278781461003b5780634a4a7b0414610050575b600080fd5b61004e610049366004610499565b610093565b005b6100777f000000000000000000000000000000000000000000000000000000000000000081565b6040516001600160a01b03909116815260200160405180910390f35b6101086040516020016100c7906020808252600d908201526c2927aaaa22a92fa8262aa3a4a760991b604082015260600190565b604051602081830303815290604052805190602001206040518060400160405280600d81526020016c2927aaaa22a92fa8262aa3a4a760991b815250610123565b61011d6001600160a01b0385168484846101e0565b50505050565b60405163ac4ab3fb60e01b8152336004820152602481018390527f00000000000000000000000000000000000000000000000000000000000000006001600160a01b03169063ac4ab3fb90604401602060405180830381865afa15801561018e573d6000803e3d6000fd5b505050506040513d601f19601f820116820180604052508101906101b291906104e4565b6101dc57338160405163a35b150b60e01b81526004016101d3929190610556565b60405180910390fd5b5050565b604080516001600160a01b038581166024830152848116604483015260648083018590528351808403909101815260849092018352602080830180516001600160e01b03166323b872dd60e01b17905283518085019094528084527f5361666545524332303a206c6f772d6c6576656c2063616c6c206661696c65649084015261011d928792916000916102789185169084906102fa565b8051909150156102f5578080602001905181019061029691906104e4565b6102f55760405162461bcd60e51b815260206004820152602a60248201527f5361666545524332303a204552433230206f7065726174696f6e20646964206e6044820152691bdd081cdd58d8d9595960b21b60648201526084016101d3565b505050565b60606103098484600085610313565b90505b9392505050565b6060824710156103745760405162461bcd60e51b815260206004820152602660248201527f416464726573733a20696e73756666696369656e742062616c616e636520666f6044820152651c8818d85b1b60d21b60648201526084016101d3565b6001600160a01b0385163b6103cb5760405162461bcd60e51b815260206004820152601d60248201527f416464726573733a2063616c6c20746f206e6f6e2d636f6e747261637400000060448201526064016101d3565b600080866001600160a01b031685876040516103e7919061057a565b60006040518083038185875af1925050503d8060008114610424576040519150601f19603f3d011682016040523d82523d6000602084013e610429565b606091505b5091509150610439828286610444565b979650505050505050565b6060831561045357508161030c565b8251156104635782518084602001fd5b8160405162461bcd60e51b81526004016101d39190610596565b80356001600160a01b038116811461049457600080fd5b919050565b600080600080608085870312156104af57600080fd5b6104b88561047d565b93506104c66020860161047d565b92506104d46040860161047d565b9396929550929360600135925050565b6000602082840312156104f657600080fd5b8151801515811461030c57600080fd5b60005b83811015610521578181015183820152602001610509565b50506000910152565b60008151808452610542816020860160208601610506565b601f01601f19169290920160200192915050565b6001600160a01b03831681526040602082018190526000906103099083018461052a565b6000825161058c818460208701610506565b9190910192915050565b60208152600061030c602083018461052a56fea2646970667358221220fc5c2df568982602b1db2e3fa95232fc3f81375e9e6ff5ec38497541c4ede89464736f6c63430008120033",
  "linkReferences": {},
  "deployedLinkReferences": {}
}