{
  "_format": "hh-sol-artifact-1",
  "contractName": "RoleModule",
  "sourceName": "contracts/role/RoleModule.sol",
  "abi": [
    {
      "inputs": [
        {
          "internalType": "contract RoleStore",
          "name": "_roleStore",
          "type": "address"
        }
      ],
      "stateMutability": "nonpayable",
      "type": "constructor"
    },
    {
      "inputs": [],
      "name": "roleStore",
      "outputs": [
        {
          "internalType": "contract RoleStore",
          "name": "",
          "type": "address"
        }
      ],
      "stateMutability": "view",
      "type": "function"
    }
  ],
  "bytecode": "0x60a060405234801561001057600080fd5b5060405161012d38038061012d83398101604081905261002f91610040565b6001600160a01b0316608052610070565b60006020828403121561005257600080fd5b81516001600160a01b038116811461006957600080fd5b9392505050565b60805160a561008860003960006031015260a56000f3fe6080604052348015600f57600080fd5b506004361060285760003560e01c80634a4a7b0414602d575b600080fd5b60537f000000000000000000000000000000000000000000000000000000000000000081565b6040516001600160a01b03909116815260200160405180910390f3fea2646970667358221220faa3d2f8d78cc6a4642bee93474b9ba966e6096ebd3e09fd44a24db4eff0326664736f6c63430008120033",
  "linkReferences": {},
  "deployedLinkReferences": {}
}