{
  "_format": "hh-sol-artifact-1",
  "contractName": "SwapHandler",
  "sourceName": "contracts/swap/SwapHandler.sol",
  "abi": [
    {
      "inputs": [
        {
          "internalType": "contract RoleStore",
          "name": "_roleStore",
          "type": "address"
        }
      ],
      "stateMutability": "nonpayable",
      "type": "constructor"
    },
    {
      "inputs": [
        {
          "internalType": "address",
          "name": "msgSender",
          "type": "address"
        },
        {
          "internalType": "string",
          "name": "role",
          "type": "string"
        }
      ],
      "name": "Unauthorized",
      "type": "error"
    },
    {
      "inputs": [],
      "name": "roleStore",
      "outputs": [
        {
          "internalType": "contract RoleStore",
          "name": "",
          "type": "address"
        }
      ],
      "stateMutability": "view",
      "type": "function"
    },
    {
      "inputs": [
        {
          "components": [
            {
              "internalType": "contract DataStore",
              "name": "dataStore",
              "type": "address"
            },
            {
              "internalType": "contract EventEmitter",
              "name": "eventEmitter",
              "type": "address"
            },
            {
              "internalType": "contract Oracle",
              "name": "oracle",
              "type": "address"
            },
            {
              "internalType": "contract Bank",
              "name": "bank",
              "type": "address"
            },
            {
              "internalType": "bytes32",
              "name": "key",
              "type": "bytes32"
            },
            {
              "internalType": "address",
              "name": "tokenIn",
              "type": "address"
            },
            {
              "internalType": "uint256",
              "name": "amountIn",
              "type": "uint256"
            },
            {
              "components": [
                {
                  "internalType": "address",
                  "name": "marketToken",
                  "type": "address"
                },
                {
                  "internalType": "address",
                  "name": "indexToken",
                  "type": "address"
                },
                {
                  "internalType": "address",
                  "name": "longToken",
                  "type": "address"
                },
                {
                  "internalType": "address",
                  "name": "shortToken",
                  "type": "address"
                }
              ],
              "internalType": "struct Market.Props[]",
              "name": "swapPathMarkets",
              "type": "tuple[]"
            },
            {
              "internalType": "uint256",
              "name": "minOutputAmount",
              "type": "uint256"
            },
            {
              "internalType": "address",
              "name": "receiver",
              "type": "address"
            },
            {
              "internalType": "address",
              "name": "uiFeeReceiver",
              "type": "address"
            },
            {
              "internalType": "bool",
              "name": "shouldUnwrapNativeToken",
              "type": "bool"
            }
          ],
          "internalType": "struct SwapUtils.SwapParams",
          "name": "params",
          "type": "tuple"
        }
      ],
      "name": "swap",
      "outputs": [
        {
          "internalType": "address",
          "name": "",
          "type": "address"
        },
        {
          "internalType": "uint256",
          "name": "",
          "type": "uint256"
        }
      ],
      "stateMutability": "nonpayable",
      "type": "function"
    }
  ],
  "bytecode": "0x60a060405234801561001057600080fd5b5060405161086138038061086183398101604081905261002f91610045565b60016000556001600160a01b0316608052610075565b60006020828403121561005757600080fd5b81516001600160a01b038116811461006e57600080fd5b9392505050565b6080516107cb61009660003960008181606a015261021001526107cb6000f3fe608060405234801561001057600080fd5b50600436106100365760003560e01c8063357531241461003b5780634a4a7b0414610065575b600080fd5b61004e61004936600461045a565b6100a4565b60405161005c929190610586565b60405180910390f35b61008c7f000000000000000000000000000000000000000000000000000000000000000081565b6040516001600160a01b03909116815260200161005c565b6000806002600054036100fe5760405162461bcd60e51b815260206004820152601f60248201527f5265656e7472616e637947756172643a207265656e7472616e742063616c6c0060448201526064015b60405180910390fd5b600260005560405161017390610135906020016020808252600a908201526921a7a72a2927a62622a960b11b604082015260600190565b604051602081830303815290604052805190602001206040518060400160405280600a81526020016921a7a72a2927a62622a960b11b8152506101f9565b604051632b836e2360e11b815273__$2ebd8d293950cf319742e0db402ead4961$__90635706dc46906101aa90869060040161060a565b6040805180830381865af41580156101c6573d6000803e3d6000fd5b505050506040513d601f19601f820116820180604052508101906101ea91906106e5565b60016000559094909350915050565b60405163ac4ab3fb60e01b81526001600160a01b037f0000000000000000000000000000000000000000000000000000000000000000169063ac4ab3fb906102479033908690600401610586565b602060405180830381865afa158015610264573d6000803e3d6000fd5b505050506040513d601f19601f820116820180604052508101906102889190610713565b6102a957338160405163a35b150b60e01b81526004016100f5929190610737565b5050565b634e487b7160e01b600052604160045260246000fd5b604051608081016001600160401b03811182821017156102e5576102e56102ad565b60405290565b60405161018081016001600160401b03811182821017156102e5576102e56102ad565b604051601f8201601f191681016001600160401b0381118282101715610336576103366102ad565b604052919050565b6001600160a01b038116811461035357600080fd5b50565b80356103618161033e565b919050565b600082601f83011261037757600080fd5b813560206001600160401b03821115610392576103926102ad565b6103a0818360051b0161030e565b82815260079290921b840181019181810190868411156103bf57600080fd5b8286015b8481101561043657608081890312156103dc5760008081fd5b6103e46102c3565b81356103ef8161033e565b8152818501356103fe8161033e565b818601526040828101356104118161033e565b908201526060828101356104248161033e565b908201528352918301916080016103c3565b509695505050505050565b801515811461035357600080fd5b803561036181610441565b60006020828403121561046c57600080fd5b81356001600160401b038082111561048357600080fd5b90830190610180828603121561049857600080fd5b6104a06102eb565b6104a983610356565b81526104b760208401610356565b60208201526104c860408401610356565b60408201526104d960608401610356565b6060820152608083013560808201526104f460a08401610356565b60a082015260c083013560c082015260e08301358281111561051557600080fd5b61052187828601610366565b60e08301525061010083810135908201526101209150610542828401610356565b828201526101409150610556828401610356565b82820152610160915061056a82840161044f565b91810191909152949350505050565b6001600160a01b03169052565b6001600160a01b03929092168252602082015260400190565b600081518084526020808501945080840160005b838110156105ff57815180516001600160a01b039081168952848201518116858a01526040808301518216908a01526060918201511690880152608090960195908201906001016105b3565b509495945050505050565b6020815261061c602082018351610579565b600060208301516106306040840182610579565b5060408301516106436060840182610579565b5060608301516106566080840182610579565b50608083015160a083015260a083015161067360c0840182610579565b5060c083015160e083015260e0830151610180610100818186015261069c6101a086018461059f565b90860151610120868101919091528601519092506101406106bf81870183610579565b86015190506101606106d386820183610579565b90950151151593019290925250919050565b600080604083850312156106f857600080fd5b82516107038161033e565b6020939093015192949293505050565b60006020828403121561072557600080fd5b815161073081610441565b9392505050565b60018060a01b038316815260006020604081840152835180604085015260005b8181101561077357858101830151858201606001528201610757565b506000606082860101526060601f19601f83011685010192505050939250505056fea264697066735822122023e70d3c4dffc8dbefcee2ca499485d453f5ce5bb51d55d3c871ca219d3e702864736f6c63430008120033",
  "linkReferences": {
    "contracts/swap/SwapUtils.sol": {
      "SwapUtils": [
        {
          "length": 20,
          "start": 536
        }
      ]
    }
  },
  "deployedLinkReferences": {
    "contracts/swap/SwapUtils.sol": {
      "SwapUtils": [
        {
          "length": 20,
          "start": 386
        }
      ]
    }
  }
}