{
  "_format": "hh-sol-artifact-1",
  "contractName": "GasUsageTestLib",
  "sourceName": "contracts/test/GasUsageTest.sol",
  "abi": [
    {
      "inputs": [],
      "name": "getGasLeft",
      "outputs": [
        {
          "internalType": "uint256",
          "name": "",
          "type": "uint256"
        }
      ],
      "stateMutability": "view",
      "type": "function"
    }
  ],
  "bytecode": "0x608e610038600b82828239805160001a607314602b57634e487b7160e01b600052600060045260246000fd5b30600052607381538281f3fe730000000000000000000000000000000000000000301460806040526004361060335760003560e01c806351be4eaa146038575b600080fd5b603e6050565b60405190815260200160405180910390f35b60005a90509056fea2646970667358221220b915df1ccafd763c906edee661044a951a4f04abd91517e9c6e92aef44f79b8564736f6c63430008120033",
  "linkReferences": {},
  "deployedLinkReferences": {}
}