{
  "_format": "hh-sol-artifact-1",
  "contractName": "Timelock",
  "sourceName": "contracts/config/Timelock.sol",
  "abi": [
    {
      "inputs": [
        {
          "internalType": "contract RoleStore",
          "name": "_roleStore",
          "type": "address"
        },
        {
          "internalType": "contract DataStore",
          "name": "_dataStore",
          "type": "address"
        },
        {
          "internalType": "contract EventEmitter",
          "name": "_eventEmitter",
          "type": "address"
        },
        {
          "internalType": "contract OracleStore",
          "name": "_oracleStore",
          "type": "address"
        },
        {
          "internalType": "uint256",
          "name": "_timelockDelay",
          "type": "uint256"
        }
      ],
      "stateMutability": "nonpayable",
      "type": "constructor"
    },
    {
      "inputs": [],
      "name": "ActionAlreadySignalled",
      "type": "error"
    },
    {
      "inputs": [],
      "name": "ActionNotSignalled",
      "type": "error"
    },
    {
      "inputs": [
        {
          "internalType": "address",
          "name": "receiver",
          "type": "address"
        }
      ],
      "name": "InvalidFeeReceiver",
      "type": "error"
    },
    {
      "inputs": [
        {
          "internalType": "address",
          "name": "receiver",
          "type": "address"
        }
      ],
      "name": "InvalidOracleSigner",
      "type": "error"
    },
    {
      "inputs": [
        {
          "internalType": "uint256",
          "name": "timelockDelay",
          "type": "uint256"
        }
      ],
      "name": "InvalidTimelockDelay",
      "type": "error"
    },
    {
      "inputs": [
        {
          "internalType": "uint256",
          "name": "timelockDelay",
          "type": "uint256"
        }
      ],
      "name": "MaxTimelockDelayExceeded",
      "type": "error"
    },
    {
      "inputs": [
        {
          "internalType": "uint256",
          "name": "signalTime",
          "type": "uint256"
        }
      ],
      "name": "SignalTimeNotYetPassed",
      "type": "error"
    },
    {
      "inputs": [
        {
          "internalType": "address",
          "name": "msgSender",
          "type": "address"
        },
        {
          "internalType": "string",
          "name": "role",
          "type": "string"
        }
      ],
      "name": "Unauthorized",
      "type": "error"
    },
    {
      "inputs": [],
      "name": "MAX_TIMELOCK_DELAY",
      "outputs": [
        {
          "internalType": "uint256",
          "name": "",
          "type": "uint256"
        }
      ],
      "stateMutability": "view",
      "type": "function"
    },
    {
      "inputs": [
        {
          "internalType": "address",
          "name": "account",
          "type": "address"
        }
      ],
      "name": "addOracleSignerAfterSignal",
      "outputs": [],
      "stateMutability": "nonpayable",
      "type": "function"
    },
    {
      "inputs": [
        {
          "internalType": "bytes32",
          "name": "actionKey",
          "type": "bytes32"
        }
      ],
      "name": "cancelAction",
      "outputs": [],
      "stateMutability": "nonpayable",
      "type": "function"
    },
    {
      "inputs": [],
      "name": "dataStore",
      "outputs": [
        {
          "internalType": "contract DataStore",
          "name": "",
          "type": "address"
        }
      ],
      "stateMutability": "view",
      "type": "function"
    },
    {
      "inputs": [],
      "name": "eventEmitter",
      "outputs": [
        {
          "internalType": "contract EventEmitter",
          "name": "",
          "type": "address"
        }
      ],
      "stateMutability": "view",
      "type": "function"
    },
    {
      "inputs": [
        {
          "internalType": "address",
          "name": "account",
          "type": "address"
        },
        {
          "internalType": "bytes32",
          "name": "roleKey",
          "type": "bytes32"
        }
      ],
      "name": "grantRoleAfterSignal",
      "outputs": [],
      "stateMutability": "nonpayable",
      "type": "function"
    },
    {
      "inputs": [
        {
          "internalType": "uint256",
          "name": "_timelockDelay",
          "type": "uint256"
        }
      ],
      "name": "increaseTimelockDelay",
      "outputs": [],
      "stateMutability": "nonpayable",
      "type": "function"
    },
    {
      "inputs": [
        {
          "internalType": "bytes[]",
          "name": "data",
          "type": "bytes[]"
        }
      ],
      "name": "multicall",
      "outputs": [
        {
          "internalType": "bytes[]",
          "name": "results",
          "type": "bytes[]"
        }
      ],
      "stateMutability": "nonpayable",
      "type": "function"
    },
    {
      "inputs": [],
      "name": "oracleStore",
      "outputs": [
        {
          "internalType": "contract OracleStore",
          "name": "",
          "type": "address"
        }
      ],
      "stateMutability": "view",
      "type": "function"
    },
    {
      "inputs": [
        {
          "internalType": "bytes32",
          "name": "",
          "type": "bytes32"
        }
      ],
      "name": "pendingActions",
      "outputs": [
        {
          "internalType": "uint256",
          "name": "",
          "type": "uint256"
        }
      ],
      "stateMutability": "view",
      "type": "function"
    },
    {
      "inputs": [
        {
          "internalType": "address",
          "name": "account",
          "type": "address"
        }
      ],
      "name": "removeOracleSignerAfterSignal",
      "outputs": [],
      "stateMutability": "nonpayable",
      "type": "function"
    },
    {
      "inputs": [
        {
          "internalType": "address",
          "name": "account",
          "type": "address"
        },
        {
          "internalType": "bytes32",
          "name": "roleKey",
          "type": "bytes32"
        }
      ],
      "name": "revokeRole",
      "outputs": [],
      "stateMutability": "nonpayable",
      "type": "function"
    },
    {
      "inputs": [
        {
          "internalType": "address",
          "name": "account",
          "type": "address"
        },
        {
          "internalType": "bytes32",
          "name": "roleKey",
          "type": "bytes32"
        }
      ],
      "name": "revokeRoleAfterSignal",
      "outputs": [],
      "stateMutability": "nonpayable",
      "type": "function"
    },
    {
      "inputs": [],
      "name": "roleStore",
      "outputs": [
        {
          "internalType": "contract RoleStore",
          "name": "",
          "type": "address"
        }
      ],
      "stateMutability": "view",
      "type": "function"
    },
    {
      "inputs": [
        {
          "internalType": "address",
          "name": "account",
          "type": "address"
        }
      ],
      "name": "setFeeReceiverAfterSignal",
      "outputs": [],
      "stateMutability": "nonpayable",
      "type": "function"
    },
    {
      "inputs": [
        {
          "internalType": "address",
          "name": "token",
          "type": "address"
        },
        {
          "internalType": "address",
          "name": "priceFeed",
          "type": "address"
        },
        {
          "internalType": "uint256",
          "name": "priceFeedMultiplier",
          "type": "uint256"
        },
        {
          "internalType": "uint256",
          "name": "priceFeedHeartbeatDuration",
          "type": "uint256"
        },
        {
          "internalType": "uint256",
          "name": "stablePrice",
          "type": "uint256"
        }
      ],
      "name": "setPriceFeedAfterSignal",
      "outputs": [],
      "stateMutability": "nonpayable",
      "type": "function"
    },
    {
      "inputs": [
        {
          "internalType": "address",
          "name": "account",
          "type": "address"
        }
      ],
      "name": "signalAddOracleSigner",
      "outputs": [],
      "stateMutability": "nonpayable",
      "type": "function"
    },
    {
      "inputs": [
        {
          "internalType": "address",
          "name": "account",
          "type": "address"
        },
        {
          "internalType": "bytes32",
          "name": "roleKey",
          "type": "bytes32"
        }
      ],
      "name": "signalGrantRole",
      "outputs": [],
      "stateMutability": "nonpayable",
      "type": "function"
    },
    {
      "inputs": [
        {
          "internalType": "address",
          "name": "account",
          "type": "address"
        }
      ],
      "name": "signalRemoveOracleSigner",
      "outputs": [],
      "stateMutability": "nonpayable",
      "type": "function"
    },
    {
      "inputs": [
        {
          "internalType": "address",
          "name": "account",
          "type": "address"
        },
        {
          "internalType": "bytes32",
          "name": "roleKey",
          "type": "bytes32"
        }
      ],
      "name": "signalRevokeRole",
      "outputs": [],
      "stateMutability": "nonpayable",
      "type": "function"
    },
    {
      "inputs": [
        {
          "internalType": "address",
          "name": "account",
          "type": "address"
        }
      ],
      "name": "signalSetFeeReceiver",
      "outputs": [],
      "stateMutability": "nonpayable",
      "type": "function"
    },
    {
      "inputs": [
        {
          "internalType": "address",
          "name": "token",
          "type": "address"
        },
        {
          "internalType": "address",
          "name": "priceFeed",
          "type": "address"
        },
        {
          "internalType": "uint256",
          "name": "priceFeedMultiplier",
          "type": "uint256"
        },
        {
          "internalType": "uint256",
          "name": "priceFeedHeartbeatDuration",
          "type": "uint256"
        },
        {
          "internalType": "uint256",
          "name": "stablePrice",
          "type": "uint256"
        }
      ],
      "name": "signalSetPriceFeed",
      "outputs": [],
      "stateMutability": "nonpayable",
      "type": "function"
    },
    {
      "inputs": [],
      "name": "timelockDelay",
      "outputs": [
        {
          "internalType": "uint256",
          "name": "",
          "type": "uint256"
        }
      ],
      "stateMutability": "view",
      "type": "function"
    }
  ],
  "bytecode": "0x6101006040523480156200001257600080fd5b5060405162003922380380620039228339810160408190526200003591620000c5565b600160008190556001600160a01b0380871660805285811660a05284811660c052831660e0528190556200006862000073565b505050505062000139565b620697806001541115620000aa57600154604051633ebd9bc360e21b8152600401620000a191815260200190565b60405180910390fd5b565b6001600160a01b0381168114620000c257600080fd5b50565b600080600080600060a08688031215620000de57600080fd5b8551620000eb81620000ac565b6020870151909550620000fe81620000ac565b60408701519094506200011181620000ac565b60608701519093506200012481620000ac565b80925050608086015190509295509295909350565b60805160a05160c05160e05161370062000222600039600081816101a501528181610b1a01526117b301526000818161027301528181610494015281816106e9015281816108eb01528181610bda01528181610d0d01528181610e50015281816112ec0152818161149d015281816116eb0152818161187301528181611a5001528181611c1301528181611eaa015261236d01526000818161020001528181610f0101528181610f9b0152818161103e015281816110e101526119220152600081816101d9015281816107e901528181610a1a01528181611b110152611ccc01526137006000f3fe608060405234801561001057600080fd5b506004361061011d5760003560e01c80630f43905d146101225780630fe29bbc146101375780630ffc3cf61461014a578063208dd1ff1461015d5780632a083ca3146101705780632d6b4cc61461018d578063392bf7f6146101a05780634a4a7b04146101d4578063660d0d67146101fb57806369bc0f3b14610222578063728ca5741461023557806375fa191314610248578063781cc3d31461025b5780639ff78c301461026e578063a9765cae14610295578063ac9650d8146102a8578063b6b9b02f146102c8578063bcb151e4146102db578063c4fe486c146102ee578063d59ba7e414610301578063e30569e514610314578063eef09bad14610334578063f03278d41461033d575b600080fd5b610135610130366004612710565b610350565b005b610135610145366004612734565b610507565b610135610158366004612785565b610760565b61013561016b366004612785565b61095f565b61017a6206978081565b6040519081526020015b60405180910390f35b61013561019b366004612710565b610a8c565b6101c77f000000000000000000000000000000000000000000000000000000000000000081565b60405161018491906127b1565b6101c77f000000000000000000000000000000000000000000000000000000000000000081565b6101c77f000000000000000000000000000000000000000000000000000000000000000081565b610135610230366004612710565b610c11565b610135610243366004612785565b610d44565b610135610256366004612734565b610e87565b6101356102693660046127c5565b611323565b6101c77f000000000000000000000000000000000000000000000000000000000000000081565b6101356102a3366004612785565b611392565b6102bb6102b63660046127de565b6114d4565b60405161018491906128a2565b6101356102d6366004612710565b6115f3565b6101356102e9366004612710565b611722565b6101356102fc366004612710565b6118aa565b61013561030f366004612785565b611a87565b61017a6103223660046127c5565b60026020526000908152604090205481565b61017a60015481565b61013561034b3660046127c5565b611c4a565b6103a460405160200161036290612904565b604051602081830303815290604052805190602001206040518060400160405280600e81526020016d2a24a6a2a627a1a5afa0a226a4a760911b815250611cb5565b6002600054036103cf5760405162461bcd60e51b81526004016103c69061292c565b60405180910390fd5b60026000556001600160a01b0381166103fd578060405163c1b14c9160e01b81526004016103c691906127b1565b600061040882611d69565b905061043b816040518060400160405280600f81526020016e30b23227b930b1b632a9b4b3b732b960891b815250611dbc565b61044361260a565b8051610450906001611f18565b6040805180820190915260078152661858d8dbdd5b9d60ca1b6020820152815161047d9160009086611f7d565b604051630937807960e21b81526001600160a01b037f000000000000000000000000000000000000000000000000000000000000000016906324de01e4906104cb9085908590600401613107565b600060405180830381600087803b1580156104e557600080fd5b505af11580156104f9573d6000803e3d6000fd5b505060016000555050505050565b61051960405160200161036290612904565b60026000540361053b5760405162461bcd60e51b81526004016103c69061292c565b6002600090815561054f8686868686611fda565b905061057f816040518060400160405280600c81526020016b1cd95d141c9a58d95199595960a21b815250611dbc565b61058761260a565b8051610594906002611f18565b6040805180820190915260058152643a37b5b2b760d91b602082015281516105bf916000908a611f7d565b6040805180820190915260098152681c1c9a58d95199595960ba1b602082015281516105ee9160019089611f7d565b60208101516105fe906003611f18565b610645600060405180604001604052806013815260200172383934b1b2a332b2b226bab63a34b83634b2b960691b81525087846020015161204f909392919063ffffffff16565b61069360016040518060400160405280601a815260200179383934b1b2a332b2b22432b0b93a3132b0ba223ab930ba34b7b760311b81525086846020015161204f909392919063ffffffff16565b6106d260026040518060400160405280600b81526020016a737461626c65507269636560a81b81525085846020015161204f909392919063ffffffff16565b604051630937807960e21b81526001600160a01b037f000000000000000000000000000000000000000000000000000000000000000016906324de01e4906107209085908590600401613154565b600060405180830381600087803b15801561073a57600080fd5b505af115801561074e573d6000803e3d6000fd5b50506001600055505050505050505050565b61077260405160200161036290612904565b6002600054036107945760405162461bcd60e51b81526004016103c69061292c565b600260009081556107a583836120a2565b90506107d281604051806040016040528060098152602001686772616e74526f6c6560b81b8152506120f7565b604051632ac9d0b760e21b81526001600160a01b037f0000000000000000000000000000000000000000000000000000000000000000169063ab2742dc906108209086908690600401613196565b600060405180830381600087803b15801561083a57600080fd5b505af115801561084e573d6000803e3d6000fd5b5050505061085a61260a565b8051610867906001611f18565b6040805180820190915260078152661858d8dbdd5b9d60ca1b602082015281516108949160009087611f7d565b60808101516108a4906001611f18565b604080518082019091526007815266726f6c654b657960c81b602082015260808201516108d4916000908661204f565b604051630937807960e21b81526001600160a01b037f000000000000000000000000000000000000000000000000000000000000000016906324de01e49061092290859085906004016131af565b600060405180830381600087803b15801561093c57600080fd5b505af1158015610950573d6000803e3d6000fd5b50506001600055505050505050565b6109dc6040516020016109979060208082526011908201527054494d454c4f434b5f4d554c544953494760781b604082015260600190565b604051602081830303815290604052805190602001206040518060400160405280601181526020017054494d454c4f434b5f4d554c544953494760781b815250611cb5565b6002600054036109fe5760405162461bcd60e51b81526004016103c69061292c565b600260005560405163208dd1ff60e01b81526001600160a01b037f0000000000000000000000000000000000000000000000000000000000000000169063208dd1ff90610a519085908590600401613196565b600060405180830381600087803b158015610a6b57600080fd5b505af1158015610a7f573d6000803e3d6000fd5b5050600160005550505050565b610a9e60405160200161036290612904565b600260005403610ac05760405162461bcd60e51b81526004016103c69061292c565b60026000908155610ad082611d69565b9050610b03816040518060400160405280600f81526020016e30b23227b930b1b632a9b4b3b732b960891b8152506120f7565b6040516375896b0f60e11b81526001600160a01b037f0000000000000000000000000000000000000000000000000000000000000000169063eb12d61e90610b4f9085906004016127b1565b600060405180830381600087803b158015610b6957600080fd5b505af1158015610b7d573d6000803e3d6000fd5b50505050610b8961260a565b8051610b96906001611f18565b6040805180820190915260078152661858d8dbdd5b9d60ca1b60208201528151610bc39160009086611f7d565b604051630937807960e21b81526001600160a01b037f000000000000000000000000000000000000000000000000000000000000000016906324de01e4906104cb90859085906004016131e8565b610c2360405160200161036290612904565b600260005403610c455760405162461bcd60e51b81526004016103c69061292c565b60026000556001600160a01b038116610c73578060405163c1b14c9160e01b81526004016103c691906127b1565b6000610c7e8261210a565b9050610cb481604051806040016040528060128152602001713932b6b7bb32a7b930b1b632a9b4b3b732b960711b815250611dbc565b610cbc61260a565b8051610cc9906001611f18565b6040805180820190915260078152661858d8dbdd5b9d60ca1b60208201528151610cf69160009086611f7d565b604051630937807960e21b81526001600160a01b037f000000000000000000000000000000000000000000000000000000000000000016906324de01e4906104cb9085908590600401613227565b610d5660405160200161036290612904565b600260005403610d785760405162461bcd60e51b81526004016103c69061292c565b60026000908155610d898383612147565b9050610db7816040518060400160405280600a8152602001697265766f6b65526f6c6560b01b815250611dbc565b610dbf61260a565b8051610dcc906001611f18565b6040805180820190915260078152661858d8dbdd5b9d60ca1b60208201528151610df99160009087611f7d565b6080810151610e09906001611f18565b604080518082019091526007815266726f6c654b657960c81b60208201526080820151610e39916000908661204f565b604051630937807960e21b81526001600160a01b037f000000000000000000000000000000000000000000000000000000000000000016906324de01e490610922908590859060040161326f565b610e9960405160200161036290612904565b600260005403610ebb5760405162461bcd60e51b81526004016103c69061292c565b60026000908155610ecf8686868686611fda565b9050610eff816040518060400160405280600c81526020016b1cd95d141c9a58d95199595960a21b8152506120f7565b7f00000000000000000000000000000000000000000000000000000000000000006001600160a01b031663ca446dd9610f3788612183565b876040518363ffffffff1660e01b8152600401610f559291906132af565b6020604051808303816000875af1158015610f74573d6000803e3d6000fd5b505050506040513d601f19601f82011682018060405250810190610f9891906132c6565b507f00000000000000000000000000000000000000000000000000000000000000006001600160a01b031663e2a4853a610fd1886121db565b866040518363ffffffff1660e01b8152600401610ff8929190918252602082015260400190565b6020604051808303816000875af1158015611017573d6000803e3d6000fd5b505050506040513d601f19601f8201168201806040525081019061103b91906132e3565b507f00000000000000000000000000000000000000000000000000000000000000006001600160a01b031663e2a4853a61107488612216565b856040518363ffffffff1660e01b815260040161109b929190918252602082015260400190565b6020604051808303816000875af11580156110ba573d6000803e3d6000fd5b505050506040513d601f19601f820116820180604052508101906110de91906132e3565b507f00000000000000000000000000000000000000000000000000000000000000006001600160a01b031663e2a4853a61111788612259565b846040518363ffffffff1660e01b815260040161113e929190918252602082015260400190565b6020604051808303816000875af115801561115d573d6000803e3d6000fd5b505050506040513d601f19601f8201168201806040525081019061118191906132e3565b5061118a61260a565b8051611197906002611f18565b6040805180820190915260058152643a37b5b2b760d91b602082015281516111c2916000908a611f7d565b6040805180820190915260098152681c1c9a58d95199595960ba1b602082015281516111f19160019089611f7d565b6020810151611201906003611f18565b611248600060405180604001604052806013815260200172383934b1b2a332b2b226bab63a34b83634b2b960691b81525087846020015161204f909392919063ffffffff16565b61129660016040518060400160405280601a815260200179383934b1b2a332b2b22432b0b93a3132b0ba223ab930ba34b7b760311b81525086846020015161204f909392919063ffffffff16565b6112d560026040518060400160405280600b81526020016a737461626c65507269636560a81b81525085846020015161204f909392919063ffffffff16565b604051630937807960e21b81526001600160a01b037f000000000000000000000000000000000000000000000000000000000000000016906324de01e49061072090859085906004016132fc565b61133560405160200161036290612904565b6002600054036113575760405162461bcd60e51b81526004016103c69061292c565b600260005560408051808201909152600c81526b31b0b731b2b620b1ba34b7b760a11b602082015261138a90829061228b565b506001600055565b6113a460405160200161036290612904565b6002600054036113c65760405162461bcd60e51b81526004016103c69061292c565b600260009081556113d783836120a2565b905061140481604051806040016040528060098152602001686772616e74526f6c6560b81b815250611dbc565b61140c61260a565b8051611419906001611f18565b6040805180820190915260078152661858d8dbdd5b9d60ca1b602082015281516114469160009087611f7d565b6080810151611456906001611f18565b604080518082019091526007815266726f6c654b657960c81b60208201526080820151611486916000908661204f565b604051630937807960e21b81526001600160a01b037f000000000000000000000000000000000000000000000000000000000000000016906324de01e4906109229085908590600401613338565b6060816001600160401b038111156114ee576114ee613377565b60405190808252806020026020018201604052801561152157816020015b606081526020019060019003908161150c5790505b50905060005b828110156115eb57600080308686858181106115455761154561338d565b905060200281019061155791906133a3565b6040516115659291906133f0565b600060405180830381855af49150503d80600081146115a0576040519150601f19603f3d011682016040523d82523d6000602084013e6115a5565b606091505b5091509150816115b8576115b8816123a4565b808484815181106115cb576115cb61338d565b6020026020010181905250505080806115e390613416565b915050611527565b505b92915050565b61160560405160200161036290612904565b6002600054036116275760405162461bcd60e51b81526004016103c69061292c565b60026000556001600160a01b038116611655578060405163cb9339d560e01b81526004016103c691906127b1565b6000611660826123e2565b9050611692816040518060400160405280600e81526020016d39b2ba2332b2a932b1b2b4bb32b960911b815250611dbc565b61169a61260a565b80516116a7906001611f18565b6040805180820190915260078152661858d8dbdd5b9d60ca1b602082015281516116d49160009086611f7d565b604051630937807960e21b81526001600160a01b037f000000000000000000000000000000000000000000000000000000000000000016906324de01e4906104cb908590859060040161342f565b61173460405160200161036290612904565b6002600054036117565760405162461bcd60e51b81526004016103c69061292c565b600260009081556117668261210a565b905061179c81604051806040016040528060128152602001713932b6b7bb32a7b930b1b632a9b4b3b732b960711b8152506120f7565b604051630e316ab760e01b81526001600160a01b037f00000000000000000000000000000000000000000000000000000000000000001690630e316ab7906117e89085906004016127b1565b600060405180830381600087803b15801561180257600080fd5b505af1158015611816573d6000803e3d6000fd5b5050505061182261260a565b805161182f906001611f18565b6040805180820190915260078152661858d8dbdd5b9d60ca1b6020820152815161185c9160009086611f7d565b604051630937807960e21b81526001600160a01b037f000000000000000000000000000000000000000000000000000000000000000016906324de01e4906104cb9085908590600401613473565b6118bc60405160200161036290612904565b6002600054036118de5760405162461bcd60e51b81526004016103c69061292c565b600260009081556118ee826123e2565b9050611920816040518060400160405280600e81526020016d39b2ba2332b2a932b1b2b4bb32b960911b8152506120f7565b7f00000000000000000000000000000000000000000000000000000000000000006001600160a01b031663ca446dd960405160200161197f906020808252600c908201526b2322a2afa922a1a2a4ab22a960a11b604082015260600190565b60405160208183030381529060405280519060200120846040518363ffffffff1660e01b81526004016119b39291906132af565b6020604051808303816000875af11580156119d2573d6000803e3d6000fd5b505050506040513d601f19601f820116820180604052508101906119f691906132c6565b506119ff61260a565b8051611a0c906001611f18565b6040805180820190915260078152661858d8dbdd5b9d60ca1b60208201528151611a399160009086611f7d565b604051630937807960e21b81526001600160a01b037f000000000000000000000000000000000000000000000000000000000000000016906324de01e4906104cb90859085906004016134b5565b611a9960405160200161036290612904565b600260005403611abb5760405162461bcd60e51b81526004016103c69061292c565b60026000908155611acc8383612147565b9050611afa816040518060400160405280600a8152602001697265766f6b65526f6c6560b01b8152506120f7565b60405163208dd1ff60e01b81526001600160a01b037f0000000000000000000000000000000000000000000000000000000000000000169063208dd1ff90611b489086908690600401613196565b600060405180830381600087803b158015611b6257600080fd5b505af1158015611b76573d6000803e3d6000fd5b50505050611b8261260a565b8051611b8f906001611f18565b6040805180820190915260078152661858d8dbdd5b9d60ca1b60208201528151611bbc9160009087611f7d565b6080810151611bcc906001611f18565b604080518082019091526007815266726f6c654b657960c81b60208201526080820151611bfc916000908661204f565b604051630937807960e21b81526001600160a01b037f000000000000000000000000000000000000000000000000000000000000000016906324de01e49061092290859085906004016134f3565b611c5c60405160200161036290612904565b600260005403611c7e5760405162461bcd60e51b81526004016103c69061292c565b60026000556001548111611ca8576040516373586edb60e11b8152600481018290526024016103c6565b600181905561138a61241b565b60405163ac4ab3fb60e01b81526001600160a01b037f0000000000000000000000000000000000000000000000000000000000000000169063ac4ab3fb90611d039033908690600401613196565b602060405180830381865afa158015611d20573d6000803e3d6000fd5b505050506040513d601f19601f82011682018060405250810190611d44919061352d565b611d6557338160405163a35b150b60e01b81526004016103c692919061354f565b5050565b6040516e30b23227b930b1b632a9b4b3b732b960891b60208201526001600160601b0319606083901b16602f8201526000906043015b604051602081830303815290604052805190602001209050919050565b60008281526002602052604090205415611de95760405163b244a10760e01b815260040160405180910390fd5b600154611df69042613573565b600083815260026020526040902055611e0d61260a565b6080810151611e1d906001611f18565b604080518082019091526009815268616374696f6e4b657960b81b60208201526080820151611e4f916000908661204f565b60c0810151611e5f906001612449565b60408051808201909152600b81526a1858dd1a5bdb931858995b60aa1b602082015260c0820151611e9391600090856124ab565b604051630937807960e21b81526001600160a01b037f000000000000000000000000000000000000000000000000000000000000000016906324de01e490611ee19086908590600401613586565b600060405180830381600087803b158015611efb57600080fd5b505af1158015611f0f573d6000803e3d6000fd5b50505050505050565b806001600160401b03811115611f3057611f30613377565b604051908082528060200260200182016040528015611f7657816020015b604080518082019091526060815260006020820152815260200190600190039081611f4e5790505b5090915250565b8184600001518481518110611f9457611f9461338d565b6020026020010151600001819052508084600001518481518110611fba57611fba61338d565b6020908102919091018101516001600160a01b0390921691015250505050565b604080516b1cd95d141c9a58d95199595960a21b60208201526001600160601b0319606088811b8216602c84015287901b169181019190915260548101849052607481018390526094810182905260009060b40160405160208183030381529060405280519060200120905095945050505050565b81846000015184815181106120665761206661338d565b602002602001015160000181905250808460000151848151811061208c5761208c61338d565b6020026020010151602001818152505050505050565b604051686772616e74526f6c6560b81b60208201526001600160601b0319606084901b166029820152603d8101829052600090605d015b60405160208183030381529060405280519060200120905092915050565b612100826124fd565b611d65828261228b565b604051713932b6b7bb32a7b930b1b632a9b4b3b732b960711b60208201526001600160601b0319606083901b166032820152600090604601611d9f565b604051697265766f6b65526f6c6560b01b60208201526001600160601b0319606084901b16602a820152603e8101829052600090605e016120d9565b60006040516020016121b3906020808252600a908201526914149250d157d191515160b21b604082015260600190565b6040516020818303038152906040528051906020012082604051602001611d9f9291906132af565b60006040516020016121b390602080825260159082015274282924a1a2afa322a2a22fa6aaa62a24a82624a2a960591b604082015260600190565b60006040516020016121b3906020808252601d908201527f50524943455f464545445f4845415254424541545f4455524154494f4e000000604082015260600190565b60006040516020016121b3906020808252600c908201526b535441424c455f505249434560a01b604082015260600190565b60008281526002602052604081205490036122b957604051634a7ed75160e11b815260040160405180910390fd5b6000828152600260205260408120556122d061260a565b60808101516122e0906001611f18565b604080518082019091526009815268616374696f6e4b657960b81b60208201526080820151612312916000908661204f565b60c0810151612322906001612449565b60408051808201909152600b81526a1858dd1a5bdb931858995b60aa1b602082015260c082015161235691600090856124ab565b604051630937807960e21b81526001600160a01b037f000000000000000000000000000000000000000000000000000000000000000016906324de01e490611ee190869085906004016135c9565b6000806123b083612571565b9150915080156123d4578160405162461bcd60e51b81526004016103c6919061360b565b6123dd83612601565b505050565b6040516d39b2ba2332b2a932b1b2b4bb32b960911b60208201526001600160601b0319606083901b16602e820152600090604201611d9f565b62069780600154111561244757600154604051633ebd9bc360e21b81526004016103c691815260200190565b565b806001600160401b0381111561246157612461613377565b604051908082528060200260200182016040528015611f7657816020015b604080518082019091526060808252602082015281526020019060019003908161247f57505090915250565b81846000015184815181106124c2576124c261338d565b60200260200101516000018190525080846000015184815181106124e8576124e861338d565b60200260200101516020018190525050505050565b600081815260026020526040812054900361252b57604051634a7ed75160e11b815260040160405180910390fd5b42600082815260026020526040902054111561256e576000818152600260205260409081902054905163082c8d6160e21b815260048101919091526024016103c6565b50565b60606000604483511015612598575050604080516020810190915260008082529092909150565b60006125a5846020015190565b90506307b9e43360e51b6001600160e01b03198216016125e457600484019350838060200190518101906125d9919061361e565b946001945092505050565b600060405180602001604052806000815250909250925050915091565b80518060208301fd5b604080516101208101909152606060e082018181526101008301919091528190815260200161264c604051806040016040528060608152602001606081525090565b815260200161266e604051806040016040528060608152602001606081525090565b8152602001612690604051806040016040528060608152602001606081525090565b81526020016126b2604051806040016040528060608152602001606081525090565b81526020016126d4604051806040016040528060608152602001606081525090565b81526020016126f6604051806040016040528060608152602001606081525090565b905290565b6001600160a01b038116811461256e57600080fd5b60006020828403121561272257600080fd5b813561272d816126fb565b9392505050565b600080600080600060a0868803121561274c57600080fd5b8535612757816126fb565b94506020860135612767816126fb565b94979496505050506040830135926060810135926080909101359150565b6000806040838503121561279857600080fd5b82356127a3816126fb565b946020939093013593505050565b6001600160a01b0391909116815260200190565b6000602082840312156127d757600080fd5b5035919050565b600080602083850312156127f157600080fd5b82356001600160401b038082111561280857600080fd5b818501915085601f83011261281c57600080fd5b81358181111561282b57600080fd5b8660208260051b850101111561284057600080fd5b60209290920196919550909350505050565b60005b8381101561286d578181015183820152602001612855565b50506000910152565b6000815180845261288e816020860160208601612852565b601f01601f19169290920160200192915050565b6000602080830181845280855180835260408601915060408160051b870101925083870160005b828110156128f757603f198886030184526128e5858351612876565b945092850192908501906001016128c9565b5092979650505050505050565b6020808252600e908201526d2a24a6a2a627a1a5afa0a226a4a760911b604082015260600190565b6020808252601f908201527f5265656e7472616e637947756172643a207265656e7472616e742063616c6c00604082015260600190565b600081518084526020808501808196508360051b810191508286016000805b868110156129fe578385038a528251604081518188526129a482890182612876565b92890151888403898b01528051808552908a01938693508a0191505b808310156129e95783516001600160a01b031682529289019260019290920191908901906129c0565b509b88019b9650505091850191600101612982565b509298975050505050505050565b60006040808401835182865281815180845260608801915060608160051b89010193506020808401935060005b82811015612a8357898603605f1901845284518051888852612a5d89890182612876565b918401516001600160a01b03169784019790975295509381019392810192600101612a39565b50808801519550888503818a015250505050612a9f8183612963565b95945050505050565b600081518084526020808501808196508360051b810191508286016000805b868110156129fe578385038a52825160408151818852612ae982890182612876565b92890151888403898b01528051808552908a01938693508a0191505b80831015612b255783518252928901926001929092019190890190612b05565b509b88019b9650505091850191600101612ac7565b60006040808401835182865281815180845260608801915060608160051b89010193506020808401935060005b82811015612ba857898603605f1901845284518051888852612b8b89890182612876565b918401519784019790975295509381019392810192600101612b67565b50808801519550888503818a015250505050612a9f8183612aa8565b60006040808401835182865281815180845260608801915060608160051b89010193506020808401935060005b82811015612ba857898603605f1901845284518051888852612c1589890182612876565b918401519784019790975295509381019392810192600101612bf1565b600081518084526020808501808196508360051b810191508286016000805b868110156129fe578385038a52825160408151818852612c7382890182612876565b92890151888403898b01528051808552908a01938693508a0191505b80831015612cb157835115158252928901926001929092019190890190612c8f565b509b88019b9650505091850191600101612c51565b60006040808401835182865281815180845260608801915060608160051b89010193506020808401935060005b82811015612d3657898603605f1901845284518051888852612d1789890182612876565b9184015115159784019790975295509381019392810192600101612cf3565b50808801519550888503818a015250505050612a9f8183612c32565b60006040808401835182865281815180845260608801915060608160051b89010193506020808401935060005b82811015612ba857898603605f1901845284518051888852612da389890182612876565b918401519784019790975295509381019392810192600101612d7f565b600081518084526020808501808196506005915083821b81018387016000805b87811015612e6b578484038b52825160408151818752612e0282880182612876565b928a0151878403888c01528051808552908b019392508a83019150808a1b83018b01865b82811015612e5457601f19858303018452612e42828751612876565b958d0195938d01939150600101612e26565b509e8b019e97505050938801935050600101612de0565b50919998505050505050505050565b60006040808401835182865281815180845260608801915060608160051b89010193506020808401935060005b82811015612ef757898603605f1901845284518051888852612ecb89890182612876565b9184015188830389860152919050612ee38183612876565b975050509381019392810192600101612ea7565b50808801519550888503818a015250505050612a9f8183612dc0565b600081518084526020808501808196506005915083821b81018387016000805b87811015612e6b578484038b52825160408151818752612f5582880182612876565b928a0151878403888c01528051808552908b019392508a83019150808a1b83018b01865b82811015612fa757601f19858303018452612f95828751612876565b958d0195938d01939150600101612f79565b509e8b019e97505050938801935050600101612f33565b60006040808401835182865281815180845260608801915060608160051b89010193506020808401935060005b8281101561303b57898603605f190184528451805188885261300f89890182612876565b91840151888303898601529190506130278183612876565b975050509381019392810192600101612feb565b50808801519550888503818a015250505050612a9f8183612f13565b6000815160e0845261306c60e0850182612a0c565b9050602083015184820360208601526130858282612b3a565b9150506040830151848203604086015261309f8282612bc4565b915050606083015184820360608601526130b98282612cc6565b915050608083015184820360808601526130d38282612d52565b91505060a083015184820360a08601526130ed8282612e7a565b91505060c083015184820360c0860152612a9f8282612fbe565b60608152601560608201527429b4b3b730b620b23227b930b1b632a9b4b3b732b960591b608082015282602082015260a06040820152600061314c60a0830184613057565b949350505050565b60608152601260608201527114da59db985b14d95d141c9a58d95199595960721b608082015282602082015260a06040820152600061314c60a0830184613057565b6001600160a01b03929092168252602082015260400190565b6060815260096060820152684772616e74526f6c6560b81b608082015282602082015260a06040820152600061314c60a0830184613057565b60608152600f60608201526e20b23227b930b1b632a9b4b3b732b960891b608082015282602082015260a06040820152600061314c60a0830184613057565b60608152601860608201527729b4b3b730b62932b6b7bb32a7b930b1b632a9b4b3b732b960411b608082015282602082015260a06040820152600061314c60a0830184613057565b60608152601060608201526f5369676e616c5265766f6b65526f6c6560801b608082015282602082015260a06040820152600061314c60a0830184613057565b9182526001600160a01b0316602082015260400190565b6000602082840312156132d857600080fd5b815161272d816126fb565b6000602082840312156132f557600080fd5b5051919050565b60608152600c60608201526b14d95d141c9a58d95199595960a21b608082015282602082015260a06040820152600061314c60a0830184613057565b60608152600f60608201526e5369676e616c4772616e74526f6c6560881b608082015282602082015260a06040820152600061314c60a0830184613057565b634e487b7160e01b600052604160045260246000fd5b634e487b7160e01b600052603260045260246000fd5b6000808335601e198436030181126133ba57600080fd5b8301803591506001600160401b038211156133d457600080fd5b6020019150368190038213156133e957600080fd5b9250929050565b8183823760009101908152919050565b634e487b7160e01b600052601160045260246000fd5b60006001820161342857613428613400565b5060010190565b60608152601460608201527329b4b3b730b629b2ba2332b2a932b1b2b4bb32b960611b608082015282602082015260a06040820152600061314c60a0830184613057565b6060815260126060820152712932b6b7bb32a7b930b1b632a9b4b3b732b960711b608082015282602082015260a06040820152600061314c60a0830184613057565b60608152600e60608201526d29b2ba2332b2a932b1b2b4bb32b960911b608082015282602082015260a06040820152600061314c60a0830184613057565b60608152600a6060820152695265766f6b65526f6c6560b01b608082015282602082015260a06040820152600061314c60a0830184613057565b60006020828403121561353f57600080fd5b8151801515811461272d57600080fd5b6001600160a01b038316815260406020820181905260009061314c90830184612876565b808201808211156115ed576115ed613400565b60608152601360608201527229b4b3b730b62832b73234b733a0b1ba34b7b760691b608082015282602082015260a06040820152600061314c60a0830184613057565b60608152601260608201527121b632b0b92832b73234b733a0b1ba34b7b760711b608082015282602082015260a06040820152600061314c60a0830184613057565b60208152600061272d6020830184612876565b60006020828403121561363057600080fd5b81516001600160401b038082111561364757600080fd5b818401915084601f83011261365b57600080fd5b81518181111561366d5761366d613377565b604051601f8201601f19908116603f0116810190838211818310171561369557613695613377565b816040528281528760208487010111156136ae57600080fd5b6136bf836020830160208801612852565b97965050505050505056fea2646970667358221220d6d8da266f2a112e6301ac36cc9bea50254c17afd237e01c1be2275d30c4287f64736f6c63430008120033",
  "linkReferences": {},
  "deployedLinkReferences": {}
}