{
  "_format": "hh-sol-artifact-1",
  "contractName": "WithdrawalStoreUtilsTest",
  "sourceName": "contracts/test/WithdrawalStoreUtilsTest.sol",
  "abi": [
    {
      "inputs": [],
      "name": "getEmptyWithdrawal",
      "outputs": [
        {
          "components": [
            {
              "components": [
                {
                  "internalType": "address",
                  "name": "account",
                  "type": "address"
                },
                {
                  "internalType": "address",
                  "name": "receiver",
                  "type": "address"
                },
                {
                  "internalType": "address",
                  "name": "callbackContract",
                  "type": "address"
                },
                {
                  "internalType": "address",
                  "name": "uiFeeReceiver",
                  "type": "address"
                },
                {
                  "internalType": "address",
                  "name": "market",
                  "type": "address"
                },
                {
                  "internalType": "address[]",
                  "name": "longTokenSwapPath",
                  "type": "address[]"
                },
                {
                  "internalType": "address[]",
                  "name": "shortTokenSwapPath",
                  "type": "address[]"
                }
              ],
              "internalType": "struct Withdrawal.Addresses",
              "name": "addresses",
              "type": "tuple"
            },
            {
              "components": [
                {
                  "internalType": "uint256",
                  "name": "marketTokenAmount",
                  "type": "uint256"
                },
                {
                  "internalType": "uint256",
                  "name": "minLongTokenAmount",
                  "type": "uint256"
                },
                {
                  "internalType": "uint256",
                  "name": "minShortTokenAmount",
                  "type": "uint256"
                },
                {
                  "internalType": "uint256",
                  "name": "updatedAtBlock",
                  "type": "uint256"
                },
                {
                  "internalType": "uint256",
                  "name": "executionFee",
                  "type": "uint256"
                },
                {
                  "internalType": "uint256",
                  "name": "callbackGasLimit",
                  "type": "uint256"
                }
              ],
              "internalType": "struct Withdrawal.Numbers",
              "name": "numbers",
              "type": "tuple"
            },
            {
              "components": [
                {
                  "internalType": "bool",
                  "name": "shouldUnwrapNativeToken",
                  "type": "bool"
                }
              ],
              "internalType": "struct Withdrawal.Flags",
              "name": "flags",
              "type": "tuple"
            }
          ],
          "internalType": "struct Withdrawal.Props",
          "name": "",
          "type": "tuple"
        }
      ],
      "stateMutability": "pure",
      "type": "function"
    },
    {
      "inputs": [
        {
          "internalType": "contract DataStore",
          "name": "dataStore",
          "type": "address"
        },
        {
          "internalType": "bytes32",
          "name": "key",
          "type": "bytes32"
        },
        {
          "internalType": "address",
          "name": "account",
          "type": "address"
        }
      ],
      "name": "removeWithdrawal",
      "outputs": [],
      "stateMutability": "nonpayable",
      "type": "function"
    },
    {
      "inputs": [
        {
          "internalType": "contract DataStore",
          "name": "dataStore",
          "type": "address"
        },
        {
          "internalType": "bytes32",
          "name": "key",
          "type": "bytes32"
        },
        {
          "components": [
            {
              "components": [
                {
                  "internalType": "address",
                  "name": "account",
                  "type": "address"
                },
                {
                  "internalType": "address",
                  "name": "receiver",
                  "type": "address"
                },
                {
                  "internalType": "address",
                  "name": "callbackContract",
                  "type": "address"
                },
                {
                  "internalType": "address",
                  "name": "uiFeeReceiver",
                  "type": "address"
                },
                {
                  "internalType": "address",
                  "name": "market",
                  "type": "address"
                },
                {
                  "internalType": "address[]",
                  "name": "longTokenSwapPath",
                  "type": "address[]"
                },
                {
                  "internalType": "address[]",
                  "name": "shortTokenSwapPath",
                  "type": "address[]"
                }
              ],
              "internalType": "struct Withdrawal.Addresses",
              "name": "addresses",
              "type": "tuple"
            },
            {
              "components": [
                {
                  "internalType": "uint256",
                  "name": "marketTokenAmount",
                  "type": "uint256"
                },
                {
                  "internalType": "uint256",
                  "name": "minLongTokenAmount",
                  "type": "uint256"
                },
                {
                  "internalType": "uint256",
                  "name": "minShortTokenAmount",
                  "type": "uint256"
                },
                {
                  "internalType": "uint256",
                  "name": "updatedAtBlock",
                  "type": "uint256"
                },
                {
                  "internalType": "uint256",
                  "name": "executionFee",
                  "type": "uint256"
                },
                {
                  "internalType": "uint256",
                  "name": "callbackGasLimit",
                  "type": "uint256"
                }
              ],
              "internalType": "struct Withdrawal.Numbers",
              "name": "numbers",
              "type": "tuple"
            },
            {
              "components": [
                {
                  "internalType": "bool",
                  "name": "shouldUnwrapNativeToken",
                  "type": "bool"
                }
              ],
              "internalType": "struct Withdrawal.Flags",
              "name": "flags",
              "type": "tuple"
            }
          ],
          "internalType": "struct Withdrawal.Props",
          "name": "withdrawal",
          "type": "tuple"
        }
      ],
      "name": "setWithdrawal",
      "outputs": [],
      "stateMutability": "nonpayable",
      "type": "function"
    }
  ],
  "bytecode": "0x608060405234801561001057600080fd5b506107eb806100206000396000f3fe608060405234801561001057600080fd5b50600436106100415760003560e01c8063ab4f9d7f14610046578063bfd8ccd11461005b578063fb909db31461006e575b600080fd5b610059610054366004610218565b61008c565b005b610059610069366004610428565b61010c565b610076610147565b6040516100839190610607565b60405180910390f35b6040516374b6fe1360e01b81526001600160a01b038085166004830152602482018490528216604482015273__$3dc24d71d6ebafc0c4ce8ac2f69cd1548a$__906374b6fe13906064015b60006040518083038186803b1580156100ef57600080fd5b505af4158015610103573d6000803e3d6000fd5b50505050505050565b604051631a9d46f160e21b815273__$3dc24d71d6ebafc0c4ce8ac2f69cd1548a$__90636a751bc4906100d7908690869086906004016106d5565b61014f61015c565b61015761015c565b919050565b604080516101408101909152600060608083018281526080840183905260a0840183905260c0840183905260e08401929092526101008301819052610120830152819081526020016101dd6040518060c001604052806000815260200160008152602001600081526020016000815260200160008152602001600081525090565b81526040805160208181019092526000815291015290565b6001600160a01b038116811461020a57600080fd5b50565b8035610157816101f5565b60008060006060848603121561022d57600080fd5b8335610238816101f5565b925060208401359150604084013561024f816101f5565b809150509250925092565b634e487b7160e01b600052604160045260246000fd5b604051606081016001600160401b03811182821017156102925761029261025a565b60405290565b60405160e081016001600160401b03811182821017156102925761029261025a565b600082601f8301126102cb57600080fd5b813560206001600160401b03808311156102e7576102e761025a565b8260051b604051601f19603f8301168101818110848211171561030c5761030c61025a565b60405293845285810183019383810192508785111561032a57600080fd5b83870191505b84821015610352578135610343816101f5565b83529183019190830190610330565b979650505050505050565b600060c0828403121561036f57600080fd5b60405160c081016001600160401b03811182821017156103915761039161025a565b8060405250809150823581526020830135602082015260408301356040820152606083013560608201526080830135608082015260a083013560a08201525092915050565b6000602082840312156103e857600080fd5b604051602081016001600160401b038111828210171561040a5761040a61025a565b6040529050808235801515811461042057600080fd5b905292915050565b60008060006060848603121561043d57600080fd5b8335610448816101f5565b92506020840135915060408401356001600160401b038082111561046b57600080fd5b90850190610100828803121561048057600080fd5b610488610270565b82358281111561049757600080fd5b830160e0818a0312156104a957600080fd5b6104b1610298565b6104ba8261020d565b81526104c86020830161020d565b60208201526104d96040830161020d565b60408201526104ea6060830161020d565b60608201526104fb6080830161020d565b608082015260a08201358481111561051257600080fd5b61051e8b8285016102ba565b60a08301525060c08201358481111561053657600080fd5b6105428b8285016102ba565b60c083015250825250610558886020850161035d565b602082015261056a8860e085016103d6565b60408201528093505050509250925092565b6001600160a01b03169052565b600081518084526020808501945080840160005b838110156105c25781516001600160a01b03168752958201959082019060010161059d565b509495945050505050565b805182526020810151602083015260408101516040830152606081015160608301526080810151608083015260a081015160a08301525050565b602081526000825161010080602085015260018060a01b0380835116610120860152806020840151166101408601528060408401511661016086015250606082015161065761018086018261057c565b50608082015161066b6101a086018261057c565b5060a082015160e06101c0860152610687610200860182610589565b905060c0830151925061011f19858203016101e08601526106a88184610589565b92505060208501516106bd60408601826105cd565b50604085015180511515858301525090949350505050565b600060018060a01b03808616835284602084015260606040840152835161010060608501528181511661016085015281602082015116610180850152816040820151166101a0850152606081015191506107336101c085018361057c565b608081015191506107486101e085018361057c565b60a0810151915060e0610200850152610765610240850183610589565b915060c0810151905061015f19848303016102208501526107868282610589565b915050602084015161079b60808501826105cd565b50604084015180511515610140850152509594505050505056fea264697066735822122054008eedc66a6f9fe50c341ca76d6ced4722d54796895a2e30c1c2123163905964736f6c63430008120033",
  "linkReferences": {
    "contracts/withdrawal/WithdrawalStoreUtils.sol": {
      "WithdrawalStoreUtils": [
        {
          "length": 20,
          "start": 217
        },
        {
          "length": 20,
          "start": 315
        }
      ]
    }
  },
  "deployedLinkReferences": {
    "contracts/withdrawal/WithdrawalStoreUtils.sol": {
      "WithdrawalStoreUtils": [
        {
          "length": 20,
          "start": 185
        },
        {
          "length": 20,
          "start": 283
        }
      ]
    }
  }
}